{
    "abi": [
        {
            "type": "constructor",
            "inputs": [
                {
                    "name": "entryPoint",
                    "type": "address",
                    "internalType": "contract IEntryPoint"
                },
                {
                    "name": "_dkim",
                    "type": "address",
                    "internalType": "address"
                }
            ],
            "stateMutability": "nonpayable"
        },
        {
            "type": "function",
            "name": "create",
            "inputs": [
                {
                    "name": "owner",
                    "type": "address",
                    "internalType": "address"
                },
                {
                    "name": "salt",
                    "type": "uint256",
                    "internalType": "uint256"
                }
            ],
            "outputs": [
                {
                    "name": "",
                    "type": "address",
                    "internalType": "contract Wallet"
                }
            ],
            "stateMutability": "nonpayable"
        },
        {
            "type": "function",
            "name": "createAccount",
            "inputs": [
                {
                    "name": "owner",
                    "type": "address",
                    "internalType": "address"
                },
                {
                    "name": "salt",
                    "type": "uint256",
                    "internalType": "uint256"
                },
                {
                    "name": "commitment",
                    "type": "bytes",
                    "internalType": "bytes"
                }
            ],
            "outputs": [
                {
                    "name": "",
                    "type": "address",
                    "internalType": "contract Wallet"
                }
            ],
            "stateMutability": "nonpayable"
        },
        {
            "type": "function",
            "name": "dkim",
            "inputs": [],
            "outputs": [
                {
                    "name": "",
                    "type": "address",
                    "internalType": "address"
                }
            ],
            "stateMutability": "view"
        },
        {
            "type": "function",
            "name": "getAddress",
            "inputs": [
                {
                    "name": "owner",
                    "type": "address",
                    "internalType": "address"
                },
                {
                    "name": "salt",
                    "type": "uint256",
                    "internalType": "uint256"
                },
                {
                    "name": "commitment",
                    "type": "bytes",
                    "internalType": "bytes"
                }
            ],
            "outputs": [
                {
                    "name": "",
                    "type": "address",
                    "internalType": "address"
                }
            ],
            "stateMutability": "view"
        },
        {
            "type": "function",
            "name": "walletImplementation",
            "inputs": [],
            "outputs": [
                {
                    "name": "",
                    "type": "address",
                    "internalType": "contract Wallet"
                }
            ],
            "stateMutability": "view"
        }
    ],
    "bytecode": {
        "object": "0x60a060405234801561001057600080fd5b50604051613e95380380613e9583398101604081905261002f916100ba565b8160405161003c90610095565b6001600160a01b039091168152602001604051809103906000f080158015610068573d6000803e3d6000fd5b506001600160a01b03908116608052600080546001600160a01b03191692909116919091179055506100f4565b6131d480610cc183390190565b6001600160a01b03811681146100b757600080fd5b50565b600080604083850312156100cd57600080fd5b82516100d8816100a2565b60208401519092506100e9816100a2565b809150509250929050565b608051610b9e6101236000396000818160b601528181610166015281816101be015261033a0152610b9e6000f3fe608060405234801561001057600080fd5b50600436106100575760003560e01c80630ecaea731461005c578063400ad5ce1461008b5780635abb2d5b1461009e5780638117abc1146100b1578063ef67dc69146100d8575b600080fd5b61006f61006a36600461051c565b6100eb565b6040516001600160a01b03909116815260200160405180910390f35b60005461006f906001600160a01b031681565b61006f6100ac36600461055c565b61018b565b61006f7f000000000000000000000000000000000000000000000000000000000000000081565b61006f6100e636600461055c565b610274565b60006101146040518060400160405280600681526020016563726561746560d01b8152506103c7565b61013c6040518060400160405280600681526020016537bbb732b91d60d11b8152508461040d565b6101636040518060400160405280600581526020016439b0b63a1d60d91b81525083610456565b507f000000000000000000000000000000000000000000000000000000000000000092915050565b600061026a8360001b604051806020016101a4906104f3565b601f1982820381018352601f9091011660408190526000547f0000000000000000000000000000000000000000000000000000000000000000916101f8916001600160a01b0316908a908990602401610677565b60408051601f19818403018152918152602080830180516001600160e01b031663cf7a1d7760e01b1790529051610231939291016106ac565b60408051601f198184030181529082905261024f92916020016106d0565b6040516020818303038152906040528051906020012061049b565b90505b9392505050565b60008061028285858561018b565b90506001600160a01b0381163b801561029d5750905061026d565b6102c2604051806040016040528060048152602001637171717160e01b8152506103c7565b600080546040516102e3916001600160a01b03169089908890602401610677565b60408051601f19818403018152918152602080830180516001600160e01b031663cf7a1d7760e01b179052815180830190925260048252637171717160e01b90820152909150610332906103c7565b60008660001b7f000000000000000000000000000000000000000000000000000000000000000083604051610366906104f3565b6103719291906106ac565b8190604051809103906000f5905080158015610391573d6000803e3d6000fd5b5090506103bc604051806040016040528060078152602001663bb0b63632ba1d60c91b8152506103c7565b979650505050505050565b61040a816040516024016103db91906106ff565b60408051601f198184030181529190526020810180516001600160e01b031663104c13eb60e21b1790526104a8565b50565b6104528282604051602401610423929190610712565b60408051601f198184030181529190526020810180516001600160e01b031663319af33360e01b1790526104a8565b5050565b610452828260405160240161046c92919061073c565b60408051601f198184030181529190526020810180516001600160e01b03166309710a9d60e41b1790526104a8565b600061026d8383306104c9565b80516a636f6e736f6c652e6c6f67602083016000808483855afa5050505050565b6000604051836040820152846020820152828152600b8101905060ff815360559020949350505050565b61040a8061075f83390190565b80356001600160a01b038116811461051757600080fd5b919050565b6000806040838503121561052f57600080fd5b61053883610500565b946020939093013593505050565b634e487b7160e01b600052604160045260246000fd5b60008060006060848603121561057157600080fd5b61057a84610500565b925060208401359150604084013567ffffffffffffffff8082111561059e57600080fd5b818601915086601f8301126105b257600080fd5b8135818111156105c4576105c4610546565b604051601f8201601f19908116603f011681019083821181831017156105ec576105ec610546565b8160405282815289602084870101111561060557600080fd5b8260208601602083013760006020848301015280955050505050509250925092565b60005b8381101561064257818101518382015260200161062a565b50506000910152565b60008151808452610663816020860160208601610627565b601f01601f19169290920160200192915050565b6001600160a01b038481168252831660208201526060604082018190526000906106a39083018461064b565b95945050505050565b6001600160a01b038316815260406020820181905260009061026a9083018461064b565b600083516106e2818460208801610627565b8351908301906106f6818360208801610627565b01949350505050565b60208152600061026d602083018461064b565b604081526000610725604083018561064b565b905060018060a01b03831660208301529392505050565b60408152600061074f604083018561064b565b9050826020830152939250505056fe608060405260405161040a38038061040a83398101604081905261002291610268565b61002c8282610033565b5050610352565b61003c82610092565b6040516001600160a01b038316907fbc7cd75a20ee27fd9adebab32041f755214dbc6bffa90cc0225b39da2e5c2d3b90600090a280511561008657610081828261010e565b505050565b61008e610185565b5050565b806001600160a01b03163b6000036100cd57604051634c9c8ce360e01b81526001600160a01b03821660048201526024015b60405180910390fd5b7f360894a13ba1a3210667c828492db98dca3e2076cc3735a920a3ca505d382bbc80546001600160a01b0319166001600160a01b0392909216919091179055565b6060600080846001600160a01b03168460405161012b9190610336565b600060405180830381855af49150503d8060008114610166576040519150601f19603f3d011682016040523d82523d6000602084013e61016b565b606091505b50909250905061017c8583836101a6565b95945050505050565b34156101a45760405163b398979f60e01b815260040160405180910390fd5b565b6060826101bb576101b682610205565b6101fe565b81511580156101d257506001600160a01b0384163b155b156101fb57604051639996b31560e01b81526001600160a01b03851660048201526024016100c4565b50805b9392505050565b8051156102155780518082602001fd5b604051630a12f52160e11b815260040160405180910390fd5b634e487b7160e01b600052604160045260246000fd5b60005b8381101561025f578181015183820152602001610247565b50506000910152565b6000806040838503121561027b57600080fd5b82516001600160a01b038116811461029257600080fd5b60208401519092506001600160401b03808211156102af57600080fd5b818501915085601f8301126102c357600080fd5b8151818111156102d5576102d561022e565b604051601f8201601f19908116603f011681019083821181831017156102fd576102fd61022e565b8160405282815288602084870101111561031657600080fd5b610327836020830160208801610244565b80955050505050509250929050565b60008251610348818460208701610244565b9190910192915050565b60aa806103606000396000f3fe6080604052600a600c565b005b60186014601a565b6051565b565b6000604c7f360894a13ba1a3210667c828492db98dca3e2076cc3735a920a3ca505d382bbc546001600160a01b031690565b905090565b3660008037600080366000845af43d6000803e808015606f573d6000f35b3d6000fdfea2646970667358221220b1b1a1f8690e3595b4a90592833edcd50c1216ddcf22395e67282724426a7fe264736f6c63430008190033a26469706673582212205f89d4b293a4f4f8b7081f61ce1c0e0e411be711633005ddaf7b9d00567f657464736f6c6343000819003360c06040523060805234801561001457600080fd5b506040516131d43803806131d4833981016040819052610033916100c4565b338061005957604051631e4fbdf760e01b81526000600482015260240160405180910390fd5b61006281610074565b506001600160a01b031660a0526100f4565b600080546001600160a01b038381166001600160a01b0319831681178455604051919092169283917f8be0079c531659141344cd1fd0a4f28419497f9722a3daafe3b4186f6b6457e09190a35050565b6000602082840312156100d657600080fd5b81516001600160a01b03811681146100ed57600080fd5b9392505050565b60805160a05161307c610158600039600081816105ac01528181610a3001528181610bfc0152818161132c01528181611409015281816115d90152818161178f0152611cf00152600081816119fa01528181611a230152611b69015261307c6000f3fe6080604052600436106102295760003560e01c8063734cd1e211610123578063b61d27f6116100ab578063d087d2881161006f578063d087d28814610672578063da67bcc414610687578063ed894cd3146106b5578063f23a6e61146106cb578063f2fde38b146106f857600080fd5b8063b61d27f6146105d0578063bc197c81146105f0578063bf4f839e1461061f578063c399ec881461063d578063cf7a1d771461065257600080fd5b80639c004270116100f25780639c00427014610521578063a87d942c14610541578063ad3cb1cc14610556578063affed0e014610587578063b0d691fe1461059d57600080fd5b8063734cd1e2146104b057806377d32e94146104c357806387ca8f3b146104e35780638da5cb5b1461050357600080fd5b80632921ca69116101b15780634afa99fd116101755780634afa99fd146104335780634f1ef2861461045357806352d1902d14610466578063589bc4a21461047b578063715018a61461049b57600080fd5b80632921ca69146103a057806329d3d1b2146103c05780633bd5b8d5146103d557806347e1da2a1461040b5780634a58db191461042b57600080fd5b80631303a484116101f85780631303a484146102d957806313122cc2146102fb578063150b7a021461031b57806319822f7c146103605780631d06d40d1461038057600080fd5b806301ffc9a71461023557806306661abd1461026a5780630a6374fe1461028e57806312065fe0146102c657600080fd5b3661023057005b600080fd5b34801561024157600080fd5b506102556102503660046121ec565b610718565b60405190151581526020015b60405180910390f35b34801561027657600080fd5b5061028060035481565b604051908152602001610261565b34801561029a57600080fd5b506002546102ae906001600160a01b031681565b6040516001600160a01b039091168152602001610261565b3480156102d257600080fd5b5047610280565b3480156102e557600080fd5b506102ee61076a565b6040516102619190612266565b34801561030757600080fd5b506102ee610316366004612295565b6107f8565b34801561032757600080fd5b506103476103363660046122f8565b630a85bd0160e11b95945050505050565b6040516001600160e01b03199091168152602001610261565b34801561036c57600080fd5b5061028061037b366004612366565b61083d565b34801561038c57600080fd5b506102ee61039b36600461247c565b61088b565b3480156103ac57600080fd5b506007546102ae906001600160a01b031681565b6103d36103ce36600461253e565b61089e565b005b3480156103e157600080fd5b506102ae6103f03660046121ec565b6001602052600090815260409020546001600160a01b031681565b34801561041757600080fd5b506103d36104263660046125db565b610a25565b6103d3610bca565b34801561043f57600080fd5b506103d361044e366004612674565b610c7a565b6103d36104613660046126b0565b610c92565b34801561047257600080fd5b50610280610cad565b34801561048757600080fd5b5061025561049636600461270b565b610cca565b3480156104a757600080fd5b506103d3610ff3565b6103d36104be3660046127b8565b611007565b3480156104cf57600080fd5b506102ae6104de36600461280e565b6110f9565b3480156104ef57600080fd5b506103d36104fe36600461283e565b6111ef565b34801561050f57600080fd5b506000546001600160a01b03166102ae565b34801561052d57600080fd5b506103d361053c3660046121ec565b611274565b34801561054d57600080fd5b50600354610280565b34801561056257600080fd5b506102ee604051806040016040528060058152602001640352e302e360dc1b81525081565b34801561059357600080fd5b5061028060045481565b3480156105a957600080fd5b507f00000000000000000000000000000000000000000000000000000000000000006102ae565b3480156105dc57600080fd5b506103d36105eb366004612890565b611321565b3480156105fc57600080fd5b5061034761060b3660046128d1565b63bc197c8160e01b98975050505050505050565b34801561062b57600080fd5b5061028061063a36600461298b565b90565b34801561064957600080fd5b506102806113e9565b34801561065e57600080fd5b506103d361066d3660046129a4565b61147a565b34801561067e57600080fd5b506102806115b2565b34801561069357600080fd5b506106a76106a2366004612674565b611608565b6040516102619291906129eb565b3480156106c157600080fd5b5061028060055481565b3480156106d757600080fd5b506103476106e6366004612a06565b63f23a6e6160e01b9695505050505050565b34801561070457600080fd5b506103d3610713366004612295565b611703565b60006001600160e01b03198216630a85bd0160e11b148061074957506001600160e01b03198216630271189760e51b145b8061076457506001600160e01b031982166301ffc9a760e01b145b92915050565b6006805461077790612a6b565b80601f01602080910402602001604051908101604052809291908181526020018280546107a390612a6b565b80156107f05780601f106107c5576101008083540402835291602001916107f0565b820191906000526020600020905b8154815290600101906020018083116107d357829003601f168201915b505050505081565b606060055460016108099190612abb565b6040805160208101929092526001600160a01b038416908201526060015b6040516020818303038152906040529050919050565b6000610867604051806040016040528060078152602001661919191919191960c91b815250611741565b61086f611784565b61087984846117fc565b905061088482611930565b9392505050565b6060816040516020016108279190612ace565b838060045460016108af9190612abb565b146108f15760405162461bcd60e51b815260206004820152600d60248201526c496e76616c6964206e6f6e636560981b60448201526064015b60405180910390fd5b600085856040516020016109189291909182526001600160a01b0316602082015260400190565b604051602081830303815290604052905060008180519060200120905060006109778287878080601f0160208091040260200160405190810160405280939291908181526020018383808284376000920191909152506110f992505050565b905061098b6000546001600160a01b031690565b6001600160a01b0316816001600160a01b0316146109eb5760405162461bcd60e51b815260206004820152601860248201527f41757468206661696c65643a204f6e6c79206f776e657221000000000000000060448201526064016108e8565b5050600280546001600160a01b0319166001600160a01b0387161790555060048054906000610a1983612b32565b91905055505050505050565b336001600160a01b037f0000000000000000000000000000000000000000000000000000000000000000161480610a6657506000546001600160a01b031633145b610a825760405162461bcd60e51b81526004016108e890612b4b565b848114610ac75760405162461bcd60e51b815260206004820152601360248201527277726f6e67206465737473206c656e6774687360681b60448201526064016108e8565b828114610b0d5760405162461bcd60e51b815260206004820152601460248201527377726f6e672076616c756573206c656e6774687360601b60448201526064016108e8565b60005b85811015610bc157610bb9878783818110610b2d57610b2d612b96565b9050602002016020810190610b429190612295565b868684818110610b5457610b54612b96565b90506020020135858585818110610b6d57610b6d612b96565b9050602002810190610b7f9190612bac565b8080601f01602080910402602001604051908101604052809392919081815260200183838082843760009201919091525061100792505050565b600101610b10565b50505050505050565b610bfa6040518060400160405280600e81526020016d6164644465706f7369743a20257360901b8152503461197d565b7f000000000000000000000000000000000000000000000000000000000000000060405163b760faf960e01b81523060048201526001600160a01b03919091169063b760faf99034906024016000604051808303818588803b158015610c5f57600080fd5b505af1158015610c73573d6000803e3d6000fd5b5050505050565b610c826119c2565b6006610c8e8282612c42565b5050565b610c9a6119ef565b610ca382611a94565b610c8e8282611a9c565b6000610cb7611b5e565b5060008051602061302783398151915290565b6002546005546040516314bf2aab60e21b8152600092839283926001600160a01b03909216916352fcaaac91610d0d918c918c918c91908c908c90600401612d01565b6040805180830381865afa158015610d29573d6000803e3d6000fd5b505050506040513d601f19601f82011682018060405250810190610d4d9190612d64565b604080516001808252818301909252929450909250600091906020808301908036833701905050905060008060068054610d8690612a6b565b80601f0160208091040260200160405190810160405280929190818152602001828054610db290612a6b565b8015610dff5780601f10610dd457610100808354040283529160200191610dff565b820191906000526020600020905b815481529060010190602001808311610de257829003601f168201915b5050505050806020019051810190610e179190612d92565b60408051600180825281830190925292945090925060009190816020015b604080518082019091526060815260006020820152815260200190600190039081610e355790505090508484600081518110610e7357610e73612b96565b60200260200101818152505060405180604001604052808481526020018381525081600081518110610ea757610ea7612b96565b6020908102919091010152600754604051638cf7bba160e01b81526001600160a01b0390911690638cf7bba190610ee49087908590600401612e12565b602060405180830381865afa158015610f01573d6000803e3d6000fd5b505050506040513d601f19601f82011682018060405250810190610f259190612ebf565b610f7f5760405162461bcd60e51b815260206004820152602560248201527f57616c6c6574205265636f766572793a2077726f6e6720656d61696c20616464604482015264726573732160d81b60648201526084016108e8565b85610fd85760405162461bcd60e51b8152602060048201526024808201527f57616c6c6574205265636f766572793a20444b494d20766572696679206661696044820152633632b21760e11b60648201526084016108e8565b610fe189611703565b5060019b9a5050505050505050505050565b610ffb6119c2565b6110056000611ba7565b565b61102f604051806040016040528060068152602001651d185c99d95d60d21b81525084611bf7565b6110566040518060400160405280600581526020016476616c756560d81b8152508361197d565b61105f81611c3c565b600080846001600160a01b0316848460405161107b9190612edc565b60006040518083038185875af1925050503d80600081146110b8576040519150601f19603f3d011682016040523d82523d6000602084013e6110bd565b606091505b50915091506110ec6040518060400160405280600881526020016739bab1b1b2b9b99d60c11b81525083611c7f565b81610c7357805160208201fd5b6020810151604082015160608301516000929190831a601b81101561112657611123601b82612ef8565b90505b8060ff16601b148061113b57508060ff16601c145b6111875760405162461bcd60e51b815260206004820152601960248201527f4543445341207369676e617475726520696e636f72726563740000000000000060448201526064016108e8565b60408051600081526020810180835288905260ff831691810191909152606081018490526080810183905260019060a0016020604051602081039080840390855afa1580156111da573d6000803e3d6000fd5b5050604051601f190151979650505050505050565b6111f76119c2565b60005b8181101561126e57836001600085858581811061121957611219612b96565b905060200201602081019061122e91906121ec565b6001600160e01b0319168152602081019190915260400160002080546001600160a01b0319166001600160a01b03929092169190911790556001016111fa565b50505050565b61127c6119c2565b6001600160e01b031981166000908152600160205260409020546001600160a01b03166112f95760405162461bcd60e51b815260206004820152602560248201527f506c7567696e52656769737472793a206d6574686f64206e6f742072656769736044820152641d195c995960da1b60648201526084016108e8565b6001600160e01b031916600090815260016020526040902080546001600160a01b0319169055565b336001600160a01b037f000000000000000000000000000000000000000000000000000000000000000016148061136257506000546001600160a01b031633145b61137e5760405162461bcd60e51b81526004016108e890612b4b565b6113a860405180604001604052806009815260200168457865637574696e6760b81b815250611741565b61126e848484848080601f01602080910402602001604051908101604052809392919081815260200183838082843760009201919091525061100792505050565b6040516370a0823160e01b81523060048201526000906001600160a01b037f000000000000000000000000000000000000000000000000000000000000000016906370a08231906024015b602060405180830381865afa158015611451573d6000803e3d6000fd5b505050506040513d601f19601f820116820180604052508101906114759190612f11565b905090565b7ff0c57e16840df040f15088dc2f81fe391c3923bec73e23a9662efc9c229c6a008054600160401b810460ff1615906001600160401b03166000811580156114bf5750825b90506000826001600160401b031660011480156114db5750303b155b9050811580156114e9575080155b156115075760405163f92ee8a960e01b815260040160405180910390fd5b845467ffffffffffffffff19166001178555831561153157845460ff60401b1916600160401b1785555b600280546001600160a01b0319166001600160a01b038a1617905560066115588782612c42565b5061156287611cc4565b83156115a857845460ff60401b19168555604051600181527fc7f505b2f371ae2175ee4913f4499e1f2633a7b5936321eed1cdaeb6115181d29060200160405180910390a15b5050505050505050565b604051631aab3f0d60e11b8152306004820152600060248201819052906001600160a01b037f000000000000000000000000000000000000000000000000000000000000000016906335567e1a90604401611434565b60006060600061161784611d47565b6001600160e01b031981166000908152600160205260409020549091506001600160a01b0316806116995760405162461bcd60e51b815260206004820152602660248201527f506c7567696e52656769737472793a206d6574686f64206e6f7420696d706c656044820152651b595b9d195960d21b60648201526084016108e8565b600080826001600160a01b0316876040516116b49190612edc565b600060405180830381855af49150503d80600081146116ef576040519150601f19603f3d011682016040523d82523d6000602084013e6116f4565b606091505b50909890975095505050505050565b61170b6119c2565b6001600160a01b03811661173557604051631e4fbdf760e01b8152600060048201526024016108e8565b61173e81611ba7565b50565b61173e816040516024016117559190612266565b60408051601f198184030181529190526020810180516001600160e01b031663104c13eb60e21b179052611da6565b336001600160a01b037f000000000000000000000000000000000000000000000000000000000000000016146110055760405162461bcd60e51b815260206004820152601c60248201527f6163636f756e743a206e6f742066726f6d20456e747279506f696e740000000060448201526064016108e8565b7f19457468657265756d205369676e6564204d6573736167653a0a3332000000006000908152601c829052603c812060006118798261183f610100880188612bac565b8080601f016020809104026020016040519081016040528093929190818152602001838380828437600092019190915250611dc792505050565b90506118af604051806040016040528060128152602001712932b1b7bb32b932b21030b2323932b9b99d60711b81525082611bf7565b6118f06040518060400160405280600e81526020016d27bbb732b91030b2323932b9b99d60911b8152506118eb6000546001600160a01b031690565b611bf7565b806001600160a01b031661190c6000546001600160a01b031690565b6001600160a01b03161461192557600192505050610764565b506000949350505050565b801561173e57604051600090339060001990849084818181858888f193505050503d8060008114610c73576040519150601f19603f3d011682016040523d82523d6000602084013e610c73565b610c8e8282604051602401611993929190612f2a565b60408051601f198184030181529190526020810180516001600160e01b03166309710a9d60e41b179052611da6565b6000546001600160a01b031633146110055760405163118cdaa760e01b81523360048201526024016108e8565b306001600160a01b037f0000000000000000000000000000000000000000000000000000000000000000161480611a7657507f00000000000000000000000000000000000000000000000000000000000000006001600160a01b0316611a6a600080516020613027833981519152546001600160a01b031690565b6001600160a01b031614155b156110055760405163703e46dd60e11b815260040160405180910390fd5b61173e611df1565b816001600160a01b03166352d1902d6040518163ffffffff1660e01b8152600401602060405180830381865afa925050508015611af6575060408051601f3d908101601f19168201909252611af391810190612f11565b60015b611b1e57604051634c9c8ce360e01b81526001600160a01b03831660048201526024016108e8565b6000805160206130278339815191528114611b4f57604051632a87526960e21b8152600481018290526024016108e8565b611b598383611e42565b505050565b306001600160a01b037f000000000000000000000000000000000000000000000000000000000000000016146110055760405163703e46dd60e11b815260040160405180910390fd5b600080546001600160a01b038381166001600160a01b0319831681178455604051919092169283917f8be0079c531659141344cd1fd0a4f28419497f9722a3daafe3b4186f6b6457e09190a35050565b610c8e8282604051602401611c0d929190612f4c565b60408051601f198184030181529190526020810180516001600160e01b031663319af33360e01b179052611da6565b61173e81604051602401611c509190612266565b60408051601f198184030181529190526020810180516001600160e01b03166305f3bfab60e11b179052611da6565b610c8e8282604051602401611c95929190612f76565b60408051601f198184030181529190526020810180516001600160e01b031663c3b5563560e01b179052611da6565b611ccd81611ba7565b6006604051611cdc9190612f9a565b6040518091039020816001600160a01b03167f00000000000000000000000000000000000000000000000000000000000000006001600160a01b03167f273af67187f122540bf897f1876ec138768416665008a39efec4edda4865917860405160405180910390a450565b6000600482511015611d9b5760405162461bcd60e51b815260206004820152601e60248201527f506c7567696e52656769737472793a204461746120746f6f2073686f7274000060448201526064016108e8565b506020015160e01c90565b80516a636f6e736f6c652e6c6f67602083016000808483855afa5050505050565b600080600080611dd78686611e98565b925092509250611de78282611ee5565b5090949350505050565b6000546001600160a01b0316331480611e0957503330145b6110055760405162461bcd60e51b815260206004820152600a60248201526937b7363c9037bbb732b960b11b60448201526064016108e8565b611e4b82611f9e565b6040516001600160a01b038316907fbc7cd75a20ee27fd9adebab32041f755214dbc6bffa90cc0225b39da2e5c2d3b90600090a2805115611e9057611b598282612003565b610c8e612079565b60008060008351604103611ed25760208401516040850151606086015160001a611ec488828585612098565b955095509550505050611ede565b50508151600091506002905b9250925092565b6000826003811115611ef957611ef9613010565b03611f02575050565b6001826003811115611f1657611f16613010565b03611f345760405163f645eedf60e01b815260040160405180910390fd5b6002826003811115611f4857611f48613010565b03611f695760405163fce698f760e01b8152600481018290526024016108e8565b6003826003811115611f7d57611f7d613010565b03610c8e576040516335e2f38360e21b8152600481018290526024016108e8565b806001600160a01b03163b600003611fd457604051634c9c8ce360e01b81526001600160a01b03821660048201526024016108e8565b60008051602061302783398151915280546001600160a01b0319166001600160a01b0392909216919091179055565b6060600080846001600160a01b0316846040516120209190612edc565b600060405180830381855af49150503d806000811461205b576040519150601f19603f3d011682016040523d82523d6000602084013e612060565b606091505b5091509150612070858383612167565b95945050505050565b34156110055760405163b398979f60e01b815260040160405180910390fd5b600080807f7fffffffffffffffffffffffffffffff5d576e7357a4501ddfe92f46681b20a08411156120d3575060009150600390508261215d565b604080516000808252602082018084528a905260ff891692820192909252606081018790526080810186905260019060a0016020604051602081039080840390855afa158015612127573d6000803e3d6000fd5b5050604051601f1901519150506001600160a01b0381166121535750600092506001915082905061215d565b9250600091508190505b9450945094915050565b60608261217c57612177826121c3565b610884565b815115801561219357506001600160a01b0384163b155b156121bc57604051639996b31560e01b81526001600160a01b03851660048201526024016108e8565b5080610884565b8051156121d35780518082602001fd5b604051630a12f52160e11b815260040160405180910390fd5b6000602082840312156121fe57600080fd5b81356001600160e01b03198116811461088457600080fd5b60005b83811015612231578181015183820152602001612219565b50506000910152565b60008151808452612252816020860160208601612216565b601f01601f19169290920160200192915050565b602081526000610884602083018461223a565b80356001600160a01b038116811461229057600080fd5b919050565b6000602082840312156122a757600080fd5b61088482612279565b60008083601f8401126122c257600080fd5b5081356001600160401b038111156122d957600080fd5b6020830191508360208285010111156122f157600080fd5b9250929050565b60008060008060006080868803121561231057600080fd5b61231986612279565b945061232760208701612279565b93506040860135925060608601356001600160401b0381111561234957600080fd5b612355888289016122b0565b969995985093965092949392505050565b60008060006060848603121561237b57600080fd5b83356001600160401b0381111561239157600080fd5b840161012081870312156123a457600080fd5b95602085013595506040909401359392505050565b634e487b7160e01b600052604160045260246000fd5b604051601f8201601f191681016001600160401b03811182821017156123f7576123f76123b9565b604052919050565b60006001600160401b03821115612418576124186123b9565b50601f01601f191660200190565b600082601f83011261243757600080fd5b813561244a612445826123ff565b6123cf565b81815284602083860101111561245f57600080fd5b816020850160208301376000918101602001919091529392505050565b6000602080838503121561248f57600080fd5b82356001600160401b03808211156124a657600080fd5b818501915085601f8301126124ba57600080fd5b8135818111156124cc576124cc6123b9565b8060051b6124db8582016123cf565b91825283810185019185810190898411156124f557600080fd5b86860192505b83831015612531578235858111156125135760008081fd5b6125218b89838a0101612426565b83525091860191908601906124fb565b9998505050505050505050565b6000806000806060858703121561255457600080fd5b8435935061256460208601612279565b925060408501356001600160401b0381111561257f57600080fd5b61258b878288016122b0565b95989497509550505050565b60008083601f8401126125a957600080fd5b5081356001600160401b038111156125c057600080fd5b6020830191508360208260051b85010111156122f157600080fd5b600080600080600080606087890312156125f457600080fd5b86356001600160401b038082111561260b57600080fd5b6126178a838b01612597565b9098509650602089013591508082111561263057600080fd5b61263c8a838b01612597565b9096509450604089013591508082111561265557600080fd5b5061266289828a01612597565b979a9699509497509295939492505050565b60006020828403121561268657600080fd5b81356001600160401b0381111561269c57600080fd5b6126a884828501612426565b949350505050565b600080604083850312156126c357600080fd5b6126cc83612279565b915060208301356001600160401b038111156126e757600080fd5b6126f385828601612426565b9150509250929050565b801515811461173e57600080fd5b600080600080600060a0868803121561272357600080fd5b85356001600160401b038082111561273a57600080fd5b61274689838a01612426565b9650602088013591508082111561275c57600080fd5b61276889838a01612426565b9550604088013591508082111561277e57600080fd5b5061278b88828901612426565b93505061279a60608701612279565b915060808601356127aa816126fd565b809150509295509295909350565b6000806000606084860312156127cd57600080fd5b6127d684612279565b92506020840135915060408401356001600160401b038111156127f857600080fd5b61280486828701612426565b9150509250925092565b6000806040838503121561282157600080fd5b8235915060208301356001600160401b038111156126e757600080fd5b60008060006040848603121561285357600080fd5b61285c84612279565b925060208401356001600160401b0381111561287757600080fd5b61288386828701612597565b9497909650939450505050565b600080600080606085870312156128a657600080fd5b6128af85612279565b93506020850135925060408501356001600160401b0381111561257f57600080fd5b60008060008060008060008060a0898b0312156128ed57600080fd5b6128f689612279565b975061290460208a01612279565b965060408901356001600160401b038082111561292057600080fd5b61292c8c838d01612597565b909850965060608b013591508082111561294557600080fd5b6129518c838d01612597565b909650945060808b013591508082111561296a57600080fd5b506129778b828c016122b0565b999c989b5096995094979396929594505050565b60006020828403121561299d57600080fd5b5035919050565b6000806000606084860312156129b957600080fd5b6129c284612279565b92506129d060208501612279565b915060408401356001600160401b038111156127f857600080fd5b82151581526040602082015260006126a8604083018461223a565b60008060008060008060a08789031215612a1f57600080fd5b612a2887612279565b9550612a3660208801612279565b9450604087013593506060870135925060808701356001600160401b03811115612a5f57600080fd5b61266289828a016122b0565b600181811c90821680612a7f57607f821691505b602082108103612a9f57634e487b7160e01b600052602260045260246000fd5b50919050565b634e487b7160e01b600052601160045260246000fd5b8082018082111561076457610764612aa5565b600060208083016020845280855180835260408601915060408160051b87010192506020870160005b82811015612b2557603f19888603018452612b1385835161223a565b94509285019290850190600101612af7565b5092979650505050505050565b600060018201612b4457612b44612aa5565b5060010190565b6020808252602b908201527f6f6e6c7920656e74727920706f696e74206f722077616c6c657420666163746f60408201526a1c9e4818d85b8818d85b1b60aa1b606082015260800190565b634e487b7160e01b600052603260045260246000fd5b6000808335601e19843603018112612bc357600080fd5b8301803591506001600160401b03821115612bdd57600080fd5b6020019150368190038213156122f157600080fd5b601f821115611b59576000816000526020600020601f850160051c81016020861015612c1b5750805b601f850160051c820191505b81811015612c3a57828155600101612c27565b505050505050565b81516001600160401b03811115612c5b57612c5b6123b9565b612c6f81612c698454612a6b565b84612bf2565b602080601f831160018114612ca45760008415612c8c5750858301515b600019600386901b1c1916600185901b178555612c3a565b600085815260208120601f198616915b82811015612cd357888601518255948401946001909101908401612cb4565b5085821015612cf15787850151600019600388901b60f8161c191681555b5050505050600190811b01905550565b60c081526000612d1460c083018961223a565b8281036020840152612d26818961223a565b90508281036040840152612d3a818861223a565b606084019690965250506001600160a01b03929092166080830152151560a0909101529392505050565b60008060408385031215612d7757600080fd5b8251612d82816126fd565b6020939093015192949293505050565b60008060408385031215612da557600080fd5b82516001600160401b03811115612dbb57600080fd5b8301601f81018513612dcc57600080fd5b8051612dda612445826123ff565b818152866020838501011115612def57600080fd5b612e00826020830160208601612216565b60209590950151949694955050505050565b60408082528351828201819052600091906020906060850190828801855b82811015612e4c57815184529284019290840190600101612e30565b50505084810382860152855180825282820190600581901b8301840188850160005b83811015612eaf57858303601f1901855281518051898552612e928a86018261223a565b918901519489019490945294870194925090860190600101612e6e565b50909a9950505050505050505050565b600060208284031215612ed157600080fd5b8151610884816126fd565b60008251612eee818460208701612216565b9190910192915050565b60ff818116838216019081111561076457610764612aa5565b600060208284031215612f2357600080fd5b5051919050565b604081526000612f3d604083018561223a565b90508260208301529392505050565b604081526000612f5f604083018561223a565b905060018060a01b03831660208301529392505050565b604081526000612f89604083018561223a565b905082151560208301529392505050565b6000808354612fa881612a6b565b60018281168015612fc05760018114612fd557613004565b60ff1984168752821515830287019450613004565b8760005260208060002060005b85811015612ffb5781548a820152908401908201612fe2565b50505082870194505b50929695505050505050565b634e487b7160e01b600052602160045260246000fdfe360894a13ba1a3210667c828492db98dca3e2076cc3735a920a3ca505d382bbca2646970667358221220f39f68b37ee3b058fcdf5e83e48db13a423695cd051e290edd314a6be50e4f1d64736f6c63430008190033",
        "linkReferences": {}
    },
    "methodIdentifiers": {
        "create(address,uint256)": "0ecaea73",
        "createAccount(address,uint256,bytes)": "ef67dc69",
        "dkim()": "400ad5ce",
        "getAddress(address,uint256,bytes)": "5abb2d5b",
        "walletImplementation()": "8117abc1"
    },
    "id": 83
}