{"abi":[{"type":"function","name":"base64decode","inputs":[{"name":"base64String","type":"string","internalType":"string"}],"outputs":[{"name":"","type":"bytes","internalType":"bytes"}],"stateMutability":"pure"}],"bytecode":{"object":"0x6106b3610039600b82828239805160001a607314602c57634e487b7160e01b600052600060045260246000fd5b30600052607381538281f3fe73000000000000000000000000000000000000000030146080604052600436106100355760003560e01c8063cc474bdc1461003a575b600080fd5b61004d6100483660046104a0565b610063565b60405161005a9190610551565b60405180910390f35b805160609082906100756004826105b6565b156100c75760405162461bcd60e51b815260206004820152601c60248201527f496e76616c69642062617365363420737472696e67206c656e6774680000000060448201526064015b60405180910390fd5b60006100d46004836105e0565b6100df9060036105f4565b9050826100ed600184610611565b815181106100fd576100fd610624565b01602001516001600160f81b031916603d60f81b0361012457806101208161063a565b9150505b82610130600284610611565b8151811061014057610140610624565b01602001516001600160f81b031916603d60f81b0361016757806101638161063a565b9150505b60008167ffffffffffffffff8111156101825761018261048a565b6040519080825280601f01601f1916602001820160405280156101ac576020820181803683370190505b5090506000805b8482101561047e576000805b600481101561040757600682901b915060418885815181106101e3576101e3610624565b016020015160f81c108015906102135750605a88858151811061020857610208610624565b016020015160f81c11155b1561024757604188858151811061022c5761022c610624565b016020015161023e919060f81c610611565b821791506103f2565b606188858151811061025b5761025b610624565b016020015160f81c1080159061028b5750607a88858151811061028057610280610624565b016020015160f81c11155b156102a457604788858151811061022c5761022c610624565b60308885815181106102b8576102b8610624565b016020015160f81c108015906102e8575060398885815181106102dd576102dd610624565b016020015160f81c11155b15610312578784815181106102ff576102ff610624565b016020015161023e9060f81c6004610651565b87848151811061032457610324610624565b01602001516001600160f81b031916602b60f81b0361034857603e821791506103f2565b87848151811061035a5761035a610624565b01602001516001600160f81b031916602f60f81b0361037e57603f821791506103f2565b87848151811061039057610390610624565b01602001516001600160f81b031916603d60f81b03156103f25760405162461bcd60e51b815260206004820152601860248201527f496e76616c69642062617365363420636861726163746572000000000000000060448201526064016100be565b836103fc81610664565b9450506001016101bf565b5060005b6003811015610477578583101561046f576104278160086105f4565b610432906010610611565b82901c60f81b85848151811061044a5761044a610624565b60200101906001600160f81b031916908160001a9053508261046b81610664565b9350505b60010161040b565b50506101b3565b50909695505050505050565b634e487b7160e01b600052604160045260246000fd5b6000602082840312156104b257600080fd5b813567ffffffffffffffff808211156104ca57600080fd5b818401915084601f8301126104de57600080fd5b8135818111156104f0576104f061048a565b604051601f8201601f19908116603f011681019083821181831017156105185761051861048a565b8160405282815287602084870101111561053157600080fd5b826020860160208301376000928101602001929092525095945050505050565b60006020808352835180602085015260005b8181101561057f57858101830151858201604001528201610563565b506000604082860101526040601f19601f8301168501019250505092915050565b634e487b7160e01b600052601260045260246000fd5b6000826105c5576105c56105a0565b500690565b634e487b7160e01b600052601160045260246000fd5b6000826105ef576105ef6105a0565b500490565b808202811582820484141761060b5761060b6105ca565b92915050565b8181038181111561060b5761060b6105ca565b634e487b7160e01b600052603260045260246000fd5b600081610649576106496105ca565b506000190190565b8082018082111561060b5761060b6105ca565b600060018201610676576106766105ca565b506001019056fea2646970667358221220f670951996028cf6c496feb22b00eb7feb5541837fa8868226de8a3c0b9b37cd64736f6c63430008190033","linkReferences":{}},"methodIdentifiers":{"base64decode(string)":"cc474bdc"},"id":81}