{"abi":[{"type":"function","name":"base64decode","inputs":[{"name":"base64String","type":"string","internalType":"string"}],"outputs":[{"name":"","type":"bytes","internalType":"bytes"}],"stateMutability":"pure"}],"bytecode":{"object":"0x60808060405234601957610568908161001f823930815050f35b600080fdfe6040608081526004908136101561001557600080fd5b600091823560e01c63cc474bdc1461002c57600080fd5b6020928360031936011261047e5781359067ffffffffffffffff821161047e573660238301121561047e576024928083013561006f61006a826104bd565b610481565b938185523686838301011161047a57818492878a9301838801378501015282519060039060038316610438578260021c9560038702968088046003149015171561042757600019840196928385891161041557603d60f81b986001600160f81b031994939291908a9086906100e4908c6104d9565b511614610403575b5060011986018681116103f157846101058b928b6104d9565b5116146103e1575b61011961006a866104bd565b97858952610126866104bd565b601f199a908b01368b8f0137889189985b80841061018d57508d8d8c8c8f8351948592818452845191828186015281955b8387106101755750508394508582601f949501015201168101030190f35b86810182015189880189015295810195889550610157565b8a8b5b88811061021357508b5b8681106101a8575050610137565b8a8c106101b8575b60010161019a565b9a8b871b8c81046008148d15171561020157601090810390811161020157818f8f6001946101f3918f886101f9971c60f81b16901a926104d9565b53610523565b9b90506101b0565b634e487b7160e01b8e5260118a52888efd5b949060061b61022282856104d9565b51604160f891821c1015806103ca575b156102665761024183866104d9565b51901c9060401982019182116102015760019161025f911792610523565b9501610190565b606161027284876104d9565b51821c1015806103b3575b156102aa5761028c83866104d9565b51901c9060461982019182116102015760019161025f911792610523565b60306102b684876104d9565b51821c10158061039c575b156102ec576102d083866104d9565b51901c908982018092116102015760019161025f911792610523565b50602b60f81b8a6102fd84876104d9565b5116036103135761025f603e6001921792610523565b602f60f81b8a61032384876104d9565b5116036103395761025f603f6001921792610523565b848a61034584876104d9565b5116036103585761025f60019192610523565b508f8f6018896064938c93519362461bcd60e51b85528401528201527f496e76616c6964206261736536342063686172616374657200000000000000006044820152fd5b5060396103a984876104d9565b51821c11156102c1565b50607a6103c084876104d9565b51821c111561027d565b50605a6103d784876104d9565b51821c1115610232565b936103eb90610500565b9361010d565b634e487b7160e01b8852601184528288fd5b61040e919550610500565b93386100ec565b634e487b7160e01b8752601184528287fd5b634e487b7160e01b85526011825284fd5b865162461bcd60e51b8152908101889052601c818701527f496e76616c69642062617365363420737472696e67206c656e677468000000006044820152606490fd5b8380fd5b80fd5b6040519190601f01601f1916820167ffffffffffffffff8111838210176104a757604052565b634e487b7160e01b600052604160045260246000fd5b67ffffffffffffffff81116104a757601f01601f191660200190565b9081518110156104ea570160200190565b634e487b7160e01b600052603260045260246000fd5b801561050d576000190190565b634e487b7160e01b600052601160045260246000fd5b600019811461050d576001019056fea264697066735822122063260f5e9d59006fcd13e044db02c8f3f94c30e3d2ae553945f9bf02a52e5dac64736f6c63430008190033","linkReferences":{}},"methodIdentifiers":{"base64decode(string)":"cc474bdc"},"id":84}