{"abi":[{"type":"function","name":"batchRegisterPublicKeys","inputs":[{"name":"xs","type":"bytes32[]","internalType":"bytes32[]"},{"name":"ys","type":"bytes32[]","internalType":"bytes32[]"},{"name":"signatures","type":"bytes[]","internalType":"bytes[]"},{"name":"y_0_x","type":"bytes32","internalType":"bytes32"},{"name":"y_0_y","type":"bytes32","internalType":"bytes32"},{"name":"aaAddress","type":"address","internalType":"address"}],"outputs":[],"stateMutability":"nonpayable"},{"type":"function","name":"bindShadowAA","inputs":[{"name":"rootAddress","type":"address","internalType":"address"},{"name":"aaAddress","type":"address","internalType":"address"},{"name":"c","type":"uint256[]","internalType":"uint256[]"},{"name":"r","type":"uint256[]","internalType":"uint256[]"},{"name":"ring","type":"bytes","internalType":"bytes"},{"name":"z","type":"bytes","internalType":"bytes"},{"name":"keyImage","type":"bytes32","internalType":"bytes32"}],"outputs":[],"stateMutability":"nonpayable"},{"type":"function","name":"certifiedShadows","inputs":[{"name":"","type":"address","internalType":"address"}],"outputs":[{"name":"","type":"bool","internalType":"bool"}],"stateMutability":"view"},{"type":"function","name":"challengeSignature","inputs":[{"name":"aaAddress","type":"address","internalType":"address"},{"name":"c","type":"uint256[]","internalType":"uint256[]"},{"name":"r","type":"uint256[]","internalType":"uint256[]"},{"name":"ring","type":"bytes","internalType":"bytes"},{"name":"keyImage","type":"bytes32","internalType":"bytes32"},{"name":"z","type":"bytes","internalType":"bytes"}],"outputs":[],"stateMutability":"nonpayable"},{"type":"function","name":"getRingById","inputs":[{"name":"ringId","type":"bytes32","internalType":"bytes32"},{"name":"n","type":"uint256","internalType":"uint256"}],"outputs":[{"name":"","type":"bytes","internalType":"bytes"}],"stateMutability":"view"},{"type":"function","name":"registerPublicKey","inputs":[{"name":"x","type":"bytes32","internalType":"bytes32"},{"name":"y","type":"bytes32","internalType":"bytes32"},{"name":"signature","type":"bytes","internalType":"bytes"},{"name":"aaAddress","type":"address","internalType":"address"}],"outputs":[],"stateMutability":"nonpayable"},{"type":"function","name":"rings","inputs":[{"name":"","type":"bytes32","internalType":"bytes32"},{"name":"","type":"uint256","internalType":"uint256"}],"outputs":[{"name":"x","type":"bytes32","internalType":"bytes32"},{"name":"y","type":"bytes32","internalType":"bytes32"}],"stateMutability":"view"},{"type":"function","name":"usedKeyImages","inputs":[{"name":"","type":"bytes32","internalType":"bytes32"}],"outputs":[{"name":"","type":"bool","internalType":"bool"}],"stateMutability":"view"},{"type":"event","name":"RingRegistered","inputs":[{"name":"ringId","type":"bytes32","indexed":true,"internalType":"bytes32"},{"name":"aaAddress","type":"address","indexed":true,"internalType":"address"}],"anonymous":false},{"type":"event","name":"ShadowAABound","inputs":[{"name":"aaAddress","type":"address","indexed":true,"internalType":"address"},{"name":"rootAddress","type":"address","indexed":true,"internalType":"address"}],"anonymous":false},{"type":"event","name":"SignatureChallenged","inputs":[{"name":"aaAddress","type":"address","indexed":true,"internalType":"address"},{"name":"valid","type":"bool","indexed":false,"internalType":"bool"}],"anonymous":false}],"bytecode":{"object":"0x608080604052346015576113b4908161001b8239f35b600080fdfe6080604052600436101561001257600080fd5b6000803560e01c9081631a77a4151461009a5750806333cc46d31461009557806378f93a691461009057806387682bd41461008b5780639e67b8e114610086578063c32ffe3214610081578063e287a41a1461007c5763e48711d91461007757600080fd5b610557565b610526565b6104c4565b610437565b6103b9565b610332565b610272565b346100d75760203660031901126100d75760ff906040906001600160a01b036100c16100da565b1681526001602052205416151560805260206080f35b80fd5b600435906001600160a01b03821682036100f057565b600080fd5b602435906001600160a01b03821682036100f057565b606435906001600160a01b03821682036100f057565b634e487b7160e01b600052604160045260246000fd5b6040810190811067ffffffffffffffff82111761015357604052565b610121565b90601f8019910116810190811067ffffffffffffffff82111761015357604052565b6040519061018782610137565b565b67ffffffffffffffff81116101535760051b60200190565b9080601f830112156100f05760209082356101bb81610189565b936101c96040519586610158565b81855260208086019260051b8201019283116100f057602001905b8282106101f2575050505090565b813581529083019083016101e4565b67ffffffffffffffff811161015357601f01601f191660200190565b92919261022982610201565b916102376040519384610158565b8294818452818301116100f0578281602093846000960137010152565b9080601f830112156100f05781602061026f9335910161021d565b90565b346100f05760e03660031901126100f05761028b6100da565b6102936100f5565b67ffffffffffffffff91906044358381116100f0576102b69036906004016101a1565b6064358481116100f0576102ce9036906004016101a1565b506084358481116100f0576102e7903690600401610254565b9060a4359485116100f05761030361030d953690600401610254565b9260c435946107de565b005b60005b8381106103225750506000910152565b8181015183820152602001610312565b346100f05760403660031901126100f057610351602435600435610a85565b60408051809260208252610374815180928160208601526020868601910161030f565b601f01601f19168101030190f35b634e487b7160e01b600052603260045260246000fd5b80548210156103b45760005260206000209060011b0190600090565b610382565b346100f05760403660031901126100f0576024356004356000526000602052604060002080548210156100f0576040916103f291610398565b506001815491015482519182526020820152f35b9181601f840112156100f05782359167ffffffffffffffff83116100f0576020808501948460051b0101116100f057565b346100f05760c03660031901126100f05767ffffffffffffffff6004358181116100f057610469903690600401610406565b6024358381116100f057610481903690600401610406565b9290936044359081116100f05761049c903690600401610406565b60a435949091906001600160a01b03861686036100f05761030d966084359560643595610cda565b346100f05760803660031901126100f05767ffffffffffffffff6044358181116100f057366023820112156100f05780600401359182116100f05736602483830101116100f05761030d91602461051961010b565b9201602435600435610e75565b346100f05760203660031901126100f0576004356000526002602052602060ff604060002054166040519015158152f35b346100f05760c03660031901126100f0576105706100da565b67ffffffffffffffff906024358281116100f0576105929036906004016101a1565b906044358381116100f0576105ab9036906004016101a1565b506064358381116100f0576105c4903690600401610254565b60a4359384116100f0576105df61030d943690600401610254565b9260843592610f65565b156105f057565b60405162461bcd60e51b8152602060048201526014602482015273105048185b1c9958591e4818d95c9d1a599a595960621b6044820152606490fd5b1561063357565b60405162461bcd60e51b815260206004820152600e60248201526d12d95e481a5b5859d9481d5cd95960921b6044820152606490fd5b634e487b7160e01b600052601160045260246000fd5b908160061b918083046040149015171561069557565b610669565b908160011b918083046002149015171561069557565b156106b757565b60405162461bcd60e51b8152602060048201526013602482015272092dcecc2d8d2c840e4d2dcce40d8cadccee8d606b1b6044820152606490fd5b156106f957565b60405162461bcd60e51b815260206004820152601060248201526f092dcecc2d8d2c840f440d8cadccee8d60831b6044820152606490fd5b8051156103b45760200190565b8051600110156103b45760400190565b80518210156103b45760209160051b010190565b1561076957565b60405162461bcd60e51b815260206004820152600c60248201526b496e76616c69642072696e6760a01b6044820152606490fd5b156107a457565b60405162461bcd60e51b815260206004820152601260248201527124b73b30b634b2103430b9b41031b430b4b760711b6044820152606490fd5b9361093d8261095f948861097c9783610900610942979c989c61082c61082761082361081c8660018060a01b03166000526001602052604060002090565b5460ff1690565b1590565b6105e9565b61084e61084961082361081c886000526002602052604060002090565b61062c565b610863845161085d885161067f565b146106b0565b6108788151610872885161067f565b146106f2565b6108f86108e361088788610731565b516108918961073e565b516108c46040519b8c926020840194859160549391835260208301526001600160601b03199060601b1660408201520190565b03996108d8601f199b8c8101835282610158565b519020885190610a85565b85516020870120906020815191012014610762565b8551906110f8565b9461093560405191826109296020820195866014916001600160601b03199060601b1681520190565b03908101835282610158565b51902061122d565b61079d565b6001600160a01b038516600090815260016020526040902061096c905b805460ff19166001179055565b6000526002602052604060002090565b6001600160a01b0390811691167f32910fa3a47c2e63317b0d4d13fd308f19604cd6631978a4ac0d63925474134c600080a3565b156109b757565b60405162461bcd60e51b815260206004820152601860248201527f496e73756666696369656e74207075626c6963206b65797300000000000000006044820152606490fd5b60405190610a0982610137565b60208083523683820137565b90610a1f82610201565b610a2c6040519182610158565b8281528092610a3d601f1991610201565b0190602036910137565b606090610187929493946040519582610a6a88945180926020808801910161030f565b83019160208301526040820152036040810185520183610158565b9060009182526020908282526040808420805490610aa282610189565b92610ab06040519485610158565b82845290865284862086918685015b848410610b2e575050505050610ad881518311156109b0565b610ae9610ae48361067f565b610a15565b93925b828410610afa575050505090565b90919293610b24600191610b0e878661074e565b515184610b1b898861074e565b51015191610a47565b9401929190610aec565b600288600192849a98999a51610b4381610137565b86548152848701548382015281520193019301929196959496610abf565b15610b6857565b60405162461bcd60e51b8152602060048201526014602482015273092dcecc2d8d2c840d2dce0eae840d8cadccee8d60631b6044820152606490fd5b8054906000906000815582610bb857505050565b6001906001600160ff1b03841684036106955760005260206000209260011b8301925b838110610be85750505050565b808360029255838382015501610bdb565b91908110156103b45760051b0190565b91908110156103b45760051b81013590601e19813603018212156100f057019081359167ffffffffffffffff83116100f05760200182360381136100f0579190565b15610c5257565b60405162461bcd60e51b8152602060048201526011602482015270496e76616c6964207369676e617475726560781b6044820152606490fd5b80546801000000000000000081101561015357610cad91600182018155610398565b919091610cc4576020816001925184550151910155565b634e487b7160e01b600052600060045260246000fd5b9397969291949782821480610e6c575b610cf390610b61565b604080516020808201998a528183019690965260608a811b6bffffffffffffffffffffffff191690820152605481529099601f19989091610d35607482610158565b51902099610d55610d508c6000526000602052604060002090565b610ba4565b8a60005b858110610d9b57505050505050505050505060018060a01b0316907f0cd37b8bc275ee9628a9b0c17bef7b9fbbf7c3f014c941008cdb509452e88d27600080a3565b610e648a8a610e4f848f610e48828f8f938f919b8f8f8f60019f92610e19610e128f8f958b91610e1f968f610e429c610e329b8f610df088610e0995610e2b9f8261092995610de992610bf9565b3598610bf9565b9451918201958652933560208601529283906040860190565b51902094610c09565b369161021d565b90611331565b6001600160a01b031690565b1515610c4b565b6000526000602052604060002090565b96610bf9565b3594610bf9565b35610e5861017a565b9283528b830152610c8b565b018b90610d59565b50828914610cea565b610f3c91949293610ed760405191610ecf6020840184610ea18b88849091604092825260208201520190565b0394610eb5601f1996878101835282610158565b5190206001600160a01b03988993610e199136919061021d565b161515610c4b565b6040805160208101848152918101889052606086811b6bffffffffffffffffffffffff1916908201529091610f10908260748101610929565b5190209485600052600060205260406000209060405192610f3084610137565b83526020830152610c8b565b16907f0cd37b8bc275ee9628a9b0c17bef7b9fbbf7c3f014c941008cdb509452e88d27600080a3565b9092919360018060a01b0382169485600052600160205260ff604060002054161561103b578461101194610fbf610ff6947f9e6cfde8b70c065b0182fe86c7afd5d2bbff87aa4b47b9c1ecab71edc519aa1f9851906110f8565b92604051602081019061093581610fe88a856014916001600160601b03199060601b1681520190565b03601f198101835282610158565b908115611016575b5060405190151581529081906020820190565b0390a2565b6001600160a01b03166000908152600160205260409020805460ff1916905538610ffe565b60405162461bcd60e51b815260206004820152601060248201526f1050481b9bdd0818d95c9d1a599a595960821b6044820152606490fd5b9061107d82610189565b61108a6040519182610158565b8281528092610a3d601f1991610189565b906020820180921161069557565b906001820180921161069557565b9190820180921161069557565b9081518110156103b4570160200190565b6020815191015190602081106110e9575090565b6000199060200360031b1b1690565b9061110a6111058261069a565b611073565b9160005b82811061111b5750505090565b6111236109fc565b61112b6109fc565b9060005b60208110611181575060019291611148611160926110d5565b61115a6111548561069a565b8961074e565b526110d5565b61117a61117461116f8461069a565b6110a9565b8761074e565b520161110e565b806111b06111a261119c6001946111978961067f565b6110b7565b886110c4565b516001600160f81b03191690565b60001a6111bd82856110c4565b536111d96111a261119c836111976111d48a61067f565b61109b565b60001a6111e682866110c4565b530161112f565b608095939492918152611209825180936020808501910161030f565b01926020840152604083015260608201520190565b60001981019190821161069557565b909392919361123b84610731565b516112458561073e565b5160408051928361126060209460208301938c898b876111ed565b0393611274601f1995868101835282610158565b519020976000976000995b611289895161121e565b8b10156113195750868a6112e56112c36112bd61116f6112b16112b66111546112b1886110a9565b61069a565b51956110a9565b8561074e565b51916112d98751938492888d8c860198896111ed565b03888101835282610158565b519020996112fb6112f5826110a9565b8a61074e565b518b0361130b576001019961127f565b505050505050505050905090565b99505050505050505061132c9150610731565b511490565b906020906080828201519360606040840151930151926000958694604051938452851a868401526040830152606082015282805260015afa15611372575190565b604051903d90823e3d90fdfea26469706673582212209a9428b80eb6f8761678a02914aad2a0f580d350ef81041d25910ca6b0850e2764736f6c63430008190033","linkReferences":{}},"methodIdentifiers":{"batchRegisterPublicKeys(bytes32[],bytes32[],bytes[],bytes32,bytes32,address)":"9e67b8e1","bindShadowAA(address,address,uint256[],uint256[],bytes,bytes,bytes32)":"33cc46d3","certifiedShadows(address)":"1a77a415","challengeSignature(address,uint256[],uint256[],bytes,bytes32,bytes)":"e48711d9","getRingById(bytes32,uint256)":"78f93a69","registerPublicKey(bytes32,bytes32,bytes,address)":"c32ffe32","rings(bytes32,uint256)":"87682bd4","usedKeyImages(bytes32)":"e287a41a"},"id":95}