{"abi":[{"type":"constructor","inputs":[{"name":"entryPoint_","type":"address","internalType":"address"},{"name":"keyImageRegistry_","type":"address","internalType":"address"}],"stateMutability":"nonpayable"},{"type":"receive","stateMutability":"payable"},{"type":"function","name":"UPGRADE_INTERFACE_VERSION","inputs":[],"outputs":[{"name":"","type":"string","internalType":"string"}],"stateMutability":"view"},{"type":"function","name":"challengeSignature","inputs":[{"name":"c","type":"uint256[]","internalType":"uint256[]"},{"name":"r","type":"uint256[]","internalType":"uint256[]"},{"name":"sigRing","type":"bytes","internalType":"bytes"},{"name":"keyImage","type":"bytes32","internalType":"bytes32"},{"name":"submittedInitKeyImage","type":"bytes32","internalType":"bytes32"}],"outputs":[],"stateMutability":"nonpayable"},{"type":"function","name":"entryPoint","inputs":[],"outputs":[{"name":"","type":"address","internalType":"contract IEntryPoint"}],"stateMutability":"view"},{"type":"function","name":"execute","inputs":[{"name":"dest","type":"address","internalType":"address"},{"name":"value","type":"uint256","internalType":"uint256"},{"name":"func","type":"bytes","internalType":"bytes"}],"outputs":[],"stateMutability":"nonpayable"},{"type":"function","name":"executeBatch","inputs":[{"name":"dests","type":"address[]","internalType":"address[]"},{"name":"values","type":"uint256[]","internalType":"uint256[]"},{"name":"funcs","type":"bytes[]","internalType":"bytes[]"}],"outputs":[],"stateMutability":"nonpayable"},{"type":"function","name":"getNonce","inputs":[],"outputs":[{"name":"","type":"uint256","internalType":"uint256"}],"stateMutability":"view"},{"type":"function","name":"initKeyImageHash","inputs":[],"outputs":[{"name":"","type":"bytes32","internalType":"bytes32"}],"stateMutability":"view"},{"type":"function","name":"initialize","inputs":[{"name":"_ring","type":"bytes","internalType":"bytes"},{"name":"_initKeyImage","type":"bytes32","internalType":"bytes32"}],"outputs":[],"stateMutability":"nonpayable"},{"type":"function","name":"keyImageRegistry","inputs":[],"outputs":[{"name":"","type":"address","internalType":"contract IKeyImageRegistry"}],"stateMutability":"view"},{"type":"function","name":"nonce","inputs":[],"outputs":[{"name":"","type":"uint256","internalType":"uint256"}],"stateMutability":"view"},{"type":"function","name":"onERC1155BatchReceived","inputs":[{"name":"","type":"address","internalType":"address"},{"name":"","type":"address","internalType":"address"},{"name":"","type":"uint256[]","internalType":"uint256[]"},{"name":"","type":"uint256[]","internalType":"uint256[]"},{"name":"","type":"bytes","internalType":"bytes"}],"outputs":[{"name":"","type":"bytes4","internalType":"bytes4"}],"stateMutability":"pure"},{"type":"function","name":"onERC1155Received","inputs":[{"name":"","type":"address","internalType":"address"},{"name":"","type":"address","internalType":"address"},{"name":"","type":"uint256","internalType":"uint256"},{"name":"","type":"uint256","internalType":"uint256"},{"name":"","type":"bytes","internalType":"bytes"}],"outputs":[{"name":"","type":"bytes4","internalType":"bytes4"}],"stateMutability":"pure"},{"type":"function","name":"onERC721Received","inputs":[{"name":"","type":"address","internalType":"address"},{"name":"","type":"address","internalType":"address"},{"name":"","type":"uint256","internalType":"uint256"},{"name":"","type":"bytes","internalType":"bytes"}],"outputs":[{"name":"","type":"bytes4","internalType":"bytes4"}],"stateMutability":"pure"},{"type":"function","name":"proxiableUUID","inputs":[],"outputs":[{"name":"","type":"bytes32","internalType":"bytes32"}],"stateMutability":"view"},{"type":"function","name":"ringId","inputs":[],"outputs":[{"name":"","type":"bytes32","internalType":"bytes32"}],"stateMutability":"view"},{"type":"function","name":"supportsInterface","inputs":[{"name":"interfaceId","type":"bytes4","internalType":"bytes4"}],"outputs":[{"name":"","type":"bool","internalType":"bool"}],"stateMutability":"view"},{"type":"function","name":"upgradeTo","inputs":[{"name":"newImplementation","type":"address","internalType":"address"},{"name":"c","type":"uint256[]","internalType":"uint256[]"},{"name":"r","type":"uint256[]","internalType":"uint256[]"},{"name":"ringIdFromSig","type":"bytes32","internalType":"bytes32"},{"name":"keyImage","type":"bytes32","internalType":"bytes32"},{"name":"submittedInitKeyImage","type":"bytes32","internalType":"bytes32"}],"outputs":[],"stateMutability":"nonpayable"},{"type":"function","name":"upgradeToAndCall","inputs":[{"name":"newImplementation","type":"address","internalType":"address"},{"name":"data","type":"bytes","internalType":"bytes"}],"outputs":[],"stateMutability":"payable"},{"type":"function","name":"validateSignature","inputs":[{"name":"userOp","type":"tuple","internalType":"struct PackedUserOperation","components":[{"name":"sender","type":"address","internalType":"address"},{"name":"nonce","type":"uint256","internalType":"uint256"},{"name":"initCode","type":"bytes","internalType":"bytes"},{"name":"callData","type":"bytes","internalType":"bytes"},{"name":"accountGasLimits","type":"bytes32","internalType":"bytes32"},{"name":"preVerificationGas","type":"uint256","internalType":"uint256"},{"name":"gasFees","type":"bytes32","internalType":"bytes32"},{"name":"paymasterAndData","type":"bytes","internalType":"bytes"},{"name":"signature","type":"bytes","internalType":"bytes"}]},{"name":"userOpHash","type":"bytes32","internalType":"bytes32"}],"outputs":[{"name":"validationData","type":"uint256","internalType":"uint256"}],"stateMutability":"nonpayable"},{"type":"function","name":"validateUserOp","inputs":[{"name":"userOp","type":"tuple","internalType":"struct PackedUserOperation","components":[{"name":"sender","type":"address","internalType":"address"},{"name":"nonce","type":"uint256","internalType":"uint256"},{"name":"initCode","type":"bytes","internalType":"bytes"},{"name":"callData","type":"bytes","internalType":"bytes"},{"name":"accountGasLimits","type":"bytes32","internalType":"bytes32"},{"name":"preVerificationGas","type":"uint256","internalType":"uint256"},{"name":"gasFees","type":"bytes32","internalType":"bytes32"},{"name":"paymasterAndData","type":"bytes","internalType":"bytes"},{"name":"signature","type":"bytes","internalType":"bytes"}]},{"name":"userOpHash","type":"bytes32","internalType":"bytes32"},{"name":"missingAccountFunds","type":"uint256","internalType":"uint256"}],"outputs":[{"name":"validationData","type":"uint256","internalType":"uint256"}],"stateMutability":"nonpayable"},{"type":"function","name":"withdrawETH","inputs":[{"name":"recipient","type":"address","internalType":"address payable"},{"name":"amount","type":"uint256","internalType":"uint256"},{"name":"c","type":"uint256[]","internalType":"uint256[]"},{"name":"r","type":"uint256[]","internalType":"uint256[]"},{"name":"ringIdFromSig","type":"bytes32","internalType":"bytes32"},{"name":"keyImage","type":"bytes32","internalType":"bytes32"},{"name":"submittedInitKeyImage","type":"bytes32","internalType":"bytes32"}],"outputs":[],"stateMutability":"nonpayable"},{"type":"event","name":"DebugBytes","inputs":[{"name":"data","type":"bytes","indexed":false,"internalType":"bytes"}],"anonymous":false},{"type":"event","name":"DebugBytes32","inputs":[{"name":"data","type":"bytes32","indexed":false,"internalType":"bytes32"}],"anonymous":false},{"type":"event","name":"DebugUint256","inputs":[{"name":"data","type":"uint256[]","indexed":false,"internalType":"uint256[]"}],"anonymous":false},{"type":"event","name":"DebugUint_256","inputs":[{"name":"data","type":"uint256","indexed":false,"internalType":"uint256"}],"anonymous":false},{"type":"event","name":"Initialized","inputs":[{"name":"version","type":"uint64","indexed":false,"internalType":"uint64"}],"anonymous":false},{"type":"event","name":"Initialized","inputs":[{"name":"ringId","type":"bytes32","indexed":true,"internalType":"bytes32"},{"name":"initKeyImageHash","type":"bytes32","indexed":true,"internalType":"bytes32"}],"anonymous":false},{"type":"event","name":"RingSignatureValidated","inputs":[{"name":"userOpHash","type":"bytes32","indexed":true,"internalType":"bytes32"},{"name":"ringId","type":"bytes32","indexed":true,"internalType":"bytes32"}],"anonymous":false},{"type":"event","name":"SignatureChallenged","inputs":[{"name":"valid","type":"bool","indexed":false,"internalType":"bool"}],"anonymous":false},{"type":"event","name":"Upgraded","inputs":[{"name":"implementation","type":"address","indexed":true,"internalType":"address"}],"anonymous":false},{"type":"error","name":"AddressEmptyCode","inputs":[{"name":"target","type":"address","internalType":"address"}]},{"type":"error","name":"ERC1967InvalidImplementation","inputs":[{"name":"implementation","type":"address","internalType":"address"}]},{"type":"error","name":"ERC1967NonPayable","inputs":[]},{"type":"error","name":"FailedInnerCall","inputs":[]},{"type":"error","name":"InvalidInitialization","inputs":[]},{"type":"error","name":"NotInitializing","inputs":[]},{"type":"error","name":"UUPSUnauthorizedCallContext","inputs":[]},{"type":"error","name":"UUPSUnsupportedProxiableUUID","inputs":[{"name":"slot","type":"bytes32","internalType":"bytes32"}]}],"bytecode":{"object":"0x60e0346100c357601f611ee638819003918201601f19168301916001600160401b038311848410176100c85780849260409485528339810103126100c357610052602061004b836100de565b92016100de565b306080526001600160a01b0391821660a0521660c052604051611df390816100f382396080518181816108480152818161097801526114a4015260a051818181610c5101528181610d980152611650015260c05181818161044801528181610b2c0152818161108e01526119cd0152f35b600080fd5b634e487b7160e01b600052604160045260246000fd5b51906001600160a01b03821682036100c35756fe6080604052600436101561001b575b361561001957600080fd5b005b60003560e01c806301ffc9a71461016b57806303a3c2bf14610166578063150b7a021461016157806319822f7c1461015c5780631a78169d1461015757806347e1da2a146101525780634f1ef2861461014d57806352d1902d146101485780635c6e5d88146101435780636c5d8ae71461013e578063ad3cb1cc14610139578063affed0e014610134578063b0d691fe1461012f578063b61d27f61461012a578063bc197c8114610125578063d087d28814610120578063ec6ab2851461011b578063ee68ab5714610116578063f23a6e6114610111578063f4b6e01e1461010c5763fd0bc8040361000e57611015565b610ff7565b610f9d565b610f60565b610e99565b610d64565b610cd5565b610c80565b610c3b565b610c1d565b610bd7565b610b16565b6109d0565b610965565b610806565b610612565b6103c8565b6102ae565b610245565b6101e9565b346101d95760203660031901126101d95760043563ffffffff60e01b81168091036101d957602090630a85bd0160e11b81149081156101c8575b81156101b7575b506040519015158152f35b6301ffc9a760e01b149050386101ac565b630271189760e51b811491506101a5565b600080fd5b60009103126101d957565b346101d95760003660031901126101d9576020600154604051908152f35b6001600160a01b038116036101d957565b9181601f840112156101d9578235916001600160401b0383116101d957602083818601950101116101d957565b346101d95760803660031901126101d957610261600435610207565b61026c602435610207565b6064356001600160401b0381116101d95761028b903690600401610218565b5050604051630a85bd0160e11b8152602090f35b90816101209103126101d95790565b346101d95760603660031901126101d9576004356001600160401b0381116101d9576102e161037a91369060040161029f565b60443590610361604051916102f58361075a565b60078352661919191919191960c91b60208401526040516103398161032b602082019663104c13eb60e21b885260248301610bc6565b03601f198101835282610775565b60008094819251906a636f6e736f6c652e6c6f675afa5061035861164e565b60243590611883565b918061037e575b50506040519081529081906020820190565b0390f35b8180809233600019f150610390611399565b503880610368565b9181601f840112156101d9578235916001600160401b0383116101d9576020808501948460051b0101116101d957565b346101d95760e03660031901126101d9576004356103e581610207565b602435906001600160401b03906044358281116101d95761040a903690600401610398565b90926064359081116101d957610424903690600401610398565b604051631ab4cba160e11b815260a435600482018190526001600160a01b039690947f00000000000000000000000000000000000000000000000000000000000000008816945092916020918282602481895afa9485156105e0576104a7610562956104a06105679861055c966000916105e5575b50156111d2565b821461121e565b6105558b6000546104bb816084351461125e565b8b61052b610537604051946104fd8b8701876104dd60c4358360209181520190565b03976104f1601f19998a8101835282610775565b519020600154146112aa565b6040519283918c8301958690916034926bffffffffffffffffffffffff199060601b16825260148201520190565b03858101835282610775565b51902060405197880191825296908190602001039182018152610775565b3691610e30565b90611b1c565b611301565b61057385471015611342565b803b156101d95760405163710f4f0760e11b815260048101929092526000908290602490829084905af180156105e057610019946000948594859485946105c7575b50165af16105c1611399565b506113c9565b806105d46105da92610742565b806101de565b386105b5565b6111c6565b6106059150883d8a1161060b575b6105fd8183610775565b8101906111ae565b38610499565b503d6105f3565b346101d95760603660031901126101d9576001600160401b036004358181116101d957610643903690600401610398565b906024358381116101d95761065c903690600401610398565b936044359081116101d957610675903690600401610398565b9261067e61164e565b85851480610723575b156106de5760005b85811061069857005b806106d86106b16106ac6001948a8761142b565b611440565b6106bc838b8961142b565b356106d26106cb858b8a61147c565b36916107b1565b91611c23565b0161068f565b60405162461bcd60e51b815260206004820152601d60248201527f536861646f7757616c6c65743a206c656e677468206d69736d617463680000006044820152606490fd5b50838614610687565b634e487b7160e01b600052604160045260246000fd5b6001600160401b03811161075557604052565b61072c565b604081019081106001600160401b0382111761075557604052565b90601f801991011681019081106001600160401b0382111761075557604052565b6001600160401b03811161075557601f01601f191660200190565b9291926107bd82610796565b916107cb6040519384610775565b8294818452818301116101d9578281602093846000960137010152565b9080601f830112156101d957816020610803933591016107b1565b90565b60403660031901126101d957600480359061082082610207565b6024356001600160401b0381116101d95761083e90369083016107e8565b6001600160a01b037f00000000000000000000000000000000000000000000000000000000000000008116308114908115610949575b50610938579060208392604051938480926352d1902d60e01b825288165afa60009281610907575b506108ca575050604051634c9c8ce360e01b81526001600160a01b0390921690820190815281906020010390fd5b8383600080516020611d7e83398151915284036108eb576100198383611c5a565b604051632a87526960e21b815290810184815281906020010390fd5b61092a91935060203d602011610931575b6109228183610775565b810190611c4b565b913861089c565b503d610918565b60405163703e46dd60e11b81528390fd5b905081600080516020611d7e8339815191525416141538610874565b346101d95760003660031901126101d9577f00000000000000000000000000000000000000000000000000000000000000006001600160a01b031630036109be576020604051600080516020611d7e8339815191528152f35b60405163703e46dd60e11b8152600490fd5b346101d95760403660031901126101d9576001600160401b036004358181116101d957610a019036906004016107e8565b600080516020611d9e833981519152549160ff8360401c1615921680159081610b0e575b6001149081610b04575b159081610afb575b50610ae957600080516020611d9e833981519152805467ffffffffffffffff19166001179055610a709082610abf575b60243590611598565b610a7657005b600080516020611d9e833981519152805460ff60401b19169055604051600181527fc7f505b2f371ae2175ee4913f4499e1f2633a7b5936321eed1cdaeb6115181d290602090a1005b600080516020611d9e833981519152805460ff60401b191668010000000000000000179055610a67565b60405163f92ee8a960e01b8152600490fd5b90501538610a37565b303b159150610a2f565b839150610a25565b346101d95760003660031901126101d9576040517f00000000000000000000000000000000000000000000000000000000000000006001600160a01b03168152602090f35b60405190602082018281106001600160401b038211176107555760405260008252565b60005b838110610b915750506000910152565b8181015183820152602001610b81565b90602091610bba81518092818552858086019101610b7e565b601f01601f1916010190565b906020610803928181520190610ba1565b346101d95760003660031901126101d95761037a604051610bf78161075a565b60058152640352e302e360dc1b6020820152604051918291602083526020830190610ba1565b346101d95760003660031901126101d9576020600254604051908152f35b346101d95760003660031901126101d9576040517f00000000000000000000000000000000000000000000000000000000000000006001600160a01b03168152602090f35b346101d95760603660031901126101d957600435610c9d81610207565b604435906001600160401b0382116101d957610ccb610cc3610019933690600401610218565b6106cb61164e565b9060243590611c23565b346101d95760a03660031901126101d957610cf1600435610207565b610cfc602435610207565b6001600160401b036044358181116101d957610d1c903690600401610398565b50506064358181116101d957610d36903690600401610398565b50506084359081116101d957610d50903690600401610218565b505060405163bc197c8160e01b8152602090f35b346101d957600080600319360112610e1657604051631aab3f0d60e11b8152306004820152602481018290526020816044817f00000000000000000000000000000000000000000000000000000000000000006001600160a01b03165afa9081156105e0578291610ddb575b604051828152602090f35b90506020813d602011610e0e575b81610df660209383610775565b81010312610e0a5761037a91505138610dd0565b5080fd5b3d9150610de9565b80fd5b6001600160401b0381116107555760051b60200190565b9291610e3b82610e19565b91610e496040519384610775565b829481845260208094019160051b81019283116101d957905b828210610e6f5750505050565b81358152908301908301610e62565b9080601f830112156101d95781602061080393359101610e30565b346101d95760a03660031901126101d9576001600160401b036004358181116101d957610eca903690600401610e7e565b6024358281116101d957610ee2903690600401610e7e565b506044359182116101d957610f55602091610f227f0a500c0831186b145b5fb77661ea7d4eb552bcef11054fbea6229783150d1d989436906004016107e8565b506040513060601b6bffffffffffffffffffffffff191684820190815290610f4d816014840161032b565b519020611b1c565b6040519015158152a1005b346101d95760403660031901126101d9576004356001600160401b0381116101d957610f95610358602092369060040161029f565b604051908152f35b346101d95760a03660031901126101d957610fb9600435610207565b610fc4602435610207565b6084356001600160401b0381116101d957610fe3903690600401610218565b505060405163f23a6e6160e01b8152602090f35b346101d95760003660031901126101d9576020600054604051908152f35b346101d95760c03660031901126101d95760043561103281610207565b6001600160401b03906024358281116101d957611053903690600401610398565b926044359081116101d95761106c903690600401610398565b604051631ab4cba160e11b815260843560048201819052956001600160a01b037f00000000000000000000000000000000000000000000000000000000000000001694909350602091908282602481895afa9485156105e0576110e5610562956104a06111529861055c966000916105e55750156111d2565b6105556000546110f8816064351461125e565b604051906111278783018361111360a4358360209181520190565b03936104f1601f1995868101835282610775565b60405160608c901b6bffffffffffffffffffffffff191688820190815290610537816014840161052b565b803b156101d95760405163710f4f0760e11b815260048101939093526000908390602490829084905af19182156105e0576100199261119b575b50611195610b5b565b90611497565b806105d46111a892610742565b3861118c565b908160209103126101d9575180151581036101d95790565b6040513d6000823e3d90fd5b156111d957565b60405162461bcd60e51b815260206004820152601c60248201527f536861646f7757616c6c65743a206b657920696d6167652075736564000000006044820152606490fd5b1561122557565b60405162461bcd60e51b8152602060048201526011602482015270496e76616c69642072696e672073697a6560781b6044820152606490fd5b1561126557565b60405162461bcd60e51b815260206004820152601a60248201527f536861646f7757616c6c65743a20696e76616c69642072696e670000000000006044820152606490fd5b156112b157565b60405162461bcd60e51b815260206004820152602260248201527f536861646f7757616c6c65743a20696e76616c696420696e69744b6579496d61604482015261676560f01b6064820152608490fd5b1561130857565b60405162461bcd60e51b815260206004820152601260248201527124b73b30b634b2103430b9b41031b430b4b760711b6044820152606490fd5b1561134957565b60405162461bcd60e51b815260206004820152602260248201527f536861646f7757616c6c65743a20696e73756666696369656e742062616c616e604482015261636560f01b6064820152608490fd5b3d156113c4573d906113aa82610796565b916113b86040519384610775565b82523d6000602084013e565b606090565b156113d057565b60405162461bcd60e51b815260206004820152601f60248201527f536861646f7757616c6c65743a207769746864726177616c206661696c6564006044820152606490fd5b634e487b7160e01b600052603260045260246000fd5b919081101561143b5760051b0190565b611415565b3561080381610207565b903590601e19813603018212156101d957018035906001600160401b0382116101d9576020019181360383136101d957565b9082101561143b576114939160051b81019061144a565b9091565b6001600160a01b039290917f0000000000000000000000000000000000000000000000000000000000000000841630811490811561157c575b506109be576020600494604051958680926352d1902d60e01b825287165afa6000948161155b575b5061151e57604051634c9c8ce360e01b81526001600160a01b0384166004820152602490fd5b9091600080516020611d7e833981519152840361154257611540929350611c5a565b565b604051632a87526960e21b815260048101859052602490fd5b61157591955060203d602011610931576109228183610775565b93386114f8565b905084600080516020611d7e83398151915254161415386114d0565b906080825110611609578160206115d193519101206000556040516115c98161032b60208201948560209181520190565b519020600155565b6115db6000600255565b600054600154907f4a48242bdef445c41d0e4fc9a99a107ae7b793444e5fbe87f3fa2f7757788688600080a3565b60405162461bcd60e51b815260206004820152601c60248201527f536861646f7757616c6c65743a2072696e6720746f6f20736d616c6c000000006044820152606490fd5b7f00000000000000000000000000000000000000000000000000000000000000006001600160a01b0316330361168057565b60405162461bcd60e51b815260206004820152601c60248201527f6163636f756e743a206e6f742066726f6d20456e747279506f696e74000000006044820152606490fd5b9080601f830112156101d9578151906020916116e081610e19565b936116ee6040519586610775565b81855260208086019260051b8201019283116101d957602001905b828210611717575050505090565b81518152908301908301611709565b919060c0838203126101d95782516001600160401b03908181116101d957826117509186016116c5565b9360208101518281116101d957836117699183016116c5565b9360408201519360608301519360808401519081116101d95783019080601f830112156101d95781519161179c83610796565b916117aa6040519384610775565b838352602084830101116101d95760a0926117cb9160208085019101610b7e565b92015190565b602090602060408183019282815285518094520193019160005b8281106117f9575050505090565b8351855293810193928101926001016117eb565b1561181457565b60405162461bcd60e51b815260206004820152601b60248201527f536861646f7757616c6c65743a20696e76616c6964206e6f6e636500000000006044820152606490fd5b634e487b7160e01b600052601160045260246000fd5b600019811461187e5760010190565b611859565b6119b06118976106cb61010084018461144a565b916040907faf5a5af90a78ece430d7df503b54fc4070844db69884a9a4afb00710a4816e538251806118c98782610bc6565b0390a16118e184519460208080978301019101611726565b905086979392949197517f22ffb8160c0a680542a8568a6765cf92558d9f17ad08ce41231a6560b3281d2581806119198684956117d1565b0390a187518061192986826117d1565b0390a186518581527f110cb96fe6c668b63c7e7dabd2d19d22d1965292a36646de1584ccf2d1d9341991611977918390602090a188518a81528390602090a188519081529081906020820190565b0390a1805186519081527fd0224a272636f39b107bc2b5513fa167ba91cade530914ef5ab117148fed5b5690602090a15190511461121e565b8251631ab4cba160e11b8152600481018590526001600160a01b037f00000000000000000000000000000000000000000000000000000000000000001695909281846024818a5afa9182156105e057611a18611a2493611a2d96600091611ab65750156111d2565b6002549101351461180d565b6000541461125e565b823b156101d9575163710f4f0760e11b81526004810191909152906000908290602490829084905af180156105e057611aa3575b50611a75611a7060025461186f565b600255565b600054907f666d7863826bd53b7bf76f64d9fe42c21a5534df16473ac6b98b21702be12644600080a3600090565b806105d4611ab092610742565b38611a61565b6106059150833d851161060b576105fd8183610775565b906001820180921161187e57565b9190820180921161187e57565b8115611af2570690565b634e487b7160e01b600052601260045260246000fd5b805182101561143b5760209160051b010190565b815160005b818110611b315750505050600090565b604080519060209182810181611b4b888360209181520190565b0391611b5f601f1993848101835282610775565b519020611b7d611b7787611b7288611acd565b611ae8565b89611b08565b5103611c1857600192835b868110611bab575b50505050611ba2576001905b01611b21565b50505050600190565b611bc787611b7283611bc28a9d9a9c98999c611acd565b611adb565b8551838101868152611bf191611be7816020840103888101835282610775565b5190209188611b08565b5103611c065760010197949796939296611b88565b50505093505092600038808080611b90565b505050600190611b9c565b916000928392602083519301915af1611c3a611399565b9015611c435750565b602081519101fd5b908160209103126101d9575190565b90813b15611ce057600080516020611d7e83398151915280546001600160a01b0319166001600160a01b0384169081179091557fbc7cd75a20ee27fd9adebab32041f755214dbc6bffa90cc0225b39da2e5c2d3b600080a2805115611cc557611cc291611d01565b50565b505034611cce57565b60405163b398979f60e01b8152600490fd5b604051634c9c8ce360e01b81526001600160a01b0383166004820152602490fd5b60008061080393602081519101845af4611d19611399565b9190611d415750805115611d2f57805190602001fd5b604051630a12f52160e11b8152600490fd5b81511580611d74575b611d52575090565b604051639996b31560e01b81526001600160a01b039091166004820152602490fd5b50803b15611d4a56fe360894a13ba1a3210667c828492db98dca3e2076cc3735a920a3ca505d382bbcf0c57e16840df040f15088dc2f81fe391c3923bec73e23a9662efc9c229c6a00a2646970667358221220a99d16a0f0d85d9ed81c3a4517f512e08aedc37550aa2c5fef09465dac03d9f864736f6c63430008190033","linkReferences":{}},"methodIdentifiers":{"UPGRADE_INTERFACE_VERSION()":"ad3cb1cc","challengeSignature(uint256[],uint256[],bytes,bytes32,bytes32)":"ec6ab285","entryPoint()":"b0d691fe","execute(address,uint256,bytes)":"b61d27f6","executeBatch(address[],uint256[],bytes[])":"47e1da2a","getNonce()":"d087d288","initKeyImageHash()":"03a3c2bf","initialize(bytes,bytes32)":"5c6e5d88","keyImageRegistry()":"6c5d8ae7","nonce()":"affed0e0","onERC1155BatchReceived(address,address,uint256[],uint256[],bytes)":"bc197c81","onERC1155Received(address,address,uint256,uint256,bytes)":"f23a6e61","onERC721Received(address,address,uint256,bytes)":"150b7a02","proxiableUUID()":"52d1902d","ringId()":"f4b6e01e","supportsInterface(bytes4)":"01ffc9a7","upgradeTo(address,uint256[],uint256[],bytes32,bytes32,bytes32)":"fd0bc804","upgradeToAndCall(address,bytes)":"4f1ef286","validateSignature((address,uint256,bytes,bytes,bytes32,uint256,bytes32,bytes,bytes),bytes32)":"ee68ab57","validateUserOp((address,uint256,bytes,bytes,bytes32,uint256,bytes32,bytes,bytes),bytes32,uint256)":"19822f7c","withdrawETH(address,uint256,uint256[],uint256[],bytes32,bytes32,bytes32)":"1a78169d"},"id":47}