{"abi":[{"type":"function","name":"aggregate","inputs":[{"name":"calls","type":"tuple[]","internalType":"struct Multicall3.Call[]","components":[{"name":"target","type":"address","internalType":"address"},{"name":"callData","type":"bytes","internalType":"bytes"}]}],"outputs":[{"name":"blockNumber","type":"uint256","internalType":"uint256"},{"name":"returnData","type":"bytes[]","internalType":"bytes[]"}],"stateMutability":"payable"},{"type":"function","name":"aggregate3","inputs":[{"name":"calls","type":"tuple[]","internalType":"struct Multicall3.Call3[]","components":[{"name":"target","type":"address","internalType":"address"},{"name":"allowFailure","type":"bool","internalType":"bool"},{"name":"callData","type":"bytes","internalType":"bytes"}]}],"outputs":[{"name":"returnData","type":"tuple[]","internalType":"struct Multicall3.Result[]","components":[{"name":"success","type":"bool","internalType":"bool"},{"name":"returnData","type":"bytes","internalType":"bytes"}]}],"stateMutability":"payable"},{"type":"function","name":"aggregate3Value","inputs":[{"name":"calls","type":"tuple[]","internalType":"struct Multicall3.Call3Value[]","components":[{"name":"target","type":"address","internalType":"address"},{"name":"allowFailure","type":"bool","internalType":"bool"},{"name":"value","type":"uint256","internalType":"uint256"},{"name":"callData","type":"bytes","internalType":"bytes"}]}],"outputs":[{"name":"returnData","type":"tuple[]","internalType":"struct Multicall3.Result[]","components":[{"name":"success","type":"bool","internalType":"bool"},{"name":"returnData","type":"bytes","internalType":"bytes"}]}],"stateMutability":"payable"},{"type":"function","name":"blockAndAggregate","inputs":[{"name":"calls","type":"tuple[]","internalType":"struct Multicall3.Call[]","components":[{"name":"target","type":"address","internalType":"address"},{"name":"callData","type":"bytes","internalType":"bytes"}]}],"outputs":[{"name":"blockNumber","type":"uint256","internalType":"uint256"},{"name":"blockHash","type":"bytes32","internalType":"bytes32"},{"name":"returnData","type":"tuple[]","internalType":"struct Multicall3.Result[]","components":[{"name":"success","type":"bool","internalType":"bool"},{"name":"returnData","type":"bytes","internalType":"bytes"}]}],"stateMutability":"payable"},{"type":"function","name":"getBasefee","inputs":[],"outputs":[{"name":"basefee","type":"uint256","internalType":"uint256"}],"stateMutability":"view"},{"type":"function","name":"getBlockHash","inputs":[{"name":"blockNumber","type":"uint256","internalType":"uint256"}],"outputs":[{"name":"blockHash","type":"bytes32","internalType":"bytes32"}],"stateMutability":"view"},{"type":"function","name":"getBlockNumber","inputs":[],"outputs":[{"name":"blockNumber","type":"uint256","internalType":"uint256"}],"stateMutability":"view"},{"type":"function","name":"getChainId","inputs":[],"outputs":[{"name":"chainid","type":"uint256","internalType":"uint256"}],"stateMutability":"view"},{"type":"function","name":"getCurrentBlockCoinbase","inputs":[],"outputs":[{"name":"coinbase","type":"address","internalType":"address"}],"stateMutability":"view"},{"type":"function","name":"getCurrentBlockDifficulty","inputs":[],"outputs":[{"name":"difficulty","type":"uint256","internalType":"uint256"}],"stateMutability":"view"},{"type":"function","name":"getCurrentBlockGasLimit","inputs":[],"outputs":[{"name":"gaslimit","type":"uint256","internalType":"uint256"}],"stateMutability":"view"},{"type":"function","name":"getCurrentBlockTimestamp","inputs":[],"outputs":[{"name":"timestamp","type":"uint256","internalType":"uint256"}],"stateMutability":"view"},{"type":"function","name":"getEthBalance","inputs":[{"name":"addr","type":"address","internalType":"address"}],"outputs":[{"name":"balance","type":"uint256","internalType":"uint256"}],"stateMutability":"view"},{"type":"function","name":"getLastBlockHash","inputs":[],"outputs":[{"name":"blockHash","type":"bytes32","internalType":"bytes32"}],"stateMutability":"view"},{"type":"function","name":"tryAggregate","inputs":[{"name":"requireSuccess","type":"bool","internalType":"bool"},{"name":"calls","type":"tuple[]","internalType":"struct Multicall3.Call[]","components":[{"name":"target","type":"address","internalType":"address"},{"name":"callData","type":"bytes","internalType":"bytes"}]}],"outputs":[{"name":"returnData","type":"tuple[]","internalType":"struct Multicall3.Result[]","components":[{"name":"success","type":"bool","internalType":"bool"},{"name":"returnData","type":"bytes","internalType":"bytes"}]}],"stateMutability":"payable"},{"type":"function","name":"tryBlockAndAggregate","inputs":[{"name":"requireSuccess","type":"bool","internalType":"bool"},{"name":"calls","type":"tuple[]","internalType":"struct Multicall3.Call[]","components":[{"name":"target","type":"address","internalType":"address"},{"name":"callData","type":"bytes","internalType":"bytes"}]}],"outputs":[{"name":"blockNumber","type":"uint256","internalType":"uint256"},{"name":"blockHash","type":"bytes32","internalType":"bytes32"},{"name":"returnData","type":"tuple[]","internalType":"struct Multicall3.Result[]","components":[{"name":"success","type":"bool","internalType":"bool"},{"name":"returnData","type":"bytes","internalType":"bytes"}]}],"stateMutability":"payable"}],"bytecode":{"object":"0x60808060405234601557610aca908161001b8239f35b600080fdfe6080604052600436101561001257600080fd5b60003560e01c80630f28c97d14610117578063174dea7114610112578063252dba421461010d57806327e86d6e146101085780633408e47014610103578063399542e9146100fe5780633e64a696146100f957806342cbb15c146100f45780634d2301cc146100ef57806372425d9d146100ea57806382ad56cb146100e557806386d516e8146100e0578063a8b0574e146100db578063bce38bd7146100d6578063c3077fa9146100d15763ee82ac5e146100cc57600080fd5b610775565b6106db565b6106b8565b61069d565b610682565b6105b8565b61059d565b610575565b610549565b61052e565b61050a565b61049a565b61047a565b6103b9565b61025b565b34610132576000366003190112610132576020604051428152f35b600080fd5b9181601f840112156101325782359167ffffffffffffffff8311610132576020808501948460051b01011161013257565b6020600319820112610132576004359067ffffffffffffffff82116101325761019391600401610137565b9091565b919082519283825260005b8481106101c3575050826000602080949584010152601f8019910116010190565b6020818301810151848301820152016101a2565b908082519081815260208091019281808460051b8301019501936000915b8483106102055750505050505090565b9091929394958480610237600193601f198682030187528a518360409180511515845201519181858201520190610197565b98019301930191949392906101f5565b9060206102589281815201906101d7565b90565b61026436610168565b600061026f826107ec565b9160005b8181106102995761029584610289853414610928565b60405191829182610247565b0390f35b6102a38185610866565b516102af82848861087f565b60008060406102e381850135809901986102c8866108a1565b926102d660608801886108ab565b93909151809481936108de565b03925af1916102f06108ec565b90610305602094859384840152829015159052565b5191013517156103185750600101610273565b62461bcd60e51b600052600452601760245276135d5b1d1a58d85b1b0cce8818d85b1b0819985a5b1959604a1b60445260846000fd5b906040820190825260206040602084015283518092526060830192602060608460051b8301019501936000915b84831061038b5750505050505090565b90919293949584806103a9600193605f198682030187528a51610197565b980193019301919493929061037b565b6103c236610168565b906103d46103cf836107d4565b6107a9565b82815291601f196103e4826107d4565b0160005b81811061046957505060005b81811061040a576040518061029586438361034e565b8061046360008061041e6001958789610974565b8161043661042b836108a1565b9260208101906108ab565b9190610447604051809481936108de565b03925af16104536108ec565b61045d8489610866565b52610996565b016103f4565b8060606020809388010152016103e8565b346101325760003660031901126101325760206040516000194301408152f35b34610132576000366003190112610132576020604051468152f35b90604060031983011261013257600435801515810361013257916024359067ffffffffffffffff82116101325761019391600401610137565b61025893926060928252602082015281604082015201906101d7565b61029561051f610519366104b5565b916109fe565b604051918291434043846104ee565b34610132576000366003190112610132576020604051488152f35b34610132576000366003190112610132576020604051438152f35b6001600160a01b0381160361013257565b3461013257602036600319011261013257602060043561059481610564565b31604051908152f35b34610132576000366003190112610132576020604051448152f35b6105c136610168565b6105ca816107ec565b9060005b8181106105e357604051806102958582610247565b6105ed8184610866565b516105f98284876109dc565b600080610605836108a1565b6106178260406102d6818801886108ab565b03925af1916106246108ec565b90610639602094859384840152829015159052565b51910135171561064c57506001016105ce565b62461bcd60e51b600052600452601760245276135d5b1d1a58d85b1b0cce8818d85b1b0819985a5b1959604a1b60445260646000fd5b34610132576000366003190112610132576020604051458152f35b34610132576000366003190112610132576020604051418152f35b6102956106c7610519366104b5565b6040519182916020835260208301906101d7565b6106e436610168565b6106ed816107ec565b9160005b82811061070a57604051806102958643804090846104ee565b8061076f61071a60019387610866565b51610726838787610974565b600080823561073481610564565b81610744602095868101906108ab565b9190826040519384928337810182815203925af1906107616108ec565b908301521515809152610996565b016106f1565b34610132576020366003190112610132576020604051600435408152f35b634e487b7160e01b600052604160045260246000fd5b6040519190601f01601f1916820167ffffffffffffffff8111838210176107cf57604052565b610793565b67ffffffffffffffff81116107cf5760051b60200190565b906107f96103cf836107d4565b828152809261080a601f19916107d4565b016000805b82811061081c5750505050565b604090815182810181811067ffffffffffffffff8211176107cf57602093528381528260608183015282870101520161080f565b634e487b7160e01b600052603260045260246000fd5b805182101561087a5760209160051b010190565b610850565b919081101561087a5760051b81013590607e1981360301821215610132570190565b3561025881610564565b903590601e1981360301821215610132570180359067ffffffffffffffff82116101325760200191813603831361013257565b908092918237016000815290565b3d15610923573d9067ffffffffffffffff82116107cf57610916601f8301601f19166020016107a9565b9182523d6000602084013e565b606090565b1561092f57565b60405162461bcd60e51b815260206004820152601a60248201527f4d756c746963616c6c333a2076616c7565206d69736d617463680000000000006044820152606490fd5b919081101561087a5760051b81013590603e1981360301821215610132570190565b1561099d57565b60405162461bcd60e51b8152602060048201526017602482015276135d5b1d1a58d85b1b0cce8818d85b1b0819985a5b1959604a1b6044820152606490fd5b919081101561087a5760051b81013590605e1981360301821215610132570190565b929190610a0a826107ec565b9360005b838110610a1b5750505050565b80610a2860019288610866565b5183610a35838888610974565b6000808235610a4381610564565b81610a53602095868101906108ab565b9190826040519384928337810182815203925af190610a706108ec565b908401521515809252610a85575b5001610a0e565b610a8e90610996565b38610a7e56fea2646970667358221220be5c55bb3a6f11b9f0691785c17c8976b7420d395bda370d31659d00d11777ee64736f6c63430008190033","linkReferences":{}},"methodIdentifiers":{"aggregate((address,bytes)[])":"252dba42","aggregate3((address,bool,bytes)[])":"82ad56cb","aggregate3Value((address,bool,uint256,bytes)[])":"174dea71","blockAndAggregate((address,bytes)[])":"c3077fa9","getBasefee()":"3e64a696","getBlockHash(uint256)":"ee82ac5e","getBlockNumber()":"42cbb15c","getChainId()":"3408e470","getCurrentBlockCoinbase()":"a8b0574e","getCurrentBlockDifficulty()":"72425d9d","getCurrentBlockGasLimit()":"86d516e8","getCurrentBlockTimestamp()":"0f28c97d","getEthBalance(address)":"4d2301cc","getLastBlockHash()":"27e86d6e","tryAggregate(bool,(address,bytes)[])":"bce38bd7","tryBlockAndAggregate(bool,(address,bytes)[])":"399542e9"},"id":86}