{"abi":[{"type":"constructor","inputs":[],"stateMutability":"nonpayable"},{"type":"function","name":"getRSAKey","inputs":[{"name":"domain","type":"string","internalType":"string"},{"name":"selector","type":"string","internalType":"string"}],"outputs":[{"name":"modulus","type":"bytes","internalType":"bytes"},{"name":"exponent","type":"bytes","internalType":"bytes"}],"stateMutability":"view"},{"type":"function","name":"owner","inputs":[],"outputs":[{"name":"","type":"address","internalType":"address"}],"stateMutability":"view"},{"type":"function","name":"publicKeys","inputs":[{"name":"","type":"string","internalType":"string"},{"name":"","type":"string","internalType":"string"}],"outputs":[{"name":"modulus","type":"bytes","internalType":"bytes"},{"name":"exponent","type":"bytes","internalType":"bytes"}],"stateMutability":"view"},{"type":"function","name":"renounceOwnership","inputs":[],"outputs":[],"stateMutability":"nonpayable"},{"type":"function","name":"setPublicKey","inputs":[{"name":"domain","type":"string","internalType":"string"},{"name":"selector","type":"string","internalType":"string"},{"name":"modulus","type":"bytes","internalType":"bytes"},{"name":"exponent","type":"bytes","internalType":"bytes"}],"outputs":[],"stateMutability":"nonpayable"},{"type":"function","name":"transferOwnership","inputs":[{"name":"newOwner","type":"address","internalType":"address"}],"outputs":[],"stateMutability":"nonpayable"},{"type":"event","name":"OwnershipTransferred","inputs":[{"name":"previousOwner","type":"address","indexed":true,"internalType":"address"},{"name":"newOwner","type":"address","indexed":true,"internalType":"address"}],"anonymous":false},{"type":"error","name":"OwnableInvalidOwner","inputs":[{"name":"owner","type":"address","internalType":"address"}]},{"type":"error","name":"OwnableUnauthorizedAccount","inputs":[{"name":"account","type":"address","internalType":"address"}]}],"bytecode":{"object":"0x60808060405234607857331560625760008054336001600160a01b03198216811783556040519290916001600160a01b0316907f8be0079c531659141344cd1fd0a4f28419497f9722a3daafe3b4186f6b6457e09080a36107fb908161007e8239f35b631e4fbdf760e01b815260006004820152602490fd5b600080fdfe60406080815260048036101561001457600080fd5b600091823560e01c8063149599691461017b57806320a01e03146101df578063390093071461017b578063715018a61461011e5780638da5cb5b146100f25763f2fde38b1461006257600080fd5b346100ee5760203660031901126100ee576001600160a01b038235818116939192908490036100ea57610093610799565b83156100d457505082546001600160a01b0319811683178455167f8be0079c531659141344cd1fd0a4f28419497f9722a3daafe3b4186f6b6457e08380a380f35b51631e4fbdf760e01b8152908101849052602490fd5b8480fd5b8280fd5b83823461011a578160031936011261011a57905490516001600160a01b039091168152602090f35b5080fd5b8334610178578060031936011261017857610137610799565b80546001600160a01b03198116825581906001600160a01b03167f8be0079c531659141344cd1fd0a4f28419497f9722a3daafe3b4186f6b6457e08280a380f35b80fd5b50823461017857506101b860206101a8610194366105b5565b9290818651938285809451938492016105f9565b8101600181520301902090610694565b6101db6101d060016101c9846106f4565b93016106f4565b925192839283610641565b0390f35b5090346100ee5760803660031901126100ee5767ffffffffffffffff81358181116100ea576102119036908401610666565b909260243583811161050f5761022a9036908301610666565b909260443585811161050b576102439036908501610666565b94906064358781116105075761025c9036908701610666565b9091610266610799565b8a51978b89018981108b8211176104f4578796959492610297949261028e928f52369161054b565b8952369161054b565b9860209485938489019b8c528083519b8c378a0199848160019c8d8152030190209151948593843782019081520301902092519283518581116104e1579086916102e182546106ba565b95601f96878111610494575b508490878311600114610432578b919083610427575b5050600019600383901b1c191690831b1781555b019551918251948511610414575061032f86546106ba565b8381116103d1575b508092841160011461037057509282939183928794610365575b50501b916000199060031b1c191617905580f35b015192503880610351565b919083601f1981168789528489209489905b888383106103b7575050501061039e575b505050811b01905580f35b015160001960f88460031b161c19169055388080610393565b858701518855909601959485019487935090810190610382565b8688528188208480870160051c82019284881061040b575b0160051c019086905b828110610400575050610337565b8981550186906103f2565b925081926103e9565b634e487b7160e01b885260419052602487fd5b015190503880610303565b838c52858c209190601f1984168d5b8882821061047e5750509084879594939210610465575b505050811b018155610317565b015160001960f88460031b161c19169055388080610458565b8385015186558d98909501949384019301610441565b9091928094508b52848b208780850160051c8201928786106104d8575b908b9695949392910160051c01905b8181106104cd57506102ed565b8c81558a95016104c0565b925081926104b1565b634e487b7160e01b895260418452602489fd5b634e487b7160e01b8e526041895260248efd5b8a80fd5b8880fd5b8680fd5b90601f8019910116810190811067ffffffffffffffff82111761053557604052565b634e487b7160e01b600052604160045260246000fd5b92919267ffffffffffffffff82116105355760405191610575601f8201601f191660200184610513565b829481845281830111610592578281602093846000960137010152565b600080fd5b9080601f83011215610592578160206105b29335910161054b565b90565b9060406003198301126105925767ffffffffffffffff60043581811161059257836105e291600401610597565b92602435918211610592576105b291600401610597565b60005b83811061060c5750506000910152565b81810151838201526020016105fc565b90602091610635815180928185528580860191016105f9565b601f01601f1916010190565b90916106586105b29360408452604084019061061c565b91602081840391015261061c565b9181601f840112156105925782359167ffffffffffffffff8311610592576020838186019501011161059257565b6020906106ae9282604051948386809551938492016105f9565b82019081520301902090565b90600182811c921680156106ea575b60208310146106d457565b634e487b7160e01b600052602260045260246000fd5b91607f16916106c9565b90604051918260008254610707816106ba565b908184526020946001916001811690816000146107775750600114610738575b50505061073692500383610513565b565b600090815285812095935091905b81831061075f5750506107369350820101388080610727565b85548884018501529485019487945091830191610746565b9250505061073694925060ff191682840152151560051b820101388080610727565b6000546001600160a01b031633036107ad57565b60405163118cdaa760e01b8152336004820152602490fdfea2646970667358221220f5672908e1754c03dc61323f675866afe6b77c8fa598c20a6b101350a07b76a064736f6c63430008190033","linkReferences":{}},"methodIdentifiers":{"getRSAKey(string,string)":"14959969","owner()":"8da5cb5b","publicKeys(string,string)":"39009307","renounceOwnership()":"715018a6","setPublicKey(string,string,bytes,bytes)":"20a01e03","transferOwnership(address)":"f2fde38b"},"id":88}