{"abi":[{"type":"constructor","inputs":[],"stateMutability":"nonpayable"},{"type":"function","name":"getRSAKey","inputs":[{"name":"domain","type":"string","internalType":"string"},{"name":"selector","type":"string","internalType":"string"}],"outputs":[{"name":"modulus","type":"bytes","internalType":"bytes"},{"name":"exponent","type":"bytes","internalType":"bytes"}],"stateMutability":"view"},{"type":"function","name":"owner","inputs":[],"outputs":[{"name":"","type":"address","internalType":"address"}],"stateMutability":"view"},{"type":"function","name":"publicKeys","inputs":[{"name":"","type":"string","internalType":"string"},{"name":"","type":"string","internalType":"string"}],"outputs":[{"name":"modulus","type":"bytes","internalType":"bytes"},{"name":"exponent","type":"bytes","internalType":"bytes"}],"stateMutability":"view"},{"type":"function","name":"renounceOwnership","inputs":[],"outputs":[],"stateMutability":"nonpayable"},{"type":"function","name":"setPublicKey","inputs":[{"name":"domain","type":"string","internalType":"string"},{"name":"selector","type":"string","internalType":"string"},{"name":"modulus","type":"bytes","internalType":"bytes"},{"name":"exponent","type":"bytes","internalType":"bytes"}],"outputs":[],"stateMutability":"nonpayable"},{"type":"function","name":"transferOwnership","inputs":[{"name":"newOwner","type":"address","internalType":"address"}],"outputs":[],"stateMutability":"nonpayable"},{"type":"event","name":"OwnershipTransferred","inputs":[{"name":"previousOwner","type":"address","indexed":true,"internalType":"address"},{"name":"newOwner","type":"address","indexed":true,"internalType":"address"}],"anonymous":false},{"type":"error","name":"OwnableInvalidOwner","inputs":[{"name":"owner","type":"address","internalType":"address"}]},{"type":"error","name":"OwnableUnauthorizedAccount","inputs":[{"name":"account","type":"address","internalType":"address"}]}],"bytecode":{"object":"0x6080604052348015600f57600080fd5b503380603557604051631e4fbdf760e01b81526000600482015260240160405180910390fd5b603c816041565b506091565b600080546001600160a01b038381166001600160a01b0319831681178455604051919092169283917f8be0079c531659141344cd1fd0a4f28419497f9722a3daafe3b4186f6b6457e09190a35050565b6109e4806100a06000396000f3fe608060405234801561001057600080fd5b50600436106100625760003560e01c8063149599691461006757806320a01e031461009157806339009307146100a6578063715018a6146100b95780638da5cb5b146100c1578063f2fde38b146100dc575b600080fd5b61007a61007536600461061f565b6100ef565b6040516100889291906106d3565b60405180910390f35b6100a461009f366004610743565b61025d565b005b61007a6100b436600461061f565b610354565b6100a46104a8565b6000546040516001600160a01b039091168152602001610088565b6100a46100ea366004610807565b6104bc565b60608060006001856040516101049190610837565b9081526020016040518091039020846040516101209190610837565b90815260200160405180910390209050806000018160010181805461014490610853565b80601f016020809104026020016040519081016040528092919081815260200182805461017090610853565b80156101bd5780601f10610192576101008083540402835291602001916101bd565b820191906000526020600020905b8154815290600101906020018083116101a057829003601f168201915b505050505091508080546101d090610853565b80601f01602080910402602001604051908101604052809291908181526020018280546101fc90610853565b80156102495780601f1061021e57610100808354040283529160200191610249565b820191906000526020600020905b81548152906001019060200180831161022c57829003601f168201915b5050505050905092509250505b9250929050565b6102656104ff565b6040805160606020601f8701819004028201810183529181018581526000928291908890889081908501838280828437600092019190915250505090825250604080516020601f870181900481028201810190925285815291810191908690869081908401838280828437600092019190915250505091525060405190915081906001906102f6908c908c9061088d565b9081526020016040518091039020888860405161031492919061088d565b9081526040519081900360200190208151819061033190826108ee565b506020820151600182019061034690826108ee565b505050505050505050505050565b8151602081840181018051600182529282019482019490942091909352815180830184018051928152908401929093019190912091528054819061039790610853565b80601f01602080910402602001604051908101604052809291908181526020018280546103c390610853565b80156104105780601f106103e557610100808354040283529160200191610410565b820191906000526020600020905b8154815290600101906020018083116103f357829003601f168201915b50505050509080600101805461042590610853565b80601f016020809104026020016040519081016040528092919081815260200182805461045190610853565b801561049e5780601f106104735761010080835404028352916020019161049e565b820191906000526020600020905b81548152906001019060200180831161048157829003601f168201915b5050505050905082565b6104b06104ff565b6104ba600061052c565b565b6104c46104ff565b6001600160a01b0381166104f357604051631e4fbdf760e01b8152600060048201526024015b60405180910390fd5b6104fc8161052c565b50565b6000546001600160a01b031633146104ba5760405163118cdaa760e01b81523360048201526024016104ea565b600080546001600160a01b038381166001600160a01b0319831681178455604051919092169283917f8be0079c531659141344cd1fd0a4f28419497f9722a3daafe3b4186f6b6457e09190a35050565b634e487b7160e01b600052604160045260246000fd5b600082601f8301126105a357600080fd5b813567ffffffffffffffff808211156105be576105be61057c565b604051601f8301601f19908116603f011681019082821181831017156105e6576105e661057c565b816040528381528660208588010111156105ff57600080fd5b836020870160208301376000602085830101528094505050505092915050565b6000806040838503121561063257600080fd5b823567ffffffffffffffff8082111561064a57600080fd5b61065686838701610592565b9350602085013591508082111561066c57600080fd5b5061067985828601610592565b9150509250929050565b60005b8381101561069e578181015183820152602001610686565b50506000910152565b600081518084526106bf816020860160208601610683565b601f01601f19169290920160200192915050565b6040815260006106e660408301856106a7565b82810360208401526106f881856106a7565b95945050505050565b60008083601f84011261071357600080fd5b50813567ffffffffffffffff81111561072b57600080fd5b60208301915083602082850101111561025657600080fd5b6000806000806000806000806080898b03121561075f57600080fd5b883567ffffffffffffffff8082111561077757600080fd5b6107838c838d01610701565b909a50985060208b013591508082111561079c57600080fd5b6107a88c838d01610701565b909850965060408b01359150808211156107c157600080fd5b6107cd8c838d01610701565b909650945060608b01359150808211156107e657600080fd5b506107f38b828c01610701565b999c989b5096995094979396929594505050565b60006020828403121561081957600080fd5b81356001600160a01b038116811461083057600080fd5b9392505050565b60008251610849818460208701610683565b9190910192915050565b600181811c9082168061086757607f821691505b60208210810361088757634e487b7160e01b600052602260045260246000fd5b50919050565b8183823760009101908152919050565b601f8211156108e9576000816000526020600020601f850160051c810160208610156108c65750805b601f850160051c820191505b818110156108e5578281556001016108d2565b5050505b505050565b815167ffffffffffffffff8111156109085761090861057c565b61091c816109168454610853565b8461089d565b602080601f83116001811461095157600084156109395750858301515b600019600386901b1c1916600185901b1785556108e5565b600085815260208120601f198616915b8281101561098057888601518255948401946001909101908401610961565b508582101561099e5787850151600019600388901b60f8161c191681555b5050505050600190811b0190555056fea2646970667358221220d61f92bbbe08dc1565d4af88aeaeeceeaa20222433a5fe82295d96a0c357ba2c64736f6c63430008190033","linkReferences":{}},"methodIdentifiers":{"getRSAKey(string,string)":"14959969","owner()":"8da5cb5b","publicKeys(string,string)":"39009307","renounceOwnership()":"715018a6","setPublicKey(string,string,bytes,bytes)":"20a01e03","transferOwnership(address)":"f2fde38b"},"id":86}