{"abi":[{"type":"constructor","inputs":[{"name":"entryPoint_","type":"address","internalType":"address"}],"stateMutability":"nonpayable"},{"type":"receive","stateMutability":"payable"},{"type":"function","name":"UPGRADE_INTERFACE_VERSION","inputs":[],"outputs":[{"name":"","type":"string","internalType":"string"}],"stateMutability":"view"},{"type":"function","name":"addDeposit","inputs":[],"outputs":[],"stateMutability":"payable"},{"type":"function","name":"delegateCall","inputs":[{"name":"payload","type":"bytes","internalType":"bytes"}],"outputs":[{"name":"","type":"bool","internalType":"bool"},{"name":"","type":"bytes","internalType":"bytes"}],"stateMutability":"nonpayable"},{"type":"function","name":"ecrecovery","inputs":[{"name":"hash","type":"bytes32","internalType":"bytes32"},{"name":"signature","type":"bytes","internalType":"bytes"}],"outputs":[{"name":"","type":"address","internalType":"address"}],"stateMutability":"pure"},{"type":"function","name":"emailHash","inputs":[],"outputs":[{"name":"","type":"uint256","internalType":"uint256"}],"stateMutability":"view"},{"type":"function","name":"encodeSignatures","inputs":[{"name":"signatures","type":"bytes[]","internalType":"bytes[]"}],"outputs":[{"name":"","type":"bytes","internalType":"bytes"}],"stateMutability":"pure"},{"type":"function","name":"entryPoint","inputs":[],"outputs":[{"name":"","type":"address","internalType":"contract IEntryPoint"}],"stateMutability":"view"},{"type":"function","name":"execute","inputs":[{"name":"dest","type":"address","internalType":"address"},{"name":"value","type":"uint256","internalType":"uint256"},{"name":"func","type":"bytes","internalType":"bytes"}],"outputs":[],"stateMutability":"nonpayable"},{"type":"function","name":"executeBatch","inputs":[{"name":"dests","type":"address[]","internalType":"address[]"},{"name":"values","type":"uint256[]","internalType":"uint256[]"},{"name":"funcs","type":"bytes[]","internalType":"bytes[]"}],"outputs":[],"stateMutability":"nonpayable"},{"type":"function","name":"getDeposit","inputs":[],"outputs":[{"name":"","type":"uint256","internalType":"uint256"}],"stateMutability":"view"},{"type":"function","name":"getNonce","inputs":[],"outputs":[{"name":"","type":"uint256","internalType":"uint256"}],"stateMutability":"view"},{"type":"function","name":"getRecoveryBody","inputs":[{"name":"newOwner","type":"address","internalType":"address"}],"outputs":[{"name":"","type":"bytes","internalType":"bytes"}],"stateMutability":"view"},{"type":"function","name":"implement","inputs":[{"name":"account","type":"address","internalType":"address"},{"name":"interfaceIds","type":"bytes4[]","internalType":"bytes4[]"}],"outputs":[],"stateMutability":"nonpayable"},{"type":"function","name":"implementer","inputs":[{"name":"","type":"bytes4","internalType":"bytes4"}],"outputs":[{"name":"","type":"address","internalType":"address"}],"stateMutability":"view"},{"type":"function","name":"initialize","inputs":[{"name":"_socialRecovery","type":"address","internalType":"address"},{"name":"anOwner","type":"address","internalType":"address"},{"name":"_emailHash","type":"uint256","internalType":"uint256"}],"outputs":[],"stateMutability":"nonpayable"},{"type":"function","name":"nonce","inputs":[],"outputs":[{"name":"","type":"uint256","internalType":"uint256"}],"stateMutability":"view"},{"type":"function","name":"onERC1155BatchReceived","inputs":[{"name":"","type":"address","internalType":"address"},{"name":"","type":"address","internalType":"address"},{"name":"","type":"uint256[]","internalType":"uint256[]"},{"name":"","type":"uint256[]","internalType":"uint256[]"},{"name":"","type":"bytes","internalType":"bytes"}],"outputs":[{"name":"","type":"bytes4","internalType":"bytes4"}],"stateMutability":"pure"},{"type":"function","name":"onERC1155Received","inputs":[{"name":"","type":"address","internalType":"address"},{"name":"","type":"address","internalType":"address"},{"name":"","type":"uint256","internalType":"uint256"},{"name":"","type":"uint256","internalType":"uint256"},{"name":"","type":"bytes","internalType":"bytes"}],"outputs":[{"name":"","type":"bytes4","internalType":"bytes4"}],"stateMutability":"pure"},{"type":"function","name":"onERC721Received","inputs":[{"name":"","type":"address","internalType":"address"},{"name":"","type":"address","internalType":"address"},{"name":"","type":"uint256","internalType":"uint256"},{"name":"","type":"bytes","internalType":"bytes"}],"outputs":[{"name":"","type":"bytes4","internalType":"bytes4"}],"stateMutability":"pure"},{"type":"function","name":"owner","inputs":[],"outputs":[{"name":"","type":"address","internalType":"address"}],"stateMutability":"view"},{"type":"function","name":"proxiableUUID","inputs":[],"outputs":[{"name":"","type":"bytes32","internalType":"bytes32"}],"stateMutability":"view"},{"type":"function","name":"recoveryNonce","inputs":[],"outputs":[{"name":"","type":"uint256","internalType":"uint256"}],"stateMutability":"view"},{"type":"function","name":"removeMethod","inputs":[{"name":"interfaceId","type":"bytes4","internalType":"bytes4"}],"outputs":[],"stateMutability":"nonpayable"},{"type":"function","name":"renounceOwnership","inputs":[],"outputs":[],"stateMutability":"nonpayable"},{"type":"function","name":"setEmail","inputs":[{"name":"_emailHash","type":"uint256","internalType":"uint256"}],"outputs":[],"stateMutability":"nonpayable"},{"type":"function","name":"setSocialRecoveryAddress","inputs":[{"name":"_nonce","type":"uint256","internalType":"uint256"},{"name":"_socialRecovery","type":"address","internalType":"address"},{"name":"sign","type":"bytes","internalType":"bytes"}],"outputs":[],"stateMutability":"payable"},{"type":"function","name":"socialRecovery","inputs":[],"outputs":[{"name":"","type":"address","internalType":"contract ISocialRecovery"}],"stateMutability":"view"},{"type":"function","name":"supportsInterface","inputs":[{"name":"interfaceId","type":"bytes4","internalType":"bytes4"}],"outputs":[{"name":"","type":"bool","internalType":"bool"}],"stateMutability":"view"},{"type":"function","name":"transferOwnership","inputs":[{"name":"newOwner","type":"address","internalType":"address"}],"outputs":[],"stateMutability":"nonpayable"},{"type":"function","name":"upgradeToAndCall","inputs":[{"name":"newImplementation","type":"address","internalType":"address"},{"name":"data","type":"bytes","internalType":"bytes"}],"outputs":[],"stateMutability":"payable"},{"type":"function","name":"validateUserOp","inputs":[{"name":"userOp","type":"tuple","internalType":"struct PackedUserOperation","components":[{"name":"sender","type":"address","internalType":"address"},{"name":"nonce","type":"uint256","internalType":"uint256"},{"name":"initCode","type":"bytes","internalType":"bytes"},{"name":"callData","type":"bytes","internalType":"bytes"},{"name":"accountGasLimits","type":"bytes32","internalType":"bytes32"},{"name":"preVerificationGas","type":"uint256","internalType":"uint256"},{"name":"gasFees","type":"bytes32","internalType":"bytes32"},{"name":"paymasterAndData","type":"bytes","internalType":"bytes"},{"name":"signature","type":"bytes","internalType":"bytes"}]},{"name":"userOpHash","type":"bytes32","internalType":"bytes32"},{"name":"missingAccountFunds","type":"uint256","internalType":"uint256"}],"outputs":[{"name":"validationData","type":"uint256","internalType":"uint256"}],"stateMutability":"nonpayable"},{"type":"function","name":"verify","inputs":[{"name":"toSign","type":"string","internalType":"string"},{"name":"body","type":"string","internalType":"string"},{"name":"sign","type":"string","internalType":"string"},{"name":"newOwner","type":"address","internalType":"address"},{"name":"base64Encoded","type":"bool","internalType":"bool"}],"outputs":[{"name":"","type":"bool","internalType":"bool"}],"stateMutability":"nonpayable"},{"type":"event","name":"Initialized","inputs":[{"name":"version","type":"uint64","indexed":false,"internalType":"uint64"}],"anonymous":false},{"type":"event","name":"OwnershipTransferred","inputs":[{"name":"previousOwner","type":"address","indexed":true,"internalType":"address"},{"name":"newOwner","type":"address","indexed":true,"internalType":"address"}],"anonymous":false},{"type":"event","name":"SimpleAccountInitialized","inputs":[{"name":"entryPoint","type":"address","indexed":true,"internalType":"contract IEntryPoint"},{"name":"owner","type":"address","indexed":true,"internalType":"address"},{"name":"emailHash","type":"uint256","indexed":true,"internalType":"uint256"}],"anonymous":false},{"type":"event","name":"Upgraded","inputs":[{"name":"implementation","type":"address","indexed":true,"internalType":"address"}],"anonymous":false},{"type":"error","name":"AddressEmptyCode","inputs":[{"name":"target","type":"address","internalType":"address"}]},{"type":"error","name":"ECDSAInvalidSignature","inputs":[]},{"type":"error","name":"ECDSAInvalidSignatureLength","inputs":[{"name":"length","type":"uint256","internalType":"uint256"}]},{"type":"error","name":"ECDSAInvalidSignatureS","inputs":[{"name":"s","type":"bytes32","internalType":"bytes32"}]},{"type":"error","name":"ERC1967InvalidImplementation","inputs":[{"name":"implementation","type":"address","internalType":"address"}]},{"type":"error","name":"ERC1967NonPayable","inputs":[]},{"type":"error","name":"FailedInnerCall","inputs":[]},{"type":"error","name":"InvalidInitialization","inputs":[]},{"type":"error","name":"NotInitializing","inputs":[]},{"type":"error","name":"OwnableInvalidOwner","inputs":[{"name":"owner","type":"address","internalType":"address"}]},{"type":"error","name":"OwnableUnauthorizedAccount","inputs":[{"name":"account","type":"address","internalType":"address"}]},{"type":"error","name":"UUPSUnauthorizedCallContext","inputs":[]},{"type":"error","name":"UUPSUnsupportedProxiableUUID","inputs":[{"name":"slot","type":"bytes32","internalType":"bytes32"}]}],"bytecode":{"object":"0x60c06040523060805234801561001457600080fd5b50604051612842380380612842833981016040819052610033916100c4565b338061005957604051631e4fbdf760e01b81526000600482015260240160405180910390fd5b61006281610074565b506001600160a01b031660a0526100f4565b600080546001600160a01b038381166001600160a01b0319831681178455604051919092169283917f8be0079c531659141344cd1fd0a4f28419497f9722a3daafe3b4186f6b6457e09190a35050565b6000602082840312156100d657600080fd5b81516001600160a01b03811681146100ed57600080fd5b9392505050565b60805160a0516126ea6101586000396000818161051a015281816109e701528181610b830152818161100e015281816110c1015281816111590152818161130601526113680152600081816115550152818161157e01526116c401526126ea6000f3fe6080604052600436106101e75760003560e01c8063715018a611610102578063b61d27f611610095578063da67bcc411610064578063da67bcc4146105b7578063ed894cd3146105e5578063f23a6e61146105fb578063f2fde38b1461062857600080fd5b8063b61d27f61461053e578063bc197c811461055e578063c399ec881461058d578063d087d288146105a257600080fd5b80639c004270116100d15780639c004270146104a4578063ad3cb1cc146104c4578063affed0e0146104f5578063b0d691fe1461050b57600080fd5b8063715018a61461043157806377d32e941461044657806387ca8f3b146104665780638da5cb5b1461048657600080fd5b806329d3d1b21161017a5780634a58db19116101495780634a58db19146103e15780634f1ef286146103e957806352d1902d146103fc578063589bc4a21461041157600080fd5b806329d3d1b21461036257806336cb8477146103755780633bd5b8d51461038b57806347e1da2a146103c157600080fd5b8063150b7a02116101b6578063150b7a02146102af5780631794bb3c146102f457806319822f7c146103145780631d06d40d1461034257600080fd5b806301ffc9a7146101f35780630a6374fe146102285780630a7739301461026057806313122cc21461028257600080fd5b366101ee57005b600080fd5b3480156101ff57600080fd5b5061021361020e366004611bd6565b610648565b60405190151581526020015b60405180910390f35b34801561023457600080fd5b50600254610248906001600160a01b031681565b6040516001600160a01b03909116815260200161021f565b34801561026c57600080fd5b5061028061027b366004611c00565b61069a565b005b34801561028e57600080fd5b506102a261029d366004611c35565b6106a7565b60405161021f9190611ca0565b3480156102bb57600080fd5b506102db6102ca366004611cfb565b630a85bd0160e11b95945050505050565b6040516001600160e01b0319909116815260200161021f565b34801561030057600080fd5b5061028061030f366004611d69565b6106ec565b34801561032057600080fd5b5061033461032f366004611da5565b61081c565b60405190815260200161021f565b34801561034e57600080fd5b506102a261035d366004611ebb565b610842565b610280610370366004611f7d565b610855565b34801561038157600080fd5b5061033460055481565b34801561039757600080fd5b506102486103a6366004611bd6565b6001602052600090815260409020546001600160a01b031681565b3480156103cd57600080fd5b506102806103dc36600461201a565b6109dc565b610280610b81565b6102806103f73660046120b3565b610c01565b34801561040857600080fd5b50610334610c20565b34801561041d57600080fd5b5061021361042c36600461210e565b610c3d565b34801561043d57600080fd5b50610280610dc7565b34801561045257600080fd5b506102486104613660046121bb565b610ddb565b34801561047257600080fd5b506102806104813660046121eb565b610ed1565b34801561049257600080fd5b506000546001600160a01b0316610248565b3480156104b057600080fd5b506102806104bf366004611bd6565b610f56565b3480156104d057600080fd5b506102a2604051806040016040528060058152602001640352e302e360dc1b81525081565b34801561050157600080fd5b5061033460035481565b34801561051757600080fd5b507f0000000000000000000000000000000000000000000000000000000000000000610248565b34801561054a57600080fd5b5061028061055936600461223d565b611003565b34801561056a57600080fd5b506102db61057936600461227e565b63bc197c8160e01b98975050505050505050565b34801561059957600080fd5b506103346110a1565b3480156105ae57600080fd5b50610334611132565b3480156105c357600080fd5b506105d76105d2366004612338565b611188565b60405161021f929190612374565b3480156105f157600080fd5b5061033460045481565b34801561060757600080fd5b506102db61061636600461238f565b63f23a6e6160e01b9695505050505050565b34801561063457600080fd5b50610280610643366004611c35565b611283565b60006001600160e01b03198216630a85bd0160e11b148061067957506001600160e01b03198216630271189760e51b145b8061069457506001600160e01b031982166301ffc9a760e01b145b92915050565b6106a26112c1565b600555565b606060045460016106b8919061240a565b6040805160208101929092526001600160a01b038416908201526060015b6040516020818303038152906040529050919050565b7ff0c57e16840df040f15088dc2f81fe391c3923bec73e23a9662efc9c229c6a008054600160401b810460ff1615906001600160401b03166000811580156107315750825b90506000826001600160401b0316600114801561074d5750303b155b90508115801561075b575080155b156107795760405163f92ee8a960e01b815260040160405180910390fd5b845467ffffffffffffffff1916600117855583156107a357845460ff60401b1916600160401b1785555b600280546001600160a01b0319166001600160a01b038a1617905560058690556107cc876112ee565b831561081257845460ff60401b19168555604051600181527fc7f505b2f371ae2175ee4913f4499e1f2633a7b5936321eed1cdaeb6115181d29060200160405180910390a15b5050505050505050565b600061082661135d565b61083084846113d5565b905061083b8261148d565b9392505050565b6060816040516020016106d6919061241d565b83806003546001610866919061240a565b146108a85760405162461bcd60e51b815260206004820152600d60248201526c496e76616c6964206e6f6e636560981b60448201526064015b60405180910390fd5b600085856040516020016108cf9291909182526001600160a01b0316602082015260400190565b6040516020818303038152906040529050600081805190602001209050600061092e8287878080601f016020809104026020016040519081016040528093929190818152602001838380828437600092019190915250610ddb92505050565b90506109426000546001600160a01b031690565b6001600160a01b0316816001600160a01b0316146109a25760405162461bcd60e51b815260206004820152601860248201527f41757468206661696c65643a204f6e6c79206f776e6572210000000000000000604482015260640161089f565b5050600280546001600160a01b0319166001600160a01b03871617905550600380549060006109d083612481565b91905055505050505050565b336001600160a01b037f0000000000000000000000000000000000000000000000000000000000000000161480610a1d57506000546001600160a01b031633145b610a395760405162461bcd60e51b815260040161089f9061249a565b848114610a7e5760405162461bcd60e51b815260206004820152601360248201527277726f6e67206465737473206c656e6774687360681b604482015260640161089f565b828114610ac45760405162461bcd60e51b815260206004820152601460248201527377726f6e672076616c756573206c656e6774687360601b604482015260640161089f565b60005b85811015610b7857610b70878783818110610ae457610ae46124e5565b9050602002016020810190610af99190611c35565b868684818110610b0b57610b0b6124e5565b90506020020135858585818110610b2457610b246124e5565b9050602002810190610b3691906124fb565b8080601f0160208091040260200160405190810160405280939291908181526020018383808284376000920191909152506114da92505050565b600101610ac7565b50505050505050565b7f000000000000000000000000000000000000000000000000000000000000000060405163b760faf960e01b81523060048201526001600160a01b03919091169063b760faf99034906024016000604051808303818588803b158015610be657600080fd5b505af1158015610bfa573d6000803e3d6000fd5b5050505050565b610c0961154a565b610c12826115ef565b610c1c82826115f7565b5050565b6000610c2a6116b9565b5060008051602061269583398151915290565b600254600480546040516314bf2aab60e21b8152600093849384936001600160a01b03909216926352fcaaac92610c80928d928d928d9290918d918d9101612541565b600060405180830381865afa158015610c9d573d6000803e3d6000fd5b505050506040513d6000823e601f3d908101601f19168201604052610cc591908101906125a4565b91509150600081604051602001610cdc9190611ca0565b6040516020818303038152906040528051906020012090506005548160001c14610d565760405162461bcd60e51b815260206004820152602560248201527f57616c6c6574205265636f766572793a2077726f6e6720656d61696c20616464604482015264726573732160d81b606482015260840161089f565b82610daf5760405162461bcd60e51b8152602060048201526024808201527f57616c6c6574205265636f766572793a20444b494d20766572696679206661696044820152633632b21760e11b606482015260840161089f565b610db886611283565b50600198975050505050505050565b610dcf6112c1565b610dd96000611702565b565b6020810151604082015160608301516000929190831a601b811015610e0857610e05601b82612630565b90505b8060ff16601b1480610e1d57508060ff16601c145b610e695760405162461bcd60e51b815260206004820152601960248201527f4543445341207369676e617475726520696e636f727265637400000000000000604482015260640161089f565b60408051600081526020810180835288905260ff831691810191909152606081018490526080810183905260019060a0016020604051602081039080840390855afa158015610ebc573d6000803e3d6000fd5b5050604051601f190151979650505050505050565b610ed96112c1565b60005b81811015610f50578360016000858585818110610efb57610efb6124e5565b9050602002016020810190610f109190611bd6565b6001600160e01b0319168152602081019190915260400160002080546001600160a01b0319166001600160a01b0392909216919091179055600101610edc565b50505050565b610f5e6112c1565b6001600160e01b031981166000908152600160205260409020546001600160a01b0316610fdb5760405162461bcd60e51b815260206004820152602560248201527f506c7567696e52656769737472793a206d6574686f64206e6f742072656769736044820152641d195c995960da1b606482015260840161089f565b6001600160e01b031916600090815260016020526040902080546001600160a01b0319169055565b336001600160a01b037f000000000000000000000000000000000000000000000000000000000000000016148061104457506000546001600160a01b031633145b6110605760405162461bcd60e51b815260040161089f9061249a565b610f50848484848080601f0160208091040260200160405190810160405280939291908181526020018383808284376000920191909152506114da92505050565b6040516370a0823160e01b81523060048201526000906001600160a01b037f000000000000000000000000000000000000000000000000000000000000000016906370a08231906024015b602060405180830381865afa158015611109573d6000803e3d6000fd5b505050506040513d601f19601f8201168201806040525081019061112d9190612649565b905090565b604051631aab3f0d60e11b8152306004820152600060248201819052906001600160a01b037f000000000000000000000000000000000000000000000000000000000000000016906335567e1a906044016110ec565b60006060600061119784611752565b6001600160e01b031981166000908152600160205260409020549091506001600160a01b0316806112195760405162461bcd60e51b815260206004820152602660248201527f506c7567696e52656769737472793a206d6574686f64206e6f7420696d706c656044820152651b595b9d195960d21b606482015260840161089f565b600080826001600160a01b0316876040516112349190612662565b600060405180830381855af49150503d806000811461126f576040519150601f19603f3d011682016040523d82523d6000602084013e611274565b606091505b50909890975095505050505050565b61128b6112c1565b6001600160a01b0381166112b557604051631e4fbdf760e01b81526000600482015260240161089f565b6112be81611702565b50565b6000546001600160a01b03163314610dd95760405163118cdaa760e01b815233600482015260240161089f565b6112f781611702565b600554816001600160a01b03167f00000000000000000000000000000000000000000000000000000000000000006001600160a01b03167f81a8e1c623bfa26f7ffcc4e323050539a777b6a7244c7da87a9b5fe19a0498c460405160405180910390a450565b336001600160a01b037f00000000000000000000000000000000000000000000000000000000000000001614610dd95760405162461bcd60e51b815260206004820152601c60248201527f6163636f756e743a206e6f742066726f6d20456e747279506f696e7400000000604482015260640161089f565b7f19457468657265756d205369676e6564204d6573736167653a0a3332000000006000908152601c829052603c8120611450816114166101008701876124fb565b8080601f0160208091040260200160405190810160405280939291908181526020018383808284376000920191909152506117b192505050565b6001600160a01b031661146b6000546001600160a01b031690565b6001600160a01b031614611483576001915050610694565b5060009392505050565b80156112be57604051600090339060001990849084818181858888f193505050503d8060008114610bfa576040519150601f19603f3d011682016040523d82523d6000602084013e610bfa565b600080846001600160a01b031684846040516114f69190612662565b60006040518083038185875af1925050503d8060008114611533576040519150601f19603f3d011682016040523d82523d6000602084013e611538565b606091505b509150915081610bfa57805160208201fd5b306001600160a01b037f00000000000000000000000000000000000000000000000000000000000000001614806115d157507f00000000000000000000000000000000000000000000000000000000000000006001600160a01b03166115c5600080516020612695833981519152546001600160a01b031690565b6001600160a01b031614155b15610dd95760405163703e46dd60e11b815260040160405180910390fd5b6112be6117db565b816001600160a01b03166352d1902d6040518163ffffffff1660e01b8152600401602060405180830381865afa925050508015611651575060408051601f3d908101601f1916820190925261164e91810190612649565b60015b61167957604051634c9c8ce360e01b81526001600160a01b038316600482015260240161089f565b60008051602061269583398151915281146116aa57604051632a87526960e21b81526004810182905260240161089f565b6116b4838361182c565b505050565b306001600160a01b037f00000000000000000000000000000000000000000000000000000000000000001614610dd95760405163703e46dd60e11b815260040160405180910390fd5b600080546001600160a01b038381166001600160a01b0319831681178455604051919092169283917f8be0079c531659141344cd1fd0a4f28419497f9722a3daafe3b4186f6b6457e09190a35050565b60006004825110156117a65760405162461bcd60e51b815260206004820152601e60248201527f506c7567696e52656769737472793a204461746120746f6f2073686f72740000604482015260640161089f565b506020015160e01c90565b6000806000806117c18686611882565b9250925092506117d182826118cf565b5090949350505050565b6000546001600160a01b03163314806117f357503330145b610dd95760405162461bcd60e51b815260206004820152600a60248201526937b7363c9037bbb732b960b11b604482015260640161089f565b61183582611988565b6040516001600160a01b038316907fbc7cd75a20ee27fd9adebab32041f755214dbc6bffa90cc0225b39da2e5c2d3b90600090a280511561187a576116b482826119ed565b610c1c611a63565b600080600083516041036118bc5760208401516040850151606086015160001a6118ae88828585611a82565b9550955095505050506118c8565b50508151600091506002905b9250925092565b60008260038111156118e3576118e361267e565b036118ec575050565b60018260038111156119005761190061267e565b0361191e5760405163f645eedf60e01b815260040160405180910390fd5b60028260038111156119325761193261267e565b036119535760405163fce698f760e01b81526004810182905260240161089f565b60038260038111156119675761196761267e565b03610c1c576040516335e2f38360e21b81526004810182905260240161089f565b806001600160a01b03163b6000036119be57604051634c9c8ce360e01b81526001600160a01b038216600482015260240161089f565b60008051602061269583398151915280546001600160a01b0319166001600160a01b0392909216919091179055565b6060600080846001600160a01b031684604051611a0a9190612662565b600060405180830381855af49150503d8060008114611a45576040519150601f19603f3d011682016040523d82523d6000602084013e611a4a565b606091505b5091509150611a5a858383611b51565b95945050505050565b3415610dd95760405163b398979f60e01b815260040160405180910390fd5b600080807f7fffffffffffffffffffffffffffffff5d576e7357a4501ddfe92f46681b20a0841115611abd5750600091506003905082611b47565b604080516000808252602082018084528a905260ff891692820192909252606081018790526080810186905260019060a0016020604051602081039080840390855afa158015611b11573d6000803e3d6000fd5b5050604051601f1901519150506001600160a01b038116611b3d57506000925060019150829050611b47565b9250600091508190505b9450945094915050565b606082611b6657611b6182611bad565b61083b565b8151158015611b7d57506001600160a01b0384163b155b15611ba657604051639996b31560e01b81526001600160a01b038516600482015260240161089f565b508061083b565b805115611bbd5780518082602001fd5b604051630a12f52160e11b815260040160405180910390fd5b600060208284031215611be857600080fd5b81356001600160e01b03198116811461083b57600080fd5b600060208284031215611c1257600080fd5b5035919050565b80356001600160a01b0381168114611c3057600080fd5b919050565b600060208284031215611c4757600080fd5b61083b82611c19565b60005b83811015611c6b578181015183820152602001611c53565b50506000910152565b60008151808452611c8c816020860160208601611c50565b601f01601f19169290920160200192915050565b60208152600061083b6020830184611c74565b60008083601f840112611cc557600080fd5b5081356001600160401b03811115611cdc57600080fd5b602083019150836020828501011115611cf457600080fd5b9250929050565b600080600080600060808688031215611d1357600080fd5b611d1c86611c19565b9450611d2a60208701611c19565b93506040860135925060608601356001600160401b03811115611d4c57600080fd5b611d5888828901611cb3565b969995985093965092949392505050565b600080600060608486031215611d7e57600080fd5b611d8784611c19565b9250611d9560208501611c19565b9150604084013590509250925092565b600080600060608486031215611dba57600080fd5b83356001600160401b03811115611dd057600080fd5b84016101208187031215611de357600080fd5b95602085013595506040909401359392505050565b634e487b7160e01b600052604160045260246000fd5b604051601f8201601f191681016001600160401b0381118282101715611e3657611e36611df8565b604052919050565b60006001600160401b03821115611e5757611e57611df8565b50601f01601f191660200190565b600082601f830112611e7657600080fd5b8135611e89611e8482611e3e565b611e0e565b818152846020838601011115611e9e57600080fd5b816020850160208301376000918101602001919091529392505050565b60006020808385031215611ece57600080fd5b82356001600160401b0380821115611ee557600080fd5b818501915085601f830112611ef957600080fd5b813581811115611f0b57611f0b611df8565b8060051b611f1a858201611e0e565b9182528381018501918581019089841115611f3457600080fd5b86860192505b83831015611f7057823585811115611f525760008081fd5b611f608b89838a0101611e65565b8352509186019190860190611f3a565b9998505050505050505050565b60008060008060608587031215611f9357600080fd5b84359350611fa360208601611c19565b925060408501356001600160401b03811115611fbe57600080fd5b611fca87828801611cb3565b95989497509550505050565b60008083601f840112611fe857600080fd5b5081356001600160401b03811115611fff57600080fd5b6020830191508360208260051b8501011115611cf457600080fd5b6000806000806000806060878903121561203357600080fd5b86356001600160401b038082111561204a57600080fd5b6120568a838b01611fd6565b9098509650602089013591508082111561206f57600080fd5b61207b8a838b01611fd6565b9096509450604089013591508082111561209457600080fd5b506120a189828a01611fd6565b979a9699509497509295939492505050565b600080604083850312156120c657600080fd5b6120cf83611c19565b915060208301356001600160401b038111156120ea57600080fd5b6120f685828601611e65565b9150509250929050565b80151581146112be57600080fd5b600080600080600060a0868803121561212657600080fd5b85356001600160401b038082111561213d57600080fd5b61214989838a01611e65565b9650602088013591508082111561215f57600080fd5b61216b89838a01611e65565b9550604088013591508082111561218157600080fd5b5061218e88828901611e65565b93505061219d60608701611c19565b915060808601356121ad81612100565b809150509295509295909350565b600080604083850312156121ce57600080fd5b8235915060208301356001600160401b038111156120ea57600080fd5b60008060006040848603121561220057600080fd5b61220984611c19565b925060208401356001600160401b0381111561222457600080fd5b61223086828701611fd6565b9497909650939450505050565b6000806000806060858703121561225357600080fd5b61225c85611c19565b93506020850135925060408501356001600160401b03811115611fbe57600080fd5b60008060008060008060008060a0898b03121561229a57600080fd5b6122a389611c19565b97506122b160208a01611c19565b965060408901356001600160401b03808211156122cd57600080fd5b6122d98c838d01611fd6565b909850965060608b01359150808211156122f257600080fd5b6122fe8c838d01611fd6565b909650945060808b013591508082111561231757600080fd5b506123248b828c01611cb3565b999c989b5096995094979396929594505050565b60006020828403121561234a57600080fd5b81356001600160401b0381111561236057600080fd5b61236c84828501611e65565b949350505050565b821515815260406020820152600061236c6040830184611c74565b60008060008060008060a087890312156123a857600080fd5b6123b187611c19565b95506123bf60208801611c19565b9450604087013593506060870135925060808701356001600160401b038111156123e857600080fd5b6120a189828a01611cb3565b634e487b7160e01b600052601160045260246000fd5b80820180821115610694576106946123f4565b600060208083016020845280855180835260408601915060408160051b87010192506020870160005b8281101561247457603f19888603018452612462858351611c74565b94509285019290850190600101612446565b5092979650505050505050565b600060018201612493576124936123f4565b5060010190565b6020808252602b908201527f6f6e6c7920656e74727920706f696e74206f722077616c6c657420666163746f60408201526a1c9e4818d85b8818d85b1b60aa1b606082015260800190565b634e487b7160e01b600052603260045260246000fd5b6000808335601e1984360301811261251257600080fd5b8301803591506001600160401b0382111561252c57600080fd5b602001915036819003821315611cf457600080fd5b60c08152600061255460c0830189611c74565b82810360208401526125668189611c74565b9050828103604084015261257a8188611c74565b606084019690965250506001600160a01b03929092166080830152151560a0909101529392505050565b600080604083850312156125b757600080fd5b82516125c281612100565b60208401519092506001600160401b038111156125de57600080fd5b8301601f810185136125ef57600080fd5b80516125fd611e8482611e3e565b81815286602083850101111561261257600080fd5b612623826020830160208601611c50565b8093505050509250929050565b60ff8181168382160190811115610694576106946123f4565b60006020828403121561265b57600080fd5b5051919050565b60008251612674818460208701611c50565b9190910192915050565b634e487b7160e01b600052602160045260246000fdfe360894a13ba1a3210667c828492db98dca3e2076cc3735a920a3ca505d382bbca264697066735822122013bd050ae59de6f7f3158b996a1f2a8b7299cab1333278ba3b92804352839f2a64736f6c63430008190033","linkReferences":{}},"methodIdentifiers":{"UPGRADE_INTERFACE_VERSION()":"ad3cb1cc","addDeposit()":"4a58db19","delegateCall(bytes)":"da67bcc4","ecrecovery(bytes32,bytes)":"77d32e94","emailHash()":"36cb8477","encodeSignatures(bytes[])":"1d06d40d","entryPoint()":"b0d691fe","execute(address,uint256,bytes)":"b61d27f6","executeBatch(address[],uint256[],bytes[])":"47e1da2a","getDeposit()":"c399ec88","getNonce()":"d087d288","getRecoveryBody(address)":"13122cc2","implement(address,bytes4[])":"87ca8f3b","implementer(bytes4)":"3bd5b8d5","initialize(address,address,uint256)":"1794bb3c","nonce()":"affed0e0","onERC1155BatchReceived(address,address,uint256[],uint256[],bytes)":"bc197c81","onERC1155Received(address,address,uint256,uint256,bytes)":"f23a6e61","onERC721Received(address,address,uint256,bytes)":"150b7a02","owner()":"8da5cb5b","proxiableUUID()":"52d1902d","recoveryNonce()":"ed894cd3","removeMethod(bytes4)":"9c004270","renounceOwnership()":"715018a6","setEmail(uint256)":"0a773930","setSocialRecoveryAddress(uint256,address,bytes)":"29d3d1b2","socialRecovery()":"0a6374fe","supportsInterface(bytes4)":"01ffc9a7","transferOwnership(address)":"f2fde38b","upgradeToAndCall(address,bytes)":"4f1ef286","validateUserOp((address,uint256,bytes,bytes,bytes32,uint256,bytes32,bytes,bytes),bytes32,uint256)":"19822f7c","verify(string,string,string,address,bool)":"589bc4a2"},"id":36}