{"abi":[{"type":"constructor","inputs":[{"name":"entryPoint_","type":"address","internalType":"address"}],"stateMutability":"nonpayable"},{"type":"receive","stateMutability":"payable"},{"type":"function","name":"UPGRADE_INTERFACE_VERSION","inputs":[],"outputs":[{"name":"","type":"string","internalType":"string"}],"stateMutability":"view"},{"type":"function","name":"_call","inputs":[{"name":"target","type":"address","internalType":"address"},{"name":"value","type":"uint256","internalType":"uint256"},{"name":"data","type":"bytes","internalType":"bytes"}],"outputs":[],"stateMutability":"payable"},{"type":"function","name":"addDeposit","inputs":[],"outputs":[],"stateMutability":"payable"},{"type":"function","name":"commitment","inputs":[],"outputs":[{"name":"m","type":"string","internalType":"string"},{"name":"r","type":"uint256","internalType":"uint256"}],"stateMutability":"view"},{"type":"function","name":"count","inputs":[],"outputs":[{"name":"","type":"uint256","internalType":"uint256"}],"stateMutability":"view"},{"type":"function","name":"delegateCall","inputs":[{"name":"payload","type":"bytes","internalType":"bytes"}],"outputs":[{"name":"","type":"bool","internalType":"bool"},{"name":"","type":"bytes","internalType":"bytes"}],"stateMutability":"nonpayable"},{"type":"function","name":"ecrecovery","inputs":[{"name":"hash","type":"bytes32","internalType":"bytes32"},{"name":"signature","type":"bytes","internalType":"bytes"}],"outputs":[{"name":"","type":"address","internalType":"address"}],"stateMutability":"pure"},{"type":"function","name":"encodeSignatures","inputs":[{"name":"signatures","type":"bytes[]","internalType":"bytes[]"}],"outputs":[{"name":"","type":"bytes","internalType":"bytes"}],"stateMutability":"pure"},{"type":"function","name":"entryPoint","inputs":[],"outputs":[{"name":"","type":"address","internalType":"contract IEntryPoint"}],"stateMutability":"view"},{"type":"function","name":"execute","inputs":[{"name":"dest","type":"address","internalType":"address"},{"name":"value","type":"uint256","internalType":"uint256"},{"name":"func","type":"bytes","internalType":"bytes"}],"outputs":[],"stateMutability":"nonpayable"},{"type":"function","name":"executeBatch","inputs":[{"name":"dests","type":"address[]","internalType":"address[]"},{"name":"values","type":"uint256[]","internalType":"uint256[]"},{"name":"funcs","type":"bytes[]","internalType":"bytes[]"}],"outputs":[],"stateMutability":"nonpayable"},{"type":"function","name":"getBalance","inputs":[],"outputs":[{"name":"","type":"uint256","internalType":"uint256"}],"stateMutability":"view"},{"type":"function","name":"getCount","inputs":[],"outputs":[{"name":"","type":"uint256","internalType":"uint256"}],"stateMutability":"view"},{"type":"function","name":"getDeposit","inputs":[],"outputs":[{"name":"","type":"uint256","internalType":"uint256"}],"stateMutability":"view"},{"type":"function","name":"getNonce","inputs":[],"outputs":[{"name":"","type":"uint256","internalType":"uint256"}],"stateMutability":"view"},{"type":"function","name":"getRecoveryBody","inputs":[{"name":"newOwner","type":"address","internalType":"address"}],"outputs":[{"name":"","type":"bytes","internalType":"bytes"}],"stateMutability":"view"},{"type":"function","name":"implement","inputs":[{"name":"account","type":"address","internalType":"address"},{"name":"interfaceIds","type":"bytes4[]","internalType":"bytes4[]"}],"outputs":[],"stateMutability":"nonpayable"},{"type":"function","name":"implementer","inputs":[{"name":"","type":"bytes4","internalType":"bytes4"}],"outputs":[{"name":"","type":"address","internalType":"address"}],"stateMutability":"view"},{"type":"function","name":"initialize","inputs":[{"name":"_socialRecovery","type":"address","internalType":"address"},{"name":"anOwner","type":"address","internalType":"address"},{"name":"_commitment","type":"tuple","internalType":"struct PedersenCommitment.Commitment","components":[{"name":"m","type":"string","internalType":"string"},{"name":"r","type":"uint256","internalType":"uint256"}]}],"outputs":[],"stateMutability":"nonpayable"},{"type":"function","name":"intToBytes32","inputs":[{"name":"x","type":"uint256","internalType":"uint256"}],"outputs":[{"name":"result","type":"bytes32","internalType":"bytes32"}],"stateMutability":"pure"},{"type":"function","name":"nonce","inputs":[],"outputs":[{"name":"","type":"uint256","internalType":"uint256"}],"stateMutability":"view"},{"type":"function","name":"onERC1155BatchReceived","inputs":[{"name":"","type":"address","internalType":"address"},{"name":"","type":"address","internalType":"address"},{"name":"","type":"uint256[]","internalType":"uint256[]"},{"name":"","type":"uint256[]","internalType":"uint256[]"},{"name":"","type":"bytes","internalType":"bytes"}],"outputs":[{"name":"","type":"bytes4","internalType":"bytes4"}],"stateMutability":"pure"},{"type":"function","name":"onERC1155Received","inputs":[{"name":"","type":"address","internalType":"address"},{"name":"","type":"address","internalType":"address"},{"name":"","type":"uint256","internalType":"uint256"},{"name":"","type":"uint256","internalType":"uint256"},{"name":"","type":"bytes","internalType":"bytes"}],"outputs":[{"name":"","type":"bytes4","internalType":"bytes4"}],"stateMutability":"pure"},{"type":"function","name":"onERC721Received","inputs":[{"name":"","type":"address","internalType":"address"},{"name":"","type":"address","internalType":"address"},{"name":"","type":"uint256","internalType":"uint256"},{"name":"","type":"bytes","internalType":"bytes"}],"outputs":[{"name":"","type":"bytes4","internalType":"bytes4"}],"stateMutability":"pure"},{"type":"function","name":"owner","inputs":[],"outputs":[{"name":"","type":"address","internalType":"address"}],"stateMutability":"view"},{"type":"function","name":"pedersenCommitment","inputs":[],"outputs":[{"name":"","type":"address","internalType":"contract PedersenCommitment"}],"stateMutability":"view"},{"type":"function","name":"proxiableUUID","inputs":[],"outputs":[{"name":"","type":"bytes32","internalType":"bytes32"}],"stateMutability":"view"},{"type":"function","name":"recoveryNonce","inputs":[],"outputs":[{"name":"","type":"uint256","internalType":"uint256"}],"stateMutability":"view"},{"type":"function","name":"removeMethod","inputs":[{"name":"interfaceId","type":"bytes4","internalType":"bytes4"}],"outputs":[],"stateMutability":"nonpayable"},{"type":"function","name":"renounceOwnership","inputs":[],"outputs":[],"stateMutability":"nonpayable"},{"type":"function","name":"setEmailCommitment","inputs":[{"name":"_commitment","type":"tuple","internalType":"struct PedersenCommitment.Commitment","components":[{"name":"m","type":"string","internalType":"string"},{"name":"r","type":"uint256","internalType":"uint256"}]}],"outputs":[],"stateMutability":"nonpayable"},{"type":"function","name":"setSocialRecoveryAddress","inputs":[{"name":"_nonce","type":"uint256","internalType":"uint256"},{"name":"_socialRecovery","type":"address","internalType":"address"},{"name":"sign","type":"bytes","internalType":"bytes"}],"outputs":[],"stateMutability":"payable"},{"type":"function","name":"socialRecovery","inputs":[],"outputs":[{"name":"","type":"address","internalType":"contract ISocialRecovery"}],"stateMutability":"view"},{"type":"function","name":"supportsInterface","inputs":[{"name":"interfaceId","type":"bytes4","internalType":"bytes4"}],"outputs":[{"name":"","type":"bool","internalType":"bool"}],"stateMutability":"view"},{"type":"function","name":"transferOwnership","inputs":[{"name":"newOwner","type":"address","internalType":"address"}],"outputs":[],"stateMutability":"nonpayable"},{"type":"function","name":"upgradeToAndCall","inputs":[{"name":"newImplementation","type":"address","internalType":"address"},{"name":"data","type":"bytes","internalType":"bytes"}],"outputs":[],"stateMutability":"payable"},{"type":"function","name":"validateUserOp","inputs":[{"name":"userOp","type":"tuple","internalType":"struct PackedUserOperation","components":[{"name":"sender","type":"address","internalType":"address"},{"name":"nonce","type":"uint256","internalType":"uint256"},{"name":"initCode","type":"bytes","internalType":"bytes"},{"name":"callData","type":"bytes","internalType":"bytes"},{"name":"accountGasLimits","type":"bytes32","internalType":"bytes32"},{"name":"preVerificationGas","type":"uint256","internalType":"uint256"},{"name":"gasFees","type":"bytes32","internalType":"bytes32"},{"name":"paymasterAndData","type":"bytes","internalType":"bytes"},{"name":"signature","type":"bytes","internalType":"bytes"}]},{"name":"userOpHash","type":"bytes32","internalType":"bytes32"},{"name":"missingAccountFunds","type":"uint256","internalType":"uint256"}],"outputs":[{"name":"validationData","type":"uint256","internalType":"uint256"}],"stateMutability":"nonpayable"},{"type":"function","name":"verify","inputs":[{"name":"toSign","type":"string","internalType":"string"},{"name":"body","type":"string","internalType":"string"},{"name":"sign","type":"string","internalType":"string"},{"name":"newOwner","type":"address","internalType":"address"},{"name":"base64Encoded","type":"bool","internalType":"bool"}],"outputs":[{"name":"","type":"bool","internalType":"bool"}],"stateMutability":"nonpayable"},{"type":"event","name":"Initialized","inputs":[{"name":"version","type":"uint64","indexed":false,"internalType":"uint64"}],"anonymous":false},{"type":"event","name":"OwnershipTransferred","inputs":[{"name":"previousOwner","type":"address","indexed":true,"internalType":"address"},{"name":"newOwner","type":"address","indexed":true,"internalType":"address"}],"anonymous":false},{"type":"event","name":"SimpleAccountInitialized","inputs":[{"name":"entryPoint","type":"address","indexed":true,"internalType":"contract IEntryPoint"},{"name":"owner","type":"address","indexed":true,"internalType":"address"},{"name":"commitment","type":"tuple","indexed":true,"internalType":"struct PedersenCommitment.Commitment","components":[{"name":"m","type":"string","internalType":"string"},{"name":"r","type":"uint256","internalType":"uint256"}]}],"anonymous":false},{"type":"event","name":"Upgraded","inputs":[{"name":"implementation","type":"address","indexed":true,"internalType":"address"}],"anonymous":false},{"type":"error","name":"AddressEmptyCode","inputs":[{"name":"target","type":"address","internalType":"address"}]},{"type":"error","name":"ECDSAInvalidSignature","inputs":[]},{"type":"error","name":"ECDSAInvalidSignatureLength","inputs":[{"name":"length","type":"uint256","internalType":"uint256"}]},{"type":"error","name":"ECDSAInvalidSignatureS","inputs":[{"name":"s","type":"bytes32","internalType":"bytes32"}]},{"type":"error","name":"ERC1967InvalidImplementation","inputs":[{"name":"implementation","type":"address","internalType":"address"}]},{"type":"error","name":"ERC1967NonPayable","inputs":[]},{"type":"error","name":"FailedInnerCall","inputs":[]},{"type":"error","name":"InvalidInitialization","inputs":[]},{"type":"error","name":"NotInitializing","inputs":[]},{"type":"error","name":"OwnableInvalidOwner","inputs":[{"name":"owner","type":"address","internalType":"address"}]},{"type":"error","name":"OwnableUnauthorizedAccount","inputs":[{"name":"account","type":"address","internalType":"address"}]},{"type":"error","name":"UUPSUnauthorizedCallContext","inputs":[]},{"type":"error","name":"UUPSUnsupportedProxiableUUID","inputs":[{"name":"slot","type":"bytes32","internalType":"bytes32"}]}],"bytecode":{"object":"0x60c06040523060805234801561001457600080fd5b5060405161322b38038061322b833981016040819052610033916100c4565b338061005957604051631e4fbdf760e01b81526000600482015260240160405180910390fd5b61006281610074565b506001600160a01b031660a0526100f4565b600080546001600160a01b038381166001600160a01b0319831681178455604051919092169283917f8be0079c531659141344cd1fd0a4f28419497f9722a3daafe3b4186f6b6457e09190a35050565b6000602082840312156100d657600080fd5b81516001600160a01b03811681146100ed57600080fd5b9392505050565b60805160a0516130d3610158600039600081816105ba01528181610a4801528181610c400152818161134701528181611424015281816114bc015281816117be0152611d1f015260008181611a2901528181611a520152611b9801526130d36000f3fe6080604052600436106102295760003560e01c8063734cd1e211610123578063b61d27f6116100ab578063d4adcb841161006f578063d4adcb8414610675578063da67bcc414610695578063ed894cd3146106c3578063f23a6e61146106d9578063f2fde38b1461070657600080fd5b8063b61d27f6146105de578063bc197c81146105fe578063bf4f839e1461062d578063c399ec881461064b578063d087d2881461066057600080fd5b80639c004270116100f25780639c0042701461052f578063a87d942c1461054f578063ad3cb1cc14610564578063affed0e014610595578063b0d691fe146105ab57600080fd5b8063734cd1e2146104be57806377d32e94146104d157806387ca8f3b146104f15780638da5cb5b1461051157600080fd5b80632921ca69116101b15780634a58db19116101755780634a58db19146104595780634f1ef2861461046157806352d1902d14610474578063589bc4a214610489578063715018a6146104a957600080fd5b80632921ca69146103ae57806329d3d1b2146103ce5780633bd5b8d5146103e357806347e1da2a146104195780634a4f86f91461043957600080fd5b80631303a484116101f85780631303a484146102d957806313122cc2146102fc578063150b7a021461032957806319822f7c1461036e5780631d06d40d1461038e57600080fd5b806301ffc9a71461023557806306661abd1461026a5780630a6374fe1461028e57806312065fe0146102c657600080fd5b3661023057005b600080fd5b34801561024157600080fd5b5061025561025036600461221b565b610726565b60405190151581526020015b60405180910390f35b34801561027657600080fd5b5061028060035481565b604051908152602001610261565b34801561029a57600080fd5b506002546102ae906001600160a01b031681565b6040516001600160a01b039091168152602001610261565b3480156102d257600080fd5b5047610280565b3480156102e557600080fd5b506102ee610778565b604051610261929190612295565b34801561030857600080fd5b5061031c6103173660046122d3565b610810565b60405161026191906122ee565b34801561033557600080fd5b50610355610344366004612349565b630a85bd0160e11b95945050505050565b6040516001600160e01b03199091168152602001610261565b34801561037a57600080fd5b506102806103893660046123b7565b610855565b34801561039a57600080fd5b5061031c6103a93660046124bf565b6108a3565b3480156103ba57600080fd5b506008546102ae906001600160a01b031681565b6103e16103dc366004612581565b6108b6565b005b3480156103ef57600080fd5b506102ae6103fe36600461221b565b6001602052600090815260409020546001600160a01b031681565b34801561042557600080fd5b506103e161043436600461261e565b610a3d565b34801561044557600080fd5b506103e1610454366004612725565b610be2565b6103e1610c0e565b6103e161046f366004612761565b610cbe565b34801561048057600080fd5b50610280610cdd565b34801561049557600080fd5b506102556104a43660046127bc565b610cfa565b3480156104b557600080fd5b506103e161100e565b6103e16104cc366004612869565b611022565b3480156104dd57600080fd5b506102ae6104ec3660046128bf565b611114565b3480156104fd57600080fd5b506103e161050c3660046128ef565b61120a565b34801561051d57600080fd5b506000546001600160a01b03166102ae565b34801561053b57600080fd5b506103e161054a36600461221b565b61128f565b34801561055b57600080fd5b50600354610280565b34801561057057600080fd5b5061031c604051806040016040528060058152602001640352e302e360dc1b81525081565b3480156105a157600080fd5b5061028060045481565b3480156105b757600080fd5b507f00000000000000000000000000000000000000000000000000000000000000006102ae565b3480156105ea57600080fd5b506103e16105f9366004612941565b61133c565b34801561060a57600080fd5b50610355610619366004612982565b63bc197c8160e01b98975050505050505050565b34801561063957600080fd5b50610280610648366004612a3c565b90565b34801561065757600080fd5b50610280611404565b34801561066c57600080fd5b50610280611495565b34801561068157600080fd5b506103e1610690366004612a55565b6114eb565b3480156106a157600080fd5b506106b56106b0366004612aa8565b611637565b604051610261929190612adc565b3480156106cf57600080fd5b5061028060055481565b3480156106e557600080fd5b506103556106f4366004612af7565b63f23a6e6160e01b9695505050505050565b34801561071257600080fd5b506103e16107213660046122d3565b611732565b60006001600160e01b03198216630a85bd0160e11b148061075757506001600160e01b03198216630271189760e51b145b8061077257506001600160e01b031982166301ffc9a760e01b145b92915050565b60068054819061078790612b5c565b80601f01602080910402602001604051908101604052809291908181526020018280546107b390612b5c565b80156108005780601f106107d557610100808354040283529160200191610800565b820191906000526020600020905b8154815290600101906020018083116107e357829003601f168201915b5050505050908060010154905082565b606060055460016108219190612bac565b6040805160208101929092526001600160a01b038416908201526060015b6040516020818303038152906040529050919050565b600061087f604051806040016040528060078152602001661919191919191960c91b815250611770565b6108876117b3565b610891848461182b565b905061089c8261195f565b9392505050565b60608160405160200161083f9190612bbf565b838060045460016108c79190612bac565b146109095760405162461bcd60e51b815260206004820152600d60248201526c496e76616c6964206e6f6e636560981b60448201526064015b60405180910390fd5b600085856040516020016109309291909182526001600160a01b0316602082015260400190565b6040516020818303038152906040529050600081805190602001209050600061098f8287878080601f01602080910402602001604051908101604052809392919081815260200183838082843760009201919091525061111492505050565b90506109a36000546001600160a01b031690565b6001600160a01b0316816001600160a01b031614610a035760405162461bcd60e51b815260206004820152601860248201527f41757468206661696c65643a204f6e6c79206f776e65722100000000000000006044820152606401610900565b5050600280546001600160a01b0319166001600160a01b0387161790555060048054906000610a3183612c23565b91905055505050505050565b336001600160a01b037f0000000000000000000000000000000000000000000000000000000000000000161480610a7e57506000546001600160a01b031633145b610a9a5760405162461bcd60e51b815260040161090090612c3c565b848114610adf5760405162461bcd60e51b815260206004820152601360248201527277726f6e67206465737473206c656e6774687360681b6044820152606401610900565b828114610b255760405162461bcd60e51b815260206004820152601460248201527377726f6e672076616c756573206c656e6774687360601b6044820152606401610900565b60005b85811015610bd957610bd1878783818110610b4557610b45612c87565b9050602002016020810190610b5a91906122d3565b868684818110610b6c57610b6c612c87565b90506020020135858585818110610b8557610b85612c87565b9050602002810190610b979190612c9d565b8080601f01602080910402602001604051908101604052809392919081815260200183838082843760009201919091525061102292505050565b600101610b28565b50505050505050565b610bea6119ac565b805181906006908190610bfd9082612d33565b506020820151816001015590505050565b610c3e6040518060400160405280600e81526020016d6164644465706f7369743a20257360901b815250346119d9565b7f000000000000000000000000000000000000000000000000000000000000000060405163b760faf960e01b81523060048201526001600160a01b03919091169063b760faf99034906024016000604051808303818588803b158015610ca357600080fd5b505af1158015610cb7573d6000803e3d6000fd5b5050505050565b610cc6611a1e565b610ccf82611ac3565b610cd98282611acb565b5050565b6000610ce7611b8d565b5060008051602061307e83398151915290565b6002546005546040516314bf2aab60e21b8152600092839283926001600160a01b03909216916352fcaaac91610d3d918c918c918c91908c908c90600401612df2565b6040805180830381865afa158015610d59573d6000803e3d6000fd5b505050506040513d601f19601f82011682018060405250810190610d7d9190612e55565b604080516001808252818301909252929450909250600091906020808301908036833750506040805160018082528183019092529293506000929150602082015b604080518082019091526060815260006020820152815260200190600190039081610dbe5790505090508282600081518110610dfc57610dfc612c87565b6020026020010181815250506006604051806040016040529081600082018054610e2590612b5c565b80601f0160208091040260200160405190810160405280929190818152602001828054610e5190612b5c565b8015610e9e5780601f10610e7357610100808354040283529160200191610e9e565b820191906000526020600020905b815481529060010190602001808311610e8157829003601f168201915b5050505050815260200160018201548152505081600081518110610ec457610ec4612c87565b6020908102919091010152600854604051638cf7bba160e01b81526001600160a01b0390911690638cf7bba190610f019085908590600401612e83565b602060405180830381865afa158015610f1e573d6000803e3d6000fd5b505050506040513d601f19601f82011682018060405250810190610f429190612f30565b610f9c5760405162461bcd60e51b815260206004820152602560248201527f57616c6c6574205265636f766572793a2077726f6e6720656d61696c20616464604482015264726573732160d81b6064820152608401610900565b83610ff55760405162461bcd60e51b8152602060048201526024808201527f57616c6c6574205265636f766572793a20444b494d20766572696679206661696044820152633632b21760e11b6064820152608401610900565b610ffe87611732565b5060019998505050505050505050565b6110166119ac565b6110206000611bd6565b565b61104a604051806040016040528060068152602001651d185c99d95d60d21b81525084611c26565b6110716040518060400160405280600581526020016476616c756560d81b815250836119d9565b61107a81611c6b565b600080846001600160a01b031684846040516110969190612f4d565b60006040518083038185875af1925050503d80600081146110d3576040519150601f19603f3d011682016040523d82523d6000602084013e6110d8565b606091505b50915091506111076040518060400160405280600881526020016739bab1b1b2b9b99d60c11b81525083611cae565b81610cb757805160208201fd5b6020810151604082015160608301516000929190831a601b8110156111415761113e601b82612f69565b90505b8060ff16601b148061115657508060ff16601c145b6111a25760405162461bcd60e51b815260206004820152601960248201527f4543445341207369676e617475726520696e636f7272656374000000000000006044820152606401610900565b60408051600081526020810180835288905260ff831691810191909152606081018490526080810183905260019060a0016020604051602081039080840390855afa1580156111f5573d6000803e3d6000fd5b5050604051601f190151979650505050505050565b6112126119ac565b60005b8181101561128957836001600085858581811061123457611234612c87565b9050602002016020810190611249919061221b565b6001600160e01b0319168152602081019190915260400160002080546001600160a01b0319166001600160a01b0392909216919091179055600101611215565b50505050565b6112976119ac565b6001600160e01b031981166000908152600160205260409020546001600160a01b03166113145760405162461bcd60e51b815260206004820152602560248201527f506c7567696e52656769737472793a206d6574686f64206e6f742072656769736044820152641d195c995960da1b6064820152608401610900565b6001600160e01b031916600090815260016020526040902080546001600160a01b0319169055565b336001600160a01b037f000000000000000000000000000000000000000000000000000000000000000016148061137d57506000546001600160a01b031633145b6113995760405162461bcd60e51b815260040161090090612c3c565b6113c360405180604001604052806009815260200168457865637574696e6760b81b815250611770565b611289848484848080601f01602080910402602001604051908101604052809392919081815260200183838082843760009201919091525061102292505050565b6040516370a0823160e01b81523060048201526000906001600160a01b037f000000000000000000000000000000000000000000000000000000000000000016906370a08231906024015b602060405180830381865afa15801561146c573d6000803e3d6000fd5b505050506040513d601f19601f820116820180604052508101906114909190612f82565b905090565b604051631aab3f0d60e11b8152306004820152600060248201819052906001600160a01b037f000000000000000000000000000000000000000000000000000000000000000016906335567e1a9060440161144f565b7ff0c57e16840df040f15088dc2f81fe391c3923bec73e23a9662efc9c229c6a008054600160401b810460ff1615906001600160401b03166000811580156115305750825b90506000826001600160401b0316600114801561154c5750303b155b90508115801561155a575080155b156115785760405163f92ee8a960e01b815260040160405180910390fd5b845467ffffffffffffffff1916600117855583156115a257845460ff60401b1916600160401b1785555b600280546001600160a01b0319166001600160a01b038a161790558551869060069081906115d09082612d33565b50602082015181600101559050506115e787611cf3565b831561162d57845460ff60401b19168555604051600181527fc7f505b2f371ae2175ee4913f4499e1f2633a7b5936321eed1cdaeb6115181d29060200160405180910390a15b5050505050505050565b60006060600061164684611d76565b6001600160e01b031981166000908152600160205260409020549091506001600160a01b0316806116c85760405162461bcd60e51b815260206004820152602660248201527f506c7567696e52656769737472793a206d6574686f64206e6f7420696d706c656044820152651b595b9d195960d21b6064820152608401610900565b600080826001600160a01b0316876040516116e39190612f4d565b600060405180830381855af49150503d806000811461171e576040519150601f19603f3d011682016040523d82523d6000602084013e611723565b606091505b50909890975095505050505050565b61173a6119ac565b6001600160a01b03811661176457604051631e4fbdf760e01b815260006004820152602401610900565b61176d81611bd6565b50565b61176d8160405160240161178491906122ee565b60408051601f198184030181529190526020810180516001600160e01b031663104c13eb60e21b179052611dd5565b336001600160a01b037f000000000000000000000000000000000000000000000000000000000000000016146110205760405162461bcd60e51b815260206004820152601c60248201527f6163636f756e743a206e6f742066726f6d20456e747279506f696e74000000006044820152606401610900565b7f19457468657265756d205369676e6564204d6573736167653a0a3332000000006000908152601c829052603c812060006118a88261186e610100880188612c9d565b8080601f016020809104026020016040519081016040528093929190818152602001838380828437600092019190915250611df692505050565b90506118de604051806040016040528060128152602001712932b1b7bb32b932b21030b2323932b9b99d60711b81525082611c26565b61191f6040518060400160405280600e81526020016d27bbb732b91030b2323932b9b99d60911b81525061191a6000546001600160a01b031690565b611c26565b806001600160a01b031661193b6000546001600160a01b031690565b6001600160a01b03161461195457600192505050610772565b506000949350505050565b801561176d57604051600090339060001990849084818181858888f193505050503d8060008114610cb7576040519150601f19603f3d011682016040523d82523d6000602084013e610cb7565b6000546001600160a01b031633146110205760405163118cdaa760e01b8152336004820152602401610900565b610cd982826040516024016119ef929190612295565b60408051601f198184030181529190526020810180516001600160e01b03166309710a9d60e41b179052611dd5565b306001600160a01b037f0000000000000000000000000000000000000000000000000000000000000000161480611aa557507f00000000000000000000000000000000000000000000000000000000000000006001600160a01b0316611a9960008051602061307e833981519152546001600160a01b031690565b6001600160a01b031614155b156110205760405163703e46dd60e11b815260040160405180910390fd5b61176d611e20565b816001600160a01b03166352d1902d6040518163ffffffff1660e01b8152600401602060405180830381865afa925050508015611b25575060408051601f3d908101601f19168201909252611b2291810190612f82565b60015b611b4d57604051634c9c8ce360e01b81526001600160a01b0383166004820152602401610900565b60008051602061307e8339815191528114611b7e57604051632a87526960e21b815260048101829052602401610900565b611b888383611e71565b505050565b306001600160a01b037f000000000000000000000000000000000000000000000000000000000000000016146110205760405163703e46dd60e11b815260040160405180910390fd5b600080546001600160a01b038381166001600160a01b0319831681178455604051919092169283917f8be0079c531659141344cd1fd0a4f28419497f9722a3daafe3b4186f6b6457e09190a35050565b610cd98282604051602401611c3c929190612f9b565b60408051601f198184030181529190526020810180516001600160e01b031663319af33360e01b179052611dd5565b61176d81604051602401611c7f91906122ee565b60408051601f198184030181529190526020810180516001600160e01b03166305f3bfab60e11b179052611dd5565b610cd98282604051602401611cc4929190612fc5565b60408051601f198184030181529190526020810180516001600160e01b031663c3b5563560e01b179052611dd5565b611cfc81611bd6565b6006604051611d0b9190612fe9565b6040518091039020816001600160a01b03167f00000000000000000000000000000000000000000000000000000000000000006001600160a01b03167ff7f6b46fd2c2545cf5db0cd0feda424835aaebfd6a15e6783798305f7accc94060405160405180910390a450565b6000600482511015611dca5760405162461bcd60e51b815260206004820152601e60248201527f506c7567696e52656769737472793a204461746120746f6f2073686f727400006044820152606401610900565b506020015160e01c90565b80516a636f6e736f6c652e6c6f67602083016000808483855afa5050505050565b600080600080611e068686611ec7565b925092509250611e168282611f14565b5090949350505050565b6000546001600160a01b0316331480611e3857503330145b6110205760405162461bcd60e51b815260206004820152600a60248201526937b7363c9037bbb732b960b11b6044820152606401610900565b611e7a82611fcd565b6040516001600160a01b038316907fbc7cd75a20ee27fd9adebab32041f755214dbc6bffa90cc0225b39da2e5c2d3b90600090a2805115611ebf57611b888282612032565b610cd96120a8565b60008060008351604103611f015760208401516040850151606086015160001a611ef3888285856120c7565b955095509550505050611f0d565b50508151600091506002905b9250925092565b6000826003811115611f2857611f28613067565b03611f31575050565b6001826003811115611f4557611f45613067565b03611f635760405163f645eedf60e01b815260040160405180910390fd5b6002826003811115611f7757611f77613067565b03611f985760405163fce698f760e01b815260048101829052602401610900565b6003826003811115611fac57611fac613067565b03610cd9576040516335e2f38360e21b815260048101829052602401610900565b806001600160a01b03163b60000361200357604051634c9c8ce360e01b81526001600160a01b0382166004820152602401610900565b60008051602061307e83398151915280546001600160a01b0319166001600160a01b0392909216919091179055565b6060600080846001600160a01b03168460405161204f9190612f4d565b600060405180830381855af49150503d806000811461208a576040519150601f19603f3d011682016040523d82523d6000602084013e61208f565b606091505b509150915061209f858383612196565b95945050505050565b34156110205760405163b398979f60e01b815260040160405180910390fd5b600080807f7fffffffffffffffffffffffffffffff5d576e7357a4501ddfe92f46681b20a0841115612102575060009150600390508261218c565b604080516000808252602082018084528a905260ff891692820192909252606081018790526080810186905260019060a0016020604051602081039080840390855afa158015612156573d6000803e3d6000fd5b5050604051601f1901519150506001600160a01b0381166121825750600092506001915082905061218c565b9250600091508190505b9450945094915050565b6060826121ab576121a6826121f2565b61089c565b81511580156121c257506001600160a01b0384163b155b156121eb57604051639996b31560e01b81526001600160a01b0385166004820152602401610900565b508061089c565b8051156122025780518082602001fd5b604051630a12f52160e11b815260040160405180910390fd5b60006020828403121561222d57600080fd5b81356001600160e01b03198116811461089c57600080fd5b60005b83811015612260578181015183820152602001612248565b50506000910152565b60008151808452612281816020860160208601612245565b601f01601f19169290920160200192915050565b6040815260006122a86040830185612269565b90508260208301529392505050565b80356001600160a01b03811681146122ce57600080fd5b919050565b6000602082840312156122e557600080fd5b61089c826122b7565b60208152600061089c6020830184612269565b60008083601f84011261231357600080fd5b5081356001600160401b0381111561232a57600080fd5b60208301915083602082850101111561234257600080fd5b9250929050565b60008060008060006080868803121561236157600080fd5b61236a866122b7565b9450612378602087016122b7565b93506040860135925060608601356001600160401b0381111561239a57600080fd5b6123a688828901612301565b969995985093965092949392505050565b6000806000606084860312156123cc57600080fd5b83356001600160401b038111156123e257600080fd5b840161012081870312156123f557600080fd5b95602085013595506040909401359392505050565b634e487b7160e01b600052604160045260246000fd5b604051601f8201601f191681016001600160401b03811182821017156124485761244861240a565b604052919050565b600082601f83011261246157600080fd5b81356001600160401b0381111561247a5761247a61240a565b61248d601f8201601f1916602001612420565b8181528460208386010111156124a257600080fd5b816020850160208301376000918101602001919091529392505050565b600060208083850312156124d257600080fd5b82356001600160401b03808211156124e957600080fd5b818501915085601f8301126124fd57600080fd5b81358181111561250f5761250f61240a565b8060051b61251e858201612420565b918252838101850191858101908984111561253857600080fd5b86860192505b83831015612574578235858111156125565760008081fd5b6125648b89838a0101612450565b835250918601919086019061253e565b9998505050505050505050565b6000806000806060858703121561259757600080fd5b843593506125a7602086016122b7565b925060408501356001600160401b038111156125c257600080fd5b6125ce87828801612301565b95989497509550505050565b60008083601f8401126125ec57600080fd5b5081356001600160401b0381111561260357600080fd5b6020830191508360208260051b850101111561234257600080fd5b6000806000806000806060878903121561263757600080fd5b86356001600160401b038082111561264e57600080fd5b61265a8a838b016125da565b9098509650602089013591508082111561267357600080fd5b61267f8a838b016125da565b9096509450604089013591508082111561269857600080fd5b506126a589828a016125da565b979a9699509497509295939492505050565b6000604082840312156126c957600080fd5b604051604081016001600160401b0382821081831117156126ec576126ec61240a565b81604052829350843591508082111561270457600080fd5b5061271185828601612450565b825250602083013560208201525092915050565b60006020828403121561273757600080fd5b81356001600160401b0381111561274d57600080fd5b612759848285016126b7565b949350505050565b6000806040838503121561277457600080fd5b61277d836122b7565b915060208301356001600160401b0381111561279857600080fd5b6127a485828601612450565b9150509250929050565b801515811461176d57600080fd5b600080600080600060a086880312156127d457600080fd5b85356001600160401b03808211156127eb57600080fd5b6127f789838a01612450565b9650602088013591508082111561280d57600080fd5b61281989838a01612450565b9550604088013591508082111561282f57600080fd5b5061283c88828901612450565b93505061284b606087016122b7565b9150608086013561285b816127ae565b809150509295509295909350565b60008060006060848603121561287e57600080fd5b612887846122b7565b92506020840135915060408401356001600160401b038111156128a957600080fd5b6128b586828701612450565b9150509250925092565b600080604083850312156128d257600080fd5b8235915060208301356001600160401b0381111561279857600080fd5b60008060006040848603121561290457600080fd5b61290d846122b7565b925060208401356001600160401b0381111561292857600080fd5b612934868287016125da565b9497909650939450505050565b6000806000806060858703121561295757600080fd5b612960856122b7565b93506020850135925060408501356001600160401b038111156125c257600080fd5b60008060008060008060008060a0898b03121561299e57600080fd5b6129a7896122b7565b97506129b560208a016122b7565b965060408901356001600160401b03808211156129d157600080fd5b6129dd8c838d016125da565b909850965060608b01359150808211156129f657600080fd5b612a028c838d016125da565b909650945060808b0135915080821115612a1b57600080fd5b50612a288b828c01612301565b999c989b5096995094979396929594505050565b600060208284031215612a4e57600080fd5b5035919050565b600080600060608486031215612a6a57600080fd5b612a73846122b7565b9250612a81602085016122b7565b915060408401356001600160401b03811115612a9c57600080fd5b6128b5868287016126b7565b600060208284031215612aba57600080fd5b81356001600160401b03811115612ad057600080fd5b61275984828501612450565b82151581526040602082015260006127596040830184612269565b60008060008060008060a08789031215612b1057600080fd5b612b19876122b7565b9550612b27602088016122b7565b9450604087013593506060870135925060808701356001600160401b03811115612b5057600080fd5b6126a589828a01612301565b600181811c90821680612b7057607f821691505b602082108103612b9057634e487b7160e01b600052602260045260246000fd5b50919050565b634e487b7160e01b600052601160045260246000fd5b8082018082111561077257610772612b96565b600060208083016020845280855180835260408601915060408160051b87010192506020870160005b82811015612c1657603f19888603018452612c04858351612269565b94509285019290850190600101612be8565b5092979650505050505050565b600060018201612c3557612c35612b96565b5060010190565b6020808252602b908201527f6f6e6c7920656e74727920706f696e74206f722077616c6c657420666163746f60408201526a1c9e4818d85b8818d85b1b60aa1b606082015260800190565b634e487b7160e01b600052603260045260246000fd5b6000808335601e19843603018112612cb457600080fd5b8301803591506001600160401b03821115612cce57600080fd5b60200191503681900382131561234257600080fd5b601f821115611b88576000816000526020600020601f850160051c81016020861015612d0c5750805b601f850160051c820191505b81811015612d2b57828155600101612d18565b505050505050565b81516001600160401b03811115612d4c57612d4c61240a565b612d6081612d5a8454612b5c565b84612ce3565b602080601f831160018114612d955760008415612d7d5750858301515b600019600386901b1c1916600185901b178555612d2b565b600085815260208120601f198616915b82811015612dc457888601518255948401946001909101908401612da5565b5085821015612de25787850151600019600388901b60f8161c191681555b5050505050600190811b01905550565b60c081526000612e0560c0830189612269565b8281036020840152612e178189612269565b90508281036040840152612e2b8188612269565b606084019690965250506001600160a01b03929092166080830152151560a0909101529392505050565b60008060408385031215612e6857600080fd5b8251612e73816127ae565b6020939093015192949293505050565b60408082528351828201819052600091906020906060850190828801855b82811015612ebd57815184529284019290840190600101612ea1565b50505084810382860152855180825282820190600581901b8301840188850160005b83811015612f2057858303601f1901855281518051898552612f038a860182612269565b918901519489019490945294870194925090860190600101612edf565b50909a9950505050505050505050565b600060208284031215612f4257600080fd5b815161089c816127ae565b60008251612f5f818460208701612245565b9190910192915050565b60ff818116838216019081111561077257610772612b96565b600060208284031215612f9457600080fd5b5051919050565b604081526000612fae6040830185612269565b905060018060a01b03831660208301529392505050565b604081526000612fd86040830185612269565b905082151560208301529392505050565b6000808354612ff781612b5c565b6001828116801561300f576001811461302557613052565b60ff198416875282151560051b87019450613052565b8760005260208060002060005b8581101561304b5781548a820152908401908201613032565b8901965050505b50505050600193909301548352505060200190565b634e487b7160e01b600052602160045260246000fdfe360894a13ba1a3210667c828492db98dca3e2076cc3735a920a3ca505d382bbca264697066735822122011929d5c1198dbd2e708c491fcc264c86796edccd17fc64b9a08bd1212153fb764736f6c63430008190033","linkReferences":{}},"methodIdentifiers":{"UPGRADE_INTERFACE_VERSION()":"ad3cb1cc","_call(address,uint256,bytes)":"734cd1e2","addDeposit()":"4a58db19","commitment()":"1303a484","count()":"06661abd","delegateCall(bytes)":"da67bcc4","ecrecovery(bytes32,bytes)":"77d32e94","encodeSignatures(bytes[])":"1d06d40d","entryPoint()":"b0d691fe","execute(address,uint256,bytes)":"b61d27f6","executeBatch(address[],uint256[],bytes[])":"47e1da2a","getBalance()":"12065fe0","getCount()":"a87d942c","getDeposit()":"c399ec88","getNonce()":"d087d288","getRecoveryBody(address)":"13122cc2","implement(address,bytes4[])":"87ca8f3b","implementer(bytes4)":"3bd5b8d5","initialize(address,address,(string,uint256))":"d4adcb84","intToBytes32(uint256)":"bf4f839e","nonce()":"affed0e0","onERC1155BatchReceived(address,address,uint256[],uint256[],bytes)":"bc197c81","onERC1155Received(address,address,uint256,uint256,bytes)":"f23a6e61","onERC721Received(address,address,uint256,bytes)":"150b7a02","owner()":"8da5cb5b","pedersenCommitment()":"2921ca69","proxiableUUID()":"52d1902d","recoveryNonce()":"ed894cd3","removeMethod(bytes4)":"9c004270","renounceOwnership()":"715018a6","setEmailCommitment((string,uint256))":"4a4f86f9","setSocialRecoveryAddress(uint256,address,bytes)":"29d3d1b2","socialRecovery()":"0a6374fe","supportsInterface(bytes4)":"01ffc9a7","transferOwnership(address)":"f2fde38b","upgradeToAndCall(address,bytes)":"4f1ef286","validateUserOp((address,uint256,bytes,bytes,bytes32,uint256,bytes32,bytes,bytes),bytes32,uint256)":"19822f7c","verify(string,string,string,address,bool)":"589bc4a2"},"id":86}