{"abi":[{"type":"constructor","inputs":[{"name":"entryPoint_","type":"address","internalType":"address"}],"stateMutability":"nonpayable"},{"type":"receive","stateMutability":"payable"},{"type":"function","name":"UPGRADE_INTERFACE_VERSION","inputs":[],"outputs":[{"name":"","type":"string","internalType":"string"}],"stateMutability":"view"},{"type":"function","name":"_call","inputs":[{"name":"target","type":"address","internalType":"address"},{"name":"value","type":"uint256","internalType":"uint256"},{"name":"data","type":"bytes","internalType":"bytes"}],"outputs":[],"stateMutability":"payable"},{"type":"function","name":"addDeposit","inputs":[],"outputs":[],"stateMutability":"payable"},{"type":"function","name":"commitment","inputs":[],"outputs":[{"name":"","type":"bytes","internalType":"bytes"}],"stateMutability":"view"},{"type":"function","name":"count","inputs":[],"outputs":[{"name":"","type":"uint256","internalType":"uint256"}],"stateMutability":"view"},{"type":"function","name":"delegateCall","inputs":[{"name":"payload","type":"bytes","internalType":"bytes"}],"outputs":[{"name":"","type":"bool","internalType":"bool"},{"name":"","type":"bytes","internalType":"bytes"}],"stateMutability":"nonpayable"},{"type":"function","name":"ecrecovery","inputs":[{"name":"hash","type":"bytes32","internalType":"bytes32"},{"name":"signature","type":"bytes","internalType":"bytes"}],"outputs":[{"name":"","type":"address","internalType":"address"}],"stateMutability":"pure"},{"type":"function","name":"encodeSignatures","inputs":[{"name":"signatures","type":"bytes[]","internalType":"bytes[]"}],"outputs":[{"name":"","type":"bytes","internalType":"bytes"}],"stateMutability":"pure"},{"type":"function","name":"entryPoint","inputs":[],"outputs":[{"name":"","type":"address","internalType":"contract IEntryPoint"}],"stateMutability":"view"},{"type":"function","name":"execute","inputs":[{"name":"dest","type":"address","internalType":"address"},{"name":"value","type":"uint256","internalType":"uint256"},{"name":"func","type":"bytes","internalType":"bytes"}],"outputs":[],"stateMutability":"nonpayable"},{"type":"function","name":"executeBatch","inputs":[{"name":"dests","type":"address[]","internalType":"address[]"},{"name":"values","type":"uint256[]","internalType":"uint256[]"},{"name":"funcs","type":"bytes[]","internalType":"bytes[]"}],"outputs":[],"stateMutability":"nonpayable"},{"type":"function","name":"getBalance","inputs":[],"outputs":[{"name":"","type":"uint256","internalType":"uint256"}],"stateMutability":"view"},{"type":"function","name":"getCount","inputs":[],"outputs":[{"name":"","type":"uint256","internalType":"uint256"}],"stateMutability":"view"},{"type":"function","name":"getDeposit","inputs":[],"outputs":[{"name":"","type":"uint256","internalType":"uint256"}],"stateMutability":"view"},{"type":"function","name":"getNonce","inputs":[],"outputs":[{"name":"","type":"uint256","internalType":"uint256"}],"stateMutability":"view"},{"type":"function","name":"getRecoveryBody","inputs":[{"name":"newOwner","type":"address","internalType":"address"}],"outputs":[{"name":"","type":"bytes","internalType":"bytes"}],"stateMutability":"view"},{"type":"function","name":"implement","inputs":[{"name":"account","type":"address","internalType":"address"},{"name":"interfaceIds","type":"bytes4[]","internalType":"bytes4[]"}],"outputs":[],"stateMutability":"nonpayable"},{"type":"function","name":"implementer","inputs":[{"name":"","type":"bytes4","internalType":"bytes4"}],"outputs":[{"name":"","type":"address","internalType":"address"}],"stateMutability":"view"},{"type":"function","name":"initialize","inputs":[{"name":"_socialRecovery","type":"address","internalType":"address"},{"name":"anOwner","type":"address","internalType":"address"},{"name":"_commitment","type":"bytes","internalType":"bytes"}],"outputs":[],"stateMutability":"nonpayable"},{"type":"function","name":"intToBytes32","inputs":[{"name":"x","type":"uint256","internalType":"uint256"}],"outputs":[{"name":"result","type":"bytes32","internalType":"bytes32"}],"stateMutability":"pure"},{"type":"function","name":"nonce","inputs":[],"outputs":[{"name":"","type":"uint256","internalType":"uint256"}],"stateMutability":"view"},{"type":"function","name":"onERC1155BatchReceived","inputs":[{"name":"","type":"address","internalType":"address"},{"name":"","type":"address","internalType":"address"},{"name":"","type":"uint256[]","internalType":"uint256[]"},{"name":"","type":"uint256[]","internalType":"uint256[]"},{"name":"","type":"bytes","internalType":"bytes"}],"outputs":[{"name":"","type":"bytes4","internalType":"bytes4"}],"stateMutability":"pure"},{"type":"function","name":"onERC1155Received","inputs":[{"name":"","type":"address","internalType":"address"},{"name":"","type":"address","internalType":"address"},{"name":"","type":"uint256","internalType":"uint256"},{"name":"","type":"uint256","internalType":"uint256"},{"name":"","type":"bytes","internalType":"bytes"}],"outputs":[{"name":"","type":"bytes4","internalType":"bytes4"}],"stateMutability":"pure"},{"type":"function","name":"onERC721Received","inputs":[{"name":"","type":"address","internalType":"address"},{"name":"","type":"address","internalType":"address"},{"name":"","type":"uint256","internalType":"uint256"},{"name":"","type":"bytes","internalType":"bytes"}],"outputs":[{"name":"","type":"bytes4","internalType":"bytes4"}],"stateMutability":"pure"},{"type":"function","name":"owner","inputs":[],"outputs":[{"name":"","type":"address","internalType":"address"}],"stateMutability":"view"},{"type":"function","name":"pedersenCommitment","inputs":[],"outputs":[{"name":"","type":"address","internalType":"contract PedersenCommitment"}],"stateMutability":"view"},{"type":"function","name":"proxiableUUID","inputs":[],"outputs":[{"name":"","type":"bytes32","internalType":"bytes32"}],"stateMutability":"view"},{"type":"function","name":"recoveryNonce","inputs":[],"outputs":[{"name":"","type":"uint256","internalType":"uint256"}],"stateMutability":"view"},{"type":"function","name":"removeMethod","inputs":[{"name":"interfaceId","type":"bytes4","internalType":"bytes4"}],"outputs":[],"stateMutability":"nonpayable"},{"type":"function","name":"renounceOwnership","inputs":[],"outputs":[],"stateMutability":"nonpayable"},{"type":"function","name":"setEmailCommitment","inputs":[{"name":"_commitment","type":"bytes","internalType":"bytes"}],"outputs":[],"stateMutability":"nonpayable"},{"type":"function","name":"setSocialRecoveryAddress","inputs":[{"name":"_nonce","type":"uint256","internalType":"uint256"},{"name":"_socialRecovery","type":"address","internalType":"address"},{"name":"sign","type":"bytes","internalType":"bytes"}],"outputs":[],"stateMutability":"payable"},{"type":"function","name":"socialRecovery","inputs":[],"outputs":[{"name":"","type":"address","internalType":"contract ISocialRecovery"}],"stateMutability":"view"},{"type":"function","name":"supportsInterface","inputs":[{"name":"interfaceId","type":"bytes4","internalType":"bytes4"}],"outputs":[{"name":"","type":"bool","internalType":"bool"}],"stateMutability":"view"},{"type":"function","name":"transferEth","inputs":[{"name":"_to","type":"address","internalType":"address payable"},{"name":"_amount","type":"uint256","internalType":"uint256"}],"outputs":[],"stateMutability":"nonpayable"},{"type":"function","name":"transferOwnership","inputs":[{"name":"newOwner","type":"address","internalType":"address"}],"outputs":[],"stateMutability":"nonpayable"},{"type":"function","name":"upgradeToAndCall","inputs":[{"name":"newImplementation","type":"address","internalType":"address"},{"name":"data","type":"bytes","internalType":"bytes"}],"outputs":[],"stateMutability":"payable"},{"type":"function","name":"validateUserOp","inputs":[{"name":"userOp","type":"tuple","internalType":"struct PackedUserOperation","components":[{"name":"sender","type":"address","internalType":"address"},{"name":"nonce","type":"uint256","internalType":"uint256"},{"name":"initCode","type":"bytes","internalType":"bytes"},{"name":"callData","type":"bytes","internalType":"bytes"},{"name":"accountGasLimits","type":"bytes32","internalType":"bytes32"},{"name":"preVerificationGas","type":"uint256","internalType":"uint256"},{"name":"gasFees","type":"bytes32","internalType":"bytes32"},{"name":"paymasterAndData","type":"bytes","internalType":"bytes"},{"name":"signature","type":"bytes","internalType":"bytes"}]},{"name":"userOpHash","type":"bytes32","internalType":"bytes32"},{"name":"missingAccountFunds","type":"uint256","internalType":"uint256"}],"outputs":[{"name":"validationData","type":"uint256","internalType":"uint256"}],"stateMutability":"nonpayable"},{"type":"function","name":"verify","inputs":[{"name":"toSign","type":"string","internalType":"string"},{"name":"body","type":"string","internalType":"string"},{"name":"sign","type":"string","internalType":"string"},{"name":"newOwner","type":"address","internalType":"address"},{"name":"base64Encoded","type":"bool","internalType":"bool"}],"outputs":[{"name":"","type":"bool","internalType":"bool"}],"stateMutability":"nonpayable"},{"type":"event","name":"EthTransferred","inputs":[{"name":"to","type":"address","indexed":true,"internalType":"address"},{"name":"amount","type":"uint256","indexed":false,"internalType":"uint256"}],"anonymous":false},{"type":"event","name":"Initialized","inputs":[{"name":"version","type":"uint64","indexed":false,"internalType":"uint64"}],"anonymous":false},{"type":"event","name":"OwnershipTransferred","inputs":[{"name":"previousOwner","type":"address","indexed":true,"internalType":"address"},{"name":"newOwner","type":"address","indexed":true,"internalType":"address"}],"anonymous":false},{"type":"event","name":"SimpleAccountInitialized","inputs":[{"name":"entryPoint","type":"address","indexed":true,"internalType":"contract IEntryPoint"},{"name":"owner","type":"address","indexed":true,"internalType":"address"},{"name":"commitment","type":"bytes","indexed":true,"internalType":"bytes"}],"anonymous":false},{"type":"event","name":"Upgraded","inputs":[{"name":"implementation","type":"address","indexed":true,"internalType":"address"}],"anonymous":false},{"type":"error","name":"AddressEmptyCode","inputs":[{"name":"target","type":"address","internalType":"address"}]},{"type":"error","name":"ECDSAInvalidSignature","inputs":[]},{"type":"error","name":"ECDSAInvalidSignatureLength","inputs":[{"name":"length","type":"uint256","internalType":"uint256"}]},{"type":"error","name":"ECDSAInvalidSignatureS","inputs":[{"name":"s","type":"bytes32","internalType":"bytes32"}]},{"type":"error","name":"ERC1967InvalidImplementation","inputs":[{"name":"implementation","type":"address","internalType":"address"}]},{"type":"error","name":"ERC1967NonPayable","inputs":[]},{"type":"error","name":"FailedInnerCall","inputs":[]},{"type":"error","name":"InvalidInitialization","inputs":[]},{"type":"error","name":"NotInitializing","inputs":[]},{"type":"error","name":"OwnableInvalidOwner","inputs":[{"name":"owner","type":"address","internalType":"address"}]},{"type":"error","name":"OwnableUnauthorizedAccount","inputs":[{"name":"account","type":"address","internalType":"address"}]},{"type":"error","name":"UUPSUnauthorizedCallContext","inputs":[]},{"type":"error","name":"UUPSUnsupportedProxiableUUID","inputs":[{"name":"slot","type":"bytes32","internalType":"bytes32"}]}],"bytecode":{"object":"0x60c06040523060805234801561001457600080fd5b506040516133ce3803806133ce833981016040819052610033916100c4565b338061005957604051631e4fbdf760e01b81526000600482015260240160405180910390fd5b61006281610074565b506001600160a01b031660a0526100f4565b600080546001600160a01b038381166001600160a01b0319831681178455604051919092169283917f8be0079c531659141344cd1fd0a4f28419497f9722a3daafe3b4186f6b6457e09190a35050565b6000602082840312156100d657600080fd5b81516001600160a01b03811681146100ed57600080fd5b9392505050565b60805160a05161326f61015f600039600081816105b701528181610a5b01528181610c27015281816113570152818161143401528181611604015281816117390152818161193f0152611ea0015260008181611baa01528181611bd30152611d19015261326f6000f3fe6080604052600436106102345760003560e01c8063734cd1e21161012e578063bc197c81116100ab578063da67bcc41161006f578063da67bcc414610692578063e9bb84c2146106c0578063ed894cd3146106e0578063f23a6e61146106f6578063f2fde38b1461072357600080fd5b8063bc197c81146105fb578063bf4f839e1461062a578063c399ec8814610648578063cf7a1d771461065d578063d087d2881461067d57600080fd5b8063a87d942c116100f2578063a87d942c1461054c578063ad3cb1cc14610561578063affed0e014610592578063b0d691fe146105a8578063b61d27f6146105db57600080fd5b8063734cd1e2146104bb57806377d32e94146104ce57806387ca8f3b146104ee5780638da5cb5b1461050e5780639c0042701461052c57600080fd5b80632921ca69116101bc5780634afa99fd116101805780634afa99fd1461043e5780634f1ef2861461045e57806352d1902d14610471578063589bc4a214610486578063715018a6146104a657600080fd5b80632921ca69146103ab57806329d3d1b2146103cb5780633bd5b8d5146103e057806347e1da2a146104165780634a58db191461043657600080fd5b80631303a484116102035780631303a484146102e457806313122cc214610306578063150b7a021461032657806319822f7c1461036b5780631d06d40d1461038b57600080fd5b806301ffc9a71461024057806306661abd146102755780630a6374fe1461029957806312065fe0146102d157600080fd5b3661023b57005b600080fd5b34801561024c57600080fd5b5061026061025b36600461239c565b610743565b60405190151581526020015b60405180910390f35b34801561028157600080fd5b5061028b60035481565b60405190815260200161026c565b3480156102a557600080fd5b506002546102b9906001600160a01b031681565b6040516001600160a01b03909116815260200161026c565b3480156102dd57600080fd5b504761028b565b3480156102f057600080fd5b506102f9610795565b60405161026c9190612416565b34801561031257600080fd5b506102f961032136600461243e565b610823565b34801561033257600080fd5b506103526103413660046124a3565b630a85bd0160e11b95945050505050565b6040516001600160e01b0319909116815260200161026c565b34801561037757600080fd5b5061028b610386366004612515565b610868565b34801561039757600080fd5b506102f96103a636600461262b565b6108b6565b3480156103b757600080fd5b506007546102b9906001600160a01b031681565b6103de6103d93660046126ed565b6108c9565b005b3480156103ec57600080fd5b506102b96103fb36600461239c565b6001602052600090815260409020546001600160a01b031681565b34801561042257600080fd5b506103de61043136600461278c565b610a50565b6103de610bf5565b34801561044a57600080fd5b506103de610459366004612825565b610ca5565b6103de61046c366004612861565b610cbd565b34801561047d57600080fd5b5061028b610cd8565b34801561049257600080fd5b506102606104a13660046128be565b610cf5565b3480156104b257600080fd5b506103de61101e565b6103de6104c936600461296d565b611032565b3480156104da57600080fd5b506102b96104e93660046129c5565b611124565b3480156104fa57600080fd5b506103de6105093660046129f5565b61121a565b34801561051a57600080fd5b506000546001600160a01b03166102b9565b34801561053857600080fd5b506103de61054736600461239c565b61129f565b34801561055857600080fd5b5060035461028b565b34801561056d57600080fd5b506102f9604051806040016040528060058152602001640352e302e360dc1b81525081565b34801561059e57600080fd5b5061028b60045481565b3480156105b457600080fd5b507f00000000000000000000000000000000000000000000000000000000000000006102b9565b3480156105e757600080fd5b506103de6105f6366004612a49565b61134c565b34801561060757600080fd5b50610352610616366004612a8c565b63bc197c8160e01b98975050505050505050565b34801561063657600080fd5b5061028b610645366004612b4a565b90565b34801561065457600080fd5b5061028b611414565b34801561066957600080fd5b506103de610678366004612b63565b6114a5565b34801561068957600080fd5b5061028b6115dd565b34801561069e57600080fd5b506106b26106ad366004612825565b611633565b60405161026c929190612bae565b3480156106cc57600080fd5b506103de6106db366004612bc9565b61172e565b3480156106ec57600080fd5b5061028b60055481565b34801561070257600080fd5b50610352610711366004612bf5565b63f23a6e6160e01b9695505050505050565b34801561072f57600080fd5b506103de61073e36600461243e565b6118b3565b60006001600160e01b03198216630a85bd0160e11b148061077457506001600160e01b03198216630271189760e51b145b8061078f57506001600160e01b031982166301ffc9a760e01b145b92915050565b600680546107a290612c5e565b80601f01602080910402602001604051908101604052809291908181526020018280546107ce90612c5e565b801561081b5780601f106107f05761010080835404028352916020019161081b565b820191906000526020600020905b8154815290600101906020018083116107fe57829003601f168201915b505050505081565b606060055460016108349190612cae565b6040805160208101929092526001600160a01b038416908201526060015b6040516020818303038152906040529050919050565b6000610892604051806040016040528060078152602001661919191919191960c91b8152506118f1565b61089a611934565b6108a484846119ac565b90506108af82611ae0565b9392505050565b6060816040516020016108529190612cc1565b838060045460016108da9190612cae565b1461091c5760405162461bcd60e51b815260206004820152600d60248201526c496e76616c6964206e6f6e636560981b60448201526064015b60405180910390fd5b600085856040516020016109439291909182526001600160a01b0316602082015260400190565b604051602081830303815290604052905060008180519060200120905060006109a28287878080601f01602080910402602001604051908101604052809392919081815260200183838082843760009201919091525061112492505050565b90506109b66000546001600160a01b031690565b6001600160a01b0316816001600160a01b031614610a165760405162461bcd60e51b815260206004820152601860248201527f41757468206661696c65643a204f6e6c79206f776e65722100000000000000006044820152606401610913565b5050600280546001600160a01b0319166001600160a01b0387161790555060048054906000610a4483612d25565b91905055505050505050565b336001600160a01b037f0000000000000000000000000000000000000000000000000000000000000000161480610a9157506000546001600160a01b031633145b610aad5760405162461bcd60e51b815260040161091390612d3e565b848114610af25760405162461bcd60e51b815260206004820152601360248201527277726f6e67206465737473206c656e6774687360681b6044820152606401610913565b828114610b385760405162461bcd60e51b815260206004820152601460248201527377726f6e672076616c756573206c656e6774687360601b6044820152606401610913565b60005b85811015610bec57610be4878783818110610b5857610b58612d89565b9050602002016020810190610b6d919061243e565b868684818110610b7f57610b7f612d89565b90506020020135858585818110610b9857610b98612d89565b9050602002810190610baa9190612d9f565b8080601f01602080910402602001604051908101604052809392919081815260200183838082843760009201919091525061103292505050565b600101610b3b565b50505050505050565b610c256040518060400160405280600e81526020016d6164644465706f7369743a20257360901b81525034611b2d565b7f000000000000000000000000000000000000000000000000000000000000000060405163b760faf960e01b81523060048201526001600160a01b03919091169063b760faf99034906024016000604051808303818588803b158015610c8a57600080fd5b505af1158015610c9e573d6000803e3d6000fd5b5050505050565b610cad611b72565b6006610cb98282612e35565b5050565b610cc5611b9f565b610cce82611c44565b610cb98282611c4c565b6000610ce2611d0e565b5060008051602061321a83398151915290565b6002546005546040516314bf2aab60e21b8152600092839283926001600160a01b03909216916352fcaaac91610d38918c918c918c91908c908c90600401612ef4565b6040805180830381865afa158015610d54573d6000803e3d6000fd5b505050506040513d601f19601f82011682018060405250810190610d789190612f57565b604080516001808252818301909252929450909250600091906020808301908036833701905050905060008060068054610db190612c5e565b80601f0160208091040260200160405190810160405280929190818152602001828054610ddd90612c5e565b8015610e2a5780601f10610dff57610100808354040283529160200191610e2a565b820191906000526020600020905b815481529060010190602001808311610e0d57829003601f168201915b5050505050806020019051810190610e429190612f85565b60408051600180825281830190925292945090925060009190816020015b604080518082019091526060815260006020820152815260200190600190039081610e605790505090508484600081518110610e9e57610e9e612d89565b60200260200101818152505060405180604001604052808481526020018381525081600081518110610ed257610ed2612d89565b6020908102919091010152600754604051638cf7bba160e01b81526001600160a01b0390911690638cf7bba190610f0f9087908590600401613005565b602060405180830381865afa158015610f2c573d6000803e3d6000fd5b505050506040513d601f19601f82011682018060405250810190610f5091906130b2565b610faa5760405162461bcd60e51b815260206004820152602560248201527f57616c6c6574205265636f766572793a2077726f6e6720656d61696c20616464604482015264726573732160d81b6064820152608401610913565b856110035760405162461bcd60e51b8152602060048201526024808201527f57616c6c6574205265636f766572793a20444b494d20766572696679206661696044820152633632b21760e11b6064820152608401610913565b61100c896118b3565b5060019b9a5050505050505050505050565b611026611b72565b6110306000611d57565b565b61105a604051806040016040528060068152602001651d185c99d95d60d21b81525084611da7565b6110816040518060400160405280600581526020016476616c756560d81b81525083611b2d565b61108a81611dec565b600080846001600160a01b031684846040516110a691906130cf565b60006040518083038185875af1925050503d80600081146110e3576040519150601f19603f3d011682016040523d82523d6000602084013e6110e8565b606091505b50915091506111176040518060400160405280600881526020016739bab1b1b2b9b99d60c11b81525083611e2f565b81610c9e57805160208201fd5b6020810151604082015160608301516000929190831a601b8110156111515761114e601b826130eb565b90505b8060ff16601b148061116657508060ff16601c145b6111b25760405162461bcd60e51b815260206004820152601960248201527f4543445341207369676e617475726520696e636f7272656374000000000000006044820152606401610913565b60408051600081526020810180835288905260ff831691810191909152606081018490526080810183905260019060a0016020604051602081039080840390855afa158015611205573d6000803e3d6000fd5b5050604051601f190151979650505050505050565b611222611b72565b60005b8181101561129957836001600085858581811061124457611244612d89565b9050602002016020810190611259919061239c565b6001600160e01b0319168152602081019190915260400160002080546001600160a01b0319166001600160a01b0392909216919091179055600101611225565b50505050565b6112a7611b72565b6001600160e01b031981166000908152600160205260409020546001600160a01b03166113245760405162461bcd60e51b815260206004820152602560248201527f506c7567696e52656769737472793a206d6574686f64206e6f742072656769736044820152641d195c995960da1b6064820152608401610913565b6001600160e01b031916600090815260016020526040902080546001600160a01b0319169055565b336001600160a01b037f000000000000000000000000000000000000000000000000000000000000000016148061138d57506000546001600160a01b031633145b6113a95760405162461bcd60e51b815260040161091390612d3e565b6113d360405180604001604052806009815260200168457865637574696e6760b81b8152506118f1565b611299848484848080601f01602080910402602001604051908101604052809392919081815260200183838082843760009201919091525061103292505050565b6040516370a0823160e01b81523060048201526000906001600160a01b037f000000000000000000000000000000000000000000000000000000000000000016906370a08231906024015b602060405180830381865afa15801561147c573d6000803e3d6000fd5b505050506040513d601f19601f820116820180604052508101906114a09190613104565b905090565b7ff0c57e16840df040f15088dc2f81fe391c3923bec73e23a9662efc9c229c6a008054600160401b810460ff1615906001600160401b03166000811580156114ea5750825b90506000826001600160401b031660011480156115065750303b155b905081158015611514575080155b156115325760405163f92ee8a960e01b815260040160405180910390fd5b845467ffffffffffffffff19166001178555831561155c57845460ff60401b1916600160401b1785555b600280546001600160a01b0319166001600160a01b038a1617905560066115838782612e35565b5061158d87611e74565b83156115d357845460ff60401b19168555604051600181527fc7f505b2f371ae2175ee4913f4499e1f2633a7b5936321eed1cdaeb6115181d29060200160405180910390a15b5050505050505050565b604051631aab3f0d60e11b8152306004820152600060248201819052906001600160a01b037f000000000000000000000000000000000000000000000000000000000000000016906335567e1a9060440161145f565b60006060600061164284611ef7565b6001600160e01b031981166000908152600160205260409020549091506001600160a01b0316806116c45760405162461bcd60e51b815260206004820152602660248201527f506c7567696e52656769737472793a206d6574686f64206e6f7420696d706c656044820152651b595b9d195960d21b6064820152608401610913565b600080826001600160a01b0316876040516116df91906130cf565b600060405180830381855af49150503d806000811461171a576040519150601f19603f3d011682016040523d82523d6000602084013e61171f565b606091505b50909890975095505050505050565b336001600160a01b037f000000000000000000000000000000000000000000000000000000000000000016148061176f57506000546001600160a01b031633145b61178b5760405162461bcd60e51b815260040161091390612d3e565b478111156117d25760405162461bcd60e51b8152602060048201526014602482015273496e73756666696369656e742062616c616e636560601b6044820152606401610913565b6000826001600160a01b03168260405160006040518083038185875af1925050503d806000811461181f576040519150601f19603f3d011682016040523d82523d6000602084013e611824565b606091505b505090508061186b5760405162461bcd60e51b8152602060048201526013602482015272115512081d1c985b9cd9995c8819985a5b1959606a1b6044820152606401610913565b826001600160a01b03167fcec1f18c3ab8ddaaa107a1591e3c369667eec613626611a8deaedef43069fcdd836040516118a691815260200190565b60405180910390a2505050565b6118bb611b72565b6001600160a01b0381166118e557604051631e4fbdf760e01b815260006004820152602401610913565b6118ee81611d57565b50565b6118ee816040516024016119059190612416565b60408051601f198184030181529190526020810180516001600160e01b031663104c13eb60e21b179052611f56565b336001600160a01b037f000000000000000000000000000000000000000000000000000000000000000016146110305760405162461bcd60e51b815260206004820152601c60248201527f6163636f756e743a206e6f742066726f6d20456e747279506f696e74000000006044820152606401610913565b7f19457468657265756d205369676e6564204d6573736167653a0a3332000000006000908152601c829052603c81206000611a29826119ef610100880188612d9f565b8080601f016020809104026020016040519081016040528093929190818152602001838380828437600092019190915250611f7792505050565b9050611a5f604051806040016040528060128152602001712932b1b7bb32b932b21030b2323932b9b99d60711b81525082611da7565b611aa06040518060400160405280600e81526020016d27bbb732b91030b2323932b9b99d60911b815250611a9b6000546001600160a01b031690565b611da7565b806001600160a01b0316611abc6000546001600160a01b031690565b6001600160a01b031614611ad55760019250505061078f565b506000949350505050565b80156118ee57604051600090339060001990849084818181858888f193505050503d8060008114610c9e576040519150601f19603f3d011682016040523d82523d6000602084013e610c9e565b610cb98282604051602401611b4392919061311d565b60408051601f198184030181529190526020810180516001600160e01b03166309710a9d60e41b179052611f56565b6000546001600160a01b031633146110305760405163118cdaa760e01b8152336004820152602401610913565b306001600160a01b037f0000000000000000000000000000000000000000000000000000000000000000161480611c2657507f00000000000000000000000000000000000000000000000000000000000000006001600160a01b0316611c1a60008051602061321a833981519152546001600160a01b031690565b6001600160a01b031614155b156110305760405163703e46dd60e11b815260040160405180910390fd5b6118ee611fa1565b816001600160a01b03166352d1902d6040518163ffffffff1660e01b8152600401602060405180830381865afa925050508015611ca6575060408051601f3d908101601f19168201909252611ca391810190613104565b60015b611cce57604051634c9c8ce360e01b81526001600160a01b0383166004820152602401610913565b60008051602061321a8339815191528114611cff57604051632a87526960e21b815260048101829052602401610913565b611d098383611ff2565b505050565b306001600160a01b037f000000000000000000000000000000000000000000000000000000000000000016146110305760405163703e46dd60e11b815260040160405180910390fd5b600080546001600160a01b038381166001600160a01b0319831681178455604051919092169283917f8be0079c531659141344cd1fd0a4f28419497f9722a3daafe3b4186f6b6457e09190a35050565b610cb98282604051602401611dbd92919061313f565b60408051601f198184030181529190526020810180516001600160e01b031663319af33360e01b179052611f56565b6118ee81604051602401611e009190612416565b60408051601f198184030181529190526020810180516001600160e01b03166305f3bfab60e11b179052611f56565b610cb98282604051602401611e45929190613169565b60408051601f198184030181529190526020810180516001600160e01b031663c3b5563560e01b179052611f56565b611e7d81611d57565b6006604051611e8c919061318d565b6040518091039020816001600160a01b03167f00000000000000000000000000000000000000000000000000000000000000006001600160a01b03167f273af67187f122540bf897f1876ec138768416665008a39efec4edda4865917860405160405180910390a450565b6000600482511015611f4b5760405162461bcd60e51b815260206004820152601e60248201527f506c7567696e52656769737472793a204461746120746f6f2073686f727400006044820152606401610913565b506020015160e01c90565b80516a636f6e736f6c652e6c6f67602083016000808483855afa5050505050565b600080600080611f878686612048565b925092509250611f978282612095565b5090949350505050565b6000546001600160a01b0316331480611fb957503330145b6110305760405162461bcd60e51b815260206004820152600a60248201526937b7363c9037bbb732b960b11b6044820152606401610913565b611ffb8261214e565b6040516001600160a01b038316907fbc7cd75a20ee27fd9adebab32041f755214dbc6bffa90cc0225b39da2e5c2d3b90600090a280511561204057611d0982826121b3565b610cb9612229565b600080600083516041036120825760208401516040850151606086015160001a61207488828585612248565b95509550955050505061208e565b50508151600091506002905b9250925092565b60008260038111156120a9576120a9613203565b036120b2575050565b60018260038111156120c6576120c6613203565b036120e45760405163f645eedf60e01b815260040160405180910390fd5b60028260038111156120f8576120f8613203565b036121195760405163fce698f760e01b815260048101829052602401610913565b600382600381111561212d5761212d613203565b03610cb9576040516335e2f38360e21b815260048101829052602401610913565b806001600160a01b03163b60000361218457604051634c9c8ce360e01b81526001600160a01b0382166004820152602401610913565b60008051602061321a83398151915280546001600160a01b0319166001600160a01b0392909216919091179055565b6060600080846001600160a01b0316846040516121d091906130cf565b600060405180830381855af49150503d806000811461220b576040519150601f19603f3d011682016040523d82523d6000602084013e612210565b606091505b5091509150612220858383612317565b95945050505050565b34156110305760405163b398979f60e01b815260040160405180910390fd5b600080807f7fffffffffffffffffffffffffffffff5d576e7357a4501ddfe92f46681b20a0841115612283575060009150600390508261230d565b604080516000808252602082018084528a905260ff891692820192909252606081018790526080810186905260019060a0016020604051602081039080840390855afa1580156122d7573d6000803e3d6000fd5b5050604051601f1901519150506001600160a01b0381166123035750600092506001915082905061230d565b9250600091508190505b9450945094915050565b60608261232c5761232782612373565b6108af565b815115801561234357506001600160a01b0384163b155b1561236c57604051639996b31560e01b81526001600160a01b0385166004820152602401610913565b50806108af565b8051156123835780518082602001fd5b604051630a12f52160e11b815260040160405180910390fd5b6000602082840312156123ae57600080fd5b81356001600160e01b0319811681146108af57600080fd5b60005b838110156123e15781810151838201526020016123c9565b50506000910152565b600081518084526124028160208601602086016123c6565b601f01601f19169290920160200192915050565b6020815260006108af60208301846123ea565b6001600160a01b03811681146118ee57600080fd5b60006020828403121561245057600080fd5b81356108af81612429565b60008083601f84011261246d57600080fd5b5081356001600160401b0381111561248457600080fd5b60208301915083602082850101111561249c57600080fd5b9250929050565b6000806000806000608086880312156124bb57600080fd5b85356124c681612429565b945060208601356124d681612429565b93506040860135925060608601356001600160401b038111156124f857600080fd5b6125048882890161245b565b969995985093965092949392505050565b60008060006060848603121561252a57600080fd5b83356001600160401b0381111561254057600080fd5b8401610120818703121561255357600080fd5b95602085013595506040909401359392505050565b634e487b7160e01b600052604160045260246000fd5b604051601f8201601f191681016001600160401b03811182821017156125a6576125a6612568565b604052919050565b60006001600160401b038211156125c7576125c7612568565b50601f01601f191660200190565b600082601f8301126125e657600080fd5b81356125f96125f4826125ae565b61257e565b81815284602083860101111561260e57600080fd5b816020850160208301376000918101602001919091529392505050565b6000602080838503121561263e57600080fd5b82356001600160401b038082111561265557600080fd5b818501915085601f83011261266957600080fd5b81358181111561267b5761267b612568565b8060051b61268a85820161257e565b91825283810185019185810190898411156126a457600080fd5b86860192505b838310156126e0578235858111156126c25760008081fd5b6126d08b89838a01016125d5565b83525091860191908601906126aa565b9998505050505050505050565b6000806000806060858703121561270357600080fd5b84359350602085013561271581612429565b925060408501356001600160401b0381111561273057600080fd5b61273c8782880161245b565b95989497509550505050565b60008083601f84011261275a57600080fd5b5081356001600160401b0381111561277157600080fd5b6020830191508360208260051b850101111561249c57600080fd5b600080600080600080606087890312156127a557600080fd5b86356001600160401b03808211156127bc57600080fd5b6127c88a838b01612748565b909850965060208901359150808211156127e157600080fd5b6127ed8a838b01612748565b9096509450604089013591508082111561280657600080fd5b5061281389828a01612748565b979a9699509497509295939492505050565b60006020828403121561283757600080fd5b81356001600160401b0381111561284d57600080fd5b612859848285016125d5565b949350505050565b6000806040838503121561287457600080fd5b823561287f81612429565b915060208301356001600160401b0381111561289a57600080fd5b6128a6858286016125d5565b9150509250929050565b80151581146118ee57600080fd5b600080600080600060a086880312156128d657600080fd5b85356001600160401b03808211156128ed57600080fd5b6128f989838a016125d5565b9650602088013591508082111561290f57600080fd5b61291b89838a016125d5565b9550604088013591508082111561293157600080fd5b5061293e888289016125d5565b935050606086013561294f81612429565b9150608086013561295f816128b0565b809150509295509295909350565b60008060006060848603121561298257600080fd5b833561298d81612429565b92506020840135915060408401356001600160401b038111156129af57600080fd5b6129bb868287016125d5565b9150509250925092565b600080604083850312156129d857600080fd5b8235915060208301356001600160401b0381111561289a57600080fd5b600080600060408486031215612a0a57600080fd5b8335612a1581612429565b925060208401356001600160401b03811115612a3057600080fd5b612a3c86828701612748565b9497909650939450505050565b60008060008060608587031215612a5f57600080fd5b8435612a6a81612429565b93506020850135925060408501356001600160401b0381111561273057600080fd5b60008060008060008060008060a0898b031215612aa857600080fd5b8835612ab381612429565b97506020890135612ac381612429565b965060408901356001600160401b0380821115612adf57600080fd5b612aeb8c838d01612748565b909850965060608b0135915080821115612b0457600080fd5b612b108c838d01612748565b909650945060808b0135915080821115612b2957600080fd5b50612b368b828c0161245b565b999c989b5096995094979396929594505050565b600060208284031215612b5c57600080fd5b5035919050565b600080600060608486031215612b7857600080fd5b8335612b8381612429565b92506020840135612b9381612429565b915060408401356001600160401b038111156129af57600080fd5b821515815260406020820152600061285960408301846123ea565b60008060408385031215612bdc57600080fd5b8235612be781612429565b946020939093013593505050565b60008060008060008060a08789031215612c0e57600080fd5b8635612c1981612429565b95506020870135612c2981612429565b9450604087013593506060870135925060808701356001600160401b03811115612c5257600080fd5b61281389828a0161245b565b600181811c90821680612c7257607f821691505b602082108103612c9257634e487b7160e01b600052602260045260246000fd5b50919050565b634e487b7160e01b600052601160045260246000fd5b8082018082111561078f5761078f612c98565b600060208083016020845280855180835260408601915060408160051b87010192506020870160005b82811015612d1857603f19888603018452612d068583516123ea565b94509285019290850190600101612cea565b5092979650505050505050565b600060018201612d3757612d37612c98565b5060010190565b6020808252602b908201527f6f6e6c7920656e74727920706f696e74206f722077616c6c657420666163746f60408201526a1c9e4818d85b8818d85b1b60aa1b606082015260800190565b634e487b7160e01b600052603260045260246000fd5b6000808335601e19843603018112612db657600080fd5b8301803591506001600160401b03821115612dd057600080fd5b60200191503681900382131561249c57600080fd5b601f821115611d09576000816000526020600020601f850160051c81016020861015612e0e5750805b601f850160051c820191505b81811015612e2d57828155600101612e1a565b505050505050565b81516001600160401b03811115612e4e57612e4e612568565b612e6281612e5c8454612c5e565b84612de5565b602080601f831160018114612e975760008415612e7f5750858301515b600019600386901b1c1916600185901b178555612e2d565b600085815260208120601f198616915b82811015612ec657888601518255948401946001909101908401612ea7565b5085821015612ee45787850151600019600388901b60f8161c191681555b5050505050600190811b01905550565b60c081526000612f0760c08301896123ea565b8281036020840152612f1981896123ea565b90508281036040840152612f2d81886123ea565b606084019690965250506001600160a01b03929092166080830152151560a0909101529392505050565b60008060408385031215612f6a57600080fd5b8251612f75816128b0565b6020939093015192949293505050565b60008060408385031215612f9857600080fd5b82516001600160401b03811115612fae57600080fd5b8301601f81018513612fbf57600080fd5b8051612fcd6125f4826125ae565b818152866020838501011115612fe257600080fd5b612ff38260208301602086016123c6565b60209590950151949694955050505050565b60408082528351828201819052600091906020906060850190828801855b8281101561303f57815184529284019290840190600101613023565b50505084810382860152855180825282820190600581901b8301840188850160005b838110156130a257858303601f19018552815180518985526130858a8601826123ea565b918901519489019490945294870194925090860190600101613061565b50909a9950505050505050505050565b6000602082840312156130c457600080fd5b81516108af816128b0565b600082516130e18184602087016123c6565b9190910192915050565b60ff818116838216019081111561078f5761078f612c98565b60006020828403121561311657600080fd5b5051919050565b60408152600061313060408301856123ea565b90508260208301529392505050565b60408152600061315260408301856123ea565b905060018060a01b03831660208301529392505050565b60408152600061317c60408301856123ea565b905082151560208301529392505050565b600080835461319b81612c5e565b600182811680156131b357600181146131c8576131f7565b60ff19841687528215158302870194506131f7565b8760005260208060002060005b858110156131ee5781548a8201529084019082016131d5565b50505082870194505b50929695505050505050565b634e487b7160e01b600052602160045260246000fdfe360894a13ba1a3210667c828492db98dca3e2076cc3735a920a3ca505d382bbca26469706673582212205ec4241928bc0307a8db7fc4ecdb5bf4feb7d82e20c3c25e4b60fc4224b8680f64736f6c63430008190033","linkReferences":{}},"methodIdentifiers":{"UPGRADE_INTERFACE_VERSION()":"ad3cb1cc","_call(address,uint256,bytes)":"734cd1e2","addDeposit()":"4a58db19","commitment()":"1303a484","count()":"06661abd","delegateCall(bytes)":"da67bcc4","ecrecovery(bytes32,bytes)":"77d32e94","encodeSignatures(bytes[])":"1d06d40d","entryPoint()":"b0d691fe","execute(address,uint256,bytes)":"b61d27f6","executeBatch(address[],uint256[],bytes[])":"47e1da2a","getBalance()":"12065fe0","getCount()":"a87d942c","getDeposit()":"c399ec88","getNonce()":"d087d288","getRecoveryBody(address)":"13122cc2","implement(address,bytes4[])":"87ca8f3b","implementer(bytes4)":"3bd5b8d5","initialize(address,address,bytes)":"cf7a1d77","intToBytes32(uint256)":"bf4f839e","nonce()":"affed0e0","onERC1155BatchReceived(address,address,uint256[],uint256[],bytes)":"bc197c81","onERC1155Received(address,address,uint256,uint256,bytes)":"f23a6e61","onERC721Received(address,address,uint256,bytes)":"150b7a02","owner()":"8da5cb5b","pedersenCommitment()":"2921ca69","proxiableUUID()":"52d1902d","recoveryNonce()":"ed894cd3","removeMethod(bytes4)":"9c004270","renounceOwnership()":"715018a6","setEmailCommitment(bytes)":"4afa99fd","setSocialRecoveryAddress(uint256,address,bytes)":"29d3d1b2","socialRecovery()":"0a6374fe","supportsInterface(bytes4)":"01ffc9a7","transferEth(address,uint256)":"e9bb84c2","transferOwnership(address)":"f2fde38b","upgradeToAndCall(address,bytes)":"4f1ef286","validateUserOp((address,uint256,bytes,bytes,bytes32,uint256,bytes32,bytes,bytes),bytes32,uint256)":"19822f7c","verify(string,string,string,address,bool)":"589bc4a2"},"id":92}