{"abi":[{"type":"constructor","inputs":[{"name":"entryPoint_","type":"address","internalType":"address"}],"stateMutability":"nonpayable"},{"type":"receive","stateMutability":"payable"},{"type":"function","name":"UPGRADE_INTERFACE_VERSION","inputs":[],"outputs":[{"name":"","type":"string","internalType":"string"}],"stateMutability":"view"},{"type":"function","name":"_call","inputs":[{"name":"target","type":"address","internalType":"address"},{"name":"value","type":"uint256","internalType":"uint256"},{"name":"data","type":"bytes","internalType":"bytes"}],"outputs":[],"stateMutability":"payable"},{"type":"function","name":"addDeposit","inputs":[],"outputs":[],"stateMutability":"payable"},{"type":"function","name":"commitment","inputs":[],"outputs":[{"name":"","type":"bytes","internalType":"bytes"}],"stateMutability":"view"},{"type":"function","name":"count","inputs":[],"outputs":[{"name":"","type":"uint256","internalType":"uint256"}],"stateMutability":"view"},{"type":"function","name":"delegateCall","inputs":[{"name":"payload","type":"bytes","internalType":"bytes"}],"outputs":[{"name":"","type":"bool","internalType":"bool"},{"name":"","type":"bytes","internalType":"bytes"}],"stateMutability":"nonpayable"},{"type":"function","name":"ecrecovery","inputs":[{"name":"hash","type":"bytes32","internalType":"bytes32"},{"name":"signature","type":"bytes","internalType":"bytes"}],"outputs":[{"name":"","type":"address","internalType":"address"}],"stateMutability":"pure"},{"type":"function","name":"encodeSignatures","inputs":[{"name":"signatures","type":"bytes[]","internalType":"bytes[]"}],"outputs":[{"name":"","type":"bytes","internalType":"bytes"}],"stateMutability":"pure"},{"type":"function","name":"entryPoint","inputs":[],"outputs":[{"name":"","type":"address","internalType":"contract IEntryPoint"}],"stateMutability":"view"},{"type":"function","name":"execute","inputs":[{"name":"dest","type":"address","internalType":"address"},{"name":"value","type":"uint256","internalType":"uint256"},{"name":"func","type":"bytes","internalType":"bytes"}],"outputs":[],"stateMutability":"nonpayable"},{"type":"function","name":"executeBatch","inputs":[{"name":"dests","type":"address[]","internalType":"address[]"},{"name":"values","type":"uint256[]","internalType":"uint256[]"},{"name":"funcs","type":"bytes[]","internalType":"bytes[]"}],"outputs":[],"stateMutability":"nonpayable"},{"type":"function","name":"getBalance","inputs":[],"outputs":[{"name":"","type":"uint256","internalType":"uint256"}],"stateMutability":"view"},{"type":"function","name":"getCount","inputs":[],"outputs":[{"name":"","type":"uint256","internalType":"uint256"}],"stateMutability":"view"},{"type":"function","name":"getDeposit","inputs":[],"outputs":[{"name":"","type":"uint256","internalType":"uint256"}],"stateMutability":"view"},{"type":"function","name":"getNonce","inputs":[],"outputs":[{"name":"","type":"uint256","internalType":"uint256"}],"stateMutability":"view"},{"type":"function","name":"getRecoveryBody","inputs":[{"name":"newOwner","type":"address","internalType":"address"}],"outputs":[{"name":"","type":"bytes","internalType":"bytes"}],"stateMutability":"view"},{"type":"function","name":"implement","inputs":[{"name":"account","type":"address","internalType":"address"},{"name":"interfaceIds","type":"bytes4[]","internalType":"bytes4[]"}],"outputs":[],"stateMutability":"nonpayable"},{"type":"function","name":"implementer","inputs":[{"name":"","type":"bytes4","internalType":"bytes4"}],"outputs":[{"name":"","type":"address","internalType":"address"}],"stateMutability":"view"},{"type":"function","name":"initialize","inputs":[{"name":"_socialRecovery","type":"address","internalType":"address"},{"name":"anOwner","type":"address","internalType":"address"},{"name":"_commitment","type":"bytes","internalType":"bytes"}],"outputs":[],"stateMutability":"nonpayable"},{"type":"function","name":"intToBytes32","inputs":[{"name":"x","type":"uint256","internalType":"uint256"}],"outputs":[{"name":"result","type":"bytes32","internalType":"bytes32"}],"stateMutability":"pure"},{"type":"function","name":"nonce","inputs":[],"outputs":[{"name":"","type":"uint256","internalType":"uint256"}],"stateMutability":"view"},{"type":"function","name":"onERC1155BatchReceived","inputs":[{"name":"","type":"address","internalType":"address"},{"name":"","type":"address","internalType":"address"},{"name":"","type":"uint256[]","internalType":"uint256[]"},{"name":"","type":"uint256[]","internalType":"uint256[]"},{"name":"","type":"bytes","internalType":"bytes"}],"outputs":[{"name":"","type":"bytes4","internalType":"bytes4"}],"stateMutability":"pure"},{"type":"function","name":"onERC1155Received","inputs":[{"name":"","type":"address","internalType":"address"},{"name":"","type":"address","internalType":"address"},{"name":"","type":"uint256","internalType":"uint256"},{"name":"","type":"uint256","internalType":"uint256"},{"name":"","type":"bytes","internalType":"bytes"}],"outputs":[{"name":"","type":"bytes4","internalType":"bytes4"}],"stateMutability":"pure"},{"type":"function","name":"onERC721Received","inputs":[{"name":"","type":"address","internalType":"address"},{"name":"","type":"address","internalType":"address"},{"name":"","type":"uint256","internalType":"uint256"},{"name":"","type":"bytes","internalType":"bytes"}],"outputs":[{"name":"","type":"bytes4","internalType":"bytes4"}],"stateMutability":"pure"},{"type":"function","name":"owner","inputs":[],"outputs":[{"name":"","type":"address","internalType":"address"}],"stateMutability":"view"},{"type":"function","name":"pedersenCommitment","inputs":[],"outputs":[{"name":"","type":"address","internalType":"contract PedersenCommitment"}],"stateMutability":"view"},{"type":"function","name":"proxiableUUID","inputs":[],"outputs":[{"name":"","type":"bytes32","internalType":"bytes32"}],"stateMutability":"view"},{"type":"function","name":"recoveryNonce","inputs":[],"outputs":[{"name":"","type":"uint256","internalType":"uint256"}],"stateMutability":"view"},{"type":"function","name":"removeMethod","inputs":[{"name":"interfaceId","type":"bytes4","internalType":"bytes4"}],"outputs":[],"stateMutability":"nonpayable"},{"type":"function","name":"renounceOwnership","inputs":[],"outputs":[],"stateMutability":"nonpayable"},{"type":"function","name":"setEmailCommitment","inputs":[{"name":"_commitment","type":"bytes","internalType":"bytes"}],"outputs":[],"stateMutability":"nonpayable"},{"type":"function","name":"setSocialRecoveryAddress","inputs":[{"name":"_nonce","type":"uint256","internalType":"uint256"},{"name":"_socialRecovery","type":"address","internalType":"address"},{"name":"sign","type":"bytes","internalType":"bytes"}],"outputs":[],"stateMutability":"payable"},{"type":"function","name":"socialRecovery","inputs":[],"outputs":[{"name":"","type":"address","internalType":"contract ISocialRecovery"}],"stateMutability":"view"},{"type":"function","name":"supportsInterface","inputs":[{"name":"interfaceId","type":"bytes4","internalType":"bytes4"}],"outputs":[{"name":"","type":"bool","internalType":"bool"}],"stateMutability":"view"},{"type":"function","name":"transferEth","inputs":[{"name":"_to","type":"address","internalType":"address payable"},{"name":"_amount","type":"uint256","internalType":"uint256"}],"outputs":[],"stateMutability":"nonpayable"},{"type":"function","name":"transferOwnership","inputs":[{"name":"newOwner","type":"address","internalType":"address"}],"outputs":[],"stateMutability":"nonpayable"},{"type":"function","name":"upgradeToAndCall","inputs":[{"name":"newImplementation","type":"address","internalType":"address"},{"name":"data","type":"bytes","internalType":"bytes"}],"outputs":[],"stateMutability":"payable"},{"type":"function","name":"validateUserOp","inputs":[{"name":"userOp","type":"tuple","internalType":"struct PackedUserOperation","components":[{"name":"sender","type":"address","internalType":"address"},{"name":"nonce","type":"uint256","internalType":"uint256"},{"name":"initCode","type":"bytes","internalType":"bytes"},{"name":"callData","type":"bytes","internalType":"bytes"},{"name":"accountGasLimits","type":"bytes32","internalType":"bytes32"},{"name":"preVerificationGas","type":"uint256","internalType":"uint256"},{"name":"gasFees","type":"bytes32","internalType":"bytes32"},{"name":"paymasterAndData","type":"bytes","internalType":"bytes"},{"name":"signature","type":"bytes","internalType":"bytes"}]},{"name":"userOpHash","type":"bytes32","internalType":"bytes32"},{"name":"missingAccountFunds","type":"uint256","internalType":"uint256"}],"outputs":[{"name":"validationData","type":"uint256","internalType":"uint256"}],"stateMutability":"nonpayable"},{"type":"function","name":"verify","inputs":[{"name":"toSign","type":"string","internalType":"string"},{"name":"body","type":"string","internalType":"string"},{"name":"sign","type":"string","internalType":"string"},{"name":"newOwner","type":"address","internalType":"address"},{"name":"base64Encoded","type":"bool","internalType":"bool"}],"outputs":[{"name":"","type":"bool","internalType":"bool"}],"stateMutability":"nonpayable"},{"type":"event","name":"EthTransferred","inputs":[{"name":"to","type":"address","indexed":true,"internalType":"address"},{"name":"amount","type":"uint256","indexed":false,"internalType":"uint256"}],"anonymous":false},{"type":"event","name":"Initialized","inputs":[{"name":"version","type":"uint64","indexed":false,"internalType":"uint64"}],"anonymous":false},{"type":"event","name":"OwnerChanged","inputs":[{"name":"oldOwner","type":"address","indexed":true,"internalType":"address"},{"name":"newOwner","type":"address","indexed":true,"internalType":"address"}],"anonymous":false},{"type":"event","name":"OwnershipTransferred","inputs":[{"name":"previousOwner","type":"address","indexed":true,"internalType":"address"},{"name":"newOwner","type":"address","indexed":true,"internalType":"address"}],"anonymous":false},{"type":"event","name":"SimpleAccountInitialized","inputs":[{"name":"entryPoint","type":"address","indexed":true,"internalType":"contract IEntryPoint"},{"name":"owner","type":"address","indexed":true,"internalType":"address"},{"name":"commitment","type":"bytes","indexed":true,"internalType":"bytes"}],"anonymous":false},{"type":"event","name":"Upgraded","inputs":[{"name":"implementation","type":"address","indexed":true,"internalType":"address"}],"anonymous":false},{"type":"error","name":"AddressEmptyCode","inputs":[{"name":"target","type":"address","internalType":"address"}]},{"type":"error","name":"ECDSAInvalidSignature","inputs":[]},{"type":"error","name":"ECDSAInvalidSignatureLength","inputs":[{"name":"length","type":"uint256","internalType":"uint256"}]},{"type":"error","name":"ECDSAInvalidSignatureS","inputs":[{"name":"s","type":"bytes32","internalType":"bytes32"}]},{"type":"error","name":"ERC1967InvalidImplementation","inputs":[{"name":"implementation","type":"address","internalType":"address"}]},{"type":"error","name":"ERC1967NonPayable","inputs":[]},{"type":"error","name":"FailedInnerCall","inputs":[]},{"type":"error","name":"InvalidInitialization","inputs":[]},{"type":"error","name":"NotInitializing","inputs":[]},{"type":"error","name":"OwnableInvalidOwner","inputs":[{"name":"owner","type":"address","internalType":"address"}]},{"type":"error","name":"OwnableUnauthorizedAccount","inputs":[{"name":"account","type":"address","internalType":"address"}]},{"type":"error","name":"UUPSUnauthorizedCallContext","inputs":[]},{"type":"error","name":"UUPSUnsupportedProxiableUUID","inputs":[{"name":"slot","type":"bytes32","internalType":"bytes32"}]}],"bytecode":{"object":"0x60c03461011457601f6127c938819003918201601f19168301916001600160401b038311848410176101195780849260209460405283398101031261011457516001600160a01b039081811690819003610114573060805233156100fb576000543360018060a01b0319821617600055604051923391167f8be0079c531659141344cd1fd0a4f28419497f9722a3daafe3b4186f6b6457e0600080a360a05261269990816101308239608051818181610dd70152610f4d015260a0518181816106bb01528181610adf01528181610bfc01528181611339015281816113b8015281816114e9015281816116d90152818161185101526122a30152f35b604051631e4fbdf760e01b815260006004820152602490fd5b600080fd5b634e487b7160e01b600052604160045260246000fdfe6080604052600436101561001b575b361561001957600080fd5b005b60003560e01c806301ffc9a71461028657806306661abd146102135780630a6374fe1461028157806312065fe01461027c5780631303a4841461027757806313122cc214610272578063150b7a021461026d57806319822f7c146102685780631d06d40d146102635780632921ca691461025e57806329d3d1b2146102595780633bd5b8d51461025457806347e1da2a1461024f5780634a58db191461024a5780634afa99fd146102455780634f1ef2861461024057806352d1902d1461023b578063589bc4a214610236578063715018a614610231578063734cd1e21461022c57806377d32e941461022757806387ca8f3b146102225780638da5cb5b1461021d5780639c00427014610218578063a87d942c14610213578063ad3cb1cc1461020e578063affed0e014610209578063b0d691fe14610204578063b61d27f6146101ff578063bc197c81146101fa578063bf4f839e146101f5578063c399ec88146101f0578063cf7a1d77146101eb578063d087d288146101e6578063da67bcc4146101e1578063e9bb84c2146101dc578063ed894cd3146101d7578063f23a6e61146101d25763f2fde38b0361000e57611992565b611938565b61191a565b611824565b61175e565b6116a6565b61154a565b6114bd565b6114a0565b611411565b611368565b611323565b611305565b6112bf565b61031b565b6111f7565b6111ce565b61112d565b6110de565b611099565b61103e565b610fa5565b610f3a565b610d94565b610ca3565b610bbc565b610a6e565b6109f8565b61089b565b610872565b6107c9565b610660565b610606565b61055e565b610476565b610362565b610339565b6102a2565b6001600160e01b031981160361029d57565b600080fd5b3461029d57602036600319011261029d5760206004356102c18161028b565b63ffffffff60e01b16630a85bd0160e11b81149081156102ff575b81156102ee575b506040519015158152f35b6301ffc9a760e01b149050386102e3565b630271189760e51b811491506102dc565b600091031261029d57565b3461029d57600036600319011261029d576020600354604051908152f35b3461029d57600036600319011261029d576002546040516001600160a01b039091168152602090f35b3461029d57600036600319011261029d57602047604051908152f35b90600182811c921680156103ae575b602083101461039857565b634e487b7160e01b600052602260045260246000fd5b91607f169161038d565b634e487b7160e01b600052604160045260246000fd5b6001600160401b0381116103e157604052565b6103b8565b604081019081106001600160401b038211176103e157604052565b90601f801991011681019081106001600160401b038211176103e157604052565b919082519283825260005b84811061044e575050826000602080949584010152601f8019910116010190565b60208183018101518483018201520161042d565b906020610473928181520190610422565b90565b3461029d5760008060031936011261054a5760405190806006549061049a8261037e565b8085529160209160019182811690811561051d57506001146104d7575b6104d3866104c781880382610401565b60405191829182610462565b0390f35b9350600684526000805160206126248339815191525b83851061050a575050505081016020016104c7826104d3386104b7565b80548686018401529382019381016104ed565b90508695506104d3969350602092506104c794915060ff191682840152151560051b8201019293386104b7565b80fd5b6001600160a01b0381160361029d57565b3461029d57602036600319011261029d5760043561057b8161054d565b60055490600182018092116105d4576040805160208101939093526001600160a01b03909116908201526104d3906105c081606081015b03601f198101835282610401565b604051918291602083526020830190610422565b6119e8565b9181601f8401121561029d578235916001600160401b03831161029d576020838186019501011161029d57565b3461029d57608036600319011261029d5761062260043561054d565b61062d60243561054d565b6064356001600160401b03811161029d5761064c9036906004016105d9565b5050604051630a85bd0160e11b8152602090f35b3461029d5760031960603682011261029d57600435906001600160401b03821161029d5761012090823603011261029d576106b96040516106a0816103e6565b60078152661919191919191960c91b6020820152611fea565b7f00000000000000000000000000000000000000000000000000000000000000006001600160a01b03163303610717576106fc6104d39160243590600401612018565b6107076044356120ee565b6040519081529081906020820190565b60405162461bcd60e51b815260206004820152601c60248201527f6163636f756e743a206e6f742066726f6d20456e747279506f696e74000000006044820152606490fd5b6001600160401b0381116103e157601f01601f191660200190565b9291926107838261075c565b916107916040519384610401565b82948184528183011161029d578281602093846000960137010152565b9080601f8301121561029d5781602061047393359101610777565b3461029d5760208060031936011261029d576001600160401b039060043582811161029d573660238201121561029d578060040135926024908085116103e1578460051b906040519561081f6020840188610401565b8652602460208701928501019336851161029d5760248101925b85841061084c576104d36104c7896119fe565b833583811161029d57879161086783928836918701016107ae565b815201930192610839565b3461029d57600036600319011261029d576007546040516001600160a01b039091168152602090f35b606036600319011261029d57600460243581356108b78261054d565b6044356001600160401b03811161029d576108d590369085016105d9565b918454600181018091116105d45781036109c45760408051602081019283526001600160a01b0386169181019190915261092e939261092892909161091d81606081016105b2565b519020923691610777565b90611d68565b6000546001600160a01b03929190831690831603610980579161097561097b92610019941660018060a01b03166bffffffffffffffffffffffff60a01b6002541617600255565b54611a79565b600455565b60405162461bcd60e51b8152602081850152601860248201527f41757468206661696c65643a204f6e6c79206f776e65722100000000000000006044820152606490fd5b60405162461bcd60e51b8152602081870152600d60248201526c496e76616c6964206e6f6e636560981b6044820152606490fd5b3461029d57602036600319011261029d57600435610a158161028b565b63ffffffff60e01b166000526001602052602060018060a01b0360406000205416604051908152f35b9181601f8401121561029d578235916001600160401b03831161029d576020808501948460051b01011161029d57565b3461029d57606036600319011261029d576001600160401b0360043581811161029d57610a9f903690600401610a3e565b9060243583811161029d57610ab8903690600401610a3e565b9360443590811161029d57610ad1903690600401610a3e565b92610b0f60018060a01b03807f0000000000000000000000000000000000000000000000000000000000000000163314908115610bae575b50611a88565b838503610b7357610b21848714611ae8565b60005b858110610b2d57005b80610b6d610b46610b416001948a87611b41565b611b56565b610b51838b89611b41565b35610b67610b60858b8a611b92565b3691610777565b91611cb1565b01610b24565b60405162461bcd60e51b815260206004820152601360248201527277726f6e67206465737473206c656e6774687360681b6044820152606490fd5b905060005416331438610b09565b60008060031936011261054a57610bfa604051610bd8816103e6565b600e81526d6164644465706f7369743a20257360901b6020820152349061210c565b7f00000000000000000000000000000000000000000000000000000000000000006001600160a01b0316803b15610c755760405163b760faf960e01b81523060048201529082908290602490829034905af18015610c7057610c5a575080f35b80610c67610c6d926103ce565b80610310565b80f35b611bad565b5080fd5b602060031982011261029d57600435906001600160401b03821161029d57610473916004016107ae565b3461029d57610cb136610c79565b610cb961214f565b80516001600160401b0381116103e157610cdd81610cd860065461037e565b611bb9565b602080601f8311600114610d1f57508190610d0f93600092610d14575b50508160011b916000199060031b1c19161790565b600655005b015190503880610cfa565b90601f19831693610d40600660005260008051602061262483398151915290565b926000905b868210610d7c5750508360019510610d63575b505050811b01600655005b015160001960f88460031b161c19169055388080610d58565b80600185968294968601518155019501930190610d45565b60408060031936011261029d576004803591610daf8361054d565b6024356001600160401b03811161029d57610dcd90369084016107ae565b6001600160a01b037f00000000000000000000000000000000000000000000000000000000000000008116308114908115610f1e575b50610f0f57806000541633148015610f06575b15610ed65790602084928451938480926352d1902d60e01b825289165afa60009281610ea5575b50610e6957505051634c9c8ce360e01b81526001600160a01b0390921690820190815281906020010390fd5b8484846000805160206126048339815191528503610e8b576100198484612360565b51632a87526960e21b815290810184815281906020010390fd5b610ec891935060203d602011610ecf575b610ec08183610401565b810190611e43565b9138610e3d565b503d610eb6565b825162461bcd60e51b8152602081860152600a60248201526937b7363c9037bbb732b960b11b6044820152606490fd5b50303314610e16565b50505163703e46dd60e11b8152fd5b9050816000805160206126048339815191525416141538610e03565b3461029d57600036600319011261029d577f00000000000000000000000000000000000000000000000000000000000000006001600160a01b03163003610f935760206040516000805160206126048339815191528152f35b60405163703e46dd60e11b8152600490fd5b3461029d5760a036600319011261029d576001600160401b0360043581811161029d57610fd69036906004016107ae565b5060243581811161029d57610fef9036906004016107ae565b5060443590811161029d576110089036906004016107ae565b506064356110158161054d565b6084358015150361029d5761102c6104d391611c19565b60405190151581529081906020820190565b3461029d5760008060031936011261054a5761105861214f565b80546001600160a01b03198116825581906001600160a01b03167f8be0079c531659141344cd1fd0a4f28419497f9722a3daafe3b4186f6b6457e08280a380f35b606036600319011261029d576004356110b18161054d565b604435906001600160401b03821161029d576110d46100199236906004016107ae565b9060243590611cb1565b3461029d57604036600319011261029d576024356001600160401b03811161029d5761111b61111360209236906004016107ae565b600435611d68565b6040516001600160a01b039091168152f35b3461029d5760408060031936011261029d576004359061114c8261054d565b6024356001600160401b03811161029d5761116b903690600401610a3e565b9261117461214f565b60005b84811061118057005b8061118e6001928786611b41565b356111988161028b565b6001600160e01b0319166000908152602083905285902080546001600160a01b0319166001600160a01b03851617905501611177565b3461029d57600036600319011261029d576000546040516001600160a01b039091168152602090f35b3461029d57602036600319011261029d576004356112148161028b565b61121c61214f565b6001600160e01b031981166000908152600160205260409020546001600160a01b03161561126c576001600160e01b031916600090815260016020526040902080546001600160a01b0319169055005b60405162461bcd60e51b815260206004820152602560248201527f506c7567696e52656769737472793a206d6574686f64206e6f742072656769736044820152641d195c995960da1b6064820152608490fd5b3461029d57600036600319011261029d576104d36040516112df816103e6565b60058152640352e302e360dc1b6020820152604051918291602083526020830190610422565b3461029d57600036600319011261029d576020600454604051908152f35b3461029d57600036600319011261029d576040517f00000000000000000000000000000000000000000000000000000000000000006001600160a01b03168152602090f35b3461029d57606036600319011261029d576004356113858161054d565b604435906001600160401b03821161029d576110d46113ab6100199336906004016105d9565b6113e760018060a01b03807f0000000000000000000000000000000000000000000000000000000000000000163314908115610bae5750611a88565b610b606040516113f6816103e6565b6009815268457865637574696e6760b81b6020820152611fea565b3461029d5760a036600319011261029d5761142d60043561054d565b61143860243561054d565b6001600160401b0360443581811161029d57611458903690600401610a3e565b505060643581811161029d57611472903690600401610a3e565b505060843590811161029d5761148c9036906004016105d9565b505060405163bc197c8160e01b8152602090f35b3461029d57602036600319011261029d5760206040516004358152f35b3461029d57600036600319011261029d576040516370a0823160e01b81523060048201526020816024817f00000000000000000000000000000000000000000000000000000000000000006001600160a01b03165afa8015610c705760209160009161152d575b50604051908152f35b6115449150823d8411610ecf57610ec08183610401565b38611524565b3461029d57606036600319011261029d576004356115678161054d565b602435906115748261054d565b6001600160401b039160443583811161029d576115959036906004016107ae565b90600080516020612644833981519152549360ff8560401c161594168015908161169e575b6001149081611694575b15908161168b575b5061167957600080516020612644833981519152805467ffffffffffffffff19166001179055611600928461164f57611e52565b61160657005b600080516020612644833981519152805460ff60401b19169055604051600181527fc7f505b2f371ae2175ee4913f4499e1f2633a7b5936321eed1cdaeb6115181d290602090a1005b600080516020612644833981519152805460ff60401b191668010000000000000000179055611e52565b60405163f92ee8a960e01b8152600490fd5b905015386115cc565b303b1591506115c4565b8591506115ba565b3461029d57600036600319011261029d57604051631aab3f0d60e11b8152306004820152600060248201526020816044817f00000000000000000000000000000000000000000000000000000000000000006001600160a01b03165afa8015610c70576104d391600091611726575b506040519081529081906020820190565b61173f915060203d602011610ecf57610ec08183610401565b38611715565b6040906104739392151581528160208201520190610422565b3461029d5761176c36610c79565b60048151106117df5760008160208293016117ae6117a1825160e01c63ffffffff60e01b166000526001602052604060002090565b546001600160a01b031690565b916117c36001600160a01b0384161515611f4d565b51915af46117cf611c5d565b906104d360405192839283611745565b60405162461bcd60e51b815260206004820152601e60248201527f506c7567696e52656769737472793a204461746120746f6f2073686f727400006044820152606490fd5b3461029d57604036600319011261029d576004356118418161054d565b602435906001600160a01b0390337f0000000000000000000000000000000000000000000000000000000000000000831614801561190d575b61188390611a88565b4783116118d157167fcec1f18c3ab8ddaaa107a1591e3c369667eec613626611a8deaedef43069fcdd6118cb6000936107078580808085895af16118c5611c5d565b50611fa8565b0390a280f35b60405162461bcd60e51b8152602060048201526014602482015273496e73756666696369656e742062616c616e636560601b6044820152606490fd5b506000548216331461187a565b3461029d57600036600319011261029d576020600554604051908152f35b3461029d5760a036600319011261029d5761195460043561054d565b61195f60243561054d565b6084356001600160401b03811161029d5761197e9036906004016105d9565b505060405163f23a6e6160e01b8152602090f35b3461029d57602036600319011261029d576004356119af8161054d565b6119b761214f565b6001600160a01b038116156119cf576100199061217b565b604051631e4fbdf760e01b815260006004820152602490fd5b634e487b7160e01b600052601160045260246000fd5b60405190816020916040820160208084015281518091526060830193602060608360051b8601019301946000905b838210611a4a5750505050610473925003601f198101835282610401565b9160019193955080611a678196605f198b82030186528951610422565b97019201920186949295939195611a2c565b60001981146105d45760010190565b15611a8f57565b60405162461bcd60e51b815260206004820152602b60248201527f6f6e6c7920656e74727920706f696e74206f722077616c6c657420666163746f60448201526a1c9e4818d85b8818d85b1b60aa1b6064820152608490fd5b15611aef57565b60405162461bcd60e51b815260206004820152601460248201527377726f6e672076616c756573206c656e6774687360601b6044820152606490fd5b634e487b7160e01b600052603260045260246000fd5b9190811015611b515760051b0190565b611b2b565b356104738161054d565b903590601e198136030182121561029d57018035906001600160401b03821161029d5760200191813603831361029d57565b90821015611b5157611ba99160051b810190611b60565b9091565b6040513d6000823e3d90fd5b601f8111611bc5575050565b6000906006600052600080516020612624833981519152906020601f850160051c83019410611c0f575b601f0160051c01915b828110611c0457505050565b818155600101611bf8565b9092508290611bef565b6000546001600160a01b0390811691611c318161217b565b16907fb532073b38c83145e3e5135377a08bf9aab55bc0fd7c1179cd4fb995d2a5159c600080a3600190565b3d15611c88573d90611c6e8261075c565b91611c7c6040519384610401565b82523d6000602084013e565b606090565b60405190611c9a826103e6565b600882526739bab1b1b2b9b99d60c11b6020830152565b60009192829160405194611cc4866103e6565b60068652611ce282602097651d185c99d95d60d21b898201526121c2565b611d0881604051611cf2816103e6565b600581526476616c756560d81b8982015261210c565b611d366040516305f3bfab60e11b88820152876024820152611d31816105b26044820188610422565b612345565b8583519301915af190611d47611c5d565b91611d5981611d54611c8d565b612210565b15611d62575050565b81519101fd5b9060009160208201519260606040840151930151901a90601b8210611e31575b60ff8216601b8114908115611e26575b5015611de157611dcd600093602095604051948594859094939260ff6060936080840197845216602083015260408201520152565b838052039060015afa15610c705760005190565b60405162461bcd60e51b815260206004820152601960248201527f4543445341207369676e617475726520696e636f7272656374000000000000006044820152606490fd5b601c91501438611d98565b90601b0160ff81116105d45790611d88565b9081602091031261029d575190565b600280546001600160a01b0319166001600160a01b03909216919091179055815190916001600160401b0382116103e157611e9282610cd860065461037e565b602090816001601f851114611ed357509180611ec992611ed19594600092610d145750508160011b916000199060031b1c19161790565b600655612255565b565b60066000529190601f198416600080516020612624833981519152936000905b828210611f35575050916001939185611ed197969410611f1c575b505050811b01600655612255565b015160001960f88460031b161c19169055388080611f0e565b80600186978294978701518155019601940190611ef3565b15611f5457565b60405162461bcd60e51b815260206004820152602660248201527f506c7567696e52656769737472793a206d6574686f64206e6f7420696d706c656044820152651b595b9d195960d21b6064820152608490fd5b15611faf57565b60405162461bcd60e51b8152602060048201526013602482015272115512081d1c985b9cd9995c8819985a5b1959606a1b6044820152606490fd5b6105b2611d31611ed19260405192839163104c13eb60e21b6020840152602060248401526044830190610422565b6120649061206d927f19457468657265756d205369676e6564204d6573736167653a0a333200000000600052601c5261205e610b60603c60002092610100810190611b60565b90612404565b90929192612460565b6120a18160405161207d816103e6565b60128152712932b1b7bb32b932b21030b2323932b9b99d60711b60208201526121c2565b60018060a01b038060005416916120de836040516120be816103e6565b600e81526d27bbb732b91030b2323932b9b99d60911b60208201526121c2565b16036120e957600090565b600190565b806120f65750565b600080808093338219f150612109611c5d565b50565b611d3161213b91611ed1936040519384926309710a9d60e41b6020850152604060248501526064840190610422565b90604483015203601f198101835282610401565b6000546001600160a01b0316330361216357565b60405163118cdaa760e01b8152336004820152602490fd5b600080546001600160a01b039283166001600160a01b03198216811783559216907f8be0079c531659141344cd1fd0a4f28419497f9722a3daafe3b4186f6b6457e09080a3565b611d316121f191611ed19360405193849263319af33360e01b6020850152604060248501526064840190610422565b6001600160a01b0391909116604483015203601f198101835282610401565b611d3161223f91611ed19360405193849263c3b5563560e01b6020850152604060248501526064840190610422565b901515604483015203601f198101835282610401565b61225e8161217b565b6040516006546001600160a01b0391829160009061227b8161037e565b906001908460018216918260001461232d5750506001146122ea575b505081900390209216907f0000000000000000000000000000000000000000000000000000000000000000167f273af67187f122540bf897f1876ec138768416665008a39efec4edda48659178600080a4565b600660009081529192506000805160206126248339815191525b8383106123175750505081018138612297565b8054858401528695506020909201918101612304565b925093505060ff191682528015150281019038612297565b600080916020815191016a636f6e736f6c652e6c6f675afa50565b90813b156123e35760008051602061260483398151915280546001600160a01b0319166001600160a01b0384169081179091557fbc7cd75a20ee27fd9adebab32041f755214dbc6bffa90cc0225b39da2e5c2d3b600080a28051156123c857612109916124ed565b5050346123d157565b60405163b398979f60e01b8152600490fd5b604051634c9c8ce360e01b81526001600160a01b0383166004820152602490fd5b81519190604183036124355761242e92506020820151906060604084015193015160001a9061250b565b9192909190565b505060009160029190565b6004111561244a57565b634e487b7160e01b600052602160045260246000fd5b61246981612440565b80612472575050565b61247b81612440565b600181036124955760405163f645eedf60e01b8152600490fd5b61249e81612440565b600281036124bf5760405163fce698f760e01b815260048101839052602490fd5b806124cb600392612440565b146124d35750565b6040516335e2f38360e21b81526004810191909152602490fd5b60008061047393602081519101845af4612505611c5d565b916125a0565b9291907f7fffffffffffffffffffffffffffffff5d576e7357a4501ddfe92f46681b20a0831161259457916125619160209360405195869094939260ff6060936080840197845216602083015260408201520152565b826000938492838052039060015afa15610c705780516001600160a01b0381161561258b57918190565b50809160019190565b50600093600393509050565b906125c757508051156125b557805190602001fd5b604051630a12f52160e11b8152600490fd5b815115806125fa575b6125d8575090565b604051639996b31560e01b81526001600160a01b039091166004820152602490fd5b50803b156125d056fe360894a13ba1a3210667c828492db98dca3e2076cc3735a920a3ca505d382bbcf652222313e28459528d920b65115c16c04f3efc82aaedc97be59f3f377c0d3ff0c57e16840df040f15088dc2f81fe391c3923bec73e23a9662efc9c229c6a00a2646970667358221220aa9699cb78af2156e56028690bf3566317bf67df09655bcb658a2d15878f047b64736f6c63430008190033","linkReferences":{}},"methodIdentifiers":{"UPGRADE_INTERFACE_VERSION()":"ad3cb1cc","_call(address,uint256,bytes)":"734cd1e2","addDeposit()":"4a58db19","commitment()":"1303a484","count()":"06661abd","delegateCall(bytes)":"da67bcc4","ecrecovery(bytes32,bytes)":"77d32e94","encodeSignatures(bytes[])":"1d06d40d","entryPoint()":"b0d691fe","execute(address,uint256,bytes)":"b61d27f6","executeBatch(address[],uint256[],bytes[])":"47e1da2a","getBalance()":"12065fe0","getCount()":"a87d942c","getDeposit()":"c399ec88","getNonce()":"d087d288","getRecoveryBody(address)":"13122cc2","implement(address,bytes4[])":"87ca8f3b","implementer(bytes4)":"3bd5b8d5","initialize(address,address,bytes)":"cf7a1d77","intToBytes32(uint256)":"bf4f839e","nonce()":"affed0e0","onERC1155BatchReceived(address,address,uint256[],uint256[],bytes)":"bc197c81","onERC1155Received(address,address,uint256,uint256,bytes)":"f23a6e61","onERC721Received(address,address,uint256,bytes)":"150b7a02","owner()":"8da5cb5b","pedersenCommitment()":"2921ca69","proxiableUUID()":"52d1902d","recoveryNonce()":"ed894cd3","removeMethod(bytes4)":"9c004270","renounceOwnership()":"715018a6","setEmailCommitment(bytes)":"4afa99fd","setSocialRecoveryAddress(uint256,address,bytes)":"29d3d1b2","socialRecovery()":"0a6374fe","supportsInterface(bytes4)":"01ffc9a7","transferEth(address,uint256)":"e9bb84c2","transferOwnership(address)":"f2fde38b","upgradeToAndCall(address,bytes)":"4f1ef286","validateUserOp((address,uint256,bytes,bytes,bytes32,uint256,bytes32,bytes,bytes),bytes32,uint256)":"19822f7c","verify(string,string,string,address,bool)":"589bc4a2"},"id":76}