{"abi":[{"type":"constructor","inputs":[{"name":"_dkim","type":"address","internalType":"address"}],"stateMutability":"nonpayable"},{"type":"function","name":"createWallet","inputs":[{"name":"salt","type":"uint256","internalType":"uint256"},{"name":"owner","type":"address","internalType":"address"},{"name":"emailHash","type":"uint256","internalType":"uint256"}],"outputs":[{"name":"","type":"address","internalType":"address"}],"stateMutability":"nonpayable"},{"type":"function","name":"deploy","inputs":[{"name":"_salt","type":"uint256","internalType":"uint256"},{"name":"owner","type":"address","internalType":"address"},{"name":"emailHash","type":"uint256","internalType":"uint256"}],"outputs":[{"name":"","type":"address","internalType":"address"}],"stateMutability":"payable"},{"type":"function","name":"dkim","inputs":[],"outputs":[{"name":"","type":"address","internalType":"address"}],"stateMutability":"view"},{"type":"function","name":"getAddress","inputs":[{"name":"_salt","type":"uint256","internalType":"uint256"}],"outputs":[{"name":"","type":"address","internalType":"address"}],"stateMutability":"view"},{"type":"function","name":"getBytecode","inputs":[],"outputs":[{"name":"","type":"bytes","internalType":"bytes"}],"stateMutability":"pure"},{"type":"event","name":"WalletCreated","inputs":[{"name":"owner","type":"address","indexed":true,"internalType":"address"},{"name":"contractAddress","type":"address","indexed":false,"internalType":"address"}],"anonymous":false}],"bytecode":{"object":"0x6080604052348015600f57600080fd5b50604051611a46380380611a46833981016040819052602c916050565b600080546001600160a01b0319166001600160a01b0392909216919091179055607e565b600060208284031215606157600080fd5b81516001600160a01b0381168114607757600080fd5b9392505050565b6119b98061008d6000396000f3fe60806040526004361061004a5760003560e01c8063400ad5ce1461004f57806352c7420d1461008c5780636f24caaa146100ae5780637b6c2bc7146100c1578063b93f9b0a146100e1575b600080fd5b34801561005b57600080fd5b5060005461006f906001600160a01b031681565b6040516001600160a01b0390911681526020015b60405180910390f35b34801561009857600080fd5b506100a1610101565b60405161008391906102ef565b61006f6100bc366004610322565b610151565b3480156100cd57600080fd5b5061006f6100dc366004610322565b6101e3565b3480156100ed57600080fd5b5061006f6100fc366004610366565b61023d565b6060600060405180602001610115906102be565b6020820181038252601f19601f8201166040525090508060405160200161013c919061037f565b60405160208183030381529060405291505090565b60008061015c610101565b905060008582516020840134f56000546040516305e52ecf60e21b81526001600160a01b039182166004820152878216602482015260448101879052919250821690631794bb3c90606401600060405180830381600087803b1580156101c157600080fd5b505af11580156101d5573d6000803e3d6000fd5b509298975050505050505050565b6000806101f1858585610151565b6040516001600160a01b038083168252919250908516907f5b03bfed1c14a02bdeceb5fa582eb1a5765fc0bc64ca0e6af4c20afc9487f0819060200160405180910390a2949350505050565b6000806001600160f81b03193084610253610101565b805160209182012060405161029f95949392016001600160f81b031994909416845260609290921b6bffffffffffffffffffffffff191660018401526015830152603582015260550190565b60408051601f1981840301815291905280516020909101209392505050565b6115e88061039c83390190565b60005b838110156102e65781810151838201526020016102ce565b50506000910152565b602081526000825180602084015261030e8160408501602087016102cb565b601f01601f19169190910160400192915050565b60008060006060848603121561033757600080fd5b8335925060208401356001600160a01b038116811461035557600080fd5b929592945050506040919091013590565b60006020828403121561037857600080fd5b5035919050565b600082516103918184602087016102cb565b919091019291505056fe6080604052348015600f57600080fd5b503380603557604051631e4fbdf760e01b81526000600482015260240160405180910390fd5b603c816041565b506091565b600080546001600160a01b038381166001600160a01b0319831681178455604051919092169283917f8be0079c531659141344cd1fd0a4f28419497f9722a3daafe3b4186f6b6457e09190a35050565b611548806100a06000396000f3fe6080604052600436106101185760003560e01c8063589bc4a2116100a05780639c004270116100645780639c00427014610338578063affed0e014610358578063da67bcc41461036e578063ed894cd31461039c578063f2fde38b146103b257600080fd5b8063589bc4a214610295578063715018a6146102c557806377d32e94146102da57806387ca8f3b146102fa5780638da5cb5b1461031a57600080fd5b80631794bb3c116100e75780631794bb3c146101f55780631ab6f7891461021557806329d3d1b21461022857806336cb84771461023b5780633bd5b8d51461025f57600080fd5b80630a6374fe146101245780630a7739301461016157806313122cc214610183578063150b7a02146101b057600080fd5b3661011f57005b600080fd5b34801561013057600080fd5b50600254610144906001600160a01b031681565b6040516001600160a01b0390911681526020015b60405180910390f35b34801561016d57600080fd5b5061018161017c366004610dc7565b6103d2565b005b34801561018f57600080fd5b506101a361019e366004610dfc565b6103df565b6040516101589190610e6e565b3480156101bc57600080fd5b506101dc6101cb366004610eca565b630a85bd0160e11b95945050505050565b6040516001600160e01b03199091168152602001610158565b34801561020157600080fd5b50610181610210366004610f39565b610423565b6101a3610223366004610f75565b61044e565b610181610236366004611009565b6104e1565b34801561024757600080fd5b5061025160055481565b604051908152602001610158565b34801561026b57600080fd5b5061014461027a366004611063565b6001602052600090815260409020546001600160a01b031681565b3480156102a157600080fd5b506102b56102b0366004611160565b61065e565b6040519015158152602001610158565b3480156102d157600080fd5b506101816107e8565b3480156102e657600080fd5b506101446102f536600461120e565b6107fc565b34801561030657600080fd5b50610181610315366004611255565b6108f3565b34801561032657600080fd5b506000546001600160a01b0316610144565b34801561034457600080fd5b50610181610353366004611063565b610978565b34801561036457600080fd5b5061025160035481565b34801561037a57600080fd5b5061038e6103893660046112db565b610a25565b604051610158929190611318565b3480156103a857600080fd5b5061025160045481565b3480156103be57600080fd5b506101816103cd366004610dfc565b610b20565b6103da610b5e565b600555565b606060045460016103f09190611349565b6040805160208101929092526001600160a01b038416908201526060016040516020818303038152906040529050919050565b600280546001600160a01b0319166001600160a01b03851617905561044782610b8b565b6005555050565b6060838060035460016104619190611349565b146104a35760405162461bcd60e51b815260206004820152600d60248201526c496e76616c6964206e6f6e636560981b60448201526064015b60405180910390fd5b6104b28989878a8a8989610bdb565b6104be89898989610cd0565b9150600380549060006104d08361135c565b919050555050979650505050505050565b838060035460016104f29190611349565b1461052f5760405162461bcd60e51b815260206004820152600d60248201526c496e76616c6964206e6f6e636560981b604482015260640161049a565b600085856040516020016105569291909182526001600160a01b0316602082015260400190565b604051602081830303815290604052905060008180519060200120905060006105b58287878080601f0160208091040260200160405190810160405280939291908181526020018383808284376000920191909152506107fc92505050565b90506105c96000546001600160a01b031690565b6001600160a01b0316816001600160a01b0316146106245760405162461bcd60e51b815260206004820152601860248201527741757468206661696c65643a204f6e6c79206f776e65722160401b604482015260640161049a565b5050600280546001600160a01b0319166001600160a01b03871617905550600380549060006106528361135c565b91905055505050505050565b600254600480546040516314bf2aab60e21b8152600093849384936001600160a01b03909216926352fcaaac926106a1928d928d928d9290918d918d9101611375565b600060405180830381865afa1580156106be573d6000803e3d6000fd5b505050506040513d6000823e601f3d908101601f191682016040526106e691908101906113d8565b915091506000816040516020016106fd9190610e6e565b6040516020818303038152906040528051906020012090506005548160001c146107775760405162461bcd60e51b815260206004820152602560248201527f57616c6c6574205265636f766572793a2077726f6e6720656d61696c20616464604482015264726573732160d81b606482015260840161049a565b826107d05760405162461bcd60e51b8152602060048201526024808201527f57616c6c6574205265636f766572793a20444b494d20766572696679206661696044820152633632b21760e11b606482015260840161049a565b6107d986610b20565b50600198975050505050505050565b6107f0610b5e565b6107fa6000610b8b565b565b6020810151604082015160608301516000929190831a601b81101561082957610826601b82611465565b90505b8060ff16601b148061083e57508060ff16601c145b61088a5760405162461bcd60e51b815260206004820152601960248201527f4543445341207369676e617475726520696e636f727265637400000000000000604482015260640161049a565b60408051600081526020810180835288905260ff831691810191909152606081018490526080810183905260019060a0016020604051602081039080840390855afa1580156108dd573d6000803e3d6000fd5b5050506020604051035193505050505b92915050565b6108fb610b5e565b60005b8181101561097257836001600085858581811061091d5761091d61147e565b90506020020160208101906109329190611063565b6001600160e01b0319168152602081019190915260400160002080546001600160a01b0319166001600160a01b03929092169190911790556001016108fe565b50505050565b610980610b5e565b6001600160e01b031981166000908152600160205260409020546001600160a01b03166109fd5760405162461bcd60e51b815260206004820152602560248201527f506c7567696e52656769737472793a206d6574686f64206e6f742072656769736044820152641d195c995960da1b606482015260840161049a565b6001600160e01b031916600090815260016020526040902080546001600160a01b0319169055565b600060606000610a3484610d68565b6001600160e01b031981166000908152600160205260409020549091506001600160a01b031680610ab65760405162461bcd60e51b815260206004820152602660248201527f506c7567696e52656769737472793a206d6574686f64206e6f7420696d706c656044820152651b595b9d195960d21b606482015260840161049a565b600080826001600160a01b031687604051610ad19190611494565b600060405180830381855af49150503d8060008114610b0c576040519150601f19603f3d011682016040523d82523d6000602084013e610b11565b606091505b50909890975095505050505050565b610b28610b5e565b6001600160a01b038116610b5257604051631e4fbdf760e01b81526000600482015260240161049a565b610b5b81610b8b565b50565b6000546001600160a01b031633146107fa5760405163118cdaa760e01b815233600482015260240161049a565b600080546001600160a01b038381166001600160a01b0319831681178455604051919092169283917f8be0079c531659141344cd1fd0a4f28419497f9722a3daafe3b4186f6b6457e09190a35050565b6000878686868a604051602001610bf69594939291906114b0565b60405160208183030381529060405290506000818051906020012090506000610c558286868080601f0160208091040260200160405190810160405280939291908181526020018383808284376000920191909152506107fc92505050565b9050610c696000546001600160a01b031690565b6001600160a01b0316816001600160a01b031614610cc45760405162461bcd60e51b815260206004820152601860248201527741757468206661696c65643a204f6e6c79206f776e65722160401b604482015260640161049a565b50505050505050505050565b6060600080866001600160a01b0316868686604051610cf0929190611502565b60006040518083038185875af1925050503d8060008114610d2d576040519150601f19603f3d011682016040523d82523d6000602084013e610d32565b606091505b509150915081610d5e5760405162461bcd60e51b8152602060048201526000602482015260440161049a565b9695505050505050565b6000600482511015610dbc5760405162461bcd60e51b815260206004820152601e60248201527f506c7567696e52656769737472793a204461746120746f6f2073686f72740000604482015260640161049a565b506020015160e01c90565b600060208284031215610dd957600080fd5b5035919050565b80356001600160a01b0381168114610df757600080fd5b919050565b600060208284031215610e0e57600080fd5b610e1782610de0565b9392505050565b60005b83811015610e39578181015183820152602001610e21565b50506000910152565b60008151808452610e5a816020860160208601610e1e565b601f01601f19169290920160200192915050565b602081526000610e176020830184610e42565b60008083601f840112610e9357600080fd5b50813567ffffffffffffffff811115610eab57600080fd5b602083019150836020828501011115610ec357600080fd5b9250929050565b600080600080600060808688031215610ee257600080fd5b610eeb86610de0565b9450610ef960208701610de0565b935060408601359250606086013567ffffffffffffffff811115610f1c57600080fd5b610f2888828901610e81565b969995985093965092949392505050565b600080600060608486031215610f4e57600080fd5b610f5784610de0565b9250610f6560208501610de0565b9150604084013590509250925092565b600080600080600080600060a0888a031215610f9057600080fd5b610f9988610de0565b965060208801359550604088013567ffffffffffffffff80821115610fbd57600080fd5b610fc98b838c01610e81565b909750955060608a0135945060808a0135915080821115610fe957600080fd5b50610ff68a828b01610e81565b989b979a50959850939692959293505050565b6000806000806060858703121561101f57600080fd5b8435935061102f60208601610de0565b9250604085013567ffffffffffffffff81111561104b57600080fd5b61105787828801610e81565b95989497509550505050565b60006020828403121561107557600080fd5b81356001600160e01b031981168114610e1757600080fd5b634e487b7160e01b600052604160045260246000fd5b604051601f8201601f1916810167ffffffffffffffff811182821017156110cc576110cc61108d565b604052919050565b600067ffffffffffffffff8211156110ee576110ee61108d565b50601f01601f191660200190565b600082601f83011261110d57600080fd5b813561112061111b826110d4565b6110a3565b81815284602083860101111561113557600080fd5b816020850160208301376000918101602001919091529392505050565b8015158114610b5b57600080fd5b600080600080600060a0868803121561117857600080fd5b853567ffffffffffffffff8082111561119057600080fd5b61119c89838a016110fc565b965060208801359150808211156111b257600080fd5b6111be89838a016110fc565b955060408801359150808211156111d457600080fd5b506111e1888289016110fc565b9350506111f060608701610de0565b9150608086013561120081611152565b809150509295509295909350565b6000806040838503121561122157600080fd5b82359150602083013567ffffffffffffffff81111561123f57600080fd5b61124b858286016110fc565b9150509250929050565b60008060006040848603121561126a57600080fd5b61127384610de0565b9250602084013567ffffffffffffffff8082111561129057600080fd5b818601915086601f8301126112a457600080fd5b8135818111156112b357600080fd5b8760208260051b85010111156112c857600080fd5b6020830194508093505050509250925092565b6000602082840312156112ed57600080fd5b813567ffffffffffffffff81111561130457600080fd5b611310848285016110fc565b949350505050565b82151581526040602082015260006113106040830184610e42565b634e487b7160e01b600052601160045260246000fd5b808201808211156108ed576108ed611333565b60006001820161136e5761136e611333565b5060010190565b60c08152600061138860c0830189610e42565b828103602084015261139a8189610e42565b905082810360408401526113ae8188610e42565b606084019690965250506001600160a01b03929092166080830152151560a0909101529392505050565b600080604083850312156113eb57600080fd5b82516113f681611152565b602084015190925067ffffffffffffffff81111561141357600080fd5b8301601f8101851361142457600080fd5b805161143261111b826110d4565b81815286602083850101111561144757600080fd5b611458826020830160208601610e1e565b8093505050509250929050565b60ff81811683821601908111156108ed576108ed611333565b634e487b7160e01b600052603260045260246000fd5b600082516114a6818460208701610e1e565b9190910192915050565b6001600160a01b0386168152602081018590526080604082018190528101839052828460a0830137600060a08483010152600060a0601f19601f86011683010190508260608301529695505050505050565b818382376000910190815291905056fea2646970667358221220568c11deebcdda1366a3933011aa3d94ec4549828fd0e2f6f9751b4ce3e82d9464736f6c63430008190033a26469706673582212208653595a14d23ae6a28a531af540f7e8dd552c777d026e7cce8ee5039810280264736f6c63430008190033","linkReferences":{}},"methodIdentifiers":{"createWallet(uint256,address,uint256)":"7b6c2bc7","deploy(uint256,address,uint256)":"6f24caaa","dkim()":"400ad5ce","getAddress(uint256)":"b93f9b0a","getBytecode()":"52c7420d"},"id":34}