{"abi":[{"type":"function","name":"generateCommitments","inputs":[{"name":"values","type":"uint256[]","internalType":"uint256[]"}],"outputs":[{"name":"","type":"tuple[]","internalType":"struct PedersenCommitment.Commitment[]","components":[{"name":"m","type":"string","internalType":"string"},{"name":"r","type":"uint256","internalType":"uint256"}]}],"stateMutability":"view"},{"type":"function","name":"verify","inputs":[{"name":"values","type":"uint256[]","internalType":"uint256[]"},{"name":"commitments","type":"tuple[]","internalType":"struct PedersenCommitment.Commitment[]","components":[{"name":"m","type":"string","internalType":"string"},{"name":"r","type":"uint256","internalType":"uint256"}]}],"outputs":[{"name":"","type":"bool","internalType":"bool"}],"stateMutability":"view"}],"bytecode":{"object":"0x6080604052348015600f57600080fd5b506109a18061001f6000396000f3fe608060405234801561001057600080fd5b50600436106100365760003560e01c806370fc2a781461003b5780638cf7bba114610064575b600080fd5b61004e61004936600461063c565b610087565b60405161005b9190610671565b60405180910390f35b610077610072366004610718565b61021b565b604051901515815260200161005b565b805160609060008167ffffffffffffffff8111156100a7576100a7610539565b6040519080825280602002602001820160405280156100ed57816020015b6040805180820190915260608152600060208201528152602001906001900390816100c55790505b50905060005b8281101561021357604080514260208201526bffffffffffffffffffffffff193360601b1691810191909152605481018290526000906001600160401b01600160c01b03906074016040516020818303038152906040528051906020012060001c61015e919061088f565b905060006101946002888581518110610179576101796108a3565b60200260200101516001600160401b01600160c01b0361033e565b905060006101b16003846001600160401b01600160c01b0361033e565b905060006001600160401b01600160c01b03828409905060405180604001604052806101dc836103b4565b8152602001858152508686815181106101f7576101f76108a3565b60200260200101819052505050505080806001019150506100f3565b509392505050565b60008060005b845181101561025e576001600160401b01600160c01b0385828151811061024a5761024a6108a3565b602002602001015183089150600101610221565b50600061027a6002836001600160401b01600160c01b0361033e565b905060016000805b8651811015610301576001600160401b01600160c01b038782815181106102ab576102ab6108a3565b6020026020010151602001518308915060006102e38883815181106102d2576102d26108a3565b6020026020010151600001516104bd565b90506001600160401b01600160c01b03818509935050600101610282565b5060006001600160401b01600160c01b0361032b6003846001600160401b01600160c01b0361033e565b8509929092149450505050505b92915050565b600081600103610350575060006103ad565b600161035c838661088f565b94505b83156103aa5761037060028561088f565b60010361038b57828061038557610385610879565b85820990505b600184901c935082806103a0576103a0610879565b858609945061035f565b90505b9392505050565b6060816000036103db5750506040805180820190915260018152600360fc1b602082015290565b8160005b811561040557806103ef816108cf565b91506103fe9050600a836108e8565b91506103df565b60008167ffffffffffffffff81111561042057610420610539565b6040519080825280601f01601f19166020018201604052801561044a576020820181803683370190505b5090505b84156104b55761045f6001836108fc565b915061046c600a8661088f565b61047790603061090f565b60f81b81838151811061048c5761048c6108a3565b60200101906001600160f81b031916908160001a9053506104ae600a866108e8565b945061044e565b949350505050565b600081815b81518110156105325760008282815181106104df576104df6108a3565b016020015160f81c9050603081108015906104fe575060398160ff1611155b156105295761050e603082610928565b60ff1661051c85600a610941565b6105269190610958565b93505b506001016104c2565b5050919050565b634e487b7160e01b600052604160045260246000fd5b6040805190810167ffffffffffffffff8111828210171561057257610572610539565b60405290565b604051601f8201601f1916810167ffffffffffffffff811182821017156105a1576105a1610539565b604052919050565b600067ffffffffffffffff8211156105c3576105c3610539565b5060051b60200190565b600082601f8301126105de57600080fd5b813560206105f36105ee836105a9565b610578565b8083825260208201915060208460051b87010193508684111561061557600080fd5b602086015b84811015610631578035835291830191830161061a565b509695505050505050565b60006020828403121561064e57600080fd5b813567ffffffffffffffff81111561066557600080fd5b6104b5848285016105cd565b600060208083018184528085518083526040925060408601915060408160051b8701018488016000805b8481101561070957603f198a8503018652825180518886528051808a880152845b818110156106d8578281018c0151888201606001528b016106bc565b508681016060908101869052928b01518b880152978a0197601f01601f19169095010193509187019160010161069b565b50919998505050505050505050565b6000806040838503121561072b57600080fd5b823567ffffffffffffffff8082111561074357600080fd5b61074f868387016105cd565b935060209150818501358181111561076657600080fd5b8501601f8101871361077757600080fd5b80356107856105ee826105a9565b81815260059190911b820184019084810190898311156107a457600080fd5b8584015b83811015610868578035868111156107bf57600080fd5b8501601f196040828e03820112156107d657600080fd5b6107de61054f565b89830135898111156107ef57600080fd5b8301603f81018f1361080057600080fd5b8a8101358a81111561081457610814610539565b6108248c85601f84011601610578565b93508084528f604082840101111561083b57600080fd5b80604083018d86013760009084018c015250908152604091909101358189015283529186019186016107a8565b508096505050505050509250929050565b634e487b7160e01b600052601260045260246000fd5b60008261089e5761089e610879565b500690565b634e487b7160e01b600052603260045260246000fd5b634e487b7160e01b600052601160045260246000fd5b6000600182016108e1576108e16108b9565b5060010190565b6000826108f7576108f7610879565b500490565b81810381811115610338576103386108b9565b60ff8181168382160190811115610338576103386108b9565b60ff8281168282160390811115610338576103386108b9565b8082028115828204841417610338576103386108b9565b80820180821115610338576103386108b956fea2646970667358221220b58f25201712f91d873dd897bed4d54246417b15cbbed8b80909a8fd497c4f4d64736f6c63430008190033","linkReferences":{}},"methodIdentifiers":{"generateCommitments(uint256[])":"70fc2a78","verify(uint256[],(string,uint256)[])":"8cf7bba1"},"id":94}