{"abi":[{"type":"function","name":"generateCommitments","inputs":[{"name":"values","type":"uint256[]","internalType":"uint256[]"}],"outputs":[{"name":"","type":"tuple[]","internalType":"struct PedersenCommitment.Commitment[]","components":[{"name":"m","type":"string","internalType":"string"},{"name":"r","type":"uint256","internalType":"uint256"}]}],"stateMutability":"view"},{"type":"function","name":"verify","inputs":[{"name":"values","type":"uint256[]","internalType":"uint256[]"},{"name":"commitments","type":"tuple[]","internalType":"struct PedersenCommitment.Commitment[]","components":[{"name":"m","type":"string","internalType":"string"},{"name":"r","type":"uint256","internalType":"uint256"}]}],"outputs":[{"name":"","type":"bool","internalType":"bool"}],"stateMutability":"pure"}],"bytecode":{"object":"0x6080604052348015600f57600080fd5b50610a4a8061001f6000396000f3fe608060405234801561001057600080fd5b50600436106100365760003560e01c806370fc2a781461003b5780638cf7bba114610064575b600080fd5b61004e610049366004610607565b610087565b60405161005b919061063c565b60405180910390f35b6100776100723660046106e3565b61022c565b604051901515815260200161005b565b805160609060008167ffffffffffffffff8111156100a7576100a7610504565b6040519080825280602002602001820160405280156100ed57816020015b6040805180820190915260608152600060208201528152602001906001900390816100c55790505b50905060005b8281101561022457604080514260208201526bffffffffffffffffffffffff193360601b1691810191909152605481018290526000906001600160401b01600160c01b03906074016040516020818303038152906040528051906020012060001c61015e919061085a565b9050600061019460028885815181106101795761017961086e565b60200260200101516001600160401b01600160c01b03610368565b905060006101b16003846001600160401b01600160c01b03610368565b905060006001600160401b01600160c01b036101cd838561089a565b6101d7919061085a565b905060405180604001604052806101ed83610387565b8152602001858152508686815181106102085761020861086e565b60200260200101819052505050505080806001019150506100f3565b509392505050565b60008060005b845181101561026a5784818151811061024d5761024d61086e565b60200260200101518261026091906108b1565b9150600101610232565b5060006102866002836001600160401b01600160c01b03610368565b905060016000805b8651811015610319578681815181106102a9576102a961086e565b602002602001015160200151826102c091906108b1565b915060006102ea8883815181106102d9576102d961086e565b602002602001015160000151610488565b90506001600160401b01600160c01b03610304828661089a565b61030e919061085a565b93505060010161028e565b5060006001600160401b01600160c01b036103436003846001600160401b01600160c01b03610368565b61034d908661089a565b610357919061085a565b929092149450505050505b92915050565b60008161037584866109a8565b61037f919061085a565b949350505050565b6060816000036103ae5750506040805180820190915260018152600360fc1b602082015290565b8160005b81156103d857806103c2816109bb565b91506103d19050600a836109d4565b91506103b2565b60008167ffffffffffffffff8111156103f3576103f3610504565b6040519080825280601f01601f19166020018201604052801561041d576020820181803683370190505b5090505b841561037f576104326001836109e8565b915061043f600a8661085a565b61044a9060306108b1565b60f81b81838151811061045f5761045f61086e565b60200101906001600160f81b031916908160001a905350610481600a866109d4565b9450610421565b600081815b81518110156104fd5760008282815181106104aa576104aa61086e565b016020015160f81c9050603081108015906104c9575060398160ff1611155b156104f4576104d96030826109fb565b60ff166104e785600a61089a565b6104f191906108b1565b93505b5060010161048d565b5050919050565b634e487b7160e01b600052604160045260246000fd5b6040805190810167ffffffffffffffff8111828210171561053d5761053d610504565b60405290565b604051601f8201601f1916810167ffffffffffffffff8111828210171561056c5761056c610504565b604052919050565b600067ffffffffffffffff82111561058e5761058e610504565b5060051b60200190565b600082601f8301126105a957600080fd5b813560206105be6105b983610574565b610543565b8083825260208201915060208460051b8701019350868411156105e057600080fd5b602086015b848110156105fc57803583529183019183016105e5565b509695505050505050565b60006020828403121561061957600080fd5b813567ffffffffffffffff81111561063057600080fd5b61037f84828501610598565b600060208083018184528085518083526040925060408601915060408160051b8701018488016000805b848110156106d457603f198a8503018652825180518886528051808a880152845b818110156106a3578281018c0151888201606001528b01610687565b508681016060908101869052928b01518b880152978a0197601f01601f191690950101935091870191600101610666565b50919998505050505050505050565b600080604083850312156106f657600080fd5b823567ffffffffffffffff8082111561070e57600080fd5b61071a86838701610598565b935060209150818501358181111561073157600080fd5b8501601f8101871361074257600080fd5b80356107506105b982610574565b81815260059190911b8201840190848101908983111561076f57600080fd5b8584015b838110156108335780358681111561078a57600080fd5b8501601f196040828e03820112156107a157600080fd5b6107a961051a565b89830135898111156107ba57600080fd5b8301603f81018f136107cb57600080fd5b8a8101358a8111156107df576107df610504565b6107ef8c85601f84011601610543565b93508084528f604082840101111561080657600080fd5b80604083018d86013760009084018c01525090815260409190910135818901528352918601918601610773565b508096505050505050509250929050565b634e487b7160e01b600052601260045260246000fd5b60008261086957610869610844565b500690565b634e487b7160e01b600052603260045260246000fd5b634e487b7160e01b600052601160045260246000fd5b808202811582820484141761036257610362610884565b8082018082111561036257610362610884565b600181815b808511156108ff5781600019048211156108e5576108e5610884565b808516156108f257918102915b93841c93908002906108c9565b509250929050565b60008261091657506001610362565b8161092357506000610362565b816001811461093957600281146109435761095f565b6001915050610362565b60ff84111561095457610954610884565b50506001821b610362565b5060208310610133831016604e8410600b8410161715610982575081810a610362565b61098c83836108c4565b80600019048211156109a0576109a0610884565b029392505050565b60006109b48383610907565b9392505050565b6000600182016109cd576109cd610884565b5060010190565b6000826109e3576109e3610844565b500490565b8181038181111561036257610362610884565b60ff82811682821603908111156103625761036261088456fea264697066735822122041d0cd1476c7bd126c8b62a7ff2270ea50fb533d3d21bdc09f93733d56a02ee264736f6c63430008190033","linkReferences":{}},"methodIdentifiers":{"generateCommitments(uint256[])":"70fc2a78","verify(uint256[],(string,uint256)[])":"8cf7bba1"},"id":84}