{"abi":[{"type":"function","name":"PAYMASTER_DATA_OFFSET","inputs":[],"outputs":[{"name":"","type":"uint256","internalType":"uint256"}],"stateMutability":"view"},{"type":"function","name":"PAYMASTER_POSTOP_GAS_OFFSET","inputs":[],"outputs":[{"name":"","type":"uint256","internalType":"uint256"}],"stateMutability":"view"},{"type":"function","name":"PAYMASTER_VALIDATION_GAS_OFFSET","inputs":[],"outputs":[{"name":"","type":"uint256","internalType":"uint256"}],"stateMutability":"view"}],"bytecode":{"object":"0x60a96037600b82828239805160001a607314602a57634e487b7160e01b600052600060045260246000fd5b30600052607381538281f3fe730000000000000000000000000000000000000000301460806040526004361060475760003560e01c806325093e1b14604c578063b29a8ff4146065578063ede3150214606c575b600080fd5b6053602481565b60405190815260200160405180910390f35b6053601481565b605360348156fea26469706673582212209f0c034a63b2a84570ef6c38097edd18c7997605d07d05c5f371c8502771ce1564736f6c63430008190033","linkReferences":{}},"methodIdentifiers":{"PAYMASTER_DATA_OFFSET()":"ede31502","PAYMASTER_POSTOP_GAS_OFFSET()":"25093e1b","PAYMASTER_VALIDATION_GAS_OFFSET()":"b29a8ff4"},"id":6}