{"abi":[{"type":"constructor","inputs":[{"name":"entryPoint","type":"address","internalType":"contract IEntryPoint"},{"name":"_dkim","type":"address","internalType":"address"}],"stateMutability":"nonpayable"},{"type":"function","name":"createAccount","inputs":[{"name":"owner","type":"address","internalType":"address"},{"name":"salt","type":"uint256","internalType":"uint256"},{"name":"commitment","type":"bytes","internalType":"bytes"}],"outputs":[{"name":"","type":"address","internalType":"contract Wallet"}],"stateMutability":"nonpayable"},{"type":"function","name":"dkim","inputs":[],"outputs":[{"name":"","type":"address","internalType":"address"}],"stateMutability":"view"},{"type":"function","name":"getAddress","inputs":[{"name":"owner","type":"address","internalType":"address"},{"name":"salt","type":"uint256","internalType":"uint256"},{"name":"commitment","type":"bytes","internalType":"bytes"}],"outputs":[{"name":"","type":"address","internalType":"address"}],"stateMutability":"view"},{"type":"function","name":"walletImplementation","inputs":[],"outputs":[{"name":"","type":"address","internalType":"contract Wallet"}],"stateMutability":"view"}],"bytecode":{"object":"0x60a0346100ee576001600160401b03601f6135ab38819003918201601f1916840191838311858410176100d85780859260409485528339810103126100ee5781516001600160a01b0392838216918290036100ee57602001519283168093036100ee5760405191612c2f90818401908111848210176100d857602092849261097c843981520301906000f080156100cc57608052600080546001600160a01b03191691909117905560405161088890816100f4823960805181818160910152818161030001526104770152f35b6040513d6000823e3d90fd5b634e487b7160e01b600052604160045260246000fd5b600080fdfe608080604052600436101561001357600080fd5b600090813560e01c908163400ad5ce146100da575080635abb2d5b146100c05780638117abc11461007b5763ef67dc691461004d57600080fd5b3461007857602061006661006036610156565b9161039c565b6040516001600160a01b039091168152f35b80fd5b50346100785780600319360112610078576040517f00000000000000000000000000000000000000000000000000000000000000006001600160a01b03168152602090f35b50346100785760206100666100d436610156565b9161027a565b9050346100fe57816003193601126100fe5790546001600160a01b03168152602090f35b5080fd5b6040810190811067ffffffffffffffff82111761011e57604052565b634e487b7160e01b600052604160045260246000fd5b90601f8019910116810190811067ffffffffffffffff82111761011e57604052565b60606003198201126101df576004356001600160a01b03811681036101df57916024359167ffffffffffffffff6044358181116101df57826023820112156101df57806004013591821161011e57604051926101bc601f8401601f191660200185610134565b828452602483830101116101df5781600092602460209301838601378301015290565b600080fd5b60005b8381106101f75750506000910152565b81810151838201526020016101e7565b90602091610220815180928185528580860191016101e4565b601f01601f1916010190565b6001600160a01b0391821681529116602082015260606040820181905261025592910190610207565b90565b6001600160a01b03909116815260406020820181905261025592910190610207565b91600b916055936102d3610358610364602080946040976103266103328a51936102a6868a0186610134565b888552858501986105808a396000548c5163cf7a1d7760e01b888201526001600160a01b0395909283926102e192919088166024850161022c565b03906102f5601f1992838101835282610134565b8c51938491888301967f00000000000000000000000000000000000000000000000000000000000000001687610258565b03908101835282610134565b8951958693610349868601998a92519283916101e4565b840191518093868401906101e4565b01038084520182610134565b5190208351938401528201523081520160ff81532090565b6040519061038982610102565b60048252637171717160e01b6020830152565b6103a783838361027a565b6103e6816040516103b781610102565b601c81527f4372656174696e67206163636f756e7420617420616464726573733a0000000060208201526104ee565b803b6104de57506103fd6103f861037c565b610551565b60005460405163cf7a1d7760e01b60208201526001600160a01b0394909261044092849261043292909188166024850161022c565b03601f198101835282610134565b61044b6103f861037c565b604051906102d38083019183831067ffffffffffffffff84111761011e57839261049d926105808539867f00000000000000000000000000000000000000000000000000000000000000001690610258565b03906000f580156104d25716610255816040516104b981610102565b60078152663bb0b63632ba1d60c91b60208201526104ee565b6040513d6000823e3d90fd5b6001600160a01b03169392505050565b60009190829161053e604051809261051f602083019563319af33360e01b8752604060248501526064840190610207565b6001600160a01b0391909116604483015203601f198101835282610134565b51906a636f6e736f6c652e6c6f675afa50565b6000809160405161053e81610432602082019463104c13eb60e21b865260206024840152604483019061020756fe60806040526102d38038038061001481610194565b92833981019060408183031261018f5780516001600160a01b03811680820361018f5760208381015190936001600160401b03821161018f570184601f8201121561018f5780519061006d610068836101cf565b610194565b9582875285838301011161018f57849060005b83811061017b57505060009186010152813b15610163577f360894a13ba1a3210667c828492db98dca3e2076cc3735a920a3ca505d382bbc80546001600160a01b03191682179055604051907fbc7cd75a20ee27fd9adebab32041f755214dbc6bffa90cc0225b39da2e5c2d3b600080a28351156101455750600080848461012c96519101845af4903d1561013c573d61011c610068826101cf565b908152600081943d92013e6101ea565b505b6040516085908161024e8239f35b606092506101ea565b9250505034610154575061012e565b63b398979f60e01b8152600490fd5b60249060405190634c9c8ce360e01b82526004820152fd5b818101830151888201840152869201610080565b600080fd5b6040519190601f01601f191682016001600160401b038111838210176101b957604052565b634e487b7160e01b600052604160045260246000fd5b6001600160401b0381116101b957601f01601f191660200190565b9061021157508051156101ff57805190602001fd5b604051630a12f52160e11b8152600490fd5b81511580610244575b610222575090565b604051639996b31560e01b81526001600160a01b039091166004820152602490fd5b50803b1561021a56fe60806040527f360894a13ba1a3210667c828492db98dca3e2076cc3735a920a3ca505d382bbc54600090819081906001600160a01b0316368280378136915af43d82803e15604b573d90f35b3d90fdfea2646970667358221220e65ca5edb2fe40c1266525822ae5d371d0cdfdbcb1b9465a197c53848f4631e864736f6c63430008190033a2646970667358221220c4d4a93a3d4fbf8ac62eda611977155f03c85a29b33321967c6cc5e8c0efa08564736f6c6343000819003360c03461011457601f612c2f38819003918201601f19168301916001600160401b038311848410176101195780849260209460405283398101031261011457516001600160a01b039081811690819003610114573060805233156100fb576000543360018060a01b0319821617600055604051923391167f8be0079c531659141344cd1fd0a4f28419497f9722a3daafe3b4186f6b6457e0600080a360a052612aff90816101308239608051818181610e0b0152610f81015260a0518181816106c001528181610b1001528181610c2d01528181611379015281816113f801528181611529015281816117190152818161189101526127090152f35b604051631e4fbdf760e01b815260006004820152602490fd5b600080fd5b634e487b7160e01b600052604160045260246000fdfe6080604052600436101561001b575b361561001957600080fd5b005b60003560e01c806301ffc9a71461028657806306661abd146102135780630a6374fe1461028157806312065fe01461027c5780631303a4841461027757806313122cc214610272578063150b7a021461026d57806319822f7c146102685780631d06d40d146102635780632921ca691461025e57806329d3d1b2146102595780633bd5b8d51461025457806347e1da2a1461024f5780634a58db191461024a5780634afa99fd146102455780634f1ef2861461024057806352d1902d1461023b578063589bc4a214610236578063715018a614610231578063734cd1e21461022c57806377d32e941461022757806387ca8f3b146102225780638da5cb5b1461021d5780639c00427014610218578063a87d942c14610213578063ad3cb1cc1461020e578063affed0e014610209578063b0d691fe14610204578063b61d27f6146101ff578063bc197c81146101fa578063bf4f839e146101f5578063c399ec88146101f0578063cf7a1d77146101eb578063d087d288146101e6578063da67bcc4146101e1578063e9bb84c2146101dc578063ed894cd3146101d7578063f23a6e61146101d25763f2fde38b0361000e576119d2565b611978565b61195a565b611864565b61179e565b6116e6565b61158a565b6114fd565b6114e0565b611451565b6113a8565b611363565b611345565b6112ff565b61031b565b611237565b61120e565b61116d565b61111e565b6110d9565b61107e565b610fe3565b610f6e565b610dc8565b610cd7565b610bed565b610a9f565b610a29565b6108cc565b6108a3565b6107f2565b610665565b61060b565b610577565b610532565b610362565b610339565b6102a2565b6001600160e01b031981160361029d57565b600080fd5b3461029d57602036600319011261029d5760206004356102c18161028b565b63ffffffff60e01b16630a85bd0160e11b81149081156102ff575b81156102ee575b506040519015158152f35b6301ffc9a760e01b149050386102e3565b630271189760e51b811491506102dc565b600091031261029d57565b3461029d57600036600319011261029d576020600354604051908152f35b3461029d57600036600319011261029d576002546040516001600160a01b039091168152602090f35b3461029d57600036600319011261029d57602047604051908152f35b90600182811c921680156103ae575b602083101461039857565b634e487b7160e01b600052602260045260246000fd5b91607f169161038d565b634e487b7160e01b600052604160045260246000fd5b6001600160401b0381116103e157604052565b6103b8565b604081019081106001600160401b038211176103e157604052565b90601f801991011681019081106001600160401b038211176103e157604052565b60405190600082600654916104368361037e565b808352926020906001908181169081156104b25750600114610463575b505061046192500383610401565b565b9150926006600052600080516020612a8a833981519152936000925b82841061049a57506104619450505081016020013880610453565b8554888501830152948501948794509281019261047f565b9150506020925061046194915060ff191682840152151560051b8201013880610453565b60005b8381106104e95750506000910152565b81810151838201526020016104d9565b90602091610512815180928185528580860191016104d6565b601f01601f1916010190565b90602061052f9281815201906104f9565b90565b3461029d57600036600319011261029d5761056261054e610422565b6040519182916020835260208301906104f9565b0390f35b6001600160a01b0381160361029d57565b3461029d57602036600319011261029d5760043561059481610566565b60055490600182018092116105d9576040805160208101939093526001600160a01b03909116908201526105629061054e81606081015b03601f198101835282610401565b611a28565b9181601f8401121561029d578235916001600160401b03831161029d576020838186019501011161029d57565b3461029d57608036600319011261029d57610627600435610566565b610632602435610566565b6064356001600160401b03811161029d576106519036906004016105de565b5050604051630a85bd0160e11b8152602090f35b3461029d5760031960603682011261029d57600435906001600160401b03821161029d5761012090823603011261029d576106be6040516106a5816103e6565b60078152661919191919191960c91b6020820152612455565b7f00000000000000000000000000000000000000000000000000000000000000006001600160a01b0316330361071c576107016105629160243590600401612483565b61070c604435612554565b6040519081529081906020820190565b60405162461bcd60e51b815260206004820152601c60248201527f6163636f756e743a206e6f742066726f6d20456e747279506f696e74000000006044820152606490fd5b60405190610461826103e6565b6001600160401b0381116103e15760051b60200190565b6001600160401b0381116103e157601f01601f191660200190565b9291926107ac82610785565b916107ba6040519384610401565b82948184528183011161029d578281602093846000960137010152565b9080601f8301121561029d5781602061052f933591016107a0565b3461029d5760208060031936011261029d576001600160401b039060043582811161029d573660238201121561029d57602460048201356108328161076e565b946108406040519687610401565b8186526024602087019260051b8501019336851161029d5760248101925b85841061087d5761056261087189611a3e565b6040519182918261051e565b833583811161029d57879161089883928836918701016107d7565b81520193019261085e565b3461029d57600036600319011261029d576007546040516001600160a01b039091168152602090f35b606036600319011261029d57600460243581356108e882610566565b6044356001600160401b03811161029d5761090690369085016105de565b918454600181018091116105d95781036109f55760408051602081019283526001600160a01b0386169181019190915261095f939261095992909161094e81606081016105cb565b5190209236916107a0565b906121b5565b6000546001600160a01b039291908316908316036109b157916109a66109ac92610019941660018060a01b03166bffffffffffffffffffffffff60a01b6002541617600255565b54611ab9565b600455565b60405162461bcd60e51b8152602081850152601860248201527f41757468206661696c65643a204f6e6c79206f776e65722100000000000000006044820152606490fd5b60405162461bcd60e51b8152602081870152600d60248201526c496e76616c6964206e6f6e636560981b6044820152606490fd5b3461029d57602036600319011261029d57600435610a468161028b565b63ffffffff60e01b166000526001602052602060018060a01b0360406000205416604051908152f35b9181601f8401121561029d578235916001600160401b03831161029d576020808501948460051b01011161029d57565b3461029d57606036600319011261029d576001600160401b0360043581811161029d57610ad0903690600401610a6f565b9060243583811161029d57610ae9903690600401610a6f565b9360443590811161029d57610b02903690600401610a6f565b92610b4060018060a01b03807f0000000000000000000000000000000000000000000000000000000000000000163314908115610bdf575b50611ac8565b838503610ba457610b52848714611b28565b60005b858110610b5e57005b80610b9e610b77610b726001948a87611b81565b611b96565b610b82838b89611b81565b35610b98610b91858b8a611bd2565b36916107a0565b916120fe565b01610b55565b60405162461bcd60e51b815260206004820152601360248201527277726f6e67206465737473206c656e6774687360681b6044820152606490fd5b905060005416331438610b3a565b600080600319360112610caa57610c2b604051610c09816103e6565b600e81526d6164644465706f7369743a20257360901b60208201523490612572565b7f00000000000000000000000000000000000000000000000000000000000000006001600160a01b0316803b15610ca65760405163b760faf960e01b81523060048201529082908290602490829034905af18015610ca157610c8b575080f35b80610c98610c9e926103ce565b80610310565b80f35b611bed565b5080fd5b80fd5b602060031982011261029d57600435906001600160401b03821161029d5761052f916004016107d7565b3461029d57610ce536610cad565b610ced6125b5565b80516001600160401b0381116103e157610d1181610d0c60065461037e565b611bf9565b602080601f8311600114610d5357508190610d4393600092610d48575b50508160011b916000199060031b1c19161790565b600655005b015190503880610d2e565b90601f19831693610d746006600052600080516020612a8a83398151915290565b926000905b868210610db05750508360019510610d97575b505050811b01600655005b015160001960f88460031b161c19169055388080610d8c565b80600185968294968601518155019501930190610d79565b60408060031936011261029d576004803591610de383610566565b6024356001600160401b03811161029d57610e0190369084016107d7565b6001600160a01b037f00000000000000000000000000000000000000000000000000000000000000008116308114908115610f52575b50610f4357806000541633148015610f3a575b15610f0a5790602084928451938480926352d1902d60e01b825289165afa60009281610ed9575b50610e9d57505051634c9c8ce360e01b81526001600160a01b0390921690820190815281906020010390fd5b848484600080516020612a6a8339815191528503610ebf5761001984846127c6565b51632a87526960e21b815290810184815281906020010390fd5b610efc91935060203d602011610f03575b610ef48183610401565b810190612290565b9138610e71565b503d610eea565b825162461bcd60e51b8152602081860152600a60248201526937b7363c9037bbb732b960b11b6044820152606490fd5b50303314610e4a565b50505163703e46dd60e11b8152fd5b905081600080516020612a6a8339815191525416141538610e37565b3461029d57600036600319011261029d577f00000000000000000000000000000000000000000000000000000000000000006001600160a01b03163003610fc7576020604051600080516020612a6a8339815191528152f35b60405163703e46dd60e11b8152600490fd5b8015150361029d57565b3461029d5760a036600319011261029d576001600160401b0360043581811161029d576110149036906004016107d7565b9060243581811161029d5761102d9036906004016107d7565b9160443591821161029d576105629261104d61106c9336906004016107d7565b6064359161105a83610566565b6084359361106785610fd9565b611f22565b60405190151581529081906020820190565b3461029d57600080600319360112610caa576110986125b5565b80546001600160a01b03198116825581906001600160a01b03167f8be0079c531659141344cd1fd0a4f28419497f9722a3daafe3b4186f6b6457e08280a380f35b606036600319011261029d576004356110f181610566565b604435906001600160401b03821161029d576111146100199236906004016107d7565b90602435906120fe565b3461029d57604036600319011261029d576024356001600160401b03811161029d5761115b61115360209236906004016107d7565b6004356121b5565b6040516001600160a01b039091168152f35b3461029d5760408060031936011261029d576004359061118c82610566565b6024356001600160401b03811161029d576111ab903690600401610a6f565b926111b46125b5565b60005b8481106111c057005b806111ce6001928786611b81565b356111d88161028b565b6001600160e01b0319166000908152602083905285902080546001600160a01b0319166001600160a01b038516179055016111b7565b3461029d57600036600319011261029d576000546040516001600160a01b039091168152602090f35b3461029d57602036600319011261029d576004356112548161028b565b61125c6125b5565b6001600160e01b031981166000908152600160205260409020546001600160a01b0316156112ac576001600160e01b031916600090815260016020526040902080546001600160a01b0319169055005b60405162461bcd60e51b815260206004820152602560248201527f506c7567696e52656769737472793a206d6574686f64206e6f742072656769736044820152641d195c995960da1b6064820152608490fd5b3461029d57600036600319011261029d5761056260405161131f816103e6565b60058152640352e302e360dc1b60208201526040519182916020835260208301906104f9565b3461029d57600036600319011261029d576020600454604051908152f35b3461029d57600036600319011261029d576040517f00000000000000000000000000000000000000000000000000000000000000006001600160a01b03168152602090f35b3461029d57606036600319011261029d576004356113c581610566565b604435906001600160401b03821161029d576111146113eb6100199336906004016105de565b61142760018060a01b03807f0000000000000000000000000000000000000000000000000000000000000000163314908115610bdf5750611ac8565b610b91604051611436816103e6565b6009815268457865637574696e6760b81b6020820152612455565b3461029d5760a036600319011261029d5761146d600435610566565b611478602435610566565b6001600160401b0360443581811161029d57611498903690600401610a6f565b505060643581811161029d576114b2903690600401610a6f565b505060843590811161029d576114cc9036906004016105de565b505060405163bc197c8160e01b8152602090f35b3461029d57602036600319011261029d5760206040516004358152f35b3461029d57600036600319011261029d576040516370a0823160e01b81523060048201526020816024817f00000000000000000000000000000000000000000000000000000000000000006001600160a01b03165afa8015610ca15760209160009161156d575b50604051908152f35b6115849150823d8411610f0357610ef48183610401565b38611564565b3461029d57606036600319011261029d576004356115a781610566565b602435906115b482610566565b6001600160401b039160443583811161029d576115d59036906004016107d7565b90600080516020612aaa833981519152549360ff8560401c16159416801590816116de575b60011490816116d4575b1590816116cb575b506116b957600080516020612aaa833981519152805467ffffffffffffffff19166001179055611640928461168f5761229f565b61164657005b600080516020612aaa833981519152805460ff60401b19169055604051600181527fc7f505b2f371ae2175ee4913f4499e1f2633a7b5936321eed1cdaeb6115181d290602090a1005b600080516020612aaa833981519152805460ff60401b19166801000000000000000017905561229f565b60405163f92ee8a960e01b8152600490fd5b9050153861160c565b303b159150611604565b8591506115fa565b3461029d57600036600319011261029d57604051631aab3f0d60e11b8152306004820152600060248201526020816044817f00000000000000000000000000000000000000000000000000000000000000006001600160a01b03165afa8015610ca15761056291600091611766575b506040519081529081906020820190565b61177f915060203d602011610f0357610ef48183610401565b38611755565b60409061052f93921515815281602082015201906104f9565b3461029d576117ac36610cad565b600481511061181f5760008160208293016117ee6117e1825160e01c63ffffffff60e01b166000526001602052604060002090565b546001600160a01b031690565b916118036001600160a01b0384161515612398565b51915af461180f6120aa565b9061056260405192839283611785565b60405162461bcd60e51b815260206004820152601e60248201527f506c7567696e52656769737472793a204461746120746f6f2073686f727400006044820152606490fd5b3461029d57604036600319011261029d5760043561188181610566565b602435906001600160a01b0390337f0000000000000000000000000000000000000000000000000000000000000000831614801561194d575b6118c390611ac8565b47831161191157167fcec1f18c3ab8ddaaa107a1591e3c369667eec613626611a8deaedef43069fcdd61190b60009361070c8580808085895af16119056120aa565b506123f3565b0390a280f35b60405162461bcd60e51b8152602060048201526014602482015273496e73756666696369656e742062616c616e636560601b6044820152606490fd5b50600054821633146118ba565b3461029d57600036600319011261029d576020600554604051908152f35b3461029d5760a036600319011261029d57611994600435610566565b61199f602435610566565b6084356001600160401b03811161029d576119be9036906004016105de565b505060405163f23a6e6160e01b8152602090f35b3461029d57602036600319011261029d576004356119ef81610566565b6119f76125b5565b6001600160a01b03811615611a0f57610019906125e1565b604051631e4fbdf760e01b815260006004820152602490fd5b634e487b7160e01b600052601160045260246000fd5b60405190816020916040820160208084015281518091526060830193602060608360051b8601019301946000905b838210611a8a575050505061052f925003601f198101835282610401565b9160019193955080611aa78196605f198b820301865289516104f9565b97019201920186949295939195611a6c565b60001981146105d95760010190565b15611acf57565b60405162461bcd60e51b815260206004820152602b60248201527f6f6e6c7920656e74727920706f696e74206f722077616c6c657420666163746f60448201526a1c9e4818d85b8818d85b1b60aa1b6064820152608490fd5b15611b2f57565b60405162461bcd60e51b815260206004820152601460248201527377726f6e672076616c756573206c656e6774687360601b6044820152606490fd5b634e487b7160e01b600052603260045260246000fd5b9190811015611b915760051b0190565b611b6b565b3561052f81610566565b903590601e198136030182121561029d57018035906001600160401b03821161029d5760200191813603831361029d57565b90821015611b9157611be99160051b810190611ba0565b9091565b6040513d6000823e3d90fd5b601f8111611c05575050565b6000906006600052600080516020612a8a833981519152906020601f850160051c83019410611c4f575b601f0160051c01915b828110611c4457505050565b818155600101611c38565b9092508290611c2f565b919082604091031261029d5760208251611c7281610fd9565b92015190565b949192611ca760a095989794611c99611cb59460c08a5260c08a01906104f9565b9088820360208a01526104f9565b9086820360408801526104f9565b956060850152600180841b031660808401521515910152565b60405190611cdb826103e6565b6001825260203681840137565b919060408382031261029d5782516001600160401b03811161029d5783019080601f8301121561029d57815191611d1e83610785565b91611d2c6040519384610401565b8383526020848301011161029d57602092611c72918480850191016104d6565b60409060405191611d5c836103e6565b60018352829160009160005b602080821015611d9557825160209291611d81826103e6565b606082528681830152828901015201611d68565b50505091925050565b805115611b915760200190565b9081602091031261029d575161052f81610fd9565b6040916040820191604081528151809352606081019260208093019060005b818110611e5c575050508181840391015283519182815281810182808560051b8401019601946000925b858410611e1a575050505050505090565b909192939495968580600192601f198582030187528a51908280611e4584518a85528a8501906104f9565b930151910152990194019401929594939190611e09565b825186529484019491840191600101611ddf565b15611e7757565b60405162461bcd60e51b815260206004820152602560248201527f57616c6c6574205265636f766572793a2077726f6e6720656d61696c20616464604482015264726573732160d81b6064820152608490fd5b15611ed157565b60405162461bcd60e51b8152602060048201526024808201527f57616c6c6574205265636f766572793a20444b494d20766572696679206661696044820152633632b21760e11b6064820152608490fd5b6002546040939290611f44906001600160a01b03165b6001600160a01b031690565b91611f6960055497878751998a97889687966314bf2aab60e21b885260048801611c78565b03915afa918215610ca157600090600093612076575b5061201490611f8c611cce565b611f94610422565b94855191611fac602097888080968301019101611ce8565b611fb4611d4c565b93611fbe84611d9e565b52611fc7610761565b91825284820152611fd783611d9e565b52611fe182611d9e565b50600754611ff7906001600160a01b0316611f38565b90604051809681948293638cf7bba160e01b845260048401611dc0565b03915afa938415610ca1576120449461203f9361203a92600092612049575b5050611e70565b611eca565b612435565b600190565b6120689250803d1061206f575b6120608183610401565b810190611dab565b3880612033565b503d612056565b612014935061209d915060403d6040116120a3575b6120958183610401565b810190611c59565b92611f7f565b503d61208b565b3d156120d5573d906120bb82610785565b916120c96040519384610401565b82523d6000602084013e565b606090565b604051906120e7826103e6565b600882526739bab1b1b2b9b99d60c11b6020830152565b60009192829160405194612111866103e6565b6006865261212f82602097651d185c99d95d60d21b89820152612628565b6121558160405161213f816103e6565b600581526476616c756560d81b89820152612572565b6121836040516305f3bfab60e11b8882015287602482015261217e816105cb60448201886104f9565b6127ab565b8583519301915af1906121946120aa565b916121a6816121a16120da565b612676565b156121af575050565b81519101fd5b9060009160208201519260606040840151930151901a90601b821061227e575b60ff8216601b8114908115612273575b501561222e5761221a600093602095604051948594859094939260ff6060936080840197845216602083015260408201520152565b838052039060015afa15610ca15760005190565b60405162461bcd60e51b815260206004820152601960248201527f4543445341207369676e617475726520696e636f7272656374000000000000006044820152606490fd5b601c915014386121e5565b90601b0160ff81116105d957906121d5565b9081602091031261029d575190565b600280546001600160a01b0319166001600160a01b03909216919091179055815190916001600160401b0382116103e1576122df82610d0c60065461037e565b602090816001601f85111461231e57509180612316926104619594600092610d485750508160011b916000199060031b1c19161790565b6006556126bb565b60066000529190601f198416600080516020612a8a833981519152936000905b82821061238057505091600193918561046197969410612367575b505050811b016006556126bb565b015160001960f88460031b161c19169055388080612359565b8060018697829497870151815501960194019061233e565b1561239f57565b60405162461bcd60e51b815260206004820152602660248201527f506c7567696e52656769737472793a206d6574686f64206e6f7420696d706c656044820152651b595b9d195960d21b6064820152608490fd5b156123fa57565b60405162461bcd60e51b8152602060048201526013602482015272115512081d1c985b9cd9995c8819985a5b1959606a1b6044820152606490fd5b61243d6125b5565b6001600160a01b03811615611a0f57610461906125e1565b6105cb61217e6104619260405192839163104c13eb60e21b60208401526020602484015260448301906104f9565b6124cf906124d8927f19457468657265756d205369676e6564204d6573736167653a0a333200000000600052601c526124c9610b91603c60002092610100810190611ba0565b9061286a565b909291926128c6565b61250c816040516124e8816103e6565b60128152712932b1b7bb32b932b21030b2323932b9b99d60711b6020820152612628565b60018060a01b0380600054169161254983604051612529816103e6565b600e81526d27bbb732b91030b2323932b9b99d60911b6020820152612628565b160361204457600090565b8061255c5750565b600080808093338219f15061256f6120aa565b50565b61217e6125a191610461936040519384926309710a9d60e41b60208501526040602485015260648401906104f9565b90604483015203601f198101835282610401565b6000546001600160a01b031633036125c957565b60405163118cdaa760e01b8152336004820152602490fd5b600080546001600160a01b039283166001600160a01b03198216811783559216907f8be0079c531659141344cd1fd0a4f28419497f9722a3daafe3b4186f6b6457e09080a3565b61217e612657916104619360405193849263319af33360e01b60208501526040602485015260648401906104f9565b6001600160a01b0391909116604483015203601f198101835282610401565b61217e6126a5916104619360405193849263c3b5563560e01b60208501526040602485015260648401906104f9565b901515604483015203601f198101835282610401565b6126c4816125e1565b6040516006546001600160a01b039182916000906126e18161037e565b9060019084600182169182600014612793575050600114612750575b505081900390209216907f0000000000000000000000000000000000000000000000000000000000000000167f273af67187f122540bf897f1876ec138768416665008a39efec4edda48659178600080a4565b60066000908152919250600080516020612a8a8339815191525b83831061277d57505050810181386126fd565b805485840152869550602090920191810161276a565b925093505060ff1916825280151502810190386126fd565b600080916020815191016a636f6e736f6c652e6c6f675afa50565b90813b1561284957600080516020612a6a83398151915280546001600160a01b0319166001600160a01b0384169081179091557fbc7cd75a20ee27fd9adebab32041f755214dbc6bffa90cc0225b39da2e5c2d3b600080a280511561282e5761256f91612953565b50503461283757565b60405163b398979f60e01b8152600490fd5b604051634c9c8ce360e01b81526001600160a01b0383166004820152602490fd5b815191906041830361289b5761289492506020820151906060604084015193015160001a90612971565b9192909190565b505060009160029190565b600411156128b057565b634e487b7160e01b600052602160045260246000fd5b6128cf816128a6565b806128d8575050565b6128e1816128a6565b600181036128fb5760405163f645eedf60e01b8152600490fd5b612904816128a6565b600281036129255760405163fce698f760e01b815260048101839052602490fd5b806129316003926128a6565b146129395750565b6040516335e2f38360e21b81526004810191909152602490fd5b60008061052f93602081519101845af461296b6120aa565b91612a06565b9291907f7fffffffffffffffffffffffffffffff5d576e7357a4501ddfe92f46681b20a083116129fa57916129c79160209360405195869094939260ff6060936080840197845216602083015260408201520152565b826000938492838052039060015afa15610ca15780516001600160a01b038116156129f157918190565b50809160019190565b50600093600393509050565b90612a2d5750805115612a1b57805190602001fd5b604051630a12f52160e11b8152600490fd5b81511580612a60575b612a3e575090565b604051639996b31560e01b81526001600160a01b039091166004820152602490fd5b50803b15612a3656fe360894a13ba1a3210667c828492db98dca3e2076cc3735a920a3ca505d382bbcf652222313e28459528d920b65115c16c04f3efc82aaedc97be59f3f377c0d3ff0c57e16840df040f15088dc2f81fe391c3923bec73e23a9662efc9c229c6a00a26469706673582212204e4a00a47b7f4ff032b6c7f828c87b67bc0afd4c28157e3711361f86d997ff5464736f6c63430008190033","linkReferences":{}},"methodIdentifiers":{"createAccount(address,uint256,bytes)":"ef67dc69","dkim()":"400ad5ce","getAddress(address,uint256,bytes)":"5abb2d5b","walletImplementation()":"8117abc1"},"id":105}