{"abi":[{"type":"constructor","inputs":[{"name":"entryPoint","type":"address","internalType":"contract IEntryPoint"},{"name":"_dkim","type":"address","internalType":"address"}],"stateMutability":"nonpayable"},{"type":"function","name":"createAccount","inputs":[{"name":"owner","type":"address","internalType":"address"},{"name":"salt","type":"uint256","internalType":"uint256"},{"name":"emailHash","type":"uint256","internalType":"uint256"}],"outputs":[{"name":"","type":"address","internalType":"contract Wallet"}],"stateMutability":"nonpayable"},{"type":"function","name":"dkim","inputs":[],"outputs":[{"name":"","type":"address","internalType":"address"}],"stateMutability":"view"},{"type":"function","name":"getAddress","inputs":[{"name":"owner","type":"address","internalType":"address"},{"name":"salt","type":"uint256","internalType":"uint256"},{"name":"emailHash","type":"uint256","internalType":"uint256"}],"outputs":[{"name":"","type":"address","internalType":"address"}],"stateMutability":"view"},{"type":"function","name":"walletImplementation","inputs":[],"outputs":[{"name":"","type":"address","internalType":"contract Wallet"}],"stateMutability":"view"}],"bytecode":{"object":"0x60a060405234801561001057600080fd5b506040516136a63803806136a683398101604081905261002f916100ba565b8160405161003c90610095565b6001600160a01b039091168152602001604051809103906000f080158015610068573d6000803e3d6000fd5b506001600160a01b03908116608052600080546001600160a01b03191692909116919091179055506100f4565b612cd8806109ce83390190565b6001600160a01b03811681146100b757600080fd5b50565b600080604083850312156100cd57600080fd5b82516100d8816100a2565b60208401519092506100e9816100a2565b809150509250929050565b6080516108b261011c60003960008181609801528181610154015261023301526108b26000f3fe608060405234801561001057600080fd5b506004361061004c5760003560e01c8063400ad5ce146100515780636f2e6431146100805780638117abc114610093578063faa7b729146100ba575b600080fd5b600054610064906001600160a01b031681565b6040516001600160a01b03909116815260200160405180910390f35b61006461008e36600461037b565b6100cd565b6100647f000000000000000000000000000000000000000000000000000000000000000081565b6100646100c836600461037b565b6101e2565b6000806100db8585856101e2565b90506001600160a01b0381163b80156100f6575090506101db565b600080546040516001600160a01b03918216602482015290881660448201526064810186905260840160408051601f198184030181529181526020820180516001600160e01b03166305e52ecf60e21b1790525190915060009087907f000000000000000000000000000000000000000000000000000000000000000090849061017f9061036e565b61018a92919061040c565b8190604051809103906000f59050801580156101aa573d6000803e3d6000fd5b5090506101d5604051806040016040528060078152602001663bb0b63632ba1d60c91b8152506102d0565b93505050505b9392505050565b60006102c88360001b604051806020016101fb9061036e565b601f1982820381018352601f9091011660408190526000546001600160a01b03908116602483015288166044820152606481018690527f00000000000000000000000000000000000000000000000000000000000000009060840160408051601f19818403018152918152602080830180516001600160e01b03166305e52ecf60e21b179052905161028f9392910161040c565b60408051601f19818403018152908290526102ad9291602001610430565b60405160208183030381529060405280519060200120610316565b949350505050565b610313816040516024016102e4919061045f565b60408051601f198184030181529190526020810180516001600160e01b031663104c13eb60e21b179052610323565b50565b60006101db838330610344565b80516a636f6e736f6c652e6c6f67602083016000808483855afa5050505050565b6000604051836040820152846020820152828152600b8101905060ff815360559020949350505050565b61040a8061047383390190565b60008060006060848603121561039057600080fd5b83356001600160a01b03811681146103a757600080fd5b95602085013595506040909401359392505050565b60005b838110156103d75781810151838201526020016103bf565b50506000910152565b600081518084526103f88160208601602086016103bc565b601f01601f19169290920160200192915050565b6001600160a01b03831681526040602082018190526000906102c8908301846103e0565b600083516104428184602088016103bc565b8351908301906104568183602088016103bc565b01949350505050565b6020815260006101db60208301846103e056fe608060405260405161040a38038061040a83398101604081905261002291610268565b61002c8282610033565b5050610352565b61003c82610092565b6040516001600160a01b038316907fbc7cd75a20ee27fd9adebab32041f755214dbc6bffa90cc0225b39da2e5c2d3b90600090a280511561008657610081828261010e565b505050565b61008e610185565b5050565b806001600160a01b03163b6000036100cd57604051634c9c8ce360e01b81526001600160a01b03821660048201526024015b60405180910390fd5b7f360894a13ba1a3210667c828492db98dca3e2076cc3735a920a3ca505d382bbc80546001600160a01b0319166001600160a01b0392909216919091179055565b6060600080846001600160a01b03168460405161012b9190610336565b600060405180830381855af49150503d8060008114610166576040519150601f19603f3d011682016040523d82523d6000602084013e61016b565b606091505b50909250905061017c8583836101a6565b95945050505050565b34156101a45760405163b398979f60e01b815260040160405180910390fd5b565b6060826101bb576101b682610205565b6101fe565b81511580156101d257506001600160a01b0384163b155b156101fb57604051639996b31560e01b81526001600160a01b03851660048201526024016100c4565b50805b9392505050565b8051156102155780518082602001fd5b604051630a12f52160e11b815260040160405180910390fd5b634e487b7160e01b600052604160045260246000fd5b60005b8381101561025f578181015183820152602001610247565b50506000910152565b6000806040838503121561027b57600080fd5b82516001600160a01b038116811461029257600080fd5b60208401519092506001600160401b03808211156102af57600080fd5b818501915085601f8301126102c357600080fd5b8151818111156102d5576102d561022e565b604051601f8201601f19908116603f011681019083821181831017156102fd576102fd61022e565b8160405282815288602084870101111561031657600080fd5b610327836020830160208801610244565b80955050505050509250929050565b60008251610348818460208701610244565b9190910192915050565b60aa806103606000396000f3fe6080604052600a600c565b005b60186014601a565b6051565b565b6000604c7f360894a13ba1a3210667c828492db98dca3e2076cc3735a920a3ca505d382bbc546001600160a01b031690565b905090565b3660008037600080366000845af43d6000803e808015606f573d6000f35b3d6000fdfea2646970667358221220b1b1a1f8690e3595b4a90592833edcd50c1216ddcf22395e67282724426a7fe264736f6c63430008190033a2646970667358221220b0fe2e6eb8a8a834305c7d816839ef0ce2f003ddb9dd1bce9a797749a2c8c4a364736f6c6343000819003360c06040523060805234801561001457600080fd5b50604051612cd8380380612cd8833981016040819052610033916100c4565b338061005957604051631e4fbdf760e01b81526000600482015260240160405180910390fd5b61006281610074565b506001600160a01b031660a0526100f4565b600080546001600160a01b038381166001600160a01b0319831681178455604051919092169283917f8be0079c531659141344cd1fd0a4f28419497f9722a3daafe3b4186f6b6457e09190a35050565b6000602082840312156100d657600080fd5b81516001600160a01b03811681146100ed57600080fd5b9392505050565b60805160a051612b806101586000396000818161058401528181610a9701528181610c6301528181611207015281816112e40152818161137c0152818161152901526115ce0152600081816118370152818161186001526119a60152612b806000f3fe6080604052600436106102135760003560e01c8063734cd1e211610118578063b61d27f6116100a0578063d087d2881161006f578063d087d2881461062a578063da67bcc41461063f578063ed894cd31461066d578063f23a6e6114610683578063f2fde38b146106b057600080fd5b8063b61d27f6146105a8578063bc197c81146105c8578063bf4f839e146105f7578063c399ec881461061557600080fd5b80639c004270116100e75780639c004270146104f9578063a87d942c14610519578063ad3cb1cc1461052e578063affed0e01461055f578063b0d691fe1461057557600080fd5b8063734cd1e21461048857806377d32e941461049b57806387ca8f3b146104bb5780638da5cb5b146104db57600080fd5b806329d3d1b21161019b5780634a58db191161016a5780634a58db19146104235780634f1ef2861461042b57806352d1902d1461043e578063589bc4a214610453578063715018a61461047357600080fd5b806329d3d1b2146103a457806336cb8477146103b75780633bd5b8d5146103cd57806347e1da2a1461040357600080fd5b806313122cc2116101e257806313122cc2146102d2578063150b7a02146102ff5780631794bb3c1461034457806319822f7c146103645780631d06d40d1461038457600080fd5b806301ffc9a71461021f57806306661abd146102545780630a6374fe146102785780630a773930146102b057600080fd5b3661021a57005b600080fd5b34801561022b57600080fd5b5061023f61023a366004611fa6565b6106d0565b60405190151581526020015b60405180910390f35b34801561026057600080fd5b5061026a60035481565b60405190815260200161024b565b34801561028457600080fd5b50600254610298906001600160a01b031681565b6040516001600160a01b03909116815260200161024b565b3480156102bc57600080fd5b506102d06102cb366004611fd0565b610722565b005b3480156102de57600080fd5b506102f26102ed366004612005565b61072f565b60405161024b9190612070565b34801561030b57600080fd5b5061032b61031a3660046120cb565b630a85bd0160e11b95945050505050565b6040516001600160e01b0319909116815260200161024b565b34801561035057600080fd5b506102d061035f366004612139565b610774565b34801561037057600080fd5b5061026a61037f366004612175565b6108a4565b34801561039057600080fd5b506102f261039f36600461228b565b6108f2565b6102d06103b236600461234d565b610905565b3480156103c357600080fd5b5061026a60065481565b3480156103d957600080fd5b506102986103e8366004611fa6565b6001602052600090815260409020546001600160a01b031681565b34801561040f57600080fd5b506102d061041e3660046123ea565b610a8c565b6102d0610c31565b6102d0610439366004612483565b610ce1565b34801561044a57600080fd5b5061026a610d00565b34801561045f57600080fd5b5061023f61046e3660046124de565b610d1d565b34801561047f57600080fd5b506102d0610ea7565b6102d061049636600461258b565b610ebb565b3480156104a757600080fd5b506102986104b63660046125e1565b610fd4565b3480156104c757600080fd5b506102d06104d6366004612611565b6110ca565b3480156104e757600080fd5b506000546001600160a01b0316610298565b34801561050557600080fd5b506102d0610514366004611fa6565b61114f565b34801561052557600080fd5b5060035461026a565b34801561053a57600080fd5b506102f2604051806040016040528060058152602001640352e302e360dc1b81525081565b34801561056b57600080fd5b5061026a60045481565b34801561058157600080fd5b507f0000000000000000000000000000000000000000000000000000000000000000610298565b3480156105b457600080fd5b506102d06105c3366004612663565b6111fc565b3480156105d457600080fd5b5061032b6105e33660046126a4565b63bc197c8160e01b98975050505050505050565b34801561060357600080fd5b5061026a610612366004611fd0565b90565b34801561062157600080fd5b5061026a6112c4565b34801561063657600080fd5b5061026a611355565b34801561064b57600080fd5b5061065f61065a36600461275e565b6113ab565b60405161024b92919061279a565b34801561067957600080fd5b5061026a60055481565b34801561068f57600080fd5b5061032b61069e3660046127b5565b63f23a6e6160e01b9695505050505050565b3480156106bc57600080fd5b506102d06106cb366004612005565b6114a6565b60006001600160e01b03198216630a85bd0160e11b148061070157506001600160e01b03198216630271189760e51b145b8061071c57506001600160e01b031982166301ffc9a760e01b145b92915050565b61072a6114e4565b600655565b606060055460016107409190612830565b6040805160208101929092526001600160a01b038416908201526060015b6040516020818303038152906040529050919050565b7ff0c57e16840df040f15088dc2f81fe391c3923bec73e23a9662efc9c229c6a008054600160401b810460ff1615906001600160401b03166000811580156107b95750825b90506000826001600160401b031660011480156107d55750303b155b9050811580156107e3575080155b156108015760405163f92ee8a960e01b815260040160405180910390fd5b845467ffffffffffffffff19166001178555831561082b57845460ff60401b1916600160401b1785555b600280546001600160a01b0319166001600160a01b038a16179055600686905561085487611511565b831561089a57845460ff60401b19168555604051600181527fc7f505b2f371ae2175ee4913f4499e1f2633a7b5936321eed1cdaeb6115181d29060200160405180910390a15b5050505050505050565b60006108ce604051806040016040528060078152602001661919191919191960c91b815250611580565b6108d66115c3565b6108e0848461163b565b90506108eb8261179a565b9392505050565b60608160405160200161075e9190612843565b838060045460016109169190612830565b146109585760405162461bcd60e51b815260206004820152600d60248201526c496e76616c6964206e6f6e636560981b60448201526064015b60405180910390fd5b6000858560405160200161097f9291909182526001600160a01b0316602082015260400190565b604051602081830303815290604052905060008180519060200120905060006109de8287878080601f016020809104026020016040519081016040528093929190818152602001838380828437600092019190915250610fd492505050565b90506109f26000546001600160a01b031690565b6001600160a01b0316816001600160a01b031614610a525760405162461bcd60e51b815260206004820152601860248201527f41757468206661696c65643a204f6e6c79206f776e6572210000000000000000604482015260640161094f565b5050600280546001600160a01b0319166001600160a01b0387161790555060048054906000610a80836128a7565b91905055505050505050565b336001600160a01b037f0000000000000000000000000000000000000000000000000000000000000000161480610acd57506000546001600160a01b031633145b610ae95760405162461bcd60e51b815260040161094f906128c0565b848114610b2e5760405162461bcd60e51b815260206004820152601360248201527277726f6e67206465737473206c656e6774687360681b604482015260640161094f565b828114610b745760405162461bcd60e51b815260206004820152601460248201527377726f6e672076616c756573206c656e6774687360601b604482015260640161094f565b60005b85811015610c2857610c20878783818110610b9457610b9461290b565b9050602002016020810190610ba99190612005565b868684818110610bbb57610bbb61290b565b90506020020135858585818110610bd457610bd461290b565b9050602002810190610be69190612921565b8080601f016020809104026020016040519081016040528093929190818152602001838380828437600092019190915250610ebb92505050565b600101610b77565b50505050505050565b610c616040518060400160405280600e81526020016d6164644465706f7369743a20257360901b815250346117e7565b7f000000000000000000000000000000000000000000000000000000000000000060405163b760faf960e01b81523060048201526001600160a01b03919091169063b760faf99034906024016000604051808303818588803b158015610cc657600080fd5b505af1158015610cda573d6000803e3d6000fd5b5050505050565b610ce961182c565b610cf2826118d1565b610cfc82826118d9565b5050565b6000610d0a61199b565b50600080516020612b2b83398151915290565b6002546005546040516314bf2aab60e21b8152600092839283926001600160a01b03909216916352fcaaac91610d60918c918c918c91908c908c90600401612967565b600060405180830381865afa158015610d7d573d6000803e3d6000fd5b505050506040513d6000823e601f3d908101601f19168201604052610da591908101906129ca565b91509150600081604051602001610dbc9190612070565b6040516020818303038152906040528051906020012090506006548160001c14610e365760405162461bcd60e51b815260206004820152602560248201527f57616c6c6574205265636f766572793a2077726f6e6720656d61696c20616464604482015264726573732160d81b606482015260840161094f565b82610e8f5760405162461bcd60e51b8152602060048201526024808201527f57616c6c6574205265636f766572793a20444b494d20766572696679206661696044820152633632b21760e11b606482015260840161094f565b610e98866114a6565b50600198975050505050505050565b610eaf6114e4565b610eb960006119e4565b565b610ee26040518060400160405280600681526020016507070707070760d31b815250611580565b610f0a604051806040016040528060068152602001651d185c99d95d60d21b81525084611a34565b610f316040518060400160405280600581526020016476616c756560d81b815250836117e7565b610f3a81611a79565b600080846001600160a01b03168484604051610f569190612a56565b60006040518083038185875af1925050503d8060008114610f93576040519150601f19603f3d011682016040523d82523d6000602084013e610f98565b606091505b5091509150610fc76040518060400160405280600881526020016739bab1b1b2b9b99d60c11b81525083611abc565b81610cda57805160208201fd5b6020810151604082015160608301516000929190831a601b81101561100157610ffe601b82612a72565b90505b8060ff16601b148061101657508060ff16601c145b6110625760405162461bcd60e51b815260206004820152601960248201527f4543445341207369676e617475726520696e636f727265637400000000000000604482015260640161094f565b60408051600081526020810180835288905260ff831691810191909152606081018490526080810183905260019060a0016020604051602081039080840390855afa1580156110b5573d6000803e3d6000fd5b5050604051601f190151979650505050505050565b6110d26114e4565b60005b818110156111495783600160008585858181106110f4576110f461290b565b90506020020160208101906111099190611fa6565b6001600160e01b0319168152602081019190915260400160002080546001600160a01b0319166001600160a01b03929092169190911790556001016110d5565b50505050565b6111576114e4565b6001600160e01b031981166000908152600160205260409020546001600160a01b03166111d45760405162461bcd60e51b815260206004820152602560248201527f506c7567696e52656769737472793a206d6574686f64206e6f742072656769736044820152641d195c995960da1b606482015260840161094f565b6001600160e01b031916600090815260016020526040902080546001600160a01b0319169055565b336001600160a01b037f000000000000000000000000000000000000000000000000000000000000000016148061123d57506000546001600160a01b031633145b6112595760405162461bcd60e51b815260040161094f906128c0565b61128360405180604001604052806009815260200168457865637574696e6760b81b815250611580565b611149848484848080601f016020809104026020016040519081016040528093929190818152602001838380828437600092019190915250610ebb92505050565b6040516370a0823160e01b81523060048201526000906001600160a01b037f000000000000000000000000000000000000000000000000000000000000000016906370a08231906024015b602060405180830381865afa15801561132c573d6000803e3d6000fd5b505050506040513d601f19601f820116820180604052508101906113509190612a8b565b905090565b604051631aab3f0d60e11b8152306004820152600060248201819052906001600160a01b037f000000000000000000000000000000000000000000000000000000000000000016906335567e1a9060440161130f565b6000606060006113ba84611b01565b6001600160e01b031981166000908152600160205260409020549091506001600160a01b03168061143c5760405162461bcd60e51b815260206004820152602660248201527f506c7567696e52656769737472793a206d6574686f64206e6f7420696d706c656044820152651b595b9d195960d21b606482015260840161094f565b600080826001600160a01b0316876040516114579190612a56565b600060405180830381855af49150503d8060008114611492576040519150601f19603f3d011682016040523d82523d6000602084013e611497565b606091505b50909890975095505050505050565b6114ae6114e4565b6001600160a01b0381166114d857604051631e4fbdf760e01b81526000600482015260240161094f565b6114e1816119e4565b50565b6000546001600160a01b03163314610eb95760405163118cdaa760e01b815233600482015260240161094f565b61151a816119e4565b600654816001600160a01b03167f00000000000000000000000000000000000000000000000000000000000000006001600160a01b03167f81a8e1c623bfa26f7ffcc4e323050539a777b6a7244c7da87a9b5fe19a0498c460405160405180910390a450565b6114e1816040516024016115949190612070565b60408051601f198184030181529190526020810180516001600160e01b031663104c13eb60e21b179052611b60565b336001600160a01b037f00000000000000000000000000000000000000000000000000000000000000001614610eb95760405162461bcd60e51b815260206004820152601c60248201527f6163636f756e743a206e6f742066726f6d20456e747279506f696e7400000000604482015260640161094f565b7f19457468657265756d205369676e6564204d6573736167653a0a3332000000006000908152601c829052603c812060408051808201909152600a8152690eae6cae49ee090c2e6d60b31b602082015261169590846117e7565b60006116e3826116a9610100880188612921565b8080601f016020809104026020016040519081016040528093929190818152602001838380828437600092019190915250611b8192505050565b9050611719604051806040016040528060128152602001712932b1b7bb32b932b21030b2323932b9b99d60711b81525082611a34565b61175a6040518060400160405280600e81526020016d27bbb732b91030b2323932b9b99d60911b8152506117556000546001600160a01b031690565b611a34565b806001600160a01b03166117766000546001600160a01b031690565b6001600160a01b03161461178f5760019250505061071c565b506000949350505050565b80156114e157604051600090339060001990849084818181858888f193505050503d8060008114610cda576040519150601f19603f3d011682016040523d82523d6000602084013e610cda565b610cfc82826040516024016117fd929190612aa4565b60408051601f198184030181529190526020810180516001600160e01b03166309710a9d60e41b179052611b60565b306001600160a01b037f00000000000000000000000000000000000000000000000000000000000000001614806118b357507f00000000000000000000000000000000000000000000000000000000000000006001600160a01b03166118a7600080516020612b2b833981519152546001600160a01b031690565b6001600160a01b031614155b15610eb95760405163703e46dd60e11b815260040160405180910390fd5b6114e1611bab565b816001600160a01b03166352d1902d6040518163ffffffff1660e01b8152600401602060405180830381865afa925050508015611933575060408051601f3d908101601f1916820190925261193091810190612a8b565b60015b61195b57604051634c9c8ce360e01b81526001600160a01b038316600482015260240161094f565b600080516020612b2b833981519152811461198c57604051632a87526960e21b81526004810182905260240161094f565b6119968383611bfc565b505050565b306001600160a01b037f00000000000000000000000000000000000000000000000000000000000000001614610eb95760405163703e46dd60e11b815260040160405180910390fd5b600080546001600160a01b038381166001600160a01b0319831681178455604051919092169283917f8be0079c531659141344cd1fd0a4f28419497f9722a3daafe3b4186f6b6457e09190a35050565b610cfc8282604051602401611a4a929190612ac6565b60408051601f198184030181529190526020810180516001600160e01b031663319af33360e01b179052611b60565b6114e181604051602401611a8d9190612070565b60408051601f198184030181529190526020810180516001600160e01b03166305f3bfab60e11b179052611b60565b610cfc8282604051602401611ad2929190612af0565b60408051601f198184030181529190526020810180516001600160e01b031663c3b5563560e01b179052611b60565b6000600482511015611b555760405162461bcd60e51b815260206004820152601e60248201527f506c7567696e52656769737472793a204461746120746f6f2073686f72740000604482015260640161094f565b506020015160e01c90565b80516a636f6e736f6c652e6c6f67602083016000808483855afa5050505050565b600080600080611b918686611c52565b925092509250611ba18282611c9f565b5090949350505050565b6000546001600160a01b0316331480611bc357503330145b610eb95760405162461bcd60e51b815260206004820152600a60248201526937b7363c9037bbb732b960b11b604482015260640161094f565b611c0582611d58565b6040516001600160a01b038316907fbc7cd75a20ee27fd9adebab32041f755214dbc6bffa90cc0225b39da2e5c2d3b90600090a2805115611c4a576119968282611dbd565b610cfc611e33565b60008060008351604103611c8c5760208401516040850151606086015160001a611c7e88828585611e52565b955095509550505050611c98565b50508151600091506002905b9250925092565b6000826003811115611cb357611cb3612b14565b03611cbc575050565b6001826003811115611cd057611cd0612b14565b03611cee5760405163f645eedf60e01b815260040160405180910390fd5b6002826003811115611d0257611d02612b14565b03611d235760405163fce698f760e01b81526004810182905260240161094f565b6003826003811115611d3757611d37612b14565b03610cfc576040516335e2f38360e21b81526004810182905260240161094f565b806001600160a01b03163b600003611d8e57604051634c9c8ce360e01b81526001600160a01b038216600482015260240161094f565b600080516020612b2b83398151915280546001600160a01b0319166001600160a01b0392909216919091179055565b6060600080846001600160a01b031684604051611dda9190612a56565b600060405180830381855af49150503d8060008114611e15576040519150601f19603f3d011682016040523d82523d6000602084013e611e1a565b606091505b5091509150611e2a858383611f21565b95945050505050565b3415610eb95760405163b398979f60e01b815260040160405180910390fd5b600080807f7fffffffffffffffffffffffffffffff5d576e7357a4501ddfe92f46681b20a0841115611e8d5750600091506003905082611f17565b604080516000808252602082018084528a905260ff891692820192909252606081018790526080810186905260019060a0016020604051602081039080840390855afa158015611ee1573d6000803e3d6000fd5b5050604051601f1901519150506001600160a01b038116611f0d57506000925060019150829050611f17565b9250600091508190505b9450945094915050565b606082611f3657611f3182611f7d565b6108eb565b8151158015611f4d57506001600160a01b0384163b155b15611f7657604051639996b31560e01b81526001600160a01b038516600482015260240161094f565b50806108eb565b805115611f8d5780518082602001fd5b604051630a12f52160e11b815260040160405180910390fd5b600060208284031215611fb857600080fd5b81356001600160e01b0319811681146108eb57600080fd5b600060208284031215611fe257600080fd5b5035919050565b80356001600160a01b038116811461200057600080fd5b919050565b60006020828403121561201757600080fd5b6108eb82611fe9565b60005b8381101561203b578181015183820152602001612023565b50506000910152565b6000815180845261205c816020860160208601612020565b601f01601f19169290920160200192915050565b6020815260006108eb6020830184612044565b60008083601f84011261209557600080fd5b5081356001600160401b038111156120ac57600080fd5b6020830191508360208285010111156120c457600080fd5b9250929050565b6000806000806000608086880312156120e357600080fd5b6120ec86611fe9565b94506120fa60208701611fe9565b93506040860135925060608601356001600160401b0381111561211c57600080fd5b61212888828901612083565b969995985093965092949392505050565b60008060006060848603121561214e57600080fd5b61215784611fe9565b925061216560208501611fe9565b9150604084013590509250925092565b60008060006060848603121561218a57600080fd5b83356001600160401b038111156121a057600080fd5b840161012081870312156121b357600080fd5b95602085013595506040909401359392505050565b634e487b7160e01b600052604160045260246000fd5b604051601f8201601f191681016001600160401b0381118282101715612206576122066121c8565b604052919050565b60006001600160401b03821115612227576122276121c8565b50601f01601f191660200190565b600082601f83011261224657600080fd5b81356122596122548261220e565b6121de565b81815284602083860101111561226e57600080fd5b816020850160208301376000918101602001919091529392505050565b6000602080838503121561229e57600080fd5b82356001600160401b03808211156122b557600080fd5b818501915085601f8301126122c957600080fd5b8135818111156122db576122db6121c8565b8060051b6122ea8582016121de565b918252838101850191858101908984111561230457600080fd5b86860192505b83831015612340578235858111156123225760008081fd5b6123308b89838a0101612235565b835250918601919086019061230a565b9998505050505050505050565b6000806000806060858703121561236357600080fd5b8435935061237360208601611fe9565b925060408501356001600160401b0381111561238e57600080fd5b61239a87828801612083565b95989497509550505050565b60008083601f8401126123b857600080fd5b5081356001600160401b038111156123cf57600080fd5b6020830191508360208260051b85010111156120c457600080fd5b6000806000806000806060878903121561240357600080fd5b86356001600160401b038082111561241a57600080fd5b6124268a838b016123a6565b9098509650602089013591508082111561243f57600080fd5b61244b8a838b016123a6565b9096509450604089013591508082111561246457600080fd5b5061247189828a016123a6565b979a9699509497509295939492505050565b6000806040838503121561249657600080fd5b61249f83611fe9565b915060208301356001600160401b038111156124ba57600080fd5b6124c685828601612235565b9150509250929050565b80151581146114e157600080fd5b600080600080600060a086880312156124f657600080fd5b85356001600160401b038082111561250d57600080fd5b61251989838a01612235565b9650602088013591508082111561252f57600080fd5b61253b89838a01612235565b9550604088013591508082111561255157600080fd5b5061255e88828901612235565b93505061256d60608701611fe9565b9150608086013561257d816124d0565b809150509295509295909350565b6000806000606084860312156125a057600080fd5b6125a984611fe9565b92506020840135915060408401356001600160401b038111156125cb57600080fd5b6125d786828701612235565b9150509250925092565b600080604083850312156125f457600080fd5b8235915060208301356001600160401b038111156124ba57600080fd5b60008060006040848603121561262657600080fd5b61262f84611fe9565b925060208401356001600160401b0381111561264a57600080fd5b612656868287016123a6565b9497909650939450505050565b6000806000806060858703121561267957600080fd5b61268285611fe9565b93506020850135925060408501356001600160401b0381111561238e57600080fd5b60008060008060008060008060a0898b0312156126c057600080fd5b6126c989611fe9565b97506126d760208a01611fe9565b965060408901356001600160401b03808211156126f357600080fd5b6126ff8c838d016123a6565b909850965060608b013591508082111561271857600080fd5b6127248c838d016123a6565b909650945060808b013591508082111561273d57600080fd5b5061274a8b828c01612083565b999c989b5096995094979396929594505050565b60006020828403121561277057600080fd5b81356001600160401b0381111561278657600080fd5b61279284828501612235565b949350505050565b82151581526040602082015260006127926040830184612044565b60008060008060008060a087890312156127ce57600080fd5b6127d787611fe9565b95506127e560208801611fe9565b9450604087013593506060870135925060808701356001600160401b0381111561280e57600080fd5b61247189828a01612083565b634e487b7160e01b600052601160045260246000fd5b8082018082111561071c5761071c61281a565b600060208083016020845280855180835260408601915060408160051b87010192506020870160005b8281101561289a57603f19888603018452612888858351612044565b9450928501929085019060010161286c565b5092979650505050505050565b6000600182016128b9576128b961281a565b5060010190565b6020808252602b908201527f6f6e6c7920656e74727920706f696e74206f722077616c6c657420666163746f60408201526a1c9e4818d85b8818d85b1b60aa1b606082015260800190565b634e487b7160e01b600052603260045260246000fd5b6000808335601e1984360301811261293857600080fd5b8301803591506001600160401b0382111561295257600080fd5b6020019150368190038213156120c457600080fd5b60c08152600061297a60c0830189612044565b828103602084015261298c8189612044565b905082810360408401526129a08188612044565b606084019690965250506001600160a01b03929092166080830152151560a0909101529392505050565b600080604083850312156129dd57600080fd5b82516129e8816124d0565b60208401519092506001600160401b03811115612a0457600080fd5b8301601f81018513612a1557600080fd5b8051612a236122548261220e565b818152866020838501011115612a3857600080fd5b612a49826020830160208601612020565b8093505050509250929050565b60008251612a68818460208701612020565b9190910192915050565b60ff818116838216019081111561071c5761071c61281a565b600060208284031215612a9d57600080fd5b5051919050565b604081526000612ab76040830185612044565b90508260208301529392505050565b604081526000612ad96040830185612044565b905060018060a01b03831660208301529392505050565b604081526000612b036040830185612044565b905082151560208301529392505050565b634e487b7160e01b600052602160045260246000fdfe360894a13ba1a3210667c828492db98dca3e2076cc3735a920a3ca505d382bbca2646970667358221220649c491d5a1e2f0955573739a449d8655e53f19247b1439f7449329ad3f6ce1c64736f6c63430008190033","linkReferences":{}},"methodIdentifiers":{"createAccount(address,uint256,uint256)":"6f2e6431","dkim()":"400ad5ce","getAddress(address,uint256,uint256)":"faa7b729","walletImplementation()":"8117abc1"},"id":86}