{
    "abi": [
        {
            "type": "receive",
            "stateMutability": "payable"
        },
        {
            "type": "function",
            "name": "addStake",
            "inputs": [
                {
                    "name": "unstakeDelaySec",
                    "type": "uint32",
                    "internalType": "uint32"
                }
            ],
            "outputs": [],
            "stateMutability": "payable"
        },
        {
            "type": "function",
            "name": "balanceOf",
            "inputs": [
                {
                    "name": "account",
                    "type": "address",
                    "internalType": "address"
                }
            ],
            "outputs": [
                {
                    "name": "",
                    "type": "uint256",
                    "internalType": "uint256"
                }
            ],
            "stateMutability": "view"
        },
        {
            "type": "function",
            "name": "delegateAndRevert",
            "inputs": [
                {
                    "name": "target",
                    "type": "address",
                    "internalType": "address"
                },
                {
                    "name": "data",
                    "type": "bytes",
                    "internalType": "bytes"
                }
            ],
            "outputs": [],
            "stateMutability": "nonpayable"
        },
        {
            "type": "function",
            "name": "depositTo",
            "inputs": [
                {
                    "name": "account",
                    "type": "address",
                    "internalType": "address"
                }
            ],
            "outputs": [],
            "stateMutability": "payable"
        },
        {
            "type": "function",
            "name": "deposits",
            "inputs": [
                {
                    "name": "",
                    "type": "address",
                    "internalType": "address"
                }
            ],
            "outputs": [
                {
                    "name": "deposit",
                    "type": "uint256",
                    "internalType": "uint256"
                },
                {
                    "name": "staked",
                    "type": "bool",
                    "internalType": "bool"
                },
                {
                    "name": "stake",
                    "type": "uint112",
                    "internalType": "uint112"
                },
                {
                    "name": "unstakeDelaySec",
                    "type": "uint32",
                    "internalType": "uint32"
                },
                {
                    "name": "withdrawTime",
                    "type": "uint48",
                    "internalType": "uint48"
                }
            ],
            "stateMutability": "view"
        },
        {
            "type": "function",
            "name": "getDepositInfo",
            "inputs": [
                {
                    "name": "account",
                    "type": "address",
                    "internalType": "address"
                }
            ],
            "outputs": [
                {
                    "name": "info",
                    "type": "tuple",
                    "internalType": "struct IStakeManager.DepositInfo",
                    "components": [
                        {
                            "name": "deposit",
                            "type": "uint256",
                            "internalType": "uint256"
                        },
                        {
                            "name": "staked",
                            "type": "bool",
                            "internalType": "bool"
                        },
                        {
                            "name": "stake",
                            "type": "uint112",
                            "internalType": "uint112"
                        },
                        {
                            "name": "unstakeDelaySec",
                            "type": "uint32",
                            "internalType": "uint32"
                        },
                        {
                            "name": "withdrawTime",
                            "type": "uint48",
                            "internalType": "uint48"
                        }
                    ]
                }
            ],
            "stateMutability": "view"
        },
        {
            "type": "function",
            "name": "getNonce",
            "inputs": [
                {
                    "name": "sender",
                    "type": "address",
                    "internalType": "address"
                },
                {
                    "name": "key",
                    "type": "uint192",
                    "internalType": "uint192"
                }
            ],
            "outputs": [
                {
                    "name": "nonce",
                    "type": "uint256",
                    "internalType": "uint256"
                }
            ],
            "stateMutability": "view"
        },
        {
            "type": "function",
            "name": "getSenderAddress",
            "inputs": [
                {
                    "name": "initCode",
                    "type": "bytes",
                    "internalType": "bytes"
                }
            ],
            "outputs": [],
            "stateMutability": "nonpayable"
        },
        {
            "type": "function",
            "name": "getUserOpHash",
            "inputs": [
                {
                    "name": "userOp",
                    "type": "tuple",
                    "internalType": "struct PackedUserOperation",
                    "components": [
                        {
                            "name": "sender",
                            "type": "address",
                            "internalType": "address"
                        },
                        {
                            "name": "nonce",
                            "type": "uint256",
                            "internalType": "uint256"
                        },
                        {
                            "name": "initCode",
                            "type": "bytes",
                            "internalType": "bytes"
                        },
                        {
                            "name": "callData",
                            "type": "bytes",
                            "internalType": "bytes"
                        },
                        {
                            "name": "accountGasLimits",
                            "type": "bytes32",
                            "internalType": "bytes32"
                        },
                        {
                            "name": "preVerificationGas",
                            "type": "uint256",
                            "internalType": "uint256"
                        },
                        {
                            "name": "gasFees",
                            "type": "bytes32",
                            "internalType": "bytes32"
                        },
                        {
                            "name": "paymasterAndData",
                            "type": "bytes",
                            "internalType": "bytes"
                        },
                        {
                            "name": "signature",
                            "type": "bytes",
                            "internalType": "bytes"
                        }
                    ]
                }
            ],
            "outputs": [
                {
                    "name": "",
                    "type": "bytes32",
                    "internalType": "bytes32"
                }
            ],
            "stateMutability": "view"
        },
        {
            "type": "function",
            "name": "handleAggregatedOps",
            "inputs": [
                {
                    "name": "opsPerAggregator",
                    "type": "tuple[]",
                    "internalType": "struct IEntryPoint.UserOpsPerAggregator[]",
                    "components": [
                        {
                            "name": "userOps",
                            "type": "tuple[]",
                            "internalType": "struct PackedUserOperation[]",
                            "components": [
                                {
                                    "name": "sender",
                                    "type": "address",
                                    "internalType": "address"
                                },
                                {
                                    "name": "nonce",
                                    "type": "uint256",
                                    "internalType": "uint256"
                                },
                                {
                                    "name": "initCode",
                                    "type": "bytes",
                                    "internalType": "bytes"
                                },
                                {
                                    "name": "callData",
                                    "type": "bytes",
                                    "internalType": "bytes"
                                },
                                {
                                    "name": "accountGasLimits",
                                    "type": "bytes32",
                                    "internalType": "bytes32"
                                },
                                {
                                    "name": "preVerificationGas",
                                    "type": "uint256",
                                    "internalType": "uint256"
                                },
                                {
                                    "name": "gasFees",
                                    "type": "bytes32",
                                    "internalType": "bytes32"
                                },
                                {
                                    "name": "paymasterAndData",
                                    "type": "bytes",
                                    "internalType": "bytes"
                                },
                                {
                                    "name": "signature",
                                    "type": "bytes",
                                    "internalType": "bytes"
                                }
                            ]
                        },
                        {
                            "name": "aggregator",
                            "type": "address",
                            "internalType": "contract IAggregator"
                        },
                        {
                            "name": "signature",
                            "type": "bytes",
                            "internalType": "bytes"
                        }
                    ]
                },
                {
                    "name": "beneficiary",
                    "type": "address",
                    "internalType": "address payable"
                }
            ],
            "outputs": [],
            "stateMutability": "nonpayable"
        },
        {
            "type": "function",
            "name": "handleOps",
            "inputs": [
                {
                    "name": "ops",
                    "type": "tuple[]",
                    "internalType": "struct PackedUserOperation[]",
                    "components": [
                        {
                            "name": "sender",
                            "type": "address",
                            "internalType": "address"
                        },
                        {
                            "name": "nonce",
                            "type": "uint256",
                            "internalType": "uint256"
                        },
                        {
                            "name": "initCode",
                            "type": "bytes",
                            "internalType": "bytes"
                        },
                        {
                            "name": "callData",
                            "type": "bytes",
                            "internalType": "bytes"
                        },
                        {
                            "name": "accountGasLimits",
                            "type": "bytes32",
                            "internalType": "bytes32"
                        },
                        {
                            "name": "preVerificationGas",
                            "type": "uint256",
                            "internalType": "uint256"
                        },
                        {
                            "name": "gasFees",
                            "type": "bytes32",
                            "internalType": "bytes32"
                        },
                        {
                            "name": "paymasterAndData",
                            "type": "bytes",
                            "internalType": "bytes"
                        },
                        {
                            "name": "signature",
                            "type": "bytes",
                            "internalType": "bytes"
                        }
                    ]
                },
                {
                    "name": "beneficiary",
                    "type": "address",
                    "internalType": "address payable"
                }
            ],
            "outputs": [],
            "stateMutability": "nonpayable"
        },
        {
            "type": "function",
            "name": "incrementNonce",
            "inputs": [
                {
                    "name": "key",
                    "type": "uint192",
                    "internalType": "uint192"
                }
            ],
            "outputs": [],
            "stateMutability": "nonpayable"
        },
        {
            "type": "function",
            "name": "innerHandleOp",
            "inputs": [
                {
                    "name": "callData",
                    "type": "bytes",
                    "internalType": "bytes"
                },
                {
                    "name": "opInfo",
                    "type": "tuple",
                    "internalType": "struct EntryPoint.UserOpInfo",
                    "components": [
                        {
                            "name": "mUserOp",
                            "type": "tuple",
                            "internalType": "struct EntryPoint.MemoryUserOp",
                            "components": [
                                {
                                    "name": "sender",
                                    "type": "address",
                                    "internalType": "address"
                                },
                                {
                                    "name": "nonce",
                                    "type": "uint256",
                                    "internalType": "uint256"
                                },
                                {
                                    "name": "verificationGasLimit",
                                    "type": "uint256",
                                    "internalType": "uint256"
                                },
                                {
                                    "name": "callGasLimit",
                                    "type": "uint256",
                                    "internalType": "uint256"
                                },
                                {
                                    "name": "paymasterVerificationGasLimit",
                                    "type": "uint256",
                                    "internalType": "uint256"
                                },
                                {
                                    "name": "paymasterPostOpGasLimit",
                                    "type": "uint256",
                                    "internalType": "uint256"
                                },
                                {
                                    "name": "preVerificationGas",
                                    "type": "uint256",
                                    "internalType": "uint256"
                                },
                                {
                                    "name": "paymaster",
                                    "type": "address",
                                    "internalType": "address"
                                },
                                {
                                    "name": "maxFeePerGas",
                                    "type": "uint256",
                                    "internalType": "uint256"
                                },
                                {
                                    "name": "maxPriorityFeePerGas",
                                    "type": "uint256",
                                    "internalType": "uint256"
                                }
                            ]
                        },
                        {
                            "name": "userOpHash",
                            "type": "bytes32",
                            "internalType": "bytes32"
                        },
                        {
                            "name": "prefund",
                            "type": "uint256",
                            "internalType": "uint256"
                        },
                        {
                            "name": "contextOffset",
                            "type": "uint256",
                            "internalType": "uint256"
                        },
                        {
                            "name": "preOpGas",
                            "type": "uint256",
                            "internalType": "uint256"
                        }
                    ]
                },
                {
                    "name": "context",
                    "type": "bytes",
                    "internalType": "bytes"
                }
            ],
            "outputs": [
                {
                    "name": "actualGasCost",
                    "type": "uint256",
                    "internalType": "uint256"
                }
            ],
            "stateMutability": "nonpayable"
        },
        {
            "type": "function",
            "name": "nonceSequenceNumber",
            "inputs": [
                {
                    "name": "",
                    "type": "address",
                    "internalType": "address"
                },
                {
                    "name": "",
                    "type": "uint192",
                    "internalType": "uint192"
                }
            ],
            "outputs": [
                {
                    "name": "",
                    "type": "uint256",
                    "internalType": "uint256"
                }
            ],
            "stateMutability": "view"
        },
        {
            "type": "function",
            "name": "supportsInterface",
            "inputs": [
                {
                    "name": "interfaceId",
                    "type": "bytes4",
                    "internalType": "bytes4"
                }
            ],
            "outputs": [
                {
                    "name": "",
                    "type": "bool",
                    "internalType": "bool"
                }
            ],
            "stateMutability": "view"
        },
        {
            "type": "function",
            "name": "unlockStake",
            "inputs": [],
            "outputs": [],
            "stateMutability": "nonpayable"
        },
        {
            "type": "function",
            "name": "withdrawStake",
            "inputs": [
                {
                    "name": "withdrawAddress",
                    "type": "address",
                    "internalType": "address payable"
                }
            ],
            "outputs": [],
            "stateMutability": "nonpayable"
        },
        {
            "type": "function",
            "name": "withdrawTo",
            "inputs": [
                {
                    "name": "withdrawAddress",
                    "type": "address",
                    "internalType": "address payable"
                },
                {
                    "name": "withdrawAmount",
                    "type": "uint256",
                    "internalType": "uint256"
                }
            ],
            "outputs": [],
            "stateMutability": "nonpayable"
        },
        {
            "type": "event",
            "name": "AccountDeployed",
            "inputs": [
                {
                    "name": "userOpHash",
                    "type": "bytes32",
                    "indexed": true,
                    "internalType": "bytes32"
                },
                {
                    "name": "sender",
                    "type": "address",
                    "indexed": true,
                    "internalType": "address"
                },
                {
                    "name": "factory",
                    "type": "address",
                    "indexed": false,
                    "internalType": "address"
                },
                {
                    "name": "paymaster",
                    "type": "address",
                    "indexed": false,
                    "internalType": "address"
                }
            ],
            "anonymous": false
        },
        {
            "type": "event",
            "name": "BeforeExecution",
            "inputs": [],
            "anonymous": false
        },
        {
            "type": "event",
            "name": "Deposited",
            "inputs": [
                {
                    "name": "account",
                    "type": "address",
                    "indexed": true,
                    "internalType": "address"
                },
                {
                    "name": "totalDeposit",
                    "type": "uint256",
                    "indexed": false,
                    "internalType": "uint256"
                }
            ],
            "anonymous": false
        },
        {
            "type": "event",
            "name": "PostOpRevertReason",
            "inputs": [
                {
                    "name": "userOpHash",
                    "type": "bytes32",
                    "indexed": true,
                    "internalType": "bytes32"
                },
                {
                    "name": "sender",
                    "type": "address",
                    "indexed": true,
                    "internalType": "address"
                },
                {
                    "name": "nonce",
                    "type": "uint256",
                    "indexed": false,
                    "internalType": "uint256"
                },
                {
                    "name": "revertReason",
                    "type": "bytes",
                    "indexed": false,
                    "internalType": "bytes"
                }
            ],
            "anonymous": false
        },
        {
            "type": "event",
            "name": "SignatureAggregatorChanged",
            "inputs": [
                {
                    "name": "aggregator",
                    "type": "address",
                    "indexed": true,
                    "internalType": "address"
                }
            ],
            "anonymous": false
        },
        {
            "type": "event",
            "name": "StakeLocked",
            "inputs": [
                {
                    "name": "account",
                    "type": "address",
                    "indexed": true,
                    "internalType": "address"
                },
                {
                    "name": "totalStaked",
                    "type": "uint256",
                    "indexed": false,
                    "internalType": "uint256"
                },
                {
                    "name": "unstakeDelaySec",
                    "type": "uint256",
                    "indexed": false,
                    "internalType": "uint256"
                }
            ],
            "anonymous": false
        },
        {
            "type": "event",
            "name": "StakeUnlocked",
            "inputs": [
                {
                    "name": "account",
                    "type": "address",
                    "indexed": true,
                    "internalType": "address"
                },
                {
                    "name": "withdrawTime",
                    "type": "uint256",
                    "indexed": false,
                    "internalType": "uint256"
                }
            ],
            "anonymous": false
        },
        {
            "type": "event",
            "name": "StakeWithdrawn",
            "inputs": [
                {
                    "name": "account",
                    "type": "address",
                    "indexed": true,
                    "internalType": "address"
                },
                {
                    "name": "withdrawAddress",
                    "type": "address",
                    "indexed": false,
                    "internalType": "address"
                },
                {
                    "name": "amount",
                    "type": "uint256",
                    "indexed": false,
                    "internalType": "uint256"
                }
            ],
            "anonymous": false
        },
        {
            "type": "event",
            "name": "UserOperationEvent",
            "inputs": [
                {
                    "name": "userOpHash",
                    "type": "bytes32",
                    "indexed": true,
                    "internalType": "bytes32"
                },
                {
                    "name": "sender",
                    "type": "address",
                    "indexed": true,
                    "internalType": "address"
                },
                {
                    "name": "paymaster",
                    "type": "address",
                    "indexed": true,
                    "internalType": "address"
                },
                {
                    "name": "nonce",
                    "type": "uint256",
                    "indexed": false,
                    "internalType": "uint256"
                },
                {
                    "name": "success",
                    "type": "bool",
                    "indexed": false,
                    "internalType": "bool"
                },
                {
                    "name": "actualGasCost",
                    "type": "uint256",
                    "indexed": false,
                    "internalType": "uint256"
                },
                {
                    "name": "actualGasUsed",
                    "type": "uint256",
                    "indexed": false,
                    "internalType": "uint256"
                }
            ],
            "anonymous": false
        },
        {
            "type": "event",
            "name": "UserOperationPrefundTooLow",
            "inputs": [
                {
                    "name": "userOpHash",
                    "type": "bytes32",
                    "indexed": true,
                    "internalType": "bytes32"
                },
                {
                    "name": "sender",
                    "type": "address",
                    "indexed": true,
                    "internalType": "address"
                },
                {
                    "name": "nonce",
                    "type": "uint256",
                    "indexed": false,
                    "internalType": "uint256"
                }
            ],
            "anonymous": false
        },
        {
            "type": "event",
            "name": "UserOperationRevertReason",
            "inputs": [
                {
                    "name": "userOpHash",
                    "type": "bytes32",
                    "indexed": true,
                    "internalType": "bytes32"
                },
                {
                    "name": "sender",
                    "type": "address",
                    "indexed": true,
                    "internalType": "address"
                },
                {
                    "name": "nonce",
                    "type": "uint256",
                    "indexed": false,
                    "internalType": "uint256"
                },
                {
                    "name": "revertReason",
                    "type": "bytes",
                    "indexed": false,
                    "internalType": "bytes"
                }
            ],
            "anonymous": false
        },
        {
            "type": "event",
            "name": "Withdrawn",
            "inputs": [
                {
                    "name": "account",
                    "type": "address",
                    "indexed": true,
                    "internalType": "address"
                },
                {
                    "name": "withdrawAddress",
                    "type": "address",
                    "indexed": false,
                    "internalType": "address"
                },
                {
                    "name": "amount",
                    "type": "uint256",
                    "indexed": false,
                    "internalType": "uint256"
                }
            ],
            "anonymous": false
        },
        {
            "type": "error",
            "name": "DelegateAndRevert",
            "inputs": [
                {
                    "name": "success",
                    "type": "bool",
                    "internalType": "bool"
                },
                {
                    "name": "ret",
                    "type": "bytes",
                    "internalType": "bytes"
                }
            ]
        },
        {
            "type": "error",
            "name": "FailedOp",
            "inputs": [
                {
                    "name": "opIndex",
                    "type": "uint256",
                    "internalType": "uint256"
                },
                {
                    "name": "reason",
                    "type": "string",
                    "internalType": "string"
                }
            ]
        },
        {
            "type": "error",
            "name": "FailedOpWithRevert",
            "inputs": [
                {
                    "name": "opIndex",
                    "type": "uint256",
                    "internalType": "uint256"
                },
                {
                    "name": "reason",
                    "type": "string",
                    "internalType": "string"
                },
                {
                    "name": "inner",
                    "type": "bytes",
                    "internalType": "bytes"
                }
            ]
        },
        {
            "type": "error",
            "name": "PostOpReverted",
            "inputs": [
                {
                    "name": "returnData",
                    "type": "bytes",
                    "internalType": "bytes"
                }
            ]
        },
        {
            "type": "error",
            "name": "ReentrancyGuardReentrantCall",
            "inputs": []
        },
        {
            "type": "error",
            "name": "SenderAddressResult",
            "inputs": [
                {
                    "name": "sender",
                    "type": "address",
                    "internalType": "address"
                }
            ]
        },
        {
            "type": "error",
            "name": "SignatureValidationFailed",
            "inputs": [
                {
                    "name": "aggregator",
                    "type": "address",
                    "internalType": "address"
                }
            ]
        }
    ],
    "bytecode": {
        "object": "0x60a08060405234607a57600160025561024e8181016001600160401b03811183821017606457829161395a833903906000f080156058576080526040516138da90816100808239608051818181610bda015261367b0152f35b6040513d6000823e3d90fd5b634e487b7160e01b600052604160045260246000fd5b600080fdfe60806040526004361015610023575b361561001957600080fd5b610021611dd7565b005b60003560e01c806242dc531461014257806301ffc9a71461013d5780630396cb60146101385780630bd28e3b146101335780631b2e01b81461012e578063205c28781461012957806322cdde4c1461012457806335567e1a1461011f5780635287ce121461011a57806370a0823114610115578063765e827f14610110578063850aaf621461010b5780639b249f6914610106578063b760faf914610101578063bb9fe6bf146100fc578063c23a5cea146100f7578063dbed18e0146100f25763fc7e286d0361000e5761112e565b610e52565b610d71565b610c86565b610c5b565b610b78565b610aee565b6109e3565b61094d565b610840565b6107d7565b610790565b6106a2565b61063f565b6105ea565b6104ad565b610406565b6102da565b634e487b7160e01b600052604160045260246000fd5b60a081019081106001600160401b0382111761017857604052565b610147565b6001600160401b03811161017857604052565b61014081019081106001600160401b0382111761017857604052565b606081019081106001600160401b0382111761017857604052565b604081019081106001600160401b0382111761017857604052565b90601f801991011681019081106001600160401b0382111761017857604052565b6040519061021082610190565b565b604051906102108261015d565b6001600160401b03811161017857601f01601f191660200190565b9291926102468261021f565b9161025460405193846101e2565b829481845281830111610271578281602093846000960137010152565b600080fd5b6001600160a01b0381160361027157565b6024359061021082610276565b610104359061021082610276565b359061021082610276565b9181601f84011215610271578235916001600160401b038311610271576020838186019501011161027157565b3461027157610200366003190112610271576001600160401b0360043581811161027157366023820112156102715761031d90369060248160040135910161023a565b9036602319016101c08112610271576101406040519161033c8361015d565b1261027157610349610203565b610351610287565b815260443560208201526064356040820152608435606082015260a435608082015260c43560a082015260e43560c082015261038b610294565b60e0820152610124356101008201526101443561012082015281526101643560208201526101843560408201526101a43560608201526101c43560808201526101e43591821161027157610402926103ea6103f29336906004016102ad565b9290916112e3565b6040519081529081906020820190565b0390f35b346102715760203660031901126102715760043563ffffffff60e01b8116809103610271576104029063307e35b760e11b811490811561049c575b811561048b575b811561047a575b8115610469575b5060405190151581529081906020820190565b6301ffc9a760e01b14905038610456565b633e84f02160e01b8114915061044f565b63cf28ef9760e01b81149150610448565b63122a0e9b60e31b81149150610441565b60203660031901126102715763ffffffff60043581811691828203610271577fa5ae833d0bb1dcd632d98a8b70973e8516812898e19bf27b70071ebc8dc52c01916105b16105cf926105326105143360018060a01b03166000526000602052604060002090565b9661052081151561143c565b6001880154928360781c161115611488565b61058b61054d6001600160701b039283349160081c166114ea565b966105598815156114fc565b6105658389111561153d565b549161056f610212565b9283526001602084015287166001600160701b03166040830152565b63ffffffff8316606082015260006080820181905233815260208190526040902061157a565b6040805194855263ffffffff90911660208501523393918291820190565b0390a2005b602435906001600160c01b038216820361027157565b34610271576020366003190112610271576004356001600160c01b0381168103610271573360009081526001602090815260408083206001600160c01b0390941683529290522061063b8154611607565b9055005b3461027157604036600319011261027157602061069960043561066181610276565b6106696105d4565b6001600160a01b0390911660009081526001845260408082206001600160c01b0390931682526020929092522090565b54604051908152f35b34610271576040366003190112610271576004356106bf81610276565b6024359060009133835282602052604083209182549283831161074b5784808080868196610748966106f1838c611616565b9055604080516001600160a01b03831681526020810184905233917fd1c19fbcd4551a5edfb66d43d2e337c04837afda3482b42bdf569a8fccdae5fb91a26001600160a01b03165af1610742611623565b50611653565b80f35b60405162461bcd60e51b815260206004820152601960248201527f576974686472617720616d6f756e7420746f6f206c61726765000000000000006044820152606490fd5b346102715760031960203682011261027157600435906001600160401b03821161027157610120908236030112610271576107cf602091600401611694565b604051908152f35b346102715760403660031901126102715760206004356107f681610276565b6107fe6105d4565b6001600160a01b0390911660009081526001835260408082206001600160c01b03841683526020529020546040805192901b67ffffffffffffffff1916178152f35b3461027157602036600319011261027157610402608060043561086281610276565b604091829182516108728161015d565b60009281848093528260208201528286820152826060820152015260018060a01b031681528060205220906108fb65ffffffffffff60018351946108b58661015d565b80548652015460ff8116151560208601526001600160701b038160081c168486015263ffffffff8160781c16606086015260981c16608084019065ffffffffffff169052565b5191829182919091608065ffffffffffff8160a0840195805185526020810151151560208601526001600160701b03604082015116604086015263ffffffff6060820151166060860152015116910152565b346102715760203660031901126102715760043561096a81610276565b60018060a01b031660005260006020526020604060002054604051908152f35b906040600319830112610271576004356001600160401b039283821161027157806023830112156102715781600401359384116102715760248460051b830101116102715760240191906024356109e081610276565b90565b34610271576109f13661098a565b6109fc9291926122e3565b610a05836117f2565b610a3784604051610a15816101c7565b601081526f3430b7323632a7b8399037b839b632b760811b6020820152612347565b60005b848110610ab757506000927fbb47ee3e183a558b1a2ff0874b079f3fc5478b7454eacf2bfc5af2ff5878f9728480a183915b858310610a8757610a7d8585612b59565b6100216001600255565b909193600190610aad610a9b8789876118d6565b610aa588866118bd565b51908861290d565b0194019190610a6c565b80610ae5610ade610acc6001948698966118bd565b51610ad8848a886118d6565b846123d6565b90836125f0565b01929092610a3a565b3461027157604036600319011261027157600435610b0b81610276565b6024356001600160401b03811161027157600091610b2e839236906004016102ad565b90816040519283928337810184815203915af4610b49611623565b60408051632650415560e21b8152921515600484015260248301528190610b749060448301906112a7565b0390fd5b34610271576020366003190112610271576004356001600160401b038111610271576020610bad610bd39236906004016102ad565b604051632b870d1b60e11b8152936001600160a01b03939285928392916004840161192f565b03816000857f0000000000000000000000000000000000000000000000000000000000000000165af1908115610c5657602492600092610c25575b50604051633653dc0360e11b815291166004820152fd5b610c4891925060203d602011610c4f575b610c4081836101e2565b8101906118f9565b9038610c0e565b503d610c36565b611940565b602036600319011261027157610021600435610c7681610276565b61194c565b600091031261027157565b3461027157600080600319360112610d6e573381528060205260016040822001805463ffffffff8160781c16908115610d3c57610d0191610ccc60ff610cda93166119f9565b65ffffffffffff4216611a39565b825460ff65ffffffffffff60981b01191665ffffffffffff60981b609883901b1617909255565b60405165ffffffffffff91909116815233907ffa9b3c14cc825c412c9ed81b3ba365a5b459439403f18829e572ed53a4180f0a90602090a280f35b60405162461bcd60e51b815260206004820152600a6024820152691b9bdd081cdd185ad95960b21b6044820152606490fd5b80fd5b3461027157602036600319011261027157600435610d8e81610276565b3360009081526020819052604090206107489060010191610df6835493610de565ffffffffffff6001600160701b038760081c1696610dce881515611a53565b60981c16610ddd811515611a96565b421015611ae2565b8054610100600160c81b0319169055565b604080516001600160a01b03831681526020810185905233917fb7c918e0e249f999e965cafeb6c664271b3f4317d296461500e71da39f0cbda391a2600080808095819460018060a01b03165af1610e4c611623565b50611b2e565b3461027157610e603661098a565b610e686122e3565b6000805b83821061102657610e7d91506117f2565b6000805b848110610f9d5750507fbb47ee3e183a558b1a2ff0874b079f3fc5478b7454eacf2bfc5af2ff5878f972600080a160008093815b818110610eec57610a7d868660007f575ff3acadd5ab348fe1855e217e0f3678f8d767d7494c9f9fefbee2e17cca4d8180a2612b59565b610f43610efa82848a611b7a565b610f18610f0c610f0c60208401611bd1565b6001600160a01b031690565b7f575ff3acadd5ab348fe1855e217e0f3678f8d767d7494c9f9fefbee2e17cca4d600080a280611b9c565b906000915b808310610f5a57505050600101610eb5565b90919497610f94610f8e600192610f888c8b610f8182610f7b8e8b8d6118d6565b926118bd565b519161290d565b906114ea565b99611607565b95019190610f48565b610fa8818688611b7a565b6020610fc0610fb78380611b9c565b92909301611bd1565b6000926001600160a01b03909116905b828410610fe35750505050600101610e81565b9091929461101c8161101785611010610ffe6001968d6118bd565b5161100a8c8b8a6118d6565b856123d6565b908b612776565b611607565b9501929190610fd0565b611031828587611b7a565b9061103c8280611b9c565b9261104c610f0c60208301611bd1565b916001600160a01b0383166110646001821415611bdb565b611080575b505050600191611078916114ea565b910190610e6c565b9095926110996040999693999895989788810190611c27565b92908a3b156102715789938b918a519384928392632dd8113360e01b845260049e8f8501936110c794611d4e565b03815a93600094fa9081611115575b5061110057865163086a9f7560e41b81526001600160a01b038a16818a0190815281906020010390fd5b94975092955090935091816110786001611069565b806111226111289261017d565b80610c7b565b386110d6565b346102715760203660031901126102715760043561114b81610276565b60018060a01b0316600052600060205260a0604060002065ffffffffffff6001825492015460405192835260ff8116151560208401526001600160701b038160081c16604084015263ffffffff8160781c16606084015260981c166080820152f35b156111b457565b60405162461bcd60e51b815260206004820152601760248201527f4141393220696e7465726e616c2063616c6c206f6e6c790000000000000000006044820152606490fd5b60405190611206826101c7565b600682526535353535353560d01b6020830152565b60405190611228826101c7565b600882526739bab1b1b2b9b99d60c11b6020830152565b6040519061124c826101c7565b60068252651b1b1b1b1b1b60d11b6020830152565b6040519061126e826101c7565b60078252663737373737373760c81b6020830152565b60005b8381106112975750506000910152565b8181015183820152602001611287565b906020916112c081518092818552858086019101611284565b601f01601f1916010190565b6040906109e09392815281602082015201906112a7565b909291925a936112f43033146111ad565b81519460608601519561130a603f5a0260061c90565b61271060a08301518901011161142b576109e0966000958051611347575b50505090611341915a900360808401510194369161023a565b91612160565b8251611379929190611369906001600160a01b03166113646111f9565b611de0565b83516001600160a01b0316611ea3565b61138a8161138561121b565b611f9c565b15611397575b8080611328565b611341929194506113ae6113a961123f565b611fe1565b6113b661201d565b80516113c9575b50506001939091611390565b6113d46113a9611261565b602085810151835193909101516040516001600160a01b039094169391927f1c4fada7374c0a9ee8841fc38afe82932dc0f8e69012e927f061a8bae611a2019291829161142191836112cc565b0390a338806113bd565b63deaddead60e01b60005260206000fd5b1561144357565b60405162461bcd60e51b815260206004820152601a60248201527f6d757374207370656369667920756e7374616b652064656c61790000000000006044820152606490fd5b1561148f57565b60405162461bcd60e51b815260206004820152601c60248201527f63616e6e6f7420646563726561736520756e7374616b652074696d65000000006044820152606490fd5b634e487b7160e01b600052601160045260246000fd5b919082018092116114f757565b6114d4565b1561150357565b60405162461bcd60e51b81526020600482015260126024820152711b9bc81cdd185ad9481cdc1958da599a595960721b6044820152606490fd5b1561154457565b60405162461bcd60e51b815260206004820152600e60248201526d7374616b65206f766572666c6f7760901b6044820152606490fd5b9065ffffffffffff60806001610210948451815501926020810151151584546effffffffffffffffffffffffffff00604084015160081b169060ff63ffffffff60781b606086015160781b169316906cffffffffffffffffffffffffff60981b16171717845501511681549065ffffffffffff60981b9060981b169065ffffffffffff60981b1916179055565b60001981146114f75760010190565b919082039182116114f757565b3d1561164e573d906116348261021f565b9161164260405193846101e2565b82523d6000602084013e565b606090565b1561165a57565b60405162461bcd60e51b81526020600482015260126024820152716661696c656420746f20776974686472617760701b6044820152606490fd5b6040906116eb82516116a5816101ac565b602f81527f313131313131313131313131313131313131313131313131313131313131313160208201526e31313131313131313131313131313160881b84820152611fe1565b6117d56116fa83830183611c27565b9081855191823720916117106060820182611c27565b90818651918237209261179661173261172c60e0850185611c27565b9061355a565b865184356001600160a01b03166020808301918252860135604083015260608201949094526080808201979097529584013560a08088019190915284013560c0808801919091529093013560e0860152610100850192909252908390610120820190565b03926117aa601f19948581018352826101e2565b5190209251602081019384523060408201524660608201529182608081015b039081018352826101e2565b51902090565b6001600160401b0381116101785760051b60200190565b906117fc826117db565b60409061180c60405191826101e2565b838152809361181d601f19916117db565b019160005b83811061182f5750505050565b602090825161183d8161015d565b835161184881610190565b600081526000849181838201528187820152816060818184015260809282848201528260a08201528260c08201528260e08201528261010082015282610120820152865281858701528189870152850152830152828601015201611822565b634e487b7160e01b600052603260045260246000fd5b80518210156118d15760209160051b010190565b6118a7565b91908110156118d15760051b8101359061011e1981360301821215610271570190565b9081602091031261027157516109e081610276565b908060209392818452848401376000828201840152601f01601f1916010190565b9160206109e093818152019161190e565b6040513d6000823e3d90fd5b7f2da466a7b24304f47e87fa2e1e5a81b9831ce54fec19055ce277ca2f39ba42c460206119f06040519361197f856101c7565b60098552686465706f736974546f60b81b838601526119e96119bb604051966307c8121760e01b868901526060602489015260848801906112a7565b956119e48160018060a01b0385169889604483015234606483015203601f1981018352826101e2565b612c32565b3490612c0b565b604051908152a2565b15611a0057565b60405162461bcd60e51b8152602060048201526011602482015270616c726561647920756e7374616b696e6760781b6044820152606490fd5b91909165ffffffffffff808094169116019182116114f757565b15611a5a57565b60405162461bcd60e51b81526020600482015260146024820152734e6f207374616b6520746f20776974686472617760601b6044820152606490fd5b15611a9d57565b60405162461bcd60e51b815260206004820152601d60248201527f6d7573742063616c6c20756e6c6f636b5374616b6528292066697273740000006044820152606490fd5b15611ae957565b60405162461bcd60e51b815260206004820152601b60248201527f5374616b65207769746864726177616c206973206e6f742064756500000000006044820152606490fd5b15611b3557565b60405162461bcd60e51b815260206004820152601860248201527f6661696c656420746f207769746864726177207374616b6500000000000000006044820152606490fd5b91908110156118d15760051b81013590605e1981360301821215610271570190565b903590601e198136030182121561027157018035906001600160401b03821161027157602001918160051b3603831361027157565b356109e081610276565b15611be257565b60405162461bcd60e51b815260206004820152601760248201527f4141393620696e76616c69642061676772656761746f720000000000000000006044820152606490fd5b903590601e198136030182121561027157018035906001600160401b0382116102715760200191813603831361027157565b9035601e19823603018112156102715701602081359101916001600160401b03821161027157813603831361027157565b6109e091611d2f611cf6611cdb610120611cb485611ca7886102a2565b6001600160a01b03169052565b60208601356020860152611ccb6040870187611c59565b909180604088015286019161190e565b611ce86060860186611c59565b90858303606087015261190e565b6080840135608084015260a084013560a084015260c084013560c0840152611d2160e0850185611c59565b9084830360e086015261190e565b91611d406101009182810190611c59565b92909181850391015261190e565b949391929083604087016040885252606086019360608160051b88010194826000906000915b848310611d93575050505050508460206109e09596850391015261190e565b909192939497605f198b8203018552883561011e1984360301811215611dd35760019184611dc19201611c8a565b98602090810196950193019190611d74565b8280fd5b6102103361194c565b6119e4611e0f916102109360405193849263319af33360e01b60208501526040602485015260648401906112a7565b6001600160a01b0391909116604483015203601f1981018352826101e2565b60405190611e3b826101c7565b600d82526c31b0b6361039bab1b1b2b9b99d60991b6020830152565b60405190611e64826101c7565b6004825260203681840137565b90611e7b8261021f565b611e8860405191826101e2565b8281528092611e99601f199161021f565b0190602036910137565b6102109193929360405191611eb7836101c7565b600a8352611ed9816020946963616c6c696e6720746f60b01b86820152611de0565b611efe604051611ee8816101c7565b600581526476616c756560d81b85820152612304565b611f2486604051611f0e816101c7565b6005815264747847617360d81b86820152612347565b611f2d82612c4d565b60038251918484019788936000998a80948194f1963d8082803e611f5389611385611e2e565b8815611f7e575b50925111611f75575b50611f6c611e57565b91820152612c4d565b90505138611f63565b80611f8b611f9692611e71565b90838883013e612c4d565b38611f5a565b6119e4611fcb916102109360405193849263c3b5563560e01b60208501526040602485015260648401906112a7565b901515604483015203601f1981018352826101e2565b61200f6119e46102109260405192839163104c13eb60e21b60208401526020602484015260448301906112a7565b03601f1981018352826101e2565b3d610800808211612044575b50604051906020818301016040528082526000602083013e90565b905038612029565b6003111561205657565b634e487b7160e01b600052602160045260246000fd5b90949392946003811015612056576060926120949183526080602084015260808301906112a7565b9460408201520152565b9060206109e09281815201906112a7565b91905a8351916120be83612c7b565b60e08401519091906001600160a01b03168061215a575083516001600160a01b0316925b5a9003019260a06060820151910151016080860151840390818111612146575b5050820260408501519181831060001461212d5750509081610210929461212881612d66565b612ca5565b9461214082968361021096950390612c0b565b50612ca5565b6064919003600a0204909201913880612102565b926120e2565b939290935a9285519261217284612c7b565b60e085015190926001600160a01b0390911690818061223c57505084516001600160a01b03169050945b5a9003019260a06060820151910151016080870151840390818111612228575b50508202604086015193818510600014612203575050806121de60029261204c565b036121f25781610210929461212881612d66565b63deadaa5160e01b60005260206000fd5b916122178297929384610210970390612c0b565b506122218161204c565b1590612d06565b6064919003600a02049092019138806121bc565b9691815161224c575b505061219c565b6122558661204c565b60028603156122455760a087015191813b1561027157869286600080948861229684604051998a9889978895637c627b2160e01b875202916004860161206c565b0393f190816122d0575b506122c957610b746122b061201d565b604051632b5e552f60e21b81529182916004830161209e565b3880612245565b806111226122dd9261017d565b386122a0565b60028054146122f25760028055565b604051633ee5aeb560e01b8152600490fd5b6123326119e4610210926040519283916309710a9d60e41b60208401526040602484015260648301906112a7565b6000604483015203601f1981018352826101e2565b6119e461237691610210936040519384926309710a9d60e41b60208501526040602485015260648401906112a7565b90604483015203601f1981018352826101e2565b1561239157565b60405162461bcd60e51b815260206004820152601860248201527f41413934206761732076616c756573206f766572666c6f7700000000000000006044820152606490fd5b9290916000925a82516123e98184612e8a565b6123f283611694565b602085015260408101519661243e6effffffffffffffffffffffffffffff8960c08501511760608501511760808501511760a0850151176101008501511761012085015117111561238a565b61246982610100604082015160608301510160808301510160a08301510160c0830151019101510290565b906124778983888885613039565b835190999061249c90612498906001600160a01b031660208701519061320a565b1590565b61254f575a8503116125025760e09290920151606092906001600160a01b03166124df575b50604085015260608401526080919060a0905a900391013501910152565b81859492985060a09350866080966124f6936132ef565b979092509092936124c1565b60408051631101335b60e11b815260048101929092526024820152601e60448201527f41413236206f76657220766572696669636174696f6e4761734c696d697400006064820152608490fd5b60408051631101335b60e11b8152600481018490526024810191909152601a60448201527f4141323520696e76616c6964206163636f756e74206e6f6e63650000000000006064820152608490fd5b604051906125ab826101c7565b600f82526e3b30b634b230ba34b7b72230ba309d60891b6020830152565b604051906125d6826101c7565b600b82526a30b3b3b932b3b0ba37b91d60a91b6020830152565b919061260c906126078161260261259e565b612347565b613480565b61261b826113649493946125c9565b6001600160a01b03928316612730576126e15761263790613480565b911661269b576126445750565b60408051631101335b60e11b815260048101929092526024820152602160448201527f41413332207061796d61737465722065787069726564206f72206e6f742064756064820152606560f81b608482015260a490fd5b60408051631101335b60e11b8152600481018490526024810191909152601460448201527320a0999a1039b4b3b730ba3ab9329032b93937b960611b6064820152608490fd5b60408051631101335b60e11b8152600481018590526024810191909152601760448201527f414132322065787069726564206f72206e6f74206475650000000000000000006064820152608490fd5b60408051631101335b60e11b8152600481018690526024810191909152601460448201527320a0991a1039b4b3b730ba3ab9329032b93937b960611b6064820152608490fd5b929190612789906126078161260261259e565b9092612797846113646125c9565b6001600160a01b0393841690841603612730576126e15761263790613480565b604051906127c4826101c7565b60078252660d0d0d0d0d0d0d60ca1b6020830152565b805180516001600160a01b031683526101a091608091602081015160208601526040810151604086015260608101516060860152828101518386015260a081015160a086015260c081015160c086015261284360e082015160e087019060018060a01b03169052565b610100808201519086015261012080910151908501526020810151610140850152604081015161016085015260608101516101808501520151910152565b9061289c6128a7916109e0969461020080865285019161190e565b9360208301906127da565b6101e08184039101526112a7565b604051906128c2826101c7565b60078252663333333333333360c81b6020830152565b9291906128ef602091604086526040860190611c8a565b930152565b6128a761289c6109e095936102008085528401906112a7565b9092915a60608201519160008160409485519861292d6060820182611c27565b859160038211612b50575b638dd7712f60e01b926001600160e01b03191683148714612b10575050906117c96129b293926129696113a96128b5565b61298460208701518b519485936020850152602484016128d8565b0392612998601f19948581018552846101e2565b89516242dc5360e01b6020820152958693602485016128f4565b6020918183809351910182305af1600051978552156129d3575b5050505050565b9091929394955060003d8214612b06575b63deaddead60e01b8103612a30578451631101335b60e11b81526004810187905260406024820152600f60448201526e41413935206f7574206f662067617360881b6064820152608490fd5b92945090929163deadaa5160e01b03612a7c5750612a61612a56612a7093945a90611616565b6080850151906114ea565b90830151836121288295612d66565b905b38808080806129cc565b8083015183518051920151612b0095612afa94612aef949193917ff62676f440ff169a3a9afdbf812e89e7f95975ee8e5c31214ffdef631c5f479291906001600160a01b0316612ae5612acd61201d565b92516001600160a01b039092169591928392836112cc565b0390a35a90611616565b6080830151906114ea565b906120af565b90612a72565b8181803e516129e4565b925093505061200f612b4292612b276113a96127b7565b8689519586946242dc5360e01b602087015260248601612881565b612b4b81612c4d565b6129b2565b80359250612938565b6001600160a01b03168015612bc657600080809381935af1612b79611623565b5015612b8157565b60405162461bcd60e51b815260206004820152601f60248201527f41413931206661696c65642073656e6420746f2062656e6566696369617279006044820152606490fd5b60405162461bcd60e51b815260206004820152601860248201527f4141393020696e76616c69642062656e656669636961727900000000000000006044820152606490fd5b60018060a01b03166000526000602052604060002080549182018092116114f75781905590565b600080916020815191016a636f6e736f6c652e6c6f675afa50565b61200f6119e4610210926040519283916305f3bfab60e11b60208401526020602484015260448301906112a7565b610120610100820151910151808214612ca157480180821015612c9c575090565b905090565b5090565b9190917f49628fd1471006c1482da88028e9ce4dbb080b815c9b0344d39e5a8e6ec1419f6080602083015192519460018060a01b03946020868851169660e089015116970151916040519283526000602084015260408301526060820152a4565b9060807f49628fd1471006c1482da88028e9ce4dbb080b815c9b0344d39e5a8e6ec1419f91602084015193519560018060a01b03956020878951169760e08a015116980151926040519384521515602084015260408301526060820152a4565b60208101519051907f67b4fa9642f42120bf031f3051d1824b0fe25627945b27b8a6a65d5761d5482e60208060018060a01b03855116940151604051908152a3565b60405190612db5826101ac565b602982526823b0b9a634b6b4ba1d60b91b6040837f5f636f7079557365724f70546f4d656d6f72795f766572696669636174696f6e60208201520152565b60405190612e00826101ac565b602982526832b2a832b923b0b99d60b91b6040837f5f636f7079557365724f70546f4d656d6f72795f6d61785072696f726974794660208201520152565b15612e4557565b60405162461bcd60e51b815260206004820152601d60248201527f4141393320696e76616c6964207061796d6173746572416e64446174610000006044820152606490fd5b612f2790612ea7612e9a82611bd1565b6001600160a01b03168452565b60208101356020840152612ee1612ece6080830135906001600160801b038260801c921690565b6060860152806040860152612602612da8565b60a081013560c0840152612f1d612f0860c0830135906001600160801b038260801c921690565b61010086015280610120860152612602612df3565b60e0810190611c27565b908115612f6357612f4b8260e092612f46603461021097961015612e3e565b6135a4565b60a085015260808401526001600160a01b0316910152565b505060a081600060e0819401528260808201520152565b60405190612f87826101c7565b60158252743b32b934b334b1b0ba34b7b723b0b9a634b6b4ba1d60591b6020830152565b90816020910312610271575190565b612fd260409295949395606083526060830190611c8a565b9460208201520152565b60a0906109e09392815260606020820152600d60608201526c10504c8cc81c995d995c9d1959609a1b608082015281604082015201906112a7565b60405190613024826101c7565b600682526531313131313160d01b6020830152565b9492919360206130cf9186519361308460e061305b875160018060a01b031690565b966130768b8d61306e6040880188611c27565b92909161361c565b01516001600160a01b031690565b6001600160a01b039081161598600093919291908a6131cd575b90856000926130af83612602612f7a565b01516040516306608bdf60e21b8152978896879586939060048501612fba565b0393881690f16000918161319c575b5061310957856130ec61201d565b6040516365c8fd4d60e01b8152918291610b749160048401612fdc565b94929361311557505050565b61313e906131246113a9613017565b6001600160a01b0316600090815260208190526040902090565b9182549081831161314f5750039055565b60408051631101335b60e11b815260048101929092526024820152601760448201527f41413231206469646e2774207061792070726566756e640000000000000000006064820152608490fd5b6131bf91925060203d6020116131c6575b6131b781836101e2565b810190612fab565b90386130de565b503d6131ad565b6001600160a01b038816600090815260208190526040812054919550919089811115613201575085825b959192505061309e565b86908a036131f7565b6001600160a01b0316600090815260016020908152604080832084821c845290915290208054916001600160401b039161324384611607565b9055161490565b91906040838203126102715782516001600160401b0381116102715783019080601f83011215610271578151916132808361021f565b9161328e60405193846101e2565b83835260208483010111610271576020926132ae91848085019101611284565b92015190565b60a0906109e09392815260606020820152600d60608201526c10504cccc81c995d995c9d1959609a1b608082015281604082015201906112a7565b929390915a815160e08101516001600160a01b031660008181526020819052604090209295909290919080548981106134315760206080600096948c969461335a9c9d8995039055015196015191604051998a95869485936314add44b60e21b855260048501612fba565b03926001600160a01b031686f1938460009160009661340a575b5061339f578561338261201d565b6040516365c8fd4d60e01b8152918291610b7491600484016132b4565b9491925a9003116133ad5750565b60408051631101335b60e11b815260048101929092526024820152602760448201527f41413336206f766572207061796d6173746572566572696669636174696f6e47606482015266185cd31a5b5a5d60ca1b608482015260a490fd5b90955061342a91503d806000833e61342281836101e2565b81019061324a565b9438613374565b60408051631101335b60e11b8152600481018b90526024810191909152601e60448201527f41413331207061796d6173746572206465706f73697420746f6f206c6f7700006064820152608490fd5b801561355157600060408051613495816101ac565b828152826020820152015265ffffffffffff90818160a01c16918215613547575b5061352990613510613505604051946134ce866101ac565b6001600160a01b03841686526134f3602087019460d01c859065ffffffffffff169052565b65ffffffffffff166040860181905290565b65ffffffffffff1690565b421190811561352c575b5091516001600160a01b031690565b91565b5161353f915065ffffffffffff16613505565b42103861351a565b91506135296134b6565b50600090600090565b816040519182372090565b906014116102715790601490565b6bffffffffffffffffffffffff19903581811693926014811061359557505050565b60140360031b82901b16169150565b908060141161027157806024116102715760341161027157803560601c916024601483013560801c92013560801c90565b604051906135e2826101c7565b600882526739b2b73232b9189d60c11b6020830152565b60405190613606826101c7565b600782526639b2b73232b91d60c91b6020830152565b9091928061362b575b50505050565b8251516001600160a01b031693843b6138555783516040908101518151632b870d1b60e11b8152919491906001600160a01b03906020908390816000816136768b8b6004840161192f565b0392867f00000000000000000000000000000000000000000000000000000000000000001690f1918215610c5657600092613834575b506136b9826113646135d5565b6136c5886113646135f9565b8082169788156137e8571680970361379c573b1561374f57506137166137107fd51a9c61267aa6196961883ecf5ff2da6619c37dac0fa92122513fb32c032d2d949361371c93613565565b90613573565b60601c90565b602084810151945160e0015192516001600160a01b0392831681529190921691810191909152604090a338808080613625565b8351631101335b60e11b8152600481019190915260406024820152602060448201527f4141313520696e6974436f6465206d757374206372656174652073656e6465726064820152608490fd5b8451631101335b60e11b81526004810183905260406024820152602060448201527f4141313420696e6974436f6465206d7573742072657475726e2073656e6465726064820152608490fd5b8651631101335b60e11b81526004810185905260406024820152601b60448201527f4141313320696e6974436f6465206661696c6564206f72204f4f4700000000006064820152608490fd5b61384e91925060203d602011610c4f57610c4081836101e2565b90386136ac565b60408051631101335b60e11b8152600481018590526024810191909152601f60448201527f414131302073656e64657220616c726561647920636f6e7374727563746564006064820152608490fdfea2646970667358221220888623300ab7030b9aed756895a443c0a6e9b4bb85b01c09530d48454972239364736f6c6343000819003360808060405234601557610233908161001b8239f35b600080fdfe6080600436101561000f57600080fd5b6000803560e01c63570e1a361461002557600080fd5b346101c257602091826003193601126101be5767ffffffffffffffff906004358281116101ba57366023820112156101ba578060040135918383116101b65736602484840101116101b657826014116101b657602482013560601c92604094858301838110828211176101a257865260088352673330b1ba37b93c9d60c11b888401528551878982019163319af33360e01b83528860248201528551958660648301528b835b88811061018b5750505091828260848882960101526101056084828b601f80199b8c926044850152011681010360648101845201826101c5565b51906a636f6e736f6c652e6c6f675afa5060131982019081116101775787949287600c81969482946101408a8c5196600b85011601866101c5565b80855260388a8601970187378301015251925af1918051921561016f575b50516001600160a01b039091168152f35b91503861015e565b634e487b7160e01b87526041600452602487fd5b808301820151818501608401528c945081016100cb565b634e487b7160e01b88526041600452602488fd5b8480fd5b8380fd5b5080fd5b80fd5b90601f8019910116810190811067ffffffffffffffff8211176101e757604052565b634e487b7160e01b600052604160045260246000fdfea2646970667358221220e35984118e39c8bef131ded29dd8f40b35938e70ccb596624a64731524b7f1f964736f6c63430008190033",
        "linkReferences": {}
    },
    "methodIdentifiers": {
        "addStake(uint32)": "0396cb60",
        "balanceOf(address)": "70a08231",
        "delegateAndRevert(address,bytes)": "850aaf62",
        "depositTo(address)": "b760faf9",
        "deposits(address)": "fc7e286d",
        "getDepositInfo(address)": "5287ce12",
        "getNonce(address,uint192)": "35567e1a",
        "getSenderAddress(bytes)": "9b249f69",
        "getUserOpHash((address,uint256,bytes,bytes,bytes32,uint256,bytes32,bytes,bytes))": "22cdde4c",
        "handleAggregatedOps(((address,uint256,bytes,bytes,bytes32,uint256,bytes32,bytes,bytes)[],address,bytes)[],address)": "dbed18e0",
        "handleOps((address,uint256,bytes,bytes,bytes32,uint256,bytes32,bytes,bytes)[],address)": "765e827f",
        "incrementNonce(uint192)": "0bd28e3b",
        "innerHandleOp(bytes,((address,uint256,uint256,uint256,uint256,uint256,uint256,address,uint256,uint256),bytes32,uint256,uint256,uint256),bytes)": "0042dc53",
        "nonceSequenceNumber(address,uint192)": "1b2e01b8",
        "supportsInterface(bytes4)": "01ffc9a7",
        "unlockStake()": "bb9fe6bf",
        "withdrawStake(address)": "c23a5cea",
        "withdrawTo(address,uint256)": "205c2878"
    },
    "id": 93
}