{"abi":[{"type":"receive","stateMutability":"payable"},{"type":"function","name":"addStake","inputs":[{"name":"unstakeDelaySec","type":"uint32","internalType":"uint32"}],"outputs":[],"stateMutability":"payable"},{"type":"function","name":"balanceOf","inputs":[{"name":"account","type":"address","internalType":"address"}],"outputs":[{"name":"","type":"uint256","internalType":"uint256"}],"stateMutability":"view"},{"type":"function","name":"delegateAndRevert","inputs":[{"name":"target","type":"address","internalType":"address"},{"name":"data","type":"bytes","internalType":"bytes"}],"outputs":[],"stateMutability":"nonpayable"},{"type":"function","name":"depositTo","inputs":[{"name":"account","type":"address","internalType":"address"}],"outputs":[],"stateMutability":"payable"},{"type":"function","name":"deposits","inputs":[{"name":"","type":"address","internalType":"address"}],"outputs":[{"name":"deposit","type":"uint256","internalType":"uint256"},{"name":"staked","type":"bool","internalType":"bool"},{"name":"stake","type":"uint112","internalType":"uint112"},{"name":"unstakeDelaySec","type":"uint32","internalType":"uint32"},{"name":"withdrawTime","type":"uint48","internalType":"uint48"}],"stateMutability":"view"},{"type":"function","name":"getDepositInfo","inputs":[{"name":"account","type":"address","internalType":"address"}],"outputs":[{"name":"info","type":"tuple","internalType":"struct IStakeManager.DepositInfo","components":[{"name":"deposit","type":"uint256","internalType":"uint256"},{"name":"staked","type":"bool","internalType":"bool"},{"name":"stake","type":"uint112","internalType":"uint112"},{"name":"unstakeDelaySec","type":"uint32","internalType":"uint32"},{"name":"withdrawTime","type":"uint48","internalType":"uint48"}]}],"stateMutability":"view"},{"type":"function","name":"getNonce","inputs":[{"name":"sender","type":"address","internalType":"address"},{"name":"key","type":"uint192","internalType":"uint192"}],"outputs":[{"name":"nonce","type":"uint256","internalType":"uint256"}],"stateMutability":"view"},{"type":"function","name":"getSenderAddress","inputs":[{"name":"initCode","type":"bytes","internalType":"bytes"}],"outputs":[],"stateMutability":"nonpayable"},{"type":"function","name":"getUserOpHash","inputs":[{"name":"userOp","type":"tuple","internalType":"struct PackedUserOperation","components":[{"name":"sender","type":"address","internalType":"address"},{"name":"nonce","type":"uint256","internalType":"uint256"},{"name":"initCode","type":"bytes","internalType":"bytes"},{"name":"callData","type":"bytes","internalType":"bytes"},{"name":"accountGasLimits","type":"bytes32","internalType":"bytes32"},{"name":"preVerificationGas","type":"uint256","internalType":"uint256"},{"name":"gasFees","type":"bytes32","internalType":"bytes32"},{"name":"paymasterAndData","type":"bytes","internalType":"bytes"},{"name":"signature","type":"bytes","internalType":"bytes"}]}],"outputs":[{"name":"","type":"bytes32","internalType":"bytes32"}],"stateMutability":"view"},{"type":"function","name":"handleAggregatedOps","inputs":[{"name":"opsPerAggregator","type":"tuple[]","internalType":"struct IEntryPoint.UserOpsPerAggregator[]","components":[{"name":"userOps","type":"tuple[]","internalType":"struct PackedUserOperation[]","components":[{"name":"sender","type":"address","internalType":"address"},{"name":"nonce","type":"uint256","internalType":"uint256"},{"name":"initCode","type":"bytes","internalType":"bytes"},{"name":"callData","type":"bytes","internalType":"bytes"},{"name":"accountGasLimits","type":"bytes32","internalType":"bytes32"},{"name":"preVerificationGas","type":"uint256","internalType":"uint256"},{"name":"gasFees","type":"bytes32","internalType":"bytes32"},{"name":"paymasterAndData","type":"bytes","internalType":"bytes"},{"name":"signature","type":"bytes","internalType":"bytes"}]},{"name":"aggregator","type":"address","internalType":"contract IAggregator"},{"name":"signature","type":"bytes","internalType":"bytes"}]},{"name":"beneficiary","type":"address","internalType":"address payable"}],"outputs":[],"stateMutability":"nonpayable"},{"type":"function","name":"handleOps","inputs":[{"name":"ops","type":"tuple[]","internalType":"struct PackedUserOperation[]","components":[{"name":"sender","type":"address","internalType":"address"},{"name":"nonce","type":"uint256","internalType":"uint256"},{"name":"initCode","type":"bytes","internalType":"bytes"},{"name":"callData","type":"bytes","internalType":"bytes"},{"name":"accountGasLimits","type":"bytes32","internalType":"bytes32"},{"name":"preVerificationGas","type":"uint256","internalType":"uint256"},{"name":"gasFees","type":"bytes32","internalType":"bytes32"},{"name":"paymasterAndData","type":"bytes","internalType":"bytes"},{"name":"signature","type":"bytes","internalType":"bytes"}]},{"name":"beneficiary","type":"address","internalType":"address payable"}],"outputs":[],"stateMutability":"nonpayable"},{"type":"function","name":"incrementNonce","inputs":[{"name":"key","type":"uint192","internalType":"uint192"}],"outputs":[],"stateMutability":"nonpayable"},{"type":"function","name":"innerHandleOp","inputs":[{"name":"callData","type":"bytes","internalType":"bytes"},{"name":"opInfo","type":"tuple","internalType":"struct EntryPoint.UserOpInfo","components":[{"name":"mUserOp","type":"tuple","internalType":"struct EntryPoint.MemoryUserOp","components":[{"name":"sender","type":"address","internalType":"address"},{"name":"nonce","type":"uint256","internalType":"uint256"},{"name":"verificationGasLimit","type":"uint256","internalType":"uint256"},{"name":"callGasLimit","type":"uint256","internalType":"uint256"},{"name":"paymasterVerificationGasLimit","type":"uint256","internalType":"uint256"},{"name":"paymasterPostOpGasLimit","type":"uint256","internalType":"uint256"},{"name":"preVerificationGas","type":"uint256","internalType":"uint256"},{"name":"paymaster","type":"address","internalType":"address"},{"name":"maxFeePerGas","type":"uint256","internalType":"uint256"},{"name":"maxPriorityFeePerGas","type":"uint256","internalType":"uint256"}]},{"name":"userOpHash","type":"bytes32","internalType":"bytes32"},{"name":"prefund","type":"uint256","internalType":"uint256"},{"name":"contextOffset","type":"uint256","internalType":"uint256"},{"name":"preOpGas","type":"uint256","internalType":"uint256"}]},{"name":"context","type":"bytes","internalType":"bytes"}],"outputs":[{"name":"actualGasCost","type":"uint256","internalType":"uint256"}],"stateMutability":"nonpayable"},{"type":"function","name":"nonceSequenceNumber","inputs":[{"name":"","type":"address","internalType":"address"},{"name":"","type":"uint192","internalType":"uint192"}],"outputs":[{"name":"","type":"uint256","internalType":"uint256"}],"stateMutability":"view"},{"type":"function","name":"supportsInterface","inputs":[{"name":"interfaceId","type":"bytes4","internalType":"bytes4"}],"outputs":[{"name":"","type":"bool","internalType":"bool"}],"stateMutability":"view"},{"type":"function","name":"unlockStake","inputs":[],"outputs":[],"stateMutability":"nonpayable"},{"type":"function","name":"withdrawStake","inputs":[{"name":"withdrawAddress","type":"address","internalType":"address payable"}],"outputs":[],"stateMutability":"nonpayable"},{"type":"function","name":"withdrawTo","inputs":[{"name":"withdrawAddress","type":"address","internalType":"address payable"},{"name":"withdrawAmount","type":"uint256","internalType":"uint256"}],"outputs":[],"stateMutability":"nonpayable"},{"type":"event","name":"AccountDeployed","inputs":[{"name":"userOpHash","type":"bytes32","indexed":true,"internalType":"bytes32"},{"name":"sender","type":"address","indexed":true,"internalType":"address"},{"name":"factory","type":"address","indexed":false,"internalType":"address"},{"name":"paymaster","type":"address","indexed":false,"internalType":"address"}],"anonymous":false},{"type":"event","name":"BeforeExecution","inputs":[],"anonymous":false},{"type":"event","name":"Deposited","inputs":[{"name":"account","type":"address","indexed":true,"internalType":"address"},{"name":"totalDeposit","type":"uint256","indexed":false,"internalType":"uint256"}],"anonymous":false},{"type":"event","name":"PostOpRevertReason","inputs":[{"name":"userOpHash","type":"bytes32","indexed":true,"internalType":"bytes32"},{"name":"sender","type":"address","indexed":true,"internalType":"address"},{"name":"nonce","type":"uint256","indexed":false,"internalType":"uint256"},{"name":"revertReason","type":"bytes","indexed":false,"internalType":"bytes"}],"anonymous":false},{"type":"event","name":"SignatureAggregatorChanged","inputs":[{"name":"aggregator","type":"address","indexed":true,"internalType":"address"}],"anonymous":false},{"type":"event","name":"StakeLocked","inputs":[{"name":"account","type":"address","indexed":true,"internalType":"address"},{"name":"totalStaked","type":"uint256","indexed":false,"internalType":"uint256"},{"name":"unstakeDelaySec","type":"uint256","indexed":false,"internalType":"uint256"}],"anonymous":false},{"type":"event","name":"StakeUnlocked","inputs":[{"name":"account","type":"address","indexed":true,"internalType":"address"},{"name":"withdrawTime","type":"uint256","indexed":false,"internalType":"uint256"}],"anonymous":false},{"type":"event","name":"StakeWithdrawn","inputs":[{"name":"account","type":"address","indexed":true,"internalType":"address"},{"name":"withdrawAddress","type":"address","indexed":false,"internalType":"address"},{"name":"amount","type":"uint256","indexed":false,"internalType":"uint256"}],"anonymous":false},{"type":"event","name":"UserOperationEvent","inputs":[{"name":"userOpHash","type":"bytes32","indexed":true,"internalType":"bytes32"},{"name":"sender","type":"address","indexed":true,"internalType":"address"},{"name":"paymaster","type":"address","indexed":true,"internalType":"address"},{"name":"nonce","type":"uint256","indexed":false,"internalType":"uint256"},{"name":"success","type":"bool","indexed":false,"internalType":"bool"},{"name":"actualGasCost","type":"uint256","indexed":false,"internalType":"uint256"},{"name":"actualGasUsed","type":"uint256","indexed":false,"internalType":"uint256"}],"anonymous":false},{"type":"event","name":"UserOperationPrefundTooLow","inputs":[{"name":"userOpHash","type":"bytes32","indexed":true,"internalType":"bytes32"},{"name":"sender","type":"address","indexed":true,"internalType":"address"},{"name":"nonce","type":"uint256","indexed":false,"internalType":"uint256"}],"anonymous":false},{"type":"event","name":"UserOperationRevertReason","inputs":[{"name":"userOpHash","type":"bytes32","indexed":true,"internalType":"bytes32"},{"name":"sender","type":"address","indexed":true,"internalType":"address"},{"name":"nonce","type":"uint256","indexed":false,"internalType":"uint256"},{"name":"revertReason","type":"bytes","indexed":false,"internalType":"bytes"}],"anonymous":false},{"type":"event","name":"Withdrawn","inputs":[{"name":"account","type":"address","indexed":true,"internalType":"address"},{"name":"withdrawAddress","type":"address","indexed":false,"internalType":"address"},{"name":"amount","type":"uint256","indexed":false,"internalType":"uint256"}],"anonymous":false},{"type":"error","name":"DelegateAndRevert","inputs":[{"name":"success","type":"bool","internalType":"bool"},{"name":"ret","type":"bytes","internalType":"bytes"}]},{"type":"error","name":"FailedOp","inputs":[{"name":"opIndex","type":"uint256","internalType":"uint256"},{"name":"reason","type":"string","internalType":"string"}]},{"type":"error","name":"FailedOpWithRevert","inputs":[{"name":"opIndex","type":"uint256","internalType":"uint256"},{"name":"reason","type":"string","internalType":"string"},{"name":"inner","type":"bytes","internalType":"bytes"}]},{"type":"error","name":"PostOpReverted","inputs":[{"name":"returnData","type":"bytes","internalType":"bytes"}]},{"type":"error","name":"ReentrancyGuardReentrantCall","inputs":[]},{"type":"error","name":"SenderAddressResult","inputs":[{"name":"sender","type":"address","internalType":"address"}]},{"type":"error","name":"SignatureValidationFailed","inputs":[{"name":"aggregator","type":"address","internalType":"address"}]}],"bytecode":{"object":"0x60a0604052604051600e90604b565b604051809103906000f0801580156029573d6000803e3d6000fd5b506001600160a01b0316608052348015604157600080fd5b5060016002556058565b61030680613f8b83390190565b608051613f1161007a60003960008181610f450152612d760152613f116000f3fe60806040526004361061010c5760003560e01c806370a0823111610095578063b760faf911610064578063b760faf91461043d578063bb9fe6bf14610450578063c23a5cea14610465578063dbed18e014610485578063fc7e286d146104a557600080fd5b806370a08231146103a7578063765e827f146103dd578063850aaf62146103fd5780639b249f691461041d57600080fd5b80631b2e01b8116100dc5780631b2e01b8146101b7578063205c2878146101ef57806322cdde4c1461020f57806335567e1a1461022f5780635287ce121461028f57600080fd5b806242dc531461012157806301ffc9a7146101545780630396cb60146101845780630bd28e3b1461019757600080fd5b3661011c5761011a3361054d565b005b600080fd5b34801561012d57600080fd5b5061014161013c366004613322565b6105ce565b6040519081526020015b60405180910390f35b34801561016057600080fd5b5061017461016f3660046133e1565b6107fc565b604051901515815260200161014b565b61011a61019236600461340b565b610884565b3480156101a357600080fd5b5061011a6101b2366004613448565b610b13565b3480156101c357600080fd5b506101416101d2366004613463565b600160209081526000928352604080842090915290825290205481565b3480156101fb57600080fd5b5061011a61020a366004613498565b610b4a565b34801561021b57600080fd5b5061014161022a3660046134c4565b610c9b565b34801561023b57600080fd5b5061014161024a366004613463565b6001600160a01b03821660009081526001602090815260408083206001600160c01b038516845290915290819020549082901b67ffffffffffffffff19161792915050565b34801561029b57600080fd5b5061034c6102aa3660046134ff565b6040805160a081018252600080825260208201819052918101829052606081018290526080810191909152506001600160a01b031660009081526020818152604091829020825160a0810184528154815260019091015460ff811615159282019290925261010082046001600160701b031692810192909252600160781b810463ffffffff166060830152600160981b900465ffffffffffff16608082015290565b60405161014b9190600060a082019050825182526020830151151560208301526001600160701b03604084015116604083015263ffffffff606084015116606083015265ffffffffffff608084015116608083015292915050565b3480156103b357600080fd5b506101416103c23660046134ff565b6001600160a01b031660009081526020819052604090205490565b3480156103e957600080fd5b5061011a6103f8366004613560565b610cfe565b34801561040957600080fd5b5061011a6104183660046135b6565b610eac565b34801561042957600080fd5b5061011a61043836600461360a565b610f2b565b61011a61044b3660046134ff565b61054d565b34801561045c57600080fd5b5061011a610fe6565b34801561047157600080fd5b5061011a6104803660046134ff565b611112565b34801561049157600080fd5b5061011a6104a0366004613560565b611336565b3480156104b157600080fd5b5061050a6104c03660046134ff565b6000602081905290815260409020805460019091015460ff81169061010081046001600160701b031690600160781b810463ffffffff1690600160981b900465ffffffffffff1685565b6040805195865293151560208601526001600160701b039092169284019290925263ffffffff909116606083015265ffffffffffff16608082015260a00161014b565b610579604051806040016040528060098152602001686465706f736974546f60b81b815250823461174f565b60006105858234611796565b9050816001600160a01b03167f2da466a7b24304f47e87fa2e1e5a81b9831ce54fec19055ce277ca2f39ba42c4826040516105c291815260200190565b60405180910390a25050565b6000805a90503330146106285760405162461bcd60e51b815260206004820152601760248201527f4141393220696e7465726e616c2063616c6c206f6e6c7900000000000000000060448201526064015b60405180910390fd5b8451606081015160a082015181016127100160405a603f028161064d5761064d61364b565b0410156106655763deaddead60e01b60005260206000fd5b87516000901561079e5761069b6040518060400160405280600681526020016535353535353560d01b81525084600001516117c9565b60006106ae846000015160008c86611812565b90506106da6040518060400160405280600881526020016739bab1b1b2b9b99d60c11b8152508261198c565b8061079c57610706604051806040016040528060068152602001651b1b1b1b1b1b60d11b8152506119d1565b6000610713610800611a17565b80519091501561079657610745604051806040016040528060078152602001663737373737373760c81b8152506119d1565b84600001516001600160a01b03168a602001517f1c4fada7374c0a9ee8841fc38afe82932dc0f8e69012e927f061a8bae611a20187602001518460405161078d9291906136b1565b60405180910390a35b60019250505b505b600088608001515a86030190506107ee828a8a8a8080601f016020809104026020016040519081016040528093929190818152602001838380828437600092019190915250879250611a43915050565b9a9950505050505050505050565b60006001600160e01b0319821663307e35b760e11b148061082d57506001600160e01b0319821663122a0e9b60e31b145b8061084857506001600160e01b0319821663cf28ef9760e01b145b8061086357506001600160e01b03198216633e84f02160e01b145b8061087e57506301ffc9a760e01b6001600160e01b03198316145b92915050565b33600090815260208190526040902063ffffffff82166108e65760405162461bcd60e51b815260206004820152601a60248201527f6d757374207370656369667920756e7374616b652064656c6179000000000000604482015260640161061f565b600181015463ffffffff600160781b9091048116908316101561094b5760405162461bcd60e51b815260206004820152601c60248201527f63616e6e6f7420646563726561736520756e7374616b652074696d6500000000604482015260640161061f565b600181015460009061096c90349061010090046001600160701b03166136e0565b9050600081116109b35760405162461bcd60e51b81526020600482015260126024820152711b9bc81cdd185ad9481cdc1958da599a595960721b604482015260640161061f565b6001600160701b038111156109fb5760405162461bcd60e51b815260206004820152600e60248201526d7374616b65206f766572666c6f7760901b604482015260640161061f565b6040805160a08101825283548152600160208083018281526001600160701b0386811685870190815263ffffffff8a811660608801818152600060808a0181815233808352828a52918c90209a518b55965199909801805494519151965165ffffffffffff16600160981b0265ffffffffffff60981b1997909416600160781b029690961669ffffffffffffffffffff60781b1991909516610100026effffffffffffffffffffffffffff0019991515999099166effffffffffffffffffffffffffffff1990941693909317979097179190911691909117179055835185815290810192909252917fa5ae833d0bb1dcd632d98a8b70973e8516812898e19bf27b70071ebc8dc52c01910160405180910390a2505050565b3360009081526001602090815260408083206001600160c01b03851684529091528120805491610b42836136f3565b919050555050565b3360009081526020819052604090208054821115610baa5760405162461bcd60e51b815260206004820152601960248201527f576974686472617720616d6f756e7420746f6f206c6172676500000000000000604482015260640161061f565b8054610bb790839061370c565b8155604080516001600160a01b03851681526020810184905233917fd1c19fbcd4551a5edfb66d43d2e337c04837afda3482b42bdf569a8fccdae5fb910160405180910390a26000836001600160a01b03168360405160006040518083038185875af1925050503d8060008114610c4a576040519150601f19603f3d011682016040523d82523d6000602084013e610c4f565b606091505b5050905080610c955760405162461bcd60e51b81526020600482015260126024820152716661696c656420746f20776974686472617760701b604482015260640161061f565b50505050565b6000610cbe6040518060600160405280602f8152602001613ead602f91396119d1565b610cc782611c06565b6040805160208101929092523090820152466060820152608001604051602081830303815290604052805190602001209050919050565b610d06611c1f565b816000816001600160401b03811115610d2157610d21613125565b604051908082528060200260200182016040528015610d5a57816020015b610d4761308d565b815260200190600190039081610d3f5790505b509050610d8f6040518060400160405280601081526020016f3430b7323632a7b8399037b839b632b760811b81525083611c47565b60005b82811015610e05576000828281518110610dae57610dae61371f565b60200260200101519050600080610de9848a8a87818110610dd157610dd161371f565b9050602002810190610de39190613735565b85611c8c565b91509150610dfa8483836000611e92565b505050600101610d92565b506040516000907fbb47ee3e183a558b1a2ff0874b079f3fc5478b7454eacf2bfc5af2ff5878f972908290a160005b83811015610e8f57610e8381888884818110610e5257610e5261371f565b9050602002810190610e649190613735565b858481518110610e7657610e7661371f565b602002602001015161208c565b90910190600101610e34565b50610e9a84826123a0565b505050610ea76001600255565b505050565b600080846001600160a01b03168484604051610ec9929190613756565b600060405180830381855af49150503d8060008114610f04576040519150601f19603f3d011682016040523d82523d6000602084013e610f09565b606091505b50915091508181604051632650415560e21b815260040161061f929190613766565b604051632b870d1b60e11b81526000906001600160a01b037f0000000000000000000000000000000000000000000000000000000000000000169063570e1a3690610f7c90869086906004016137aa565b6020604051808303816000875af1158015610f9b573d6000803e3d6000fd5b505050506040513d601f19601f82011682018060405250810190610fbf91906137be565b604051633653dc0360e11b81526001600160a01b038216600482015290915060240161061f565b33600090815260208190526040812060018101549091600160781b90910463ffffffff1690036110455760405162461bcd60e51b815260206004820152600a6024820152691b9bdd081cdd185ad95960b21b604482015260640161061f565b600181015460ff1661108d5760405162461bcd60e51b8152602060048201526011602482015270616c726561647920756e7374616b696e6760781b604482015260640161061f565b60018101546000906110ac90600160781b900463ffffffff16426137db565b60018301805460ff65ffffffffffff60981b011916600160981b65ffffffffffff841690810260ff19169190911790915560405190815290915033907ffa9b3c14cc825c412c9ed81b3ba365a5b459439403f18829e572ed53a4180f0a906020016105c2565b336000908152602081905260409020600181015461010090046001600160701b0316806111785760405162461bcd60e51b81526020600482015260146024820152734e6f207374616b6520746f20776974686472617760601b604482015260640161061f565b6001820154600160981b900465ffffffffffff166111d85760405162461bcd60e51b815260206004820152601d60248201527f6d7573742063616c6c20756e6c6f636b5374616b652829206669727374000000604482015260640161061f565b600182015442600160981b90910465ffffffffffff16111561123c5760405162461bcd60e51b815260206004820152601b60248201527f5374616b65207769746864726177616c206973206e6f74206475650000000000604482015260640161061f565b600182018054610100600160c81b0319169055604080516001600160a01b03851681526020810183905233917fb7c918e0e249f999e965cafeb6c664271b3f4317d296461500e71da39f0cbda3910160405180910390a26000836001600160a01b03168260405160006040518083038185875af1925050503d80600081146112e0576040519150601f19603f3d011682016040523d82523d6000602084013e6112e5565b606091505b5050905080610c955760405162461bcd60e51b815260206004820152601860248201527f6661696c656420746f207769746864726177207374616b650000000000000000604482015260640161061f565b61133e611c1f565b816000805b828110156114ab573686868381811061135e5761135e61371f565b90506020028101906113709190613801565b905036600061137f8380613817565b9092509050600061139660408501602086016134ff565b90506000196001600160a01b038216016113f25760405162461bcd60e51b815260206004820152601760248201527f4141393620696e76616c69642061676772656761746f72000000000000000000604482015260640161061f565b6001600160a01b0381161561148f576001600160a01b038116632dd81133848461141f6040890189613860565b6040518563ffffffff1660e01b815260040161143e94939291906139ca565b60006040518083038186803b15801561145657600080fd5b505afa925050508015611467575060015b61148f5760405163086a9f7560e41b81526001600160a01b038216600482015260240161061f565b61149982876136e0565b95505060019093019250611343915050565b506000816001600160401b038111156114c6576114c6613125565b6040519080825280602002602001820160405280156114ff57816020015b6114ec61308d565b8152602001906001900390816114e45790505b5090506000805b848110156115dc57368888838181106115215761152161371f565b90506020028101906115339190613801565b90503660006115428380613817565b9092509050600061155960408501602086016134ff565b90508160005b818110156115ca57600089898151811061157b5761157b61371f565b6020026020010151905060008061159e8b898987818110610dd157610dd161371f565b915091506115ae84838389611e92565b8a6115b8816136f3565b9b50506001909301925061155f915050565b50506001909401935061150692505050565b506040517fbb47ee3e183a558b1a2ff0874b079f3fc5478b7454eacf2bfc5af2ff5878f97290600090a150600080805b8581101561170a57368989838181106116275761162761371f565b90506020028101906116399190613801565b905061164b60408201602083016134ff565b6001600160a01b03167f575ff3acadd5ab348fe1855e217e0f3678f8d767d7494c9f9fefbee2e17cca4d60405160405180910390a236600061168d8380613817565b90925090508060005b818110156116f9576116d8888585848181106116b4576116b461371f565b90506020028101906116c69190613735565b8b8b81518110610e7657610e7661371f565b6116e290886136e0565b9650876116ee816136f3565b985050600101611696565b50506001909301925061160c915050565b506040516000907f575ff3acadd5ab348fe1855e217e0f3678f8d767d7494c9f9fefbee2e17cca4d908290a261174086826123a0565b5050505050610ea76001600255565b610ea783838360405160240161176793929190613a47565b60408051601f198184030181529190526020810180516001600160e01b03166307c8121760e01b179052612499565b6001600160a01b0382166000908152602081905260408120805482906117bd9085906136e0565b91829055509392505050565b61180e82826040516024016117df929190613a75565b60408051601f198184030181529190526020810180516001600160e01b031663319af33360e01b179052612499565b5050565b60006118406040518060400160405280600a81526020016963616c6c696e6720746f60b01b815250866117c9565b6118676040518060400160405280600581526020016476616c756560d81b81525085611c47565b61188e60405180604001604052806005815260200164747847617360d81b81525083611c47565b611897836124ba565b6000806000855160208701888a88f191503d9050806000803e6118df6040518060400160405280600d81526020016c31b0b6361039bab1b1b2b9b99d60991b8152508361198c565b8161193e576000816001600160401b038111156118fe576118fe613125565b6040519080825280601f01601f191660200182016040528015611928576020820181803683370190505b509050816000602083013e61193c816124ba565b505b6000600385511115611951575060208401515b604080516004808252818301909252600091602082018180368337019050509050816020820152611981816124ba565b505050949350505050565b61180e82826040516024016119a2929190613a9f565b60408051601f198184030181529190526020810180516001600160e01b031663c3b5563560e01b179052612499565b611a14816040516024016119e59190613ac3565b60408051601f198184030181529190526020810180516001600160e01b031663104c13eb60e21b179052612499565b50565b60603d82811115611a255750815b604051602082018101604052818152816000602083013e9392505050565b6000805a855190915060009081611a59826124fd565b60e08301519091506001600160a01b038116611a785782519350611b34565b809350600088511115611b3457868202955060028a6002811115611a9e57611a9e613ad6565b14611b345760a0830151604051637c627b2160e01b81526001600160a01b03831691637c627b2191611ada908e908d908c908990600401613aec565b600060405180830381600088803b158015611af457600080fd5b5087f193505050508015611b06575060015b611b34576000611b17610800611a17565b905080604051632b5e552f60e21b815260040161061f9190613ac3565b5a60a0840151606085015160808c015192880399909901980190880380821115611b67576064600a828403020498909801975b50506040890151878302965086811015611bc35760028b6002811115611b8f57611b8f613ad6565b03611bb257809650611ba08a61252f565b611bad8a6000898b61257e565b611bf8565b63deadaa5160e01b60005260206000fd5b868103611bd08682611796565b506000808d6002811115611be657611be6613ad6565b149050611bf58c828b8d61257e565b50505b505050505050949350505050565b6000611c11826125f9565b805190602001209050919050565b6002805403611c4157604051633ee5aeb560e01b815260040160405180910390fd5b60028055565b61180e8282604051602401611c5d929190613b36565b60408051601f198184030181529190526020810180516001600160e01b03166309710a9d60e41b179052612499565b60008060005a8451909150611ca186826126b1565b611caa86610c9b565b6020860152604081015161012082015161010083015160a08401516080850151606086015160c0870151861717171717176effffffffffffffffffffffffffffff811115611d3a5760405162461bcd60e51b815260206004820152601860248201527f41413934206761732076616c756573206f766572666c6f770000000000000000604482015260640161061f565b6000611d698460c081015160a08201516080830151606084015160408501516101009095015194010101010290565b9050611d788a8a8a8487612821565b9650611d8c84600001518560200151612a16565b611de25789604051631101335b60e11b815260040161061f918152604060208201819052601a908201527f4141323520696e76616c6964206163636f756e74206e6f6e6365000000000000606082015260800190565b825a86031115611e3e5789604051631101335b60e11b815260040161061f918152604060208201819052601e908201527f41413236206f76657220766572696669636174696f6e4761734c696d69740000606082015260800190565b60e08401516060906001600160a01b031615611e6557611e608b8b8b85612a63565b975090505b604089018290528060608a015260a08a01355a870301896080018181525050505050505050935093915050565b611ec36040518060400160405280600f81526020016e3b30b634b230ba34b7b72230ba309d60891b81525084611c47565b600080611ecf85612c21565b91509150611f006040518060400160405280600b81526020016a30b3b3b932b3b0ba37b91d60a91b815250836117c9565b816001600160a01b0316836001600160a01b031614611f625785604051631101335b60e11b815260040161061f9181526040602082018190526014908201527320a0991a1039b4b3b730ba3ab9329032b93937b960611b606082015260800190565b8015611fba5785604051631101335b60e11b815260040161061f9181526040602082018190526017908201527f414132322065787069726564206f72206e6f7420647565000000000000000000606082015260800190565b6000611fc585612c21565b925090506001600160a01b038116156120215786604051631101335b60e11b815260040161061f9181526040602082018190526014908201527320a0999a1039b4b3b730ba3ab9329032b93937b960611b606082015260800190565b81156120835786604051631101335b60e11b815260040161061f9181526040602082018190526021908201527f41413332207061796d61737465722065787069726564206f72206e6f742064756060820152606560f81b608082015260a00190565b50505050505050565b6000805a9050600061209f846060015190565b60405190915060009036826120b760608a018a613860565b91509150606060008260038111156120ce57843591505b506372288ed160e01b6001600160e01b03198216016121a45761210f604051806040016040528060078152602001663333333333333360c81b8152506119d1565b60008b8b60200151604051602401612128929190613b58565b60408051601f198184030181529181526020820180516001600160e01b0316638dd7712f60e01b1790525190915030906242dc539061216f9084908f908d90602401613c15565b604051602081830303815290604052915060e01b6020820180516001600160e01b038381831617835250505050925050612229565b6121cc604051806040016040528060078152602001660d0d0d0d0d0d0d60ca1b8152506119d1565b306001600160a01b03166242dc5385858d8b6040516024016121f19493929190613c55565b604051602081830303815290604052915060e01b6020820180516001600160e01b0383818316178352505050509150612229826124ba565b602060008351602085016000305af195506000519850846040525050505050806123965760003d806020036122645760206000803e60005191505b5063deaddead60e01b81036122b75787604051631101335b60e11b815260040161061f918152604060208201819052600f908201526e41413935206f7574206f662067617360881b606082015260800190565b63deadaa5160e01b810361230857600086608001515a6122d7908761370c565b6122e191906136e0565b60408801519091506122f28861252f565b6122ff886000838561257e565b95506123949050565b855180516020808901519201516001600160a01b0390911691907ff62676f440ff169a3a9afdbf812e89e7f95975ee8e5c31214ffdef631c5f47929061234f610800611a17565b60405161235d9291906136b1565b60405180910390a3600086608001515a612377908761370c565b61238191906136e0565b90506123906002888684611a43565b9550505b505b5050509392505050565b6001600160a01b0382166123f65760405162461bcd60e51b815260206004820152601860248201527f4141393020696e76616c69642062656e65666963696172790000000000000000604482015260640161061f565b6000826001600160a01b03168260405160006040518083038185875af1925050503d8060008114612443576040519150601f19603f3d011682016040523d82523d6000602084013e612448565b606091505b5050905080610ea75760405162461bcd60e51b815260206004820152601f60248201527f41413931206661696c65642073656e6420746f2062656e656669636961727900604482015260640161061f565b80516a636f6e736f6c652e6c6f67602083016000808483855afa5050505050565b611a14816040516024016124ce9190613ac3565b60408051601f198184030181529190526020810180516001600160e01b03166305f3bfab60e11b179052612499565b6101008101516101208201516000919080820361251b575092915050565b61252782488301612c74565b949350505050565b80518051602080840151928101516040519081526001600160a01b0390921692917f67b4fa9642f42120bf031f3051d1824b0fe25627945b27b8a6a65d5761d5482e910160405180910390a350565b835160e081015181516020808801519301516040516001600160a01b039384169492909316927f49628fd1471006c1482da88028e9ce4dbb080b815c9b0344d39e5a8e6ec1419f916125eb9189908990899093845291151560208401526040830152606082015260800190565b60405180910390a450505050565b60608135602083013560006126196126146040870187613860565b612c8c565b9050600061262d6126146060880188613860565b9050608086013560a087013560c0880135600061265061261460e08c018c613860565b604080516001600160a01b039a909a1660208b015289810198909852606089019690965250608087019390935260a086019190915260c085015260e08401526101008084019190915281518084039091018152610120909201905292915050565b6126be60208301836134ff565b6001600160a01b03168152602082810135908201526080808301359081901c906001600160801b031682604001836060018281525082815250505061271f604051806060016040528060298152602001613e84602991398260400151611c47565b60a082013560c080830191909152820135608081901c906001600160801b0316610100830152610120820152604080516060810190915260298082526127739190613e5b6020830139826101200151611c47565b36600061278360e0850185613860565b909250905080156128065760348110156127df5760405162461bcd60e51b815260206004820152601d60248201527f4141393320696e76616c6964207061796d6173746572416e6444617461000000604482015260640161061f565b6127e98282612c9f565b60a086015260808501526001600160a01b031660e0840152610c95565b600060e084018190526080840181905260a084015250505050565b8251805160009190612840888761283b60408b018b613860565b612d07565b60e082015160006001600160a01b038216612884576001600160a01b03831660009081526020819052604090205487811161287d57808803612880565b60005b9150505b6128bb604051806040016040528060158152602001743b32b934b334b1b0ba34b7b723b0b9a634b6b4ba1d60591b81525087611c47565b60208801516040516306608bdf60e21b81526001600160a01b038516916319822f7c9189916128f1918e91908790600401613c8c565b60206040518083038160008887f19350505050801561292d575060408051601f3d908101601f1916820190925261292a91810190613cb1565b60015b612958578961293d610800611a17565b6040516365c8fd4d60e01b815260040161061f929190613cca565b94506001600160a01b038216612a095761298f6040518060400160405280600681526020016531313131313160d01b8152506119d1565b6001600160a01b0383166000908152602081905260409020805480891115612a03578b604051631101335b60e11b815260040161061f9181526040602082018190526017908201527f41413231206469646e2774207061792070726566756e64000000000000000000606082015260800190565b88900390555b5050505095945050505050565b6001600160a01b038216600090815260016020908152604080832084821c80855292528220805484916001600160401b038316919085612a55836136f3565b909155501495945050505050565b60606000805a855160e08101516001600160a01b03811660009081526020819052604090208054939450919290919087811015612aec578a604051631101335b60e11b815260040161061f918152604060208201819052601e908201527f41413331207061796d6173746572206465706f73697420746f6f206c6f770000606082015260800190565b8781038260000181905550600084608001519050836001600160a01b03166352b7512c828d8d602001518d6040518563ffffffff1660e01b8152600401612b3593929190613c8c565b60006040518083038160008887f193505050508015612b7657506040513d6000823e601f3d908101601f19168201604052612b739190810190613d07565b60015b612ba1578b612b86610800611a17565b6040516365c8fd4d60e01b815260040161061f929190613d87565b9098509650805a87031115612c12578b604051631101335b60e11b815260040161061f9181526040602082018190526027908201527f41413336206f766572207061796d6173746572566572696669636174696f6e47606082015266185cd31a5b5a5d60ca1b608082015260a00190565b50505050505094509492505050565b60008082600003612c3757506000928392509050565b6000612c428461301c565b9050806040015165ffffffffffff16421180612c695750806020015165ffffffffffff1642105b905194909350915050565b6000818310612c835781612c85565b825b9392505050565b6000604051828085833790209392505050565b60008080612cb06014828688613dc4565b612cb991613dee565b60601c612cca602460148789613dc4565b612cd391613e23565b60801c612ce460346024888a613dc4565b612ced91613e23565b9194506001600160801b0316925060801c90509250925092565b8015610c95578251516001600160a01b0381163b15612d725784604051631101335b60e11b815260040161061f918152604060208201819052601f908201527f414131302073656e64657220616c726561647920636f6e737472756374656400606082015260800190565b60007f00000000000000000000000000000000000000000000000000000000000000006001600160a01b031663570e1a3686600001516040015186866040518463ffffffff1660e01b8152600401612dcb9291906137aa565b60206040518083038160008887f1158015612dea573d6000803e3d6000fd5b50505050506040513d601f19601f82011682018060405250810190612e0f91906137be565b9050612e3b6040518060400160405280600881526020016739b2b73232b9189d60c11b815250826117c9565b612e646040518060400160405280600781526020016639b2b73232b91d60c91b815250836117c9565b6001600160a01b038116612ec45785604051631101335b60e11b815260040161061f918152604060208201819052601b908201527f4141313320696e6974436f6465206661696c6564206f72204f4f470000000000606082015260800190565b816001600160a01b0316816001600160a01b031614612f2e5785604051631101335b60e11b815260040161061f91815260406020808301829052908201527f4141313420696e6974436f6465206d7573742072657475726e2073656e646572606082015260800190565b806001600160a01b03163b600003612f915785604051631101335b60e11b815260040161061f91815260406020808301829052908201527f4141313520696e6974436f6465206d757374206372656174652073656e646572606082015260800190565b6000612fa06014828688613dc4565b612fa991613dee565b60601c9050826001600160a01b031686602001517fd51a9c61267aa6196961883ecf5ff2da6619c37dac0fa92122513fb32c032d2d83896000015160e0015160405161300b9291906001600160a01b0392831681529116602082015260400190565b60405180910390a350505050505050565b60408051606081018252600080825260208201819052918101919091528160a081901c65ffffffffffff8116600003613058575065ffffffffffff5b604080516060810182526001600160a01b03909316835260d09490941c602083015265ffffffffffff16928101929092525090565b6040518060a0016040528061310060405180610140016040528060006001600160a01b0316815260200160008152602001600081526020016000815260200160008152602001600081526020016000815260200160006001600160a01b0316815260200160008152602001600081525090565b8152602001600080191681526020016000815260200160008152602001600081525090565b634e487b7160e01b600052604160045260246000fd5b60405160a081016001600160401b038111828210171561315d5761315d613125565b60405290565b60405161014081016001600160401b038111828210171561315d5761315d613125565b604051601f8201601f191681016001600160401b03811182821017156131ae576131ae613125565b604052919050565b60006001600160401b038211156131cf576131cf613125565b50601f01601f191660200190565b6001600160a01b0381168114611a1457600080fd5b80356131fd816131dd565b919050565b60008183036101c081121561321657600080fd5b61321e61313b565b91506101408082121561323057600080fd5b613238613163565b9150613243846131f2565b82526020840135602083015260408401356040830152606084013560608301526080840135608083015260a084013560a083015260c084013560c083015261328d60e085016131f2565b60e0830152610100848101359083015261012080850135908301529082528201356020820152610160820135604082015261018082013560608201526101a0909101356080820152919050565b60008083601f8401126132ec57600080fd5b5081356001600160401b0381111561330357600080fd5b60208301915083602082850101111561331b57600080fd5b9250929050565b600080600080610200858703121561333957600080fd5b84356001600160401b038082111561335057600080fd5b818701915087601f83011261336457600080fd5b8135613377613372826131b6565b613186565b81815289602083860101111561338c57600080fd5b8160208501602083013760006020838301015280975050506133b18860208901613202565b94506101e08701359150808211156133c857600080fd5b506133d5878288016132da565b95989497509550505050565b6000602082840312156133f357600080fd5b81356001600160e01b031981168114612c8557600080fd5b60006020828403121561341d57600080fd5b813563ffffffff81168114612c8557600080fd5b80356001600160c01b03811681146131fd57600080fd5b60006020828403121561345a57600080fd5b612c8582613431565b6000806040838503121561347657600080fd5b8235613481816131dd565b915061348f60208401613431565b90509250929050565b600080604083850312156134ab57600080fd5b82356134b6816131dd565b946020939093013593505050565b6000602082840312156134d657600080fd5b81356001600160401b038111156134ec57600080fd5b82016101208185031215612c8557600080fd5b60006020828403121561351157600080fd5b8135612c85816131dd565b60008083601f84011261352e57600080fd5b5081356001600160401b0381111561354557600080fd5b6020830191508360208260051b850101111561331b57600080fd5b60008060006040848603121561357557600080fd5b83356001600160401b0381111561358b57600080fd5b6135978682870161351c565b90945092505060208401356135ab816131dd565b809150509250925092565b6000806000604084860312156135cb57600080fd5b83356135d6816131dd565b925060208401356001600160401b038111156135f157600080fd5b6135fd868287016132da565b9497909650939450505050565b6000806020838503121561361d57600080fd5b82356001600160401b0381111561363357600080fd5b61363f858286016132da565b90969095509350505050565b634e487b7160e01b600052601260045260246000fd5b60005b8381101561367c578181015183820152602001613664565b50506000910152565b6000815180845261369d816020860160208601613661565b601f01601f19169290920160200192915050565b8281526040602082015260006125276040830184613685565b634e487b7160e01b600052601160045260246000fd5b8082018082111561087e5761087e6136ca565b600060018201613705576137056136ca565b5060010190565b8181038181111561087e5761087e6136ca565b634e487b7160e01b600052603260045260246000fd5b6000823561011e1983360301811261374c57600080fd5b9190910192915050565b8183823760009101908152919050565b82151581526040602082015260006125276040830184613685565b81835281816020850137506000828201602090810191909152601f909101601f19169091010190565b602081526000612527602083018486613781565b6000602082840312156137d057600080fd5b8151612c85816131dd565b65ffffffffffff8181168382160190808211156137fa576137fa6136ca565b5092915050565b60008235605e1983360301811261374c57600080fd5b6000808335601e1984360301811261382e57600080fd5b8301803591506001600160401b0382111561384857600080fd5b6020019150600581901b360382131561331b57600080fd5b6000808335601e1984360301811261387757600080fd5b8301803591506001600160401b0382111561389157600080fd5b60200191503681900382131561331b57600080fd5b6000808335601e198436030181126138bd57600080fd5b83016020810192503590506001600160401b038111156138dc57600080fd5b80360382131561331b57600080fd5b600061012061390a846138fd856131f2565b6001600160a01b03169052565b6020830135602085015261392160408401846138a6565b8260408701526139348387018284613781565b9250505061394560608401846138a6565b8583036060870152613958838284613781565b925050506080830135608085015260a083013560a085015260c083013560c085015261398760e08401846138a6565b85830360e087015261399a838284613781565b925050506101006139ad818501856138a6565b868403838801526139bf848284613781565b979650505050505050565b6040808252810184905260006060600586901b830181019083018783805b89811015613a3057868503605f190184528235368c900361011e19018112613a0e578283fd5b613a1a868d83016138eb565b95505060209384019392909201916001016139e8565b5050505082810360208401526139bf818587613781565b606081526000613a5a6060830186613685565b6001600160a01b039490941660208301525060400152919050565b604081526000613a886040830185613685565b905060018060a01b03831660208301529392505050565b604081526000613ab26040830185613685565b905082151560208301529392505050565b602081526000612c856020830184613685565b634e487b7160e01b600052602160045260246000fd5b600060038610613b0c57634e487b7160e01b600052602160045260246000fd5b85825260806020830152613b236080830186613685565b6040830194909452506060015292915050565b604081526000613b496040830185613685565b90508260208301529392505050565b604081526000613b4960408301856138eb565b805180516001600160a01b031683526020810151602084015260408101516040840152606081015160608401526080810151608084015260a081015160a084015260c081015160c084015260e0810151613bd060e08501826001600160a01b03169052565b5061010081810151908401526101209081015190830152602081015161014083015260408101516101608301526060810151610180830152608001516101a090910152565b6000610200808352613c2981840187613685565b9050613c386020840186613b6b565b8281036101e0840152613c4b8185613685565b9695505050505050565b6000610200808352613c6a8184018789613781565b9050613c796020840186613b6b565b8281036101e08401526139bf8185613685565b606081526000613c9f60608301866138eb565b60208301949094525060400152919050565b600060208284031215613cc357600080fd5b5051919050565b82815260606020820152600d60608201526c10504c8cc81c995d995c9d1959609a1b608082015260a06040820152600061252760a0830184613685565b60008060408385031215613d1a57600080fd5b82516001600160401b03811115613d3057600080fd5b8301601f81018513613d4157600080fd5b8051613d4f613372826131b6565b818152866020838501011115613d6457600080fd5b613d75826020830160208601613661565b60209590950151949694955050505050565b82815260606020820152600d60608201526c10504cccc81c995d995c9d1959609a1b608082015260a06040820152600061252760a0830184613685565b60008085851115613dd457600080fd5b83861115613de157600080fd5b5050820193919092039150565b6bffffffffffffffffffffffff198135818116916014851015613e1b5780818660140360031b1b83161692505b505092915050565b6fffffffffffffffffffffffffffffffff198135818116916010851015613e1b5760109490940360031b84901b169092169291505056fe5f636f7079557365724f70546f4d656d6f72795f6d61785072696f726974794665655065724761733a5f636f7079557365724f70546f4d656d6f72795f766572696669636174696f6e4761734c696d69743a3131313131313131313131313131313131313131313131313131313131313131313131313131313131313131313131a26469706673582212203f1bebe72924e7b9584a0ef756ed41d34e65bf56254daccbd0a8b1b7751bb28664736f6c634300081900336080604052348015600f57600080fd5b506102e78061001f6000396000f3fe608060405234801561001057600080fd5b506004361061002b5760003560e01c8063570e1a3614610030575b600080fd5b61004361003e366004610180565b61005f565b6040516001600160a01b03909116815260200160405180910390f35b60008061006f60148285876101f2565b6100789161021c565b60601c90506100a7604051806040016040528060088152602001673330b1ba37b93c9d60c11b81525082610116565b60006100b684601481886101f2565b8080601f016020809104026020016040519081016040528093929190818152602001838380828437600092018290525084519495509360209350849250905082850182875af1905060005193508061010d57600093505b50505092915050565b61015b828260405160240161012c929190610251565b60408051601f198184030181529190526020810180516001600160e01b031663319af33360e01b17905261015f565b5050565b80516a636f6e736f6c652e6c6f67602083016000808483855afa5050505050565b6000806020838503121561019357600080fd5b823567ffffffffffffffff808211156101ab57600080fd5b818501915085601f8301126101bf57600080fd5b8135818111156101ce57600080fd5b8660208285010111156101e057600080fd5b60209290920196919550909350505050565b6000808585111561020257600080fd5b8386111561020f57600080fd5b5050820193919092039150565b6bffffffffffffffffffffffff1981358181169160148510156102495780818660140360031b1b83161692505b505092915050565b604081526000835180604084015260005b8181101561027f5760208187018101516060868401015201610262565b50600060608285018101919091526001600160a01b03949094166020840152601f01601f19169091019091019291505056fea2646970667358221220f6fdbb7ac1aebb8c4e9e7b3b5f1787e0954b528b61b46674443b67fd9841006664736f6c63430008190033","linkReferences":{}},"methodIdentifiers":{"addStake(uint32)":"0396cb60","balanceOf(address)":"70a08231","delegateAndRevert(address,bytes)":"850aaf62","depositTo(address)":"b760faf9","deposits(address)":"fc7e286d","getDepositInfo(address)":"5287ce12","getNonce(address,uint192)":"35567e1a","getSenderAddress(bytes)":"9b249f69","getUserOpHash((address,uint256,bytes,bytes,bytes32,uint256,bytes32,bytes,bytes))":"22cdde4c","handleAggregatedOps(((address,uint256,bytes,bytes,bytes32,uint256,bytes32,bytes,bytes)[],address,bytes)[],address)":"dbed18e0","handleOps((address,uint256,bytes,bytes,bytes32,uint256,bytes32,bytes,bytes)[],address)":"765e827f","incrementNonce(uint192)":"0bd28e3b","innerHandleOp(bytes,((address,uint256,uint256,uint256,uint256,uint256,uint256,address,uint256,uint256),bytes32,uint256,uint256,uint256),bytes)":"0042dc53","nonceSequenceNumber(address,uint192)":"1b2e01b8","supportsInterface(bytes4)":"01ffc9a7","unlockStake()":"bb9fe6bf","withdrawStake(address)":"c23a5cea","withdrawTo(address,uint256)":"205c2878"},"id":82}