{"abi":[{"type":"constructor","inputs":[{"name":"_entryPoint","type":"address","internalType":"contract IEntryPoint"}],"stateMutability":"nonpayable"},{"type":"receive","stateMutability":"payable"},{"type":"function","name":"addStake","inputs":[{"name":"unstakeDelaySec","type":"uint32","internalType":"uint32"}],"outputs":[],"stateMutability":"payable"},{"type":"function","name":"deposit","inputs":[],"outputs":[],"stateMutability":"payable"},{"type":"function","name":"entryPoint","inputs":[],"outputs":[{"name":"","type":"address","internalType":"contract IEntryPoint"}],"stateMutability":"view"},{"type":"function","name":"getDeposit","inputs":[],"outputs":[{"name":"","type":"uint256","internalType":"uint256"}],"stateMutability":"view"},{"type":"function","name":"owner","inputs":[],"outputs":[{"name":"","type":"address","internalType":"address"}],"stateMutability":"view"},{"type":"function","name":"postOp","inputs":[{"name":"mode","type":"uint8","internalType":"enum IPaymaster.PostOpMode"},{"name":"context","type":"bytes","internalType":"bytes"},{"name":"actualGasCost","type":"uint256","internalType":"uint256"},{"name":"actualUserOpFeePerGas","type":"uint256","internalType":"uint256"}],"outputs":[],"stateMutability":"nonpayable"},{"type":"function","name":"renounceOwnership","inputs":[],"outputs":[],"stateMutability":"nonpayable"},{"type":"function","name":"transferOwnership","inputs":[{"name":"newOwner","type":"address","internalType":"address"}],"outputs":[],"stateMutability":"nonpayable"},{"type":"function","name":"unlockStake","inputs":[],"outputs":[],"stateMutability":"nonpayable"},{"type":"function","name":"validatePaymasterUserOp","inputs":[{"name":"userOp","type":"tuple","internalType":"struct PackedUserOperation","components":[{"name":"sender","type":"address","internalType":"address"},{"name":"nonce","type":"uint256","internalType":"uint256"},{"name":"initCode","type":"bytes","internalType":"bytes"},{"name":"callData","type":"bytes","internalType":"bytes"},{"name":"accountGasLimits","type":"bytes32","internalType":"bytes32"},{"name":"preVerificationGas","type":"uint256","internalType":"uint256"},{"name":"gasFees","type":"bytes32","internalType":"bytes32"},{"name":"paymasterAndData","type":"bytes","internalType":"bytes"},{"name":"signature","type":"bytes","internalType":"bytes"}]},{"name":"userOpHash","type":"bytes32","internalType":"bytes32"},{"name":"maxCost","type":"uint256","internalType":"uint256"}],"outputs":[{"name":"context","type":"bytes","internalType":"bytes"},{"name":"validationData","type":"uint256","internalType":"uint256"}],"stateMutability":"nonpayable"},{"type":"function","name":"withdrawStake","inputs":[{"name":"withdrawAddress","type":"address","internalType":"address payable"}],"outputs":[],"stateMutability":"nonpayable"},{"type":"function","name":"withdrawTo","inputs":[{"name":"withdrawAddress","type":"address","internalType":"address payable"},{"name":"amount","type":"uint256","internalType":"uint256"}],"outputs":[],"stateMutability":"nonpayable"},{"type":"event","name":"OwnershipTransferred","inputs":[{"name":"previousOwner","type":"address","indexed":true,"internalType":"address"},{"name":"newOwner","type":"address","indexed":true,"internalType":"address"}],"anonymous":false},{"type":"error","name":"OwnableInvalidOwner","inputs":[{"name":"owner","type":"address","internalType":"address"}]},{"type":"error","name":"OwnableUnauthorizedAccount","inputs":[{"name":"account","type":"address","internalType":"address"}]}],"bytecode":{"object":"0x60a060405234801561001057600080fd5b50604051610e19380380610e1983398101604081905261002f9161018a565b80338061005757604051631e4fbdf760e01b8152600060048201526024015b60405180910390fd5b6100608161007c565b5061006a816100cc565b6001600160a01b0316608052506101dc565b600080546001600160a01b038381166001600160a01b0319831681178455604051919092169283917f8be0079c531659141344cd1fd0a4f28419497f9722a3daafe3b4186f6b6457e09190a35050565b6040516301ffc9a760e01b815263122a0e9b60e31b60048201526001600160a01b038216906301ffc9a790602401602060405180830381865afa158015610117573d6000803e3d6000fd5b505050506040513d601f19601f8201168201806040525081019061013b91906101ba565b6101875760405162461bcd60e51b815260206004820152601e60248201527f49456e747279506f696e7420696e74657266616365206d69736d617463680000604482015260640161004e565b50565b60006020828403121561019c57600080fd5b81516001600160a01b03811681146101b357600080fd5b9392505050565b6000602082840312156101cc57600080fd5b815180151581146101b357600080fd5b608051610be36102366000396000818161019c01528181610260015281816102f70152818161039801528181610432015281816104a20152818161052f015281816105f7015281816106ce015261075d0152610be36000f3fe6080604052600436106100ab5760003560e01c8063b0d691fe11610064578063b0d691fe1461018a578063bb9fe6bf146101be578063c23a5cea146101d3578063c399ec88146101f3578063d0e30db014610216578063f2fde38b1461021e57600080fd5b80630396cb60146100b7578063205c2878146100cc57806352b7512c146100ec578063715018a6146101235780637c627b21146101385780638da5cb5b1461015857600080fd5b366100b257005b600080fd5b6100ca6100c5366004610978565b61023e565b005b3480156100d857600080fd5b506100ca6100e73660046109ba565b6102c9565b3480156100f857600080fd5b5061010c6101073660046109e6565b61033b565b60405161011a929190610a80565b60405180910390f35b34801561012f57600080fd5b506100ca61035e565b34801561014457600080fd5b506100ca610153366004610aa2565b610372565b34801561016457600080fd5b506000546001600160a01b03165b6040516001600160a01b03909116815260200161011a565b34801561019657600080fd5b506101727f000000000000000000000000000000000000000000000000000000000000000081565b3480156101ca57600080fd5b506100ca61038e565b3480156101df57600080fd5b506100ca6101ee366004610b3a565b61040b565b3480156101ff57600080fd5b5061020861048a565b60405190815260200161011a565b6100ca61051a565b34801561022a57600080fd5b506100ca610239366004610b3a565b61057c565b6102466105bf565b604051621cb65b60e51b815263ffffffff821660048201527f00000000000000000000000000000000000000000000000000000000000000006001600160a01b031690630396cb609034906024016000604051808303818588803b1580156102ad57600080fd5b505af11580156102c1573d6000803e3d6000fd5b505050505050565b6102d16105bf565b60405163040b850f60e31b81526001600160a01b038381166004830152602482018390527f0000000000000000000000000000000000000000000000000000000000000000169063205c287890604401600060405180830381600087803b1580156102ad57600080fd5b606060006103476105ec565b61035285858561065c565b91509150935093915050565b6103666105bf565b6103706000610838565b565b61037a6105ec565b6103878585858585610888565b5050505050565b6103966105bf565b7f00000000000000000000000000000000000000000000000000000000000000006001600160a01b031663bb9fe6bf6040518163ffffffff1660e01b8152600401600060405180830381600087803b1580156103f157600080fd5b505af1158015610405573d6000803e3d6000fd5b50505050565b6104136105bf565b60405163611d2e7560e11b81526001600160a01b0382811660048301527f0000000000000000000000000000000000000000000000000000000000000000169063c23a5cea90602401600060405180830381600087803b15801561047657600080fd5b505af1158015610387573d6000803e3d6000fd5b6040516370a0823160e01b81523060048201526000907f00000000000000000000000000000000000000000000000000000000000000006001600160a01b0316906370a0823190602401602060405180830381865afa1580156104f1573d6000803e3d6000fd5b505050506040513d601f19601f820116820180604052508101906105159190610b57565b905090565b60405163b760faf960e01b81523060048201527f00000000000000000000000000000000000000000000000000000000000000006001600160a01b03169063b760faf99034906024016000604051808303818588803b15801561047657600080fd5b6105846105bf565b6001600160a01b0381166105b357604051631e4fbdf760e01b8152600060048201526024015b60405180910390fd5b6105bc81610838565b50565b6000546001600160a01b031633146103705760405163118cdaa760e01b81523360048201526024016105aa565b336001600160a01b037f000000000000000000000000000000000000000000000000000000000000000016146103705760405162461bcd60e51b815260206004820152601560248201527414d95b99195c881b9bdd08115b9d1c9e541bda5b9d605a1b60448201526064016105aa565b60606000610682604051806060016040528060278152602001610b87602791398461090e565b604080518082018252601c81527f5061796d61737465723a2043757272656e74206465706f736974203d00000000602082015290516370a0823160e01b815230600482015261074691907f00000000000000000000000000000000000000000000000000000000000000006001600160a01b0316906370a0823190602401602060405180830381865afa15801561071d573d6000803e3d6000fd5b505050506040513d601f19601f820116820180604052508101906107419190610b57565b61090e565b6040516370a0823160e01b815230600482015283907f00000000000000000000000000000000000000000000000000000000000000006001600160a01b0316906370a0823190602401602060405180830381865afa1580156107ac573d6000803e3d6000fd5b505050506040513d601f19601f820116820180604052508101906107d09190610b57565b101561081e5760405162461bcd60e51b815260206004820152601f60248201527f5061796d61737465723a20696e73756666696369656e74206465706f7369740060448201526064016105aa565b505060408051602081019091526000808252935093915050565b600080546001600160a01b038381166001600160a01b0319831681178455604051919092169283917f8be0079c531659141344cd1fd0a4f28419497f9722a3daafe3b4186f6b6457e09190a35050565b6108d36040518060400160405280602081526020017f5061796d61737465723a20506f73744f702063616c6c65642c206d6f6465203d81525086600281111561074157610741610b70565b6103876040518060400160405280601c81526020017f5061796d61737465723a2041637475616c2067617320636f7374203d00000000815250835b6109538282604051602401610924929190610a80565b60408051601f198184030181529190526020810180516001600160e01b03166309710a9d60e41b179052610957565b5050565b80516a636f6e736f6c652e6c6f67602083016000808483855afa5050505050565b60006020828403121561098a57600080fd5b813563ffffffff8116811461099e57600080fd5b9392505050565b6001600160a01b03811681146105bc57600080fd5b600080604083850312156109cd57600080fd5b82356109d8816109a5565b946020939093013593505050565b6000806000606084860312156109fb57600080fd5b833567ffffffffffffffff811115610a1257600080fd5b84016101208187031215610a2557600080fd5b95602085013595506040909401359392505050565b6000815180845260005b81811015610a6057602081850181015186830182015201610a44565b506000602082860101526020601f19601f83011685010191505092915050565b604081526000610a936040830185610a3a565b90508260208301529392505050565b600080600080600060808688031215610aba57600080fd5b853560038110610ac957600080fd5b9450602086013567ffffffffffffffff80821115610ae657600080fd5b818801915088601f830112610afa57600080fd5b813581811115610b0957600080fd5b896020828501011115610b1b57600080fd5b9699602092909201985095966040810135965060600135945092505050565b600060208284031215610b4c57600080fd5b813561099e816109a5565b600060208284031215610b6957600080fd5b5051919050565b634e487b7160e01b600052602160045260246000fdfe5061796d61737465723a2056616c69646174696e6720757365724f702c206d6178436f7374203da26469706673582212204d9ad718357599d21a313338291e8cd0d0a81327bd496ec70c78b9be76daa74f64736f6c63430008190033","linkReferences":{}},"methodIdentifiers":{"addStake(uint32)":"0396cb60","deposit()":"d0e30db0","entryPoint()":"b0d691fe","getDeposit()":"c399ec88","owner()":"8da5cb5b","postOp(uint8,bytes,uint256,uint256)":"7c627b21","renounceOwnership()":"715018a6","transferOwnership(address)":"f2fde38b","unlockStake()":"bb9fe6bf","validatePaymasterUserOp((address,uint256,bytes,bytes,bytes32,uint256,bytes32,bytes,bytes),bytes32,uint256)":"52b7512c","withdrawStake(address)":"c23a5cea","withdrawTo(address,uint256)":"205c2878"},"id":97}