{"abi":[{"type":"constructor","inputs":[{"name":"_entryPoint","type":"address","internalType":"contract IEntryPoint"}],"stateMutability":"nonpayable"},{"type":"receive","stateMutability":"payable"},{"type":"function","name":"addStake","inputs":[{"name":"unstakeDelaySec","type":"uint32","internalType":"uint32"}],"outputs":[],"stateMutability":"payable"},{"type":"function","name":"deposit","inputs":[],"outputs":[],"stateMutability":"payable"},{"type":"function","name":"entryPoint","inputs":[],"outputs":[{"name":"","type":"address","internalType":"contract IEntryPoint"}],"stateMutability":"view"},{"type":"function","name":"getDeposit","inputs":[],"outputs":[{"name":"","type":"uint256","internalType":"uint256"}],"stateMutability":"view"},{"type":"function","name":"owner","inputs":[],"outputs":[{"name":"","type":"address","internalType":"address"}],"stateMutability":"view"},{"type":"function","name":"postOp","inputs":[{"name":"mode","type":"uint8","internalType":"enum IPaymaster.PostOpMode"},{"name":"context","type":"bytes","internalType":"bytes"},{"name":"actualGasCost","type":"uint256","internalType":"uint256"},{"name":"actualUserOpFeePerGas","type":"uint256","internalType":"uint256"}],"outputs":[],"stateMutability":"nonpayable"},{"type":"function","name":"renounceOwnership","inputs":[],"outputs":[],"stateMutability":"nonpayable"},{"type":"function","name":"transferOwnership","inputs":[{"name":"newOwner","type":"address","internalType":"address"}],"outputs":[],"stateMutability":"nonpayable"},{"type":"function","name":"unlockStake","inputs":[],"outputs":[],"stateMutability":"nonpayable"},{"type":"function","name":"validatePaymasterUserOp","inputs":[{"name":"userOp","type":"tuple","internalType":"struct PackedUserOperation","components":[{"name":"sender","type":"address","internalType":"address"},{"name":"nonce","type":"uint256","internalType":"uint256"},{"name":"initCode","type":"bytes","internalType":"bytes"},{"name":"callData","type":"bytes","internalType":"bytes"},{"name":"accountGasLimits","type":"bytes32","internalType":"bytes32"},{"name":"preVerificationGas","type":"uint256","internalType":"uint256"},{"name":"gasFees","type":"bytes32","internalType":"bytes32"},{"name":"paymasterAndData","type":"bytes","internalType":"bytes"},{"name":"signature","type":"bytes","internalType":"bytes"}]},{"name":"userOpHash","type":"bytes32","internalType":"bytes32"},{"name":"maxCost","type":"uint256","internalType":"uint256"}],"outputs":[{"name":"context","type":"bytes","internalType":"bytes"},{"name":"validationData","type":"uint256","internalType":"uint256"}],"stateMutability":"nonpayable"},{"type":"function","name":"withdrawStake","inputs":[{"name":"withdrawAddress","type":"address","internalType":"address payable"}],"outputs":[],"stateMutability":"nonpayable"},{"type":"function","name":"withdrawTo","inputs":[{"name":"withdrawAddress","type":"address","internalType":"address payable"},{"name":"amount","type":"uint256","internalType":"uint256"}],"outputs":[],"stateMutability":"nonpayable"},{"type":"event","name":"OwnershipTransferred","inputs":[{"name":"previousOwner","type":"address","indexed":true,"internalType":"address"},{"name":"newOwner","type":"address","indexed":true,"internalType":"address"}],"anonymous":false},{"type":"error","name":"OwnableInvalidOwner","inputs":[{"name":"owner","type":"address","internalType":"address"}]},{"type":"error","name":"OwnableUnauthorizedAccount","inputs":[{"name":"account","type":"address","internalType":"address"}]}],"bytecode":{"object":"0x60a0604090808252346101ba5780610c95803803809161001f82856101bf565b83396020928391810103126101ba5751906001600160a01b03808316908184036101ba5733156101a25760008054336001600160a01b031982168117835587519492938693869360249385939091167f8be0079c531659141344cd1fd0a4f28419497f9722a3daafe3b4186f6b6457e08880a36301ffc9a760e01b825263122a0e9b60e31b60048301525afa918215610196578192610155575b505015610112575060805251610a9c90816101f9823960805181818161016001528181610210015281816102c80152818161033e015281816103a9015281816105e7015281816107cd0152818161085201526109a10152f35b60649083519062461bcd60e51b82526004820152601e60248201527f49456e747279506f696e7420696e74657266616365206d69736d6174636800006044820152fd5b9091508281813d831161018f575b61016d81836101bf565b8101031261018b5751908115158203610188575038806100b9565b80fd5b5080fd5b503d610163565b508451903d90823e3d90fd5b8451631e4fbdf760e01b815260006004820152602490fd5b600080fd5b601f909101601f19168101906001600160401b038211908210176101e257604052565b634e487b7160e01b600052604160045260246000fdfe60406080815260048036101561001f575b5050361561001d57600080fd5b005b600091823560e01c80630396cb601461082a57838163205c2878146107a05750806352b7512c1461053a578063715018a6146104e05780637c627b21146104005780638da5cb5b146103d8578063b0d691fe1461039457838163bb9fe6bf14610321578163c23a5cea1461029a57508063c399ec88146101e157838163d0e30db014610150575063f2fde38b146100b65750610010565b3461014c57602036600319011261014c576001600160a01b03823581811693919290849003610148576100e7610973565b8315610132575050600054826bffffffffffffffffffffffff60a01b821617600055167f8be0079c531659141344cd1fd0a4f28419497f9722a3daafe3b4186f6b6457e0600080a380f35b51631e4fbdf760e01b8152908101849052602490fd5b8480fd5b8280fd5b808484826003193601126101dd577f00000000000000000000000000000000000000000000000000000000000000006001600160a01b031691823b156101d8578390602483518095819363b760faf960e01b8352309083015234905af19081156101cf57506101bc5750f35b6101c59061090b565b6101cc5780f35b80fd5b513d84823e3d90fd5b505050fd5b5050fd5b5082903461029657816003193601126102965780516370a0823160e01b815230938101939093526020836024817f00000000000000000000000000000000000000000000000000000000000000006001600160a01b03165afa91821561028b5791610251575b6020925051908152f35b90506020823d602011610283575b8161026c60209383610951565b8101031261027e576020915190610247565b600080fd5b3d915061025f565b9051903d90823e3d90fd5b5080fd5b808484346101dd5760203660031901126101dd576102b66108b5565b6102be610973565b6001600160a01b037f00000000000000000000000000000000000000000000000000000000000000008116803b1561031d578592836024928651978895869463611d2e7560e11b865216908401525af19081156101cf57506101bc5750f35b8580fd5b808484346101dd57826003193601126101dd5761033c610973565b7f00000000000000000000000000000000000000000000000000000000000000006001600160a01b031691823b156101d857815163bb9fe6bf60e01b81529284918491829084905af19081156101cf57506101bc5750f35b838234610296578160031936011261029657517f00000000000000000000000000000000000000000000000000000000000000006001600160a01b03168152602090f35b838234610296578160031936011261029657905490516001600160a01b039091168152602090f35b503461014c57608036600319011261014c5781359160038310156104dc576024359067ffffffffffffffff9081831161031d573660238401121561031d57820135908111610148573691016024011161014c5761049c6104d99261046261099f565b825161046d81610935565b602081527f5061796d61737465723a20506f73744f702063616c6c65642c206d6f6465203d6020820152610a0e565b516104a681610935565b601c81527f5061796d61737465723a2041637475616c2067617320636f7374203d00000000602082015260443590610a0e565b80f35b8380fd5b83346101cc57806003193601126101cc576104f9610973565b600080546001600160a01b0319811682556001600160a01b03167f8be0079c531659141344cd1fd0a4f28419497f9722a3daafe3b4186f6b6457e08280a380f35b5082346101cc57600319906060368301126101cc5767ffffffffffffffff91843583811161014c579061012091360301126101cc576044359161057b61099f565b835192606084018481108382111761078b578552602784526105d3816020957f5061796d61737465723a2056616c69646174696e6720757365724f702c206d61878201526678436f7374203d60c81b88820152610a0e565b84516370a0823160e01b80825230888301527f00000000000000000000000000000000000000000000000000000000000000006001600160a01b0316918681602481865afa9081156107815790879291879161074f575b5061066890895161063a81610935565b601c81527f5061796d61737465723a2043757272656e74206465706f736974203d0000000085820152610a0e565b60248851809481938252308c8301525afa908115610745578491610718575b50106106d557835194838601918211868310176106c057508352600084526106b883519484869586528501906108cb565b918301520390f35b604190634e487b7160e01b6000525260246000fd5b835162461bcd60e51b8152808601849052601f60248201527f5061796d61737465723a20696e73756666696369656e74206465706f736974006044820152606490fd5b90508481813d831161073e575b61072f8183610951565b8101031261027e575187610687565b503d610725565b86513d86823e3d90fd5b83819492503d831161077a575b6107668183610951565b8101031261027e576106688792519061062a565b503d61075c565b88513d88823e3d90fd5b604187634e487b7160e01b6000525260246000fd5b808484346101dd57806003193601126101dd576107bb6108b5565b6107c3610973565b6001600160a01b037f00000000000000000000000000000000000000000000000000000000000000008116803b1561031d578592836044928651978895869463040b850f60e31b8652169084015260243560248401525af19081156101cf57506101bc5750f35b50602036600319011261014c5782823563ffffffff811680910361029657610850610973565b7f00000000000000000000000000000000000000000000000000000000000000006001600160a01b031693843b1561014c5760249084519586938492621cb65b60e51b845283015234905af19081156101cf57506108ac575080f35b6104d99061090b565b600435906001600160a01b038216820361027e57565b919082519283825260005b8481106108f7575050826000602080949584010152601f8019910116010190565b6020818301810151848301820152016108d6565b67ffffffffffffffff811161091f57604052565b634e487b7160e01b600052604160045260246000fd5b6040810190811067ffffffffffffffff82111761091f57604052565b90601f8019910116810190811067ffffffffffffffff82111761091f57604052565b6000546001600160a01b0316330361098757565b60405163118cdaa760e01b8152336004820152602490fd5b7f00000000000000000000000000000000000000000000000000000000000000006001600160a01b031633036109d157565b60405162461bcd60e51b815260206004820152601560248201527414d95b99195c881b9bdd08115b9d1c9e541bda5b9d605a1b6044820152606490fd5b600091908291610a536040518092610a3f60208301956309710a9d60e41b87526040602485015260648401906108cb565b90604483015203601f198101835282610951565b51906a636f6e736f6c652e6c6f675afa5056fea264697066735822122036c798f45a01865eaad74c2c6acddbb69dfaa0b6d1c81947533bb8f9055798ad64736f6c63430008190033","linkReferences":{}},"methodIdentifiers":{"addStake(uint32)":"0396cb60","deposit()":"d0e30db0","entryPoint()":"b0d691fe","getDeposit()":"c399ec88","owner()":"8da5cb5b","postOp(uint8,bytes,uint256,uint256)":"7c627b21","renounceOwnership()":"715018a6","transferOwnership(address)":"f2fde38b","unlockStake()":"bb9fe6bf","validatePaymasterUserOp((address,uint256,bytes,bytes,bytes32,uint256,bytes32,bytes,bytes),bytes32,uint256)":"52b7512c","withdrawStake(address)":"c23a5cea","withdrawTo(address,uint256)":"205c2878"},"id":103}