{"abi":[{"type":"function","name":"createSender","inputs":[{"name":"initCode","type":"bytes","internalType":"bytes"}],"outputs":[{"name":"sender","type":"address","internalType":"address"}],"stateMutability":"nonpayable"}],"bytecode":{"object":"0x6080604052348015600f57600080fd5b506102e78061001f6000396000f3fe608060405234801561001057600080fd5b506004361061002b5760003560e01c8063570e1a3614610030575b600080fd5b61004361003e366004610180565b61005f565b6040516001600160a01b03909116815260200160405180910390f35b60008061006f60148285876101f2565b6100789161021c565b60601c90506100a7604051806040016040528060088152602001673330b1ba37b93c9d60c11b81525082610116565b60006100b684601481886101f2565b8080601f016020809104026020016040519081016040528093929190818152602001838380828437600092018290525084519495509360209350849250905082850182875af1905060005193508061010d57600093505b50505092915050565b61015b828260405160240161012c929190610251565b60408051601f198184030181529190526020810180516001600160e01b031663319af33360e01b17905261015f565b5050565b80516a636f6e736f6c652e6c6f67602083016000808483855afa5050505050565b6000806020838503121561019357600080fd5b823567ffffffffffffffff808211156101ab57600080fd5b818501915085601f8301126101bf57600080fd5b8135818111156101ce57600080fd5b8660208285010111156101e057600080fd5b60209290920196919550909350505050565b6000808585111561020257600080fd5b8386111561020f57600080fd5b5050820193919092039150565b6bffffffffffffffffffffffff1981358181169160148510156102495780818660140360031b1b83161692505b505092915050565b604081526000835180604084015260005b8181101561027f5760208187018101516060868401015201610262565b50600060608285018101919091526001600160a01b03949094166020840152601f01601f19169091019091019291505056fea2646970667358221220f6fdbb7ac1aebb8c4e9e7b3b5f1787e0954b528b61b46674443b67fd9841006664736f6c63430008190033","linkReferences":{}},"methodIdentifiers":{"createSender(bytes)":"570e1a36"},"id":4}