{"abi":[{"type":"constructor","inputs":[{"name":"_oracle","type":"address","internalType":"address"}],"stateMutability":"nonpayable"},{"type":"function","name":"bytesToHexString","inputs":[{"name":"data","type":"bytes","internalType":"bytes"}],"outputs":[{"name":"","type":"string","internalType":"string"}],"stateMutability":"pure"},{"type":"function","name":"parseFrom","inputs":[{"name":"from","type":"string","internalType":"string"}],"outputs":[{"name":"","type":"string","internalType":"string"}],"stateMutability":"pure"},{"type":"function","name":"removeCarriageReturnAndNewLine","inputs":[{"name":"input","type":"string","internalType":"string"}],"outputs":[{"name":"","type":"string","internalType":"string"}],"stateMutability":"pure"},{"type":"function","name":"verify","inputs":[{"name":"toSign","type":"string","internalType":"string"},{"name":"body","type":"string","internalType":"string"},{"name":"sign","type":"string","internalType":"string"},{"name":"recoveryNonce","type":"uint256","internalType":"uint256"},{"name":"newOwner","type":"address","internalType":"address"},{"name":"base64Encoded","type":"bool","internalType":"bool"}],"outputs":[{"name":"success","type":"bool","internalType":"bool"},{"name":"from","type":"string","internalType":"string"}],"stateMutability":"view"},{"type":"function","name":"verifyBody","inputs":[{"name":"body","type":"string","internalType":"string"},{"name":"recoveryNonce","type":"uint256","internalType":"uint256"},{"name":"newOwner","type":"address","internalType":"address"},{"name":"base64Encoded","type":"bool","internalType":"bool"}],"outputs":[{"name":"","type":"bool","internalType":"bool"}],"stateMutability":"pure"}],"bytecode":{"object":"0x6080604052348015600f57600080fd5b50604051612eb3380380612eb3833981016040819052602c916050565b600080546001600160a01b0319166001600160a01b0392909216919091179055607e565b600060208284031215606157600080fd5b81516001600160a01b0381168114607757600080fd5b9392505050565b612e268061008d6000396000f3fe608060405234801561001057600080fd5b50600436106100575760003560e01c80634aada8fc1461005c57806352fcaaac146100845780637d520c22146100a5578063a0a73ba1146100c5578063b80be5d0146100d8575b600080fd5b61006f61006a36600461288e565b6100eb565b60405190151581526020015b60405180910390f35b6100976100923660046128f5565b610221565b60405161007b9291906129f6565b6100b86100b3366004612a11565b610399565b60405161007b9190612a59565b6100b86100d3366004612a6c565b61050f565b6100b86100e6366004612a6c565b6106e2565b6000811561017e576100fc8561050f565b604051633311d2f760e21b815290955073__$de13fadc3f59fdce8151bc34fc72d9ef7f$__9063cc474bdc90610136908890600401612a59565b600060405180830381865af4158015610153573d6000803e3d6000fd5b505050506040513d6000823e601f3d908101601f1916820160405261017b9190810190612ae5565b94505b61019761019261018d87610755565b610782565b610902565b945060006101a6856001612b2f565b6040805160208101929092526001600160a01b03861690820152606001604051602081830303815290604052905060006101df82610399565b9050806040516020016101f29190612b42565b60405160208183030381529060405290508680519060200120818051906020012014925050505b949350505050565b6000606061022d612652565b6040805160808101825260009181018281526060808301939093528152602081019190915261026361025e8b610755565b610971565b905061027281602001516106e2565b815160408051808201825260008082526020918201528151808301909252825182528083015190820152919450906102a990610b3c565b95509250846102f75760405162461bcd60e51b81526020600482015260156024820152741c185c9cd9481cda59c81d1859dcc819985a5b1959605a1b60448201526064015b60405180910390fd5b6103018a84611087565b9450846103505760405162461bcd60e51b815260206004820152601760248201527f76657269667920626f64792068617368206661696c656400000000000000000060448201526064016102ee565b61035b838c8b61114c565b94508461036e576000945050505061038e565b61037a8a8989896100eb565b61038a576000945050505061038e565b5050505b965096945050505050565b60408051808201909152601081526f181899199a1a9b1b9c1cb0b131b232b360811b60208201528151606091906000906103d4906002612b6c565b6001600160401b038111156103eb576103eb612797565b6040519080825280601f01601f191660200182016040528015610415576020820181803683370190505b50905060005b845181101561050757600085828151811061043857610438612b83565b0160200151845160f882901c9250859160fc1c90811061045a5761045a612b83565b01602001516001600160f81b03191683610475846002612b6c565b8151811061048557610485612b83565b60200101906001600160f81b031916908160001a9053508381600f16815181106104b1576104b1612b83565b01602001516001600160f81b031916836104cc846002612b6c565b6104d7906001612b2f565b815181106104e7576104e7612b83565b60200101906001600160f81b031916908160001a9053505060010161041b565b509392505050565b805160609082906000816001600160401b0381111561053057610530612797565b6040519080825280601f01601f19166020018201604052801561055a576020820181803683370190505b5090506000805b8381101561063657600d60f81b6001600160f81b03191685828151811061058a5761058a612b83565b01602001516001600160f81b031916148015906105d55750600560f91b6001600160f81b0319168582815181106105c3576105c3612b83565b01602001516001600160f81b03191614155b1561062e578481815181106105ec576105ec612b83565b602001015160f81c60f81b83838151811061060957610609612b83565b60200101906001600160f81b031916908160001a9053508161062a81612b99565b9250505b600101610561565b506000816001600160401b0381111561065157610651612797565b6040519080825280601f01601f19166020018201604052801561067b576020820181803683370190505b50905060005b828110156106d75783818151811061069b5761069b612b83565b602001015160f81c60f81b8282815181106106b8576106b8612b83565b60200101906001600160f81b031916908160001a905350600101610681565b509695505050505050565b606060006106ef83610755565b905061071d610716604051806040016040528060018152602001600f60fa1b815250610755565b82906112aa565b50610743610716604051806040016040528060018152602001601f60f91b815250610755565b905061074e81610902565b9392505050565b60408051808201825260008082526020918201528151808301909252825182529182019181019190915290565b604080518082019091526000808252602082015260006107ba604051806040016040528060018152602001600160fd1b815250610755565b905060006107e0604051806040016040528060018152602001600960f81b815250610755565b9050600061080760405180604001604052806002815260200161068560f11b815250610755565b905061081385826112c9565b156108475760028560000181815161082b9190612bb2565b90525060208501805160029190610843908390612b2f565b9052505b61085185846112c9565b80610861575061086185836112c9565b15610899576001856000018181516108799190612bb2565b90525060208501805160019190610891908390612b2f565b905250610847565b6108a3858261130c565b156108bf576002856000018181516108bb9190612bb2565b9052505b6108c9858461130c565b806108d957506108d9858361130c565b156108f9576001856000018181516108f19190612bb2565b9052506108bf565b50929392505050565b6060600082600001516001600160401b0381111561092257610922612797565b6040519080825280601f01601f19166020018201604052801561094c576020820181803683370190505b509050600060208201905061096a818560200151866000015161136d565b5092915050565b6040805160808101825260009181018281526060808301939093528152602081019190915260006109bb60405180604001604052806002815260200161068560f11b815250610755565b905060006109e1604051806040016040528060018152602001601d60f91b815250610755565b90506000610a146040518060400160405280600e81526020016d646b696d2d7369676e617475726560901b815250610755565b90506000610a3d6040518060400160405280600481526020016366726f6d60e01b815250610755565b604080516080810182526000818301818152606083018290528252825160208181018552828252808401919091528351808501855282815280820183905284518086019095528285529084019190915292935091905b885115610b2f576000610aa68a896112aa565b9050610aef610aea61019289610ae4856040805180820182526000808252602091820152815180830190925282518252918201519181019190915290565b906112aa565b610755565b9250905080610afe83876113de565b15610b0b57818452610b29565b610b1583866113de565b15610b2957610b2382610902565b60208501525b50610a93565b5090979650505050505050565b610b44612652565b600080610b69604051806040016040528060018152602001603b60f81b815250610755565b90506000610b8f604051806040016040528060018152602001603d60f81b815250610755565b9050610bbd610bb6604051806040016040528060018152602001601d60f91b815250610755565b86906112aa565b505b845115611001576000610bd286846112aa565b90506000610be361018d83856112aa565b9050610bee82610782565b9150610c1c610c15604051806040016040528060018152602001603b60f91b815250610755565b82906113de565b8015610c515750610c4f610c48604051806040016040528060018152602001603160f81b815250610755565b83906113de565b155b15610c6457509395600095509350505050565b610c89610c15604051806040016040528060018152602001601960fa1b815250610755565b15610c9657818652610ffa565b610cbb610c15604051806040016040528060018152602001606960f81b815250610755565b15610ccc5760208601829052610ffa565b610cf1610c15604051806040016040528060018152602001607360f81b815250610755565b15610d025760408601829052610ffa565b610d27610c15604051806040016040528060018152602001606360f81b815250610755565b15610df8578151610d8e57610d596040518060400160405280600681526020016573696d706c6560d01b815250610755565b60a087015260408051808201909152600681526573696d706c6560d01b6020820152610d8490610755565b60c0870152610ffa565b610dba610db3604051806040016040528060018152602001602f60f81b815250610755565b83906112aa565b60a087015260c086018290528151610df357610d846040518060400160405280600681526020016573696d706c6560d01b815250610755565b610ffa565b610e1d610c15604051806040016040528060018152602001606160f81b815250610755565b15610f2757610e47610db3604051806040016040528060018152602001602d60f81b815250610755565b61010087015260e086018290528151610e6857509395600095509350505050565b610e9d610e926040518060400160405280600681526020016539b430991a9b60d11b815250610755565b60e0880151906113de565b158015610ecf5750610ecd610e92604051806040016040528060048152602001637368613160e01b815250610755565b155b15610ee257509395600095509350505050565b610f15610f096040518060400160405280600381526020016272736160e81b815250610755565b610100880151906113de565b610df357509395600095509350505050565b610f4d610c15604051806040016040528060028152602001610c4d60f31b815250610755565b15610f5e5760808601829052610ffa565b610f83610c15604051806040016040528060018152602001600d60fb1b815250610755565b15610fb8576000610f93836113f2565b610120890191909152905080610fb25750949660009650945050505050565b50610ffa565b610fdd610c15604051806040016040528060018152602001601b60fa1b815250610755565b15610ffa57610ff3610fee83610902565b611572565b6101408701525b5050610bbf565b6101008401515115806110175750608084015151155b806110225750835151155b806110305750604084015151155b8061103f575061012084015151155b156110505750919360009350915050565b6020840151511561107b578351602085015161106b9161130c565b61107b5750919360009350915050565b50919360019350915050565b6000808261014001511180156110aa57508161014001516110a784610755565b51115b156110d15760006110ba84610755565b610140840151815290506110cd81610902565b9350505b60006111086110fd6040518060400160405280600681526020016539b430991a9b60d11b815250610755565b60e0850151906113de565b1561112a576111238461111e8560800151610902565b6115e8565b9050611143565b6111408461113b8560800151610902565b61165a565b90505b90505b92915050565b600080548451829182916001600160a01b039091169063149599699061117190610902565b61117e8960400151610902565b6040518363ffffffff1660e01b815260040161119b929190612bc5565b600060405180830381865afa1580156111b8573d6000803e3d6000fd5b505050506040513d6000823e601f3d908101601f191682016040526111e09190810190612bf3565b9150915081516000141580156111f65750805115155b6112425760405162461bcd60e51b815260206004820152601760248201527f7175657279207075626c6963206b6579206661696c656400000000000000000060448201526064016102ee565b600061127961126e6040518060400160405280600681526020016539b430991a9b60d11b815250610755565b60e0890151906113de565b156112915761128a83838888611699565b90506112a0565b61129d83838888611732565b90505b9695505050505050565b604080518082019091526000808252602082015261096a838383611790565b8051825160009111156112de57506000611146565b81602001518360200151036112f557506001611146565b508051602092830151929091015181902091201490565b80518251600091111561132157506000611146565b8151835160208501516000929161133791612b2f565b6113419190612bb2565b905082602001518103611358576001915050611146565b82516020840151819020912014905092915050565b602081106113a55781518352611384602084612b2f565b9250611391602083612b2f565b915061139e602082612bb2565b905061136d565b600060016113b4836020612bb2565b6113c090610100612d3a565b6113ca9190612bb2565b925184518416931916929092179092525050565b60006113ea838361183b565b159392505050565b6060600080611419604051806040016040528060018152602001601d60f91b815250610755565b905060006114426040518060400160405280600481526020016366726f6d60e01b815250610755565b905060006114508684611916565b61145b906001612b2f565b6001600160401b0381111561147257611472612797565b6040519080825280602002602001820160405280156114b757816020015b60408051808201909152600080825260208201528152602001906001900390816114905790505b5090506000805b82518110156115655760006114dc610aea61019261018d8c8a6112aa565b905060005b8281101561152157611515828683815181106114ff576114ff612b83565b60200260200101516113de90919063ffffffff16565b611521576001016114e1565b828103611547578185848151811061153b5761153b612b83565b60200260200101819052505b61155182876113de565b1561155b57600193505b50506001016114be565b5090969095509350505050565b600081815b81518110156115e157600082828151811061159457611594612b83565b016020015160f81c9050603081108015906115b0575060398111155b156115d8576115c0603082612bb2565b6115cb85600a612b6c565b6115d59190612b2f565b93505b50600101611577565b5050919050565b6000806002846040516115fb9190612d46565b602060405180830381855afa158015611618573d6000803e3d6000fd5b5050506040513d601f19601f8201168201806040525081019061163b9190612d62565b90508061165161164a856119b0565b6000611dd1565b14949350505050565b60008061166684611df5565b90506001600160601b0319811661168661167f856119b0565b60006121e5565b6001600160601b03191614949350505050565b60008060606116b16116aa856119b0565b8789612213565b909250905081801561172757506116d581602083516116d09190612bb2565b611dd1565b6002866040516116e59190612d46565b602060405180830381855afa158015611702573d6000803e3d6000fd5b5050506040513d601f19601f820116820180604052508101906117259190612d62565b145b979650505050505050565b60008060606117436116aa856119b0565b9092509050818015611727575061176781601483516117629190612bb2565b6121e5565b6001600160601b03191661177a86611df5565b6001600160601b03191614979650505050505050565b604080518082019091526000808252602082015260006117c28560000151866020015186600001518760200151612316565b6020808701805191860191909152519091506117de9082612bb2565b8352845160208601516117f19190612b2f565b81036118005760008552611832565b8351835161180e9190612b2f565b8551869061181d908390612bb2565b905250835161182c9082612b2f565b60208601525b50909392505050565b815181516000919081111561184e575081515b6020808501519084015160005b8381101561190757825182518082146118d75760001960208710156118b657600184611888896020612bb2565b6118929190612b2f565b61189d906008612b6c565b6118a8906002612d3a565b6118b29190612bb2565b1990505b81811683821681810391146118d45797506111469650505050505050565b50505b6118e2602086612b2f565b94506118ef602085612b2f565b935050506020816119009190612b2f565b905061185b565b50845186516112a09190612d7b565b600080826000015161193a8560000151866020015186600001518760200151612316565b6119449190612b2f565b90505b835160208501516119589190612b2f565b811161096a578161196881612b99565b925050826000015161199f8560200151836119839190612bb2565b865161198f9190612bb2565b8386600001518760200151612316565b6119a99190612b2f565b9050611947565b805160609082906119c2600482612db1565b15611a0f5760405162461bcd60e51b815260206004820152601c60248201527f496e76616c69642062617365363420737472696e67206c656e6774680000000060448201526064016102ee565b6000611a1c600483612dc5565b611a27906003612b6c565b905082611a35600184612bb2565b81518110611a4557611a45612b83565b01602001516001600160f81b031916603d60f81b03611a6c5780611a6881612dd9565b9150505b82611a78600284612bb2565b81518110611a8857611a88612b83565b01602001516001600160f81b031916603d60f81b03611aaf5780611aab81612dd9565b9150505b6000816001600160401b03811115611ac957611ac9612797565b6040519080825280601f01601f191660200182016040528015611af3576020820181803683370190505b5090506000805b84821015611dc5576000805b6004811015611d4e57600682901b91506041888581518110611b2a57611b2a612b83565b016020015160f81c10801590611b5a5750605a888581518110611b4f57611b4f612b83565b016020015160f81c11155b15611b8e576041888581518110611b7357611b73612b83565b0160200151611b85919060f81c612bb2565b82179150611d39565b6061888581518110611ba257611ba2612b83565b016020015160f81c10801590611bd25750607a888581518110611bc757611bc7612b83565b016020015160f81c11155b15611beb576047888581518110611b7357611b73612b83565b6030888581518110611bff57611bff612b83565b016020015160f81c10801590611c2f57506039888581518110611c2457611c24612b83565b016020015160f81c11155b15611c5957878481518110611c4657611c46612b83565b0160200151611b859060f81c6004612b2f565b878481518110611c6b57611c6b612b83565b01602001516001600160f81b031916602b60f81b03611c8f57603e82179150611d39565b878481518110611ca157611ca1612b83565b01602001516001600160f81b031916602f60f81b03611cc557603f82179150611d39565b878481518110611cd757611cd7612b83565b01602001516001600160f81b031916603d60f81b0315611d395760405162461bcd60e51b815260206004820152601860248201527f496e76616c69642062617365363420636861726163746572000000000000000060448201526064016102ee565b83611d4381612b99565b945050600101611b06565b5060005b6003811015611dbe5785831015611db657611d6e816008612b6c565b611d79906010612bb2565b82901c60f81b858481518110611d9157611d91612b83565b60200101906001600160f81b031916908160001a90535082611db281612b99565b9350505b600101611d52565b5050611afa565b50909695505050505050565b8151600090611de1836020612b2f565b1115611dec57600080fd5b50016020015190565b60006040518251602084019350604067ffffffffffffffc060018301160160098282031060018103611e28576040820191505b50776745230100efcdab890098badcfe001032547600c3d2e1f0611e7a565b60008383101561074e5750808201519282900392602084101561074e5760001960208590036101000a0119169392505050565b60005b8281101561218457611e90848289611e47565b8552611ea0846020830189611e47565b602086015260408185031060018103611ebc5760808286038701535b5060408303811460018103611ed957602086018051600887021790525b5060405b6080811015611f6157858101603f19810151603719820151601f19830151600b198401516002911891909218189081027ffffffffefffffffefffffffefffffffefffffffefffffffefffffffefffffffe1663800000009091047c010000000100000001000000010000000100000001000000010000000116179052600c01611edd565b5060805b610140811015611fea57858101607f19810151606f19820151603f198301516017198401516004911891909218189081027ffffffffcfffffffcfffffffcfffffffcfffffffcfffffffcfffffffcfffffffc1663400000009091047c030000000300000003000000030000000300000003000000030000000316179052601801611f65565b508160008060005b605081101561215a576014810480156120225760018114612049576002811461206e5760038114612098576120b9565b600160281b8504600160501b86048118600160781b870416189350635a82799992506120b9565b600160281b8504600160781b8604600160501b870418189350636ed9eba192506120b9565b600160501b8504600160781b8604818117600160281b8804169116179350638f1bbcdc92506120b9565b600160281b8504600160781b8604600160501b87041818935063ca62c1d692505b50601f600160bb1b8504168063ffffffe06001609b1b87041617905080840190508063ffffffff8616019050808301905080600160e01b600484028c015104019050600160a01b8102600160281b860417945050600160501b633fffffff600160521b86041663c00000006604000000000000870416170277ffffffff00ffffffff000000000000ffffffff00ffffffff8516179350600181019050611ff2565b5050509190910177ffffffff00ffffffff00ffffffff00ffffffff00ffffffff1690604001611e7d565b50600160601b63ffffffff821667ffffffff000000006101008404166bffffffff00000000000000006201000085041663ffffffff60601b630100000086041663ffffffff60801b6401000000008704161717171702945050505050919050565b81516000906121f5836014612b2f565b111561220057600080fd5b5001602001516001600160601b03191690565b600060606000835185518751606061222b9190612b2f565b6122359190612b2f565b61223f9190612b2f565b905061225e604051806040016040528060608152602001600081525090565b6122688183612425565b50865161227690829061249c565b50855161228490829061249c565b50845161229290829061249c565b5061229d81886124bd565b506122a881876124bd565b506122b381866124bd565b5084516001600160401b038111156122cd576122cd612797565b6040519080825280601f01601f1916602001820160405280156122f7576020820181803683370190505b50925084516020840183602084510160055afa93505050935093915050565b6000838186851161241b57602085116123ca5760006001612338876020612bb2565b612343906008612b6c565b61234e906002612d3a565b6123589190612bb2565b855190199150811660008761236d8b8b612b2f565b6123779190612bb2565b855190915083165b8281146123bc578186106123a4576123978b8b612b2f565b9650505050505050610219565b856123ae81612b99565b96505083865116905061237f565b859650505050505050610219565b508383206000905b6123dc8689612bb2565b8211612419578583208082036123f85783945050505050610219565b612403600185612b2f565b935050818061241190612b99565b9250506123d2565b505b6117278787612b2f565b604080518082019091526060815260006020820152612445602083612db1565b1561246d57612455602083612db1565b612460906020612bb2565b61246a9083612b2f565b91505b60208084018390526040518085526000815290818401018181101561249157600080fd5b604052509192915050565b604080518082019091526060815260006020820152611143838360206124de565b60408051808201909152606081526000602082015261114383838451612564565b60408051808201909152606081526000602082015283515160006125028285612b2f565b90508560200151811115612524576125248661251f836002612b6c565b612635565b60006001856101000a0390508460200360080286901c95508651828101878319825116178152508051831115612558578281525b50959695505050505050565b604080518082019091526060815260006020820152825182111561258757600080fd5b83515160006125968483612b2f565b905085602001518111156125b3576125b38661251f836002612b6c565b8551805183820160200191600091808511156125cd578482525b505050602086015b6020861061260d57805182526125ec602083612b2f565b91506125f9602082612b2f565b9050612606602087612bb2565b95506125d5565b51815160001960208890036101000a0190811690199190911617905250849150509392505050565b81516126418383612425565b5061264c83826124bd565b50505050565b604080516101a081019091526000610160820181815261018083019190915281908152602001612695604051806040016040528060008152602001600081525090565b81526020016126b7604051806040016040528060008152602001600081525090565b81526020016126d9604051806040016040528060008152602001600081525090565b81526020016126fb604051806040016040528060008152602001600081525090565b815260200161271d604051806040016040528060008152602001600081525090565b815260200161273f604051806040016040528060008152602001600081525090565b8152602001612761604051806040016040528060008152602001600081525090565b8152602001612783604051806040016040528060008152602001600081525090565b815260200160608152602001600081525090565b634e487b7160e01b600052604160045260246000fd5b604051601f8201601f191681016001600160401b03811182821017156127d5576127d5612797565b604052919050565b60006001600160401b038211156127f6576127f6612797565b50601f01601f191660200190565b6000612817612812846127dd565b6127ad565b905082815283838301111561282b57600080fd5b828260208301376000602084830101529392505050565b600082601f83011261285357600080fd5b61114383833560208501612804565b80356001600160a01b038116811461287957600080fd5b919050565b8035801515811461287957600080fd5b600080600080608085870312156128a457600080fd5b84356001600160401b038111156128ba57600080fd5b6128c687828801612842565b945050602085013592506128dc60408601612862565b91506128ea6060860161287e565b905092959194509250565b60008060008060008060c0878903121561290e57600080fd5b86356001600160401b038082111561292557600080fd5b6129318a838b01612842565b9750602089013591508082111561294757600080fd5b6129538a838b01612842565b9650604089013591508082111561296957600080fd5b5061297689828a01612842565b9450506060870135925061298c60808801612862565b915061299a60a0880161287e565b90509295509295509295565b60005b838110156129c15781810151838201526020016129a9565b50506000910152565b600081518084526129e28160208601602086016129a6565b601f01601f19169290920160200192915050565b821515815260406020820152600061021960408301846129ca565b600060208284031215612a2357600080fd5b81356001600160401b03811115612a3957600080fd5b8201601f81018413612a4a57600080fd5b61021984823560208401612804565b60208152600061114360208301846129ca565b600060208284031215612a7e57600080fd5b81356001600160401b03811115612a9457600080fd5b61021984828501612842565b600082601f830112612ab157600080fd5b8151612abf612812826127dd565b818152846020838601011115612ad457600080fd5b6102198260208301602087016129a6565b600060208284031215612af757600080fd5b81516001600160401b03811115612b0d57600080fd5b61021984828501612aa0565b634e487b7160e01b600052601160045260246000fd5b8082018082111561114657611146612b19565b61060f60f31b815260008251612b5f8160028501602087016129a6565b9190910160020192915050565b808202811582820484141761114657611146612b19565b634e487b7160e01b600052603260045260246000fd5b600060018201612bab57612bab612b19565b5060010190565b8181038181111561114657611146612b19565b604081526000612bd860408301856129ca565b8281036020840152612bea81856129ca565b95945050505050565b60008060408385031215612c0657600080fd5b82516001600160401b0380821115612c1d57600080fd5b612c2986838701612aa0565b93506020850151915080821115612c3f57600080fd5b50612c4c85828601612aa0565b9150509250929050565b600181815b80851115612c91578160001904821115612c7757612c77612b19565b80851615612c8457918102915b93841c9390800290612c5b565b509250929050565b600082612ca857506001611146565b81612cb557506000611146565b8160018114612ccb5760028114612cd557612cf1565b6001915050611146565b60ff841115612ce657612ce6612b19565b50506001821b611146565b5060208310610133831016604e8410600b8410161715612d14575081810a611146565b612d1e8383612c56565b8060001904821115612d3257612d32612b19565b029392505050565b60006111438383612c99565b60008251612d588184602087016129a6565b9190910192915050565b600060208284031215612d7457600080fd5b5051919050565b818103600083128015838313168383128216171561096a5761096a612b19565b634e487b7160e01b600052601260045260246000fd5b600082612dc057612dc0612d9b565b500690565b600082612dd457612dd4612d9b565b500490565b600081612de857612de8612b19565b50600019019056fea26469706673582212209be2acd80aba22fed6555e6eb7798cb37512fb9ed59c7fc5a4fc106353d25b3a64736f6c63430008190033","linkReferences":{"src/DKIM/contracts/Algorithm.sol":{"Algorithm":[{"start":411,"length":20}]}}},"methodIdentifiers":{"bytesToHexString(bytes)":"7d520c22","parseFrom(string)":"b80be5d0","removeCarriageReturnAndNewLine(string)":"a0a73ba1","verify(string,string,string,uint256,address,bool)":"52fcaaac","verifyBody(string,uint256,address,bool)":"4aada8fc"},"id":64}