{"abi":[{"type":"constructor","inputs":[{"name":"_oracle","type":"address","internalType":"address"}],"stateMutability":"nonpayable"},{"type":"function","name":"bytesToHexString","inputs":[{"name":"data","type":"bytes","internalType":"bytes"}],"outputs":[{"name":"","type":"string","internalType":"string"}],"stateMutability":"pure"},{"type":"function","name":"parseFrom","inputs":[{"name":"from","type":"string","internalType":"string"}],"outputs":[{"name":"","type":"string","internalType":"string"}],"stateMutability":"pure"},{"type":"function","name":"removeCarriageReturnAndNewLine","inputs":[{"name":"input","type":"string","internalType":"string"}],"outputs":[{"name":"","type":"string","internalType":"string"}],"stateMutability":"pure"},{"type":"function","name":"verify","inputs":[{"name":"toSign","type":"string","internalType":"string"},{"name":"body","type":"string","internalType":"string"},{"name":"sign","type":"string","internalType":"string"},{"name":"recoveryNonce","type":"uint256","internalType":"uint256"},{"name":"newOwner","type":"address","internalType":"address"},{"name":"base64Encoded","type":"bool","internalType":"bool"}],"outputs":[{"name":"","type":"bool","internalType":"bool"},{"name":"","type":"uint256","internalType":"uint256"}],"stateMutability":"view"},{"type":"function","name":"verifyBody","inputs":[{"name":"body","type":"string","internalType":"string"},{"name":"recoveryNonce","type":"uint256","internalType":"uint256"},{"name":"newOwner","type":"address","internalType":"address"},{"name":"base64Encoded","type":"bool","internalType":"bool"}],"outputs":[{"name":"","type":"bool","internalType":"bool"}],"stateMutability":"pure"}],"bytecode":{"object":"0x608034607057601f6127c038819003918201601f19168301916001600160401b03831184841017607557808492602094604052833981010312607057516001600160a01b03811690819003607057600080546001600160a01b031916919091179055604051612734908161008c8239f35b600080fd5b634e487b7160e01b600052604160045260246000fdfe6080604052600436101561001257600080fd5b6000803560e01c9081634aada8fc1461006a5750806352fcaaac146100655780637d520c2214610060578063a0a73ba11461005b5763b80be5d01461005657600080fd5b610387565b61036e565b6102e2565b6101ef565b346100c45760803660031901126100c4576004359067ffffffffffffffff82116100c45760206100ba6100a03660048601610187565b6100a86101a5565b6100b06101d1565b916024359061048b565b6040519015158152f35b80fd5b634e487b7160e01b600052604160045260246000fd5b6040810190811067ffffffffffffffff8211176100f957604052565b6100c7565b90601f8019910116810190811067ffffffffffffffff8211176100f957604052565b6040519061012d826100dd565b565b67ffffffffffffffff81116100f957601f01601f191660200190565b9291926101578261012f565b9161016560405193846100fe565b829481845281830111610182578281602093846000960137010152565b600080fd5b9080601f83011215610182578160206101a29335910161014b565b90565b604435906001600160a01b038216820361018257565b608435906001600160a01b038216820361018257565b60643590811515820361018257565b60a43590811515820361018257565b346101825760c03660031901126101825767ffffffffffffffff60043581811161018257610221903690600401610187565b60243582811161018257610239903690600401610187565b9060443592831161018257610255610271933690600401610187565b9061025e6101bb565b916102676101e0565b936064359261072b565b604080519215158352602083019190915290f35b0390f35b60005b83811061029c5750506000910152565b818101518382015260200161028c565b906020916102c581518092818552858086019101610289565b601f01601f1916010190565b9060206101a29281815201906102ac565b346101825760203660031901126101825760043567ffffffffffffffff811161018257366023820112156101825761032f61032a61028592369060248160040135910161014b565b6109cb565b6040519182916020835260208301906102ac565b6020600319820112610182576004359067ffffffffffffffff8211610182576101a291600401610187565b346101825761028561032f61038236610343565b610ab9565b346101825761028561032f61039b36610343565b610b9f565b81601f820112156101825780516103b68161012f565b926103c460405194856100fe565b81845260208284010111610182576101a29160208085019101610289565b9060208282031261018257815167ffffffffffffffff8111610182576101a292016103a0565b6040513d6000823e3d90fd5b634e487b7160e01b600052601160045260246000fd5b906001820180921161043857565b610414565b906002820180921161043857565b906020820180921161043857565b906004820180921161043857565b9190820180921161043857565b9061048760209282815194859201610289565b0190565b909261052a575b6104b76104b16104ac6104a76104e594610c02565b610cf4565b610df8565b9361042a565b6040805160208101929092526001600160a01b039390931681840152918252601f199161032a6060826100fe565b9061051b604051918261050f60208201956105098760029061060f60f31b81520190565b90610474565b039081018352826100fe565b51902090602081519101201490565b600061053861055292610ab9565b60405180938192633311d2f760e21b8352600483016102d1565b038173__$de13fadc3f59fdce8151bc34fc72d9ef7f$__5af480156105b9576104b16104ac6104a76104b7936104e595600091610596575b50945050505050610492565b6105b391503d806000833e6105ab81836100fe565b8101906103e2565b3861058a565b610408565b604051906105cb826100dd565b60006020838281520152565b60405190610160820182811067ffffffffffffffff8211176100f9576040526000610140836106046105be565b815261060e6105be565b602082015261061b6105be565b60408201526106286105be565b60608201526106356105be565b60808201526106426105be565b60a082015261064f6105be565b60c082015261065c6105be565b60e08201526106696105be565b61010082015260606101208201520152565b60405190610688826100dd565b60606020836106956105be565b81520152565b156106a257565b60405162461bcd60e51b81526020600482015260156024820152741c185c9cd9481cda59c81d1859dcc819985a5b1959605a1b6044820152606490fd5b156106e657565b60405162461bcd60e51b815260206004820152601760248201527f76657269667920626f64792068617368206661696c65640000000000000000006044820152606490fd5b9491959392936107396105d7565b5061074261067b565b5061074c86610c02565b9061075561067b565b50610766610761610c62565b610c02565b92610772610761610e96565b9861077e610761610eb3565b9561078a610761610edd565b97610793610120565b99600093848c528460208d01526107a8610120565b9c8d9c8d5260206107b76108d7565b9d019c8d528560206107c7610120565b82815201528560206107d7610120565b82815201525b885115610849578e8e8d8d61081661080f8f8f610800610761926104ac9261173b565b9761080a89610f74565b61173b565b9182611acf565b610822575050526107dd565b61082c9250611acf565b15610838575b506107dd565b61084190610df8565b8d5238610832565b949a50949a6108a4969c9d5061088d9399506108859298506108809197506108746108799151610b9f565b610efd565b9c51610f74565b6111b5565b91909161069b565b61089f61089a828b6114ed565b6106df565b61165f565b9485156108cd57916108be93916108ba9361048b565b1590565b6108c757509190565b90509190565b5050505090509190565b604051906020820182811067ffffffffffffffff8211176100f95760405260008252565b600181901b91906001600160ff1b0381160361043857565b600381901b91906001600160fd1b0381160361043857565b9060038202918083046003149015171561043857565b908160031b918083046008149015171561043857565b908160011b918083046002149015171561043857565b906109778261012f565b61098460405191826100fe565b8281528092610995601f199161012f565b0190602036910137565b634e487b7160e01b600052603260045260246000fd5b9081518110156109c6570160200190565b61099f565b906040516109d8816100dd565b601081526f181899199a1a9b1b9c1cb0b131b232b360811b6020820152610a07610a0284516108fb565b61096d565b9060009360005b8151811015610aa25780610a7d610a35600f610a4f610a49610a43610a356001988a6109b5565b516001600160f81b03191690565b60f81c90565b60ff1690565b610a5f610a358260041c8a6109b5565b610a75610a6b876108fb565b918d1a918b6109b5565b5316866109b5565b610a9b610a91610a8c846108fb565b61042a565b91891a91876109b5565b5301610a0e565b509193505050565b60001981146104385760010190565b90815191610ac68361096d565b92600091825b828110610b1557505050610adf8161096d565b9060005b818110610af1575090925050565b80610b01610a35600193886109b5565b60001a610b0e82866109b5565b5301610ae3565b600d60f81b610b37610b2a610a3584866109b5565b6001600160f81b03191690565b141580610b7b575b610b4c575b600101610acc565b92610b73600191610b60610a3587866109b5565b60001a610b6d828a6109b5565b53610aaa565b939050610b44565b50600560f91b6001600160f81b0319610b97610a3584866109b5565b161415610b3f565b6104ac610bae6101a292610c02565b610bd9610bd3604051610bc0816100dd565b60018152600f60fa1b6020820152610c02565b8261173b565b50610bfc604051610be9816100dd565b60018152601f60f91b6020820152610c02565b9061173b565b610c0a6105be565b50602081519160405192610c1d846100dd565b835201602082015290565b60405190610c35826100dd565b60018252600160fd1b6020830152565b60405190610c52826100dd565b60018252600960f81b6020830152565b60405190610c6f826100dd565b6002825261068560f11b6020830152565b60011981019190821161043857565b60001981019190821161043857565b602003906020821161043857565b60461981019190821161043857565b60401981019190821161043857565b601003906010821161043857565b601f1981019190821161043857565b9190820391821161043857565b90610cfd6105be565b50610d09610761610c28565b610d14610761610c45565b90610d20610761610c62565b610d2a81866117c4565b610dde575b610d3982866117c4565b8015610dce575b15610d6657610d4f8551610c8f565b855260208501610d5f815161042a565b9052610d2f565b90610d74610d8692866117f9565b610dbd575b90505b610d8681856117f9565b8015610dad575b15610da957610d8690610da08551610c8f565b85529050610d7c565b5050565b50610db882856117f9565b610d8d565b610dc78551610c80565b8552610d79565b50610dd983866117c4565b610d40565b610de88551610c80565b855260208501610d5f815161043d565b805190610e1d610e078361012f565b92610e1560405194856100fe565b80845261012f565b90602080840191601f198094013684378181015190519092935b82821015610e695750810390811161043857610e55610e5a91611835565b610c8f565b90518251821691191617905290565b90929384518152828101809111610438579382810180911161043857928181019081116104385790610e37565b60405190610ea3826100dd565b60018252601d60f91b6020830152565b60405190610ec0826100dd565b600e82526d646b696d2d7369676e617475726560901b6020830152565b60405190610eea826100dd565b600482526366726f6d60e01b6020830152565b9060009160005b8151811015610da957610f1781836109b5565b5160f81c603081101580610f69575b610f34575b50600101610f04565b600a9491949182810292818404149015171561043857602f199080828101116104385782010180911161043857926001610f2b565b506039811115610f26565b610f7c6105be565b506020815191015160405191610f91836100dd565b8252602082015290565b60405190610fa8826100dd565b60018252603b60f81b6020830152565b60405190610fc5826100dd565b60018252603d60f81b6020830152565b60405190610fe2826100dd565b60018252603b60f91b6020830152565b60405190610fff826100dd565b60018252603160f81b6020830152565b6040519061101c826100dd565b60018252601960fa1b6020830152565b60405190611039826100dd565b60018252606960f81b6020830152565b60405190611056826100dd565b60018252607360f81b6020830152565b60405190611073826100dd565b60018252606360f81b6020830152565b60405190611090826100dd565b60018252606160f81b6020830152565b604051906110ad826100dd565b60028252610c4d60f31b6020830152565b604051906110cb826100dd565b60018252600d60fb1b6020830152565b604051906110e8826100dd565b60018252601b60fa1b6020830152565b60405190611105826100dd565b60018252602d60f81b6020830152565b60405190611122826100dd565b600682526539b430991a9b60d11b6020830152565b60405190611144826100dd565b60048252637368613160e01b6020830152565b60405190611164826100dd565b600382526272736160e81b6020830152565b60405190611183826100dd565b60018252602f60f81b6020830152565b604051906111a0826100dd565b600682526573696d706c6560d01b6020830152565b6111bd6105d7565b906111c9610761610f9b565b6111d4610761610fb8565b916111e3610bd3610761610e96565b505b80511561145e576111f6828261173b565b61120c6112066104a7868461173b565b91610cf4565b9061122161121b610761610fd5565b82611844565b80611441575b1561123757505050505090600090565b61124561121b61076161100f565b15611252575084526111e5565b61126061121b61076161102c565b15611270575060208501526111e5565b61127e61121b610761611049565b1561128e575060408501526111e5565b61129c61121b610761611066565b15611309575080516112ce57506112b4610761611193565b60a08501526112c4610761611193565b60c08501526111e5565b6112dc610bd3610761611176565b60a086015260c085019080825251156112f6575b506111e5565b611301610761611193565b9052386112f0565b61131761121b610761611083565b156113c1575061132b610bd36107616110f8565b90610100918287015260e090808288015251156113b657850161135d6108ba8251611357610761611115565b90611844565b908161139b575b50611391576108ba61137e91860151611357610761611157565b611388575b6111e5565b50505090600090565b5050505090600090565b6113b091506108ba9051611357610761611137565b38611364565b505050505090600090565b6113cf61121b6107616110a0565b156113df575060808501526111e5565b6113ed61121b6107616110be565b1561141057506113fc906118ca565b906101208601526113835750505090600090565b61141f906113576107616110db565b61142957506111e5565b61087461143591610df8565b610140850152386112f0565b506114596108ba611453610761610ff2565b84611844565b611227565b505050610100810151511580156114e0575b80156114d6575b80156114c9575b80156114bb575b6114b5576020810151805161149c575b5090600190565b6108ba6114ab918351906117f9565b6114b55738611495565b90600090565b506101208101515115611485565b506040810151511561147e565b5080515115611477565b5060808101515115611470565b9061014081018051151580611597575b61157a575b5061151c60e0820151611516610761611115565b90611acf565b611537579061153160806101a2930151610df8565b906119a0565b61155061154a6080611556930151610df8565b92611c52565b9161205d565b805160141161018257602001516bffffffffffffffffffffffff1991821691161490565b6115876115909293610c02565b90518152610df8565b9038611502565b506115a183610c02565b518151106114fd565b9190916040818403126101825780519267ffffffffffffffff9384811161018257816115d79184016103a0565b936020830151908111610182576101a292016103a0565b90916116056101a2936040845260408401906102ac565b9160208184039101526102ac565b1561161a57565b60405162461bcd60e51b815260206004820152601760248201527f7175657279207075626c6963206b6579206661696c65640000000000000000006044820152606490fd5b600080546116ab9493929082906001600160a01b031661167f8351610df8565b9061168d6040850151610df8565b604051631495996960e01b81529889938492839291600484016115ee565b03915afa9182156105b95780958193611709575b506116e89160e09187511515806116ff575b6116da90611613565b500151611357610761611115565b156116f6576101a293611a42565b6101a2936119e5565b50845115156116d1565b6116e892965060e091935061172f903d8086833e61172781836100fe565b8101906115aa565b969096939150916116bf565b91906117456105be565b9261174e6105be565b5080519161176a6020830193845183519060208501519261246d565b90835160208701528351820382811161043857865283518351810180911161043857820361179b5750506000915052565b85519281518401809411610438576117b76117c0948251610ce7565b90525190610467565b9052565b80519082518092106117f1576020809101519201518083146117e95781902091201490565b505050600190565b505050600090565b90815191815183106117f157602001519182018092116104385780518203918211610438576020810151908183146117e9575180912091201490565b601f8111610438576101000a90565b906108ba91611acf565b67ffffffffffffffff81116100f95760051b60200190565b906118708261184e565b61187d60405191826100fe565b828152809261188e601f199161184e565b019060005b82811061189f57505050565b6020906118aa6105be565b82828501015201611893565b80518210156109c65760209160051b010190565b6118d5610761610e96565b916118e1610761610edd565b6118f66118f1610a8c8686611b91565b611866565b926000805b8551811015611998576119176107616104ac6104a78a8761173b565b846000915b83808410611966575b611933931461194a57611acf565b15611941575b6001016118fb565b60019150611939565b80611955858b6118b6565b52611960848a6118b6565b50611acf565b61197e82611978868d979695976118b6565b51611844565b61198f57505060010190859061191c565b92909192611925565b509394505050565b60006119bb6020928360405192828480945193849201610289565b8101039060025afa156105b9576119d46000519161205d565b805160201161018257602001511490565b906119f36119f8939461205d565b6123cd565b909182611a0457505090565b611a0f919250611c52565b908051908160131981011161043857805182116101825701600c01516bffffffffffffffffffffffff1991821691161490565b906119f3611a50939461205d565b909182611a5c57505090565b6020919250611a7a6000918360405192828480945193849201610289565b8101039060025afa156105b9576000519080519081601f1981011161043857805182116101825701511490565b60ff8111610438576001901b90565b8181039291600013801582851316918412161761043857565b91908251928151848110611b89575b50602080820151946020840151906000965b818810611b0a57505050506101a292935051905190611ab6565b8051835190818103611b3b575b5050611b2e611b28611b349261044b565b9361044b565b9761044b565b9691611af0565b600019868510611b5d575b9182169116818114611b1757039750505050505050565b50611b83610e55611b7e611b798d611b7489610c9e565b610467565b610913565b611aa7565b19611b46565b935038611ade565b9160008351936020810191611bb18351968651602088019889519261246d565b8551810180911161043857905b835183518101809111610438578211611c1357611bda90610aaa565b908251908451810381811161043857820391821161043857611c0d91611c05918851908a519261246d565b865190610467565b90611bbe565b95505050509050565b929190600093828210611c2e57505050565b810151929350900360208110611c42575090565b6020036101000a60001901191690565b9060408051835160208095019260019267ffffffffffffffc0848401168281019060098486830301108614611ff9575b5090919596929394776745230100efcdab890098badcfe001032547600c3d2e1f09660009560208501955b848810611d0e57505050505050505050602081901c63ffffffff60801b16601882901c63ffffffff60601b1617601082901c6bffffffff00000000000000001617600882901c67ffffffff00000000161763ffffffff919091161760601b90565b611d238289869798999a9c9b9d949596611c1c565b8752611d3283828c0187611c1c565b88528983038481108c14611fed575b50603f198681018b148c14611fdf575b845b60808110611f6d575060805b6101408110611efc5750508891600095869787945b60509081871015611ec8578f9190601488048015611e8d5780600114611e6f5780600214611e3057600314611e13575b808d8d8d601f77ffffffff00ffffffff000000000000ffffffff00ffffffff9560bb1c1663ffffffe085609b1c16170163ffffffff84160101908a60021b015160e01c0160a01b9060281c1791633fffffff8360521c1663c00000008460321c1617901b911617950194611d74565b63ca62c1d69b50602881901c607882901c82841c18189a50611da4565b509a50985089891c8a60781c908082178c60281c169116179877ffffffff00ffffffff000000000000ffffffff00ffffffff638f1bbcdc9b9050611da4565b50636ed9eba19b50602881901c607882901c82841c18189a50611da4565b509a5098508960281c808b8b1c188b60781c16189877ffffffff00ffffffff000000000000ffffffff00ffffffff635a8279999b9050611da4565b939e9c90930177ffffffff00ffffffff00ffffffff00ffffffff00ffffffff169c87019a999850965094939250611cad9050565b806018918a01607f19810151606f19820151188482015160171983015118187ffffffffcfffffffcfffffffcfffffffcfffffffcfffffffcfffffffcfffffffc7c030000000300000003000000030000000300000003000000030000000382601e1c169160021b1617905201611d5f565b88810182810151603719820151601f19830151600b1984015118911818808f1b7ffffffffefffffffefffffffefffffffefffffffefffffffefffffffefffffffe16601f9190911c7c010000000100000001000000010000000100000001000000010000000116179052600c01611d53565b8360031b8951178952611d51565b60809088015338611d41565b608091500138611c82565b1561200b57565b60405162461bcd60e51b815260206004820152601c60248201527f496e76616c69642062617365363420737472696e67206c656e677468000000006044820152606490fd5b8015610438576000190190565b8051906003916120706003821615612004565b61207c8160021c61092b565b916001600160f81b031990603d60f81b80836120a3610a3561209d88610c8f565b866109b5565b161461239c575b806120bd610b2a610a3561209d88610c80565b1461238c575b90919293946120d18661096d565b9560009182965b8084106120ea57505050505050505090565b6000989596979893845b600490818710156123075789839160061b92604161211b610a49610a43610a3587876109b5565b1015806122ea575b1561215a57509161214a612145610a49610a43610a35612151966001986109b5565b610cbb565b1792610aaa565b950194906120f4565b60ff60618161216f610a43610a3588886109b5565b161015806122ce575b156121a05750509161214a61219b610a49610a43610a35612151966001986109b5565b610cac565b6030816121b3610a43610a3588886109b5565b16101590816122b1575b50156121e557509161214a6121e0610a49610a43610a35612151966001986109b5565b610459565b916121f9610a358e92602b60f81b946109b5565b160361220f5750612151603e6001921792610aaa565b87838b602f60f81b8e612225610a3585856109b5565b160361223e5750505050612151603f6001921792610aaa565b610a3561224e92610b2a926109b5565b03612260575061215160019192610aaa565b6122ad9060405191829162461bcd60e51b8352820160609060208152601860208201527f496e76616c69642062617365363420636861726163746572000000000000000060408201520190565b0390fd5b603991506122c5610a43610a3587876109b5565b161115386121bd565b50607a816122e2610a43610a3588886109b5565b161115612178565b50605a60ff6122ff610a43610a3587876109b5565b161115612123565b9199979a989695505092919260005b84811061232d5750509692939495969190916120d8565b8a848a1061233f575b50600101612316565b8961238391610b6d849c61237a61236a8861236361235e60019a610941565b610cca565b1c60ff1690565b60f81b6001600160f81b03191690565b60001a926109b5565b9890508a612336565b9361239690612050565b936120c3565b936123a690612050565b936120aa565b1561018257565b604051906123c0826100dd565b6000602083606081520152565b80519182606001928360601161043857815101606081018094116104385760609085510101809311610438576124459061243e6124086123b3565b93612413868661255f565b5061241f8151866125b1565b5061242b8351866125b1565b506124378751866125b1565b508461261f565b508261261f565b50612450838261261f565b5061245b835161096d565b925191602080850192510160055afa91565b9192819383811115612486575b50506101a29250610467565b9092919060208111612508579291906124bf6124aa610e55611b7e611b7988610c9e565b1980945116946124ba8484610467565b610ce7565b84848751165b036124d257505050505090565b9091929394818110156124f9576124e890610aaa565b9484865116908095949392916124c5565b50509091506101a29250610467565b8091959320916000945b61251c8383610ce7565b861161254d5782812084146125435761253761253d9161042a565b95610aaa565b94612512565b9450505050915090565b5092949150506101a29250388061247a565b906125686123b3565b50601f811680612597575b50806020830152604051908183526000825281016020019081106101825760405290565b602003602081116104385781018091116104385738612573565b906125ba6123b3565b506125c36123b3565b5081515180602001918260201161043857602084015183116125fa575b602084519283010152805182116125f657505090565b5290565b61261961260684610957565b6126128651918761255f565b508561261f565b506125e0565b906126286123b3565b508051906126346123b3565b5061264281518311156123ac565b825151916126508184610467565b602092602086015182116126cd575b6020918651838151978201019682116126c5575b505001915b8082101561269d5750600019906020036101000a019081199051169082511617905290565b9091926126b96126b36126bf928651815261044b565b9461044b565b92610cd8565b90612678565b523880612673565b6126df6126d983610957565b876126e4565b61265f565b906126fb916126f58151928261255f565b5061261f565b5056fea26469706673582212204a12e84c5fa1d3109ac8a33e6a0e989058552acae5ab08a376ae0f1c712b6d3964736f6c63430008190033","linkReferences":{"src/DKIM/contracts/Algorithm.sol":{"Algorithm":[{"start":1506,"length":20}]}}},"methodIdentifiers":{"bytesToHexString(bytes)":"7d520c22","parseFrom(string)":"b80be5d0","removeCarriageReturnAndNewLine(string)":"a0a73ba1","verify(string,string,string,uint256,address,bool)":"52fcaaac","verifyBody(string,uint256,address,bool)":"4aada8fc"},"id":89}