{"abi":[{"type":"constructor","inputs":[],"stateMutability":"nonpayable"},{"type":"function","name":"delegateCall","inputs":[{"name":"payload","type":"bytes","internalType":"bytes"}],"outputs":[{"name":"","type":"bool","internalType":"bool"},{"name":"","type":"bytes","internalType":"bytes"}],"stateMutability":"nonpayable"},{"type":"function","name":"implement","inputs":[{"name":"account","type":"address","internalType":"address"},{"name":"interfaceIds","type":"bytes4[]","internalType":"bytes4[]"}],"outputs":[],"stateMutability":"nonpayable"},{"type":"function","name":"implementer","inputs":[{"name":"","type":"bytes4","internalType":"bytes4"}],"outputs":[{"name":"","type":"address","internalType":"address"}],"stateMutability":"view"},{"type":"function","name":"owner","inputs":[],"outputs":[{"name":"","type":"address","internalType":"address"}],"stateMutability":"view"},{"type":"function","name":"removeMethod","inputs":[{"name":"interfaceId","type":"bytes4","internalType":"bytes4"}],"outputs":[],"stateMutability":"nonpayable"},{"type":"function","name":"renounceOwnership","inputs":[],"outputs":[],"stateMutability":"nonpayable"},{"type":"function","name":"transferOwnership","inputs":[{"name":"newOwner","type":"address","internalType":"address"}],"outputs":[],"stateMutability":"nonpayable"},{"type":"event","name":"OwnershipTransferred","inputs":[{"name":"previousOwner","type":"address","indexed":true,"internalType":"address"},{"name":"newOwner","type":"address","indexed":true,"internalType":"address"}],"anonymous":false},{"type":"error","name":"OwnableInvalidOwner","inputs":[{"name":"owner","type":"address","internalType":"address"}]},{"type":"error","name":"OwnableUnauthorizedAccount","inputs":[{"name":"account","type":"address","internalType":"address"}]}],"bytecode":{"object":"0x60808060405234607857331560625760008054336001600160a01b03198216811783556040519290916001600160a01b0316907f8be0079c531659141344cd1fd0a4f28419497f9722a3daafe3b4186f6b6457e09080a3610638908161007e8239f35b631e4fbdf760e01b815260006004820152602490fd5b600080fdfe6080604052600436101561001257600080fd5b6000803560e01c9081633bd5b8d51461008a57508063715018a61461008557806387ca8f3b146100805780638da5cb5b1461007b5780639c00427014610076578063da67bcc4146100715763f2fde38b1461006c57600080fd5b61043c565b6103ba565b610241565b610218565b61015b565b6100ea565b346100d05760203660031901126100d0576004356100a7816100d3565b6001600160e01b0319168152600160209081526040909120546001600160a01b03166080908152f35b80fd5b6001600160e01b03198116036100e557565b600080fd5b346100e5576000806003193601126100d0576101046105d6565b80546001600160a01b03198116825581906001600160a01b03167f8be0079c531659141344cd1fd0a4f28419497f9722a3daafe3b4186f6b6457e08280a380f35b600435906001600160a01b03821682036100e557565b346100e5576040806003193601126100e557610175610145565b602480359267ffffffffffffffff918285116100e557366023860112156100e55784600401359283116100e5576005943660248560051b830101116100e5576101bf9493946105d6565b6001600160a01b039093169260005b8581106101d757005b8083600192891b840101356101eb816100d3565b6001600160e01b0319166000908152602083905285902080546001600160a01b03191687179055016101ce565b346100e55760003660031901126100e5576000546040516001600160a01b039091168152602090f35b346100e55760203660031901126100e55760043561025e816100d3565b6102666105d6565b6001600160e01b031981166000908152600160205260409020546001600160a01b0316156102b6576001600160e01b031916600090815260016020526040902080546001600160a01b0319169055005b60405162461bcd60e51b815260206004820152602560248201527f506c7567696e52656769737472793a206d6574686f64206e6f742072656769736044820152641d195c995960da1b6064820152608490fd5b634e487b7160e01b600052604160045260246000fd5b6040519190601f01601f1916820167ffffffffffffffff81118382101761034557604052565b610309565b67ffffffffffffffff811161034557601f01601f191660200190565b90929192151581526020926040602083015280519081604084015260005b8281106103a657505060609293506000838284010152601f8019910116010190565b818101860151848201606001528501610384565b346100e55760203660031901126100e55760043567ffffffffffffffff81116100e557366023820112156100e55780600401356103fe6103f98261034a565b61031f565b9080825236602482850101116100e5576020816000926024610428960183860137830101526104ea565b9061043860405192839283610366565b0390f35b346100e55760203660031901126100e557610455610145565b61045d6105d6565b6001600160a01b0390811680156104ab57600080546001600160a01b03198116831782559092167f8be0079c531659141344cd1fd0a4f28419497f9722a3daafe3b4186f6b6457e08380a380f35b604051631e4fbdf760e01b815260006004820152602490fd5b3d156104e5573d906104d86103f98361034a565b9182523d6000602084013e565b606090565b600481511061059157602081019060018060a01b03610520835160e01c63ffffffff60e01b166000526001602052604060002090565b5416801561053d57600092839251915af49061053a6104c4565b90565b60405162461bcd60e51b815260206004820152602660248201527f506c7567696e52656769737472793a206d6574686f64206e6f7420696d706c656044820152651b595b9d195960d21b6064820152608490fd5b60405162461bcd60e51b815260206004820152601e60248201527f506c7567696e52656769737472793a204461746120746f6f2073686f727400006044820152606490fd5b6000546001600160a01b031633036105ea57565b60405163118cdaa760e01b8152336004820152602490fdfea2646970667358221220aa8e35ef4ec2efaf76dc3d393743fcf0cff2938b8457336b3445428ca545474364736f6c63430008190033","linkReferences":{}},"methodIdentifiers":{"delegateCall(bytes)":"da67bcc4","implement(address,bytes4[])":"87ca8f3b","implementer(bytes4)":"3bd5b8d5","owner()":"8da5cb5b","removeMethod(bytes4)":"9c004270","renounceOwnership()":"715018a6","transferOwnership(address)":"f2fde38b"},"id":87}