{"abi":[{"type":"constructor","inputs":[],"stateMutability":"nonpayable"},{"type":"function","name":"delegateCall","inputs":[{"name":"payload","type":"bytes","internalType":"bytes"}],"outputs":[{"name":"","type":"bool","internalType":"bool"},{"name":"","type":"bytes","internalType":"bytes"}],"stateMutability":"nonpayable"},{"type":"function","name":"implement","inputs":[{"name":"account","type":"address","internalType":"address"},{"name":"interfaceIds","type":"bytes4[]","internalType":"bytes4[]"}],"outputs":[],"stateMutability":"nonpayable"},{"type":"function","name":"implementer","inputs":[{"name":"","type":"bytes4","internalType":"bytes4"}],"outputs":[{"name":"","type":"address","internalType":"address"}],"stateMutability":"view"},{"type":"function","name":"owner","inputs":[],"outputs":[{"name":"","type":"address","internalType":"address"}],"stateMutability":"view"},{"type":"function","name":"removeMethod","inputs":[{"name":"interfaceId","type":"bytes4","internalType":"bytes4"}],"outputs":[],"stateMutability":"nonpayable"},{"type":"function","name":"renounceOwnership","inputs":[],"outputs":[],"stateMutability":"nonpayable"},{"type":"function","name":"transferOwnership","inputs":[{"name":"newOwner","type":"address","internalType":"address"}],"outputs":[],"stateMutability":"nonpayable"},{"type":"event","name":"OwnershipTransferred","inputs":[{"name":"previousOwner","type":"address","indexed":true,"internalType":"address"},{"name":"newOwner","type":"address","indexed":true,"internalType":"address"}],"anonymous":false},{"type":"error","name":"OwnableInvalidOwner","inputs":[{"name":"owner","type":"address","internalType":"address"}]},{"type":"error","name":"OwnableUnauthorizedAccount","inputs":[{"name":"account","type":"address","internalType":"address"}]}],"bytecode":{"object":"0x6080604052348015600f57600080fd5b503380603557604051631e4fbdf760e01b81526000600482015260240160405180910390fd5b603c816041565b506091565b600080546001600160a01b038381166001600160a01b0319831681178455604051919092169283917f8be0079c531659141344cd1fd0a4f28419497f9722a3daafe3b4186f6b6457e09190a35050565b61071a806100a06000396000f3fe608060405234801561001057600080fd5b506004361061007d5760003560e01c80638da5cb5b1161005b5780638da5cb5b146100e55780639c004270146100f6578063da67bcc414610109578063f2fde38b1461012a57600080fd5b80633bd5b8d514610082578063715018a6146100c857806387ca8f3b146100d2575b600080fd5b6100ab61009036600461049d565b6001602052600090815260409020546001600160a01b031681565b6040516001600160a01b0390911681526020015b60405180910390f35b6100d061013d565b005b6100d06100e03660046104ea565b610151565b6000546001600160a01b03166100ab565b6100d061010436600461049d565b6101d6565b61011c610117366004610586565b610288565b6040516100bf92919061065b565b6100d0610138366004610697565b610383565b6101456103c1565b61014f60006103ee565b565b6101596103c1565b60005b818110156101d057836001600085858581811061017b5761017b6106b2565b9050602002016020810190610190919061049d565b6001600160e01b0319168152602081019190915260400160002080546001600160a01b0319166001600160a01b039290921691909117905560010161015c565b50505050565b6101de6103c1565b6001600160e01b031981166000908152600160205260409020546001600160a01b03166102605760405162461bcd60e51b815260206004820152602560248201527f506c7567696e52656769737472793a206d6574686f64206e6f742072656769736044820152641d195c995960da1b60648201526084015b60405180910390fd5b6001600160e01b031916600090815260016020526040902080546001600160a01b0319169055565b6000606060006102978461043e565b6001600160e01b031981166000908152600160205260409020549091506001600160a01b0316806103195760405162461bcd60e51b815260206004820152602660248201527f506c7567696e52656769737472793a206d6574686f64206e6f7420696d706c656044820152651b595b9d195960d21b6064820152608401610257565b600080826001600160a01b03168760405161033491906106c8565b600060405180830381855af49150503d806000811461036f576040519150601f19603f3d011682016040523d82523d6000602084013e610374565b606091505b50909890975095505050505050565b61038b6103c1565b6001600160a01b0381166103b557604051631e4fbdf760e01b815260006004820152602401610257565b6103be816103ee565b50565b6000546001600160a01b0316331461014f5760405163118cdaa760e01b8152336004820152602401610257565b600080546001600160a01b038381166001600160a01b0319831681178455604051919092169283917f8be0079c531659141344cd1fd0a4f28419497f9722a3daafe3b4186f6b6457e09190a35050565b60006004825110156104925760405162461bcd60e51b815260206004820152601e60248201527f506c7567696e52656769737472793a204461746120746f6f2073686f727400006044820152606401610257565b506020015160e01c90565b6000602082840312156104af57600080fd5b81356001600160e01b0319811681146104c757600080fd5b9392505050565b80356001600160a01b03811681146104e557600080fd5b919050565b6000806000604084860312156104ff57600080fd5b610508846104ce565b9250602084013567ffffffffffffffff8082111561052557600080fd5b818601915086601f83011261053957600080fd5b81358181111561054857600080fd5b8760208260051b850101111561055d57600080fd5b6020830194508093505050509250925092565b634e487b7160e01b600052604160045260246000fd5b60006020828403121561059857600080fd5b813567ffffffffffffffff808211156105b057600080fd5b818401915084601f8301126105c457600080fd5b8135818111156105d6576105d6610570565b604051601f8201601f19908116603f011681019083821181831017156105fe576105fe610570565b8160405282815287602084870101111561061757600080fd5b826020860160208301376000928101602001929092525095945050505050565b60005b8381101561065257818101518382015260200161063a565b50506000910152565b82151581526040602082015260008251806040840152610682816060850160208701610637565b601f01601f1916919091016060019392505050565b6000602082840312156106a957600080fd5b6104c7826104ce565b634e487b7160e01b600052603260045260246000fd5b600082516106da818460208701610637565b919091019291505056fea26469706673582212205aca02ac5dff19b74eb1fe3904bf7f0431bcd055b306af2123d7967d5ab7947d64736f6c63430008190033","linkReferences":{}},"methodIdentifiers":{"delegateCall(bytes)":"da67bcc4","implement(address,bytes4[])":"87ca8f3b","implementer(bytes4)":"3bd5b8d5","owner()":"8da5cb5b","removeMethod(bytes4)":"9c004270","renounceOwnership()":"715018a6","transferOwnership(address)":"f2fde38b"},"id":85}