{"abi":[{"type":"function","name":"isKeyImageUsed","inputs":[{"name":"keyImage","type":"bytes32","internalType":"bytes32"}],"outputs":[{"name":"","type":"bool","internalType":"bool"}],"stateMutability":"view"},{"type":"function","name":"markUsed","inputs":[{"name":"keyImage","type":"bytes32","internalType":"bytes32"}],"outputs":[],"stateMutability":"nonpayable"},{"type":"function","name":"usedKeyImages","inputs":[{"name":"","type":"bytes32","internalType":"bytes32"}],"outputs":[{"name":"","type":"bool","internalType":"bool"}],"stateMutability":"view"},{"type":"event","name":"KeyImageUsed","inputs":[{"name":"keyImage","type":"bytes32","indexed":true,"internalType":"bytes32"}],"anonymous":false}],"bytecode":{"object":"0x60808060405234601557610175908161001b8239f35b600080fdfe60806040818152600436101561001457600080fd5b600091823560e01c908163356997421461011157508063e21e9e0e146100725763e287a41a1461004357600080fd5b3461006e57602036600319011261006e5760ff81602093600435815280855220541690519015158152f35b5080fd5b503461006e57602036600319011261006e57600435908183528260205260ff81842054166100d557818352826020528220600160ff198254161790557f96255f06834214572ad56e8836a76e94c9830424a60a72b5de2bfa85698c3ab08280a280f35b5162461bcd60e51b815260206004820152601660248201527512d95e481a5b5859d948185b1c9958591e481d5cd95960521b6044820152606490fd5b9190503461013b57602036600319011261013b576004358352602083815292205460ff1615158152f35b8280fdfea26469706673582212208d904c163fb53022c7b422729904cf807863ba585f61fa51995f0bc3c2955caa64736f6c63430008190033","linkReferences":{}},"methodIdentifiers":{"isKeyImageUsed(bytes32)":"35699742","markUsed(bytes32)":"e21e9e0e","usedKeyImages(bytes32)":"e287a41a"},"id":46}