{"abi":[{"type":"constructor","inputs":[{"name":"initialOwner","type":"address","internalType":"address"}],"stateMutability":"nonpayable"},{"type":"function","name":"DOMAIN_SEPARATOR","inputs":[],"outputs":[{"name":"","type":"bytes32","internalType":"bytes32"}],"stateMutability":"view"},{"type":"function","name":"allowance","inputs":[{"name":"owner","type":"address","internalType":"address"},{"name":"spender","type":"address","internalType":"address"}],"outputs":[{"name":"","type":"uint256","internalType":"uint256"}],"stateMutability":"view"},{"type":"function","name":"approve","inputs":[{"name":"spender","type":"address","internalType":"address"},{"name":"value","type":"uint256","internalType":"uint256"}],"outputs":[{"name":"","type":"bool","internalType":"bool"}],"stateMutability":"nonpayable"},{"type":"function","name":"balanceOf","inputs":[{"name":"account","type":"address","internalType":"address"}],"outputs":[{"name":"","type":"uint256","internalType":"uint256"}],"stateMutability":"view"},{"type":"function","name":"burn","inputs":[{"name":"value","type":"uint256","internalType":"uint256"}],"outputs":[],"stateMutability":"nonpayable"},{"type":"function","name":"burnFrom","inputs":[{"name":"account","type":"address","internalType":"address"},{"name":"value","type":"uint256","internalType":"uint256"}],"outputs":[],"stateMutability":"nonpayable"},{"type":"function","name":"decimals","inputs":[],"outputs":[{"name":"","type":"uint8","internalType":"uint8"}],"stateMutability":"view"},{"type":"function","name":"eip712Domain","inputs":[],"outputs":[{"name":"fields","type":"bytes1","internalType":"bytes1"},{"name":"name","type":"string","internalType":"string"},{"name":"version","type":"string","internalType":"string"},{"name":"chainId","type":"uint256","internalType":"uint256"},{"name":"verifyingContract","type":"address","internalType":"address"},{"name":"salt","type":"bytes32","internalType":"bytes32"},{"name":"extensions","type":"uint256[]","internalType":"uint256[]"}],"stateMutability":"view"},{"type":"function","name":"mint","inputs":[{"name":"to","type":"address","internalType":"address"},{"name":"amount","type":"uint256","internalType":"uint256"}],"outputs":[],"stateMutability":"nonpayable"},{"type":"function","name":"name","inputs":[],"outputs":[{"name":"","type":"string","internalType":"string"}],"stateMutability":"view"},{"type":"function","name":"nonces","inputs":[{"name":"owner","type":"address","internalType":"address"}],"outputs":[{"name":"","type":"uint256","internalType":"uint256"}],"stateMutability":"view"},{"type":"function","name":"owner","inputs":[],"outputs":[{"name":"","type":"address","internalType":"address"}],"stateMutability":"view"},{"type":"function","name":"permit","inputs":[{"name":"owner","type":"address","internalType":"address"},{"name":"spender","type":"address","internalType":"address"},{"name":"value","type":"uint256","internalType":"uint256"},{"name":"deadline","type":"uint256","internalType":"uint256"},{"name":"v","type":"uint8","internalType":"uint8"},{"name":"r","type":"bytes32","internalType":"bytes32"},{"name":"s","type":"bytes32","internalType":"bytes32"}],"outputs":[],"stateMutability":"nonpayable"},{"type":"function","name":"renounceOwnership","inputs":[],"outputs":[],"stateMutability":"nonpayable"},{"type":"function","name":"symbol","inputs":[],"outputs":[{"name":"","type":"string","internalType":"string"}],"stateMutability":"view"},{"type":"function","name":"totalSupply","inputs":[],"outputs":[{"name":"","type":"uint256","internalType":"uint256"}],"stateMutability":"view"},{"type":"function","name":"transfer","inputs":[{"name":"to","type":"address","internalType":"address"},{"name":"value","type":"uint256","internalType":"uint256"}],"outputs":[{"name":"","type":"bool","internalType":"bool"}],"stateMutability":"nonpayable"},{"type":"function","name":"transferFrom","inputs":[{"name":"from","type":"address","internalType":"address"},{"name":"to","type":"address","internalType":"address"},{"name":"value","type":"uint256","internalType":"uint256"}],"outputs":[{"name":"","type":"bool","internalType":"bool"}],"stateMutability":"nonpayable"},{"type":"function","name":"transferOwnership","inputs":[{"name":"newOwner","type":"address","internalType":"address"}],"outputs":[],"stateMutability":"nonpayable"},{"type":"event","name":"Approval","inputs":[{"name":"owner","type":"address","indexed":true,"internalType":"address"},{"name":"spender","type":"address","indexed":true,"internalType":"address"},{"name":"value","type":"uint256","indexed":false,"internalType":"uint256"}],"anonymous":false},{"type":"event","name":"EIP712DomainChanged","inputs":[],"anonymous":false},{"type":"event","name":"OwnershipTransferred","inputs":[{"name":"previousOwner","type":"address","indexed":true,"internalType":"address"},{"name":"newOwner","type":"address","indexed":true,"internalType":"address"}],"anonymous":false},{"type":"event","name":"Transfer","inputs":[{"name":"from","type":"address","indexed":true,"internalType":"address"},{"name":"to","type":"address","indexed":true,"internalType":"address"},{"name":"value","type":"uint256","indexed":false,"internalType":"uint256"}],"anonymous":false},{"type":"error","name":"ECDSAInvalidSignature","inputs":[]},{"type":"error","name":"ECDSAInvalidSignatureLength","inputs":[{"name":"length","type":"uint256","internalType":"uint256"}]},{"type":"error","name":"ECDSAInvalidSignatureS","inputs":[{"name":"s","type":"bytes32","internalType":"bytes32"}]},{"type":"error","name":"ERC20InsufficientAllowance","inputs":[{"name":"spender","type":"address","internalType":"address"},{"name":"allowance","type":"uint256","internalType":"uint256"},{"name":"needed","type":"uint256","internalType":"uint256"}]},{"type":"error","name":"ERC20InsufficientBalance","inputs":[{"name":"sender","type":"address","internalType":"address"},{"name":"balance","type":"uint256","internalType":"uint256"},{"name":"needed","type":"uint256","internalType":"uint256"}]},{"type":"error","name":"ERC20InvalidApprover","inputs":[{"name":"approver","type":"address","internalType":"address"}]},{"type":"error","name":"ERC20InvalidReceiver","inputs":[{"name":"receiver","type":"address","internalType":"address"}]},{"type":"error","name":"ERC20InvalidSender","inputs":[{"name":"sender","type":"address","internalType":"address"}]},{"type":"error","name":"ERC20InvalidSpender","inputs":[{"name":"spender","type":"address","internalType":"address"}]},{"type":"error","name":"ERC2612ExpiredSignature","inputs":[{"name":"deadline","type":"uint256","internalType":"uint256"}]},{"type":"error","name":"ERC2612InvalidSigner","inputs":[{"name":"signer","type":"address","internalType":"address"},{"name":"owner","type":"address","internalType":"address"}]},{"type":"error","name":"InvalidAccountNonce","inputs":[{"name":"account","type":"address","internalType":"address"},{"name":"currentNonce","type":"uint256","internalType":"uint256"}]},{"type":"error","name":"InvalidShortString","inputs":[]},{"type":"error","name":"OwnableInvalidOwner","inputs":[{"name":"owner","type":"address","internalType":"address"}]},{"type":"error","name":"OwnableUnauthorizedAccount","inputs":[{"name":"account","type":"address","internalType":"address"}]},{"type":"error","name":"StringTooLong","inputs":[{"name":"str","type":"string","internalType":"string"}]}],"bytecode":{"object":"0x6101603461050057601f6119c238819003918201601f19168301916001600160401b038311848410176102eb5780849260209460405283398101031261050057516001600160a01b0381168103610500576040519061005d82610505565b600782526626bcaa37b5b2b760c91b908160208401526040519161008083610505565b6007835260208301526040519261009684610505565b60038452624d544b60e81b6020850152604051926100b384610505565b60018452603160f81b60208501528051906001600160401b0382116102eb5760035490600182811c921680156104f6575b60208310146103d55781601f849311610486575b50602090601f8311600114610400576000926103f5575b50508160011b916000199060031b1c1916176003555b83516001600160401b0381116102eb57600454600181811c911680156103eb575b60208210146103d557601f8111610374575b50602094601f821160011461030c57948192939495600092610301575b50508160011b916000199060031b1c1916176004555b61019481610520565b6101209081526101a3846106d0565b9161014092835260208151910120938460e0526020815191012093610100948086524660a0526040519060208201927f8b73c3c69bb8fe3d512ecc4cf759cc79239f7b179b0ffacaa9a75d522b39400f8452604083015260608201524660808201523060a082015260a0815260c081019181831060018060401b038411176102eb576040839052815190206080523060c0526001600160a01b038516156102d4575050600880546001600160a01b039485166001600160a01b03198216811790925560405194167f8be0079c531659141344cd1fd0a4f28419497f9722a3daafe3b4186f6b6457e0600080a361114d9384610875853960805184610bee015260a05184610cba015260c05184610bb8015260e05184610c3d01525183610c630152518261049b015251816104c50152f35b631e4fbdf760e01b8252600060c490910152602490fd5b634e487b7160e01b600052604160045260246000fd5b015190503880610175565b601f19821695600460005260206000209160005b88811061035c57508360019596979810610343575b505050811b0160045561018b565b015160001960f88460031b161c19169055388080610335565b91926020600181928685015181550194019201610320565b60046000527f8a35acfbc15ff81a39ae7d344fd709f28e8600b4aa8c65c6b64bfe7fe36bd19b601f830160051c8101602084106103ce575b601f830160051c820181106103c2575050610158565b600081556001016103ac565b50806103ac565b634e487b7160e01b600052602260045260246000fd5b90607f1690610146565b01519050388061010f565b600360009081527fc2575a0e9e593c00f959f8c92f12db2869c3395a3b0502d05e2516446f71f85b9350601f198516905b81811061046e5750908460019594939210610455575b505050811b01600355610125565b015160001960f88460031b161c19169055388080610447565b92936020600181928786015181550195019301610431565b60036000529091507fc2575a0e9e593c00f959f8c92f12db2869c3395a3b0502d05e2516446f71f85b601f840160051c810191602085106104ec575b90601f859493920160051c01905b8181106104dd57506100f8565b600081558493506001016104d0565b90915081906104c2565b91607f16916100e4565b600080fd5b604081019081106001600160401b038211176102eb57604052565b805160209190828110156105ba575090601f82511161055b578082519201519080831061054c57501790565b82600019910360031b1b161790565b90604051809263305a27a960e01b82528060048301528251908160248401526000935b8285106105a1575050604492506000838284010152601f80199101168101030190fd5b848101820151868601604401529381019385935061057e565b6001600160401b0381116102eb576005928354926001938481811c911680156106c6575b838210146103d557601f8111610692575b5081601f841160011461062c5750928293918392600094610621575b50501b916000199060031b1c191617905560ff90565b01519250388061060b565b919083601f1981168760005284600020946000905b88838310610678575050501061065f575b505050811b01905560ff90565b015160001960f88460031b161c19169055388080610652565b858701518855909601959485019487935090810190610641565b8560005284601f846000209201871c820191601f8601881c015b8281106106ba5750506105ef565b600081550185906106ac565b90607f16906105de565b8051602090818110156107595750601f8251116106fa578082519201519080831061054c57501790565b90604051809263305a27a960e01b82528060048301528251908160248401526000935b828510610740575050604492506000838284010152601f80199101168101030190fd5b848101820151868601604401529381019385935061071d565b906001600160401b0382116102eb57600654926001938481811c9116801561086a575b838210146103d557601f8111610833575b5081601f84116001146107cb57509282939183926000946107c0575b50501b916000199060031b1c19161760065560ff90565b0151925038806107a9565b919083601f198116600660005284600020946000905b888383106108195750505010610800575b505050811b0160065560ff90565b015160001960f88460031b161c191690553880806107f2565b8587015188559096019594850194879350908101906107e1565b600660005284601f84600020920160051c820191601f860160051c015b82811061085e57505061078d565b60008155018590610850565b90607f169061077c56fe6080604081815260048036101561001557600080fd5b600092833560e01c90816306fdde031461082d57508063095ea7b31461080357806318160ddd146107e457806323b872dd146107a7578063313ce5671461078b5780633644e5151461076757806340c10f19146106c057806342966c68146106a257806370a082311461066b578063715018a61461060e57806379cc6790146105db5780637ecebe00146105a357806384b0196e146104845780638da5cb5b1461045b57806395d89b411461036c578063a9059cbb1461033b578063d505accf146101d3578063dd62ed3e146101865763f2fde38b146100f457600080fd5b346101825760203660031901126101825761010d610945565b90610116610d7f565b6001600160a01b0391821692831561016c575050600854826bffffffffffffffffffffffff60a01b821617600855167f8be0079c531659141344cd1fd0a4f28419497f9722a3daafe3b4186f6b6457e08380a380f35b51631e4fbdf760e01b8152908101849052602490fd5b8280fd5b5050346101cf57806003193601126101cf57806020926101a4610945565b6101ac610960565b6001600160a01b0391821683526001865283832091168252845220549051908152f35b5080fd5b508290346101cf5760e03660031901126101cf576101ef610945565b6101f7610960565b906044359260643560843560ff81168103610337578142116103205760018060a01b0390818516928389526007602052898920908154916001830190558a519060208201927f6e71edae12b1b97f4d1f60370fef10105fa2faae0126114a169c64845d6126c98452868d840152858a1660608401528a608084015260a083015260c082015260c0815260e0810181811067ffffffffffffffff82111761030d578b525190206102db916102d2916102ac610bb5565b908c519161190160f01b83526002830152602282015260c43591604260a4359220611002565b90929192611092565b168181036102f257866102ef878787610dab565b80f35b87516325c0072360e11b815292830152602482015260449150fd5b634e487b7160e01b8b526041875260248bfd5b875163313c898160e11b8152808401839052602490fd5b8680fd5b5050346101cf57806003193601126101cf5760209061036561035b610945565b6024359033610ad7565b5160018152f35b509034610182578260031936011261018257805183819490845461038f81610976565b91828552602096600192886001821691826000146104315750506001146103d6575b85886103d2896103c3848a03856109e2565b51928284938452830190610905565b0390f35b815286935091907f8a35acfbc15ff81a39ae7d344fd709f28e8600b4aa8c65c6b64bfe7fe36bd19b5b82841061041957505050820101816103c36103d2386103b1565b8054848a0186015288955087949093019281016103ff565b60ff19168882015294151560051b870190940194508593506103c392506103d291503890506103b1565b5050346101cf57816003193601126101cf5760085490516001600160a01b039091168152602090f35b5090346101825782600319360112610182576104bf7f0000000000000000000000000000000000000000000000000000000000000000610e3e565b926104e97f0000000000000000000000000000000000000000000000000000000000000000610f42565b90825192602092602085019585871067ffffffffffffffff8811176105905750926020610546838896610539998b9996528686528151998a99600f60f81b8b5260e0868c015260e08b0190610905565b91898303908a0152610905565b924660608801523060808801528460a088015286840360c088015251928381520193925b82811061057957505050500390f35b83518552869550938101939281019260010161056a565b634e487b7160e01b845260419052602483fd5b5050346101cf5760203660031901126101cf5760209181906001600160a01b036105cb610945565b1681526007845220549051908152f35b5050346101cf5736600319011261060b576102ef6105f7610945565b60243590610606823383610a04565b610ce0565b80fd5b833461060b578060031936011261060b57610627610d7f565b600880546001600160a01b0319811690915581906001600160a01b03167f8be0079c531659141344cd1fd0a4f28419497f9722a3daafe3b4186f6b6457e08280a380f35b5050346101cf5760203660031901126101cf5760209181906001600160a01b03610693610945565b16815280845220549051908152f35b8382346101cf5760203660031901126101cf576102ef903533610ce0565b5090346101825780600319360112610182576106da610945565b6001600160a01b03169160243591908315610752576002549083820180921161073f575084927fddf252ad1be2c89b69c2b068fc378daa952ba7f163c4a11628f55a4df523b3ef9260209260025585855284835280852082815401905551908152a380f35b634e487b7160e01b865260119052602485fd5b84602492519163ec442f0560e01b8352820152fd5b5050346101cf57816003193601126101cf57602090610784610bb5565b9051908152f35b5050346101cf57816003193601126101cf576020905160128152f35b5050346101cf5760603660031901126101cf576020906103656107c8610945565b6107d0610960565b604435916107df833383610a04565b610ad7565b5050346101cf57816003193601126101cf576020906002549051908152f35b5050346101cf57806003193601126101cf57602090610365610823610945565b6024359033610dab565b8484346101cf57816003193601126101cf57828260035461084d81610976565b90818452602095600191876001821691826000146108de575050600114610882575b5050506103d292916103c39103856109e2565b9190869350600383527fc2575a0e9e593c00f959f8c92f12db2869c3395a3b0502d05e2516446f71f85b5b8284106108c657505050820101816103c36103d261086f565b8054848a0186015288955087949093019281016108ad565b60ff19168782015293151560051b860190930193508492506103c391506103d2905061086f565b919082519283825260005b848110610931575050826000602080949584010152601f8019910116010190565b602081830181015184830182015201610910565b600435906001600160a01b038216820361095b57565b600080fd5b602435906001600160a01b038216820361095b57565b90600182811c921680156109a6575b602083101461099057565b634e487b7160e01b600052602260045260246000fd5b91607f1691610985565b6040810190811067ffffffffffffffff8211176109cc57604052565b634e487b7160e01b600052604160045260246000fd5b90601f8019910116810190811067ffffffffffffffff8211176109cc57604052565b9160018060a01b038093169160009383855260016020526040938486209183169182875260205284862054926000198403610a43575b50505050505050565b848410610aa757508015610a8f578115610a7757855260016020528385209085526020520391205538808080808080610a3a565b8451634a1406b160e11b815260048101879052602490fd5b845163e602df0560e01b815260048101879052602490fd5b8551637dc7a0d960e11b81526001600160a01b039190911660048201526024810184905260448101859052606490fd5b916001600160a01b03808416928315610b9c5716928315610b835760009083825281602052604082205490838210610b51575091604082827fddf252ad1be2c89b69c2b068fc378daa952ba7f163c4a11628f55a4df523b3ef958760209652828652038282205586815220818154019055604051908152a3565b60405163391434e360e21b81526001600160a01b03919091166004820152602481019190915260448101839052606490fd5b60405163ec442f0560e01b815260006004820152602490fd5b604051634b637e8f60e11b815260006004820152602490fd5b307f00000000000000000000000000000000000000000000000000000000000000006001600160a01b03161480610cb7575b15610c10577f000000000000000000000000000000000000000000000000000000000000000090565b60405160208101907f8b73c3c69bb8fe3d512ecc4cf759cc79239f7b179b0ffacaa9a75d522b39400f82527f000000000000000000000000000000000000000000000000000000000000000060408201527f000000000000000000000000000000000000000000000000000000000000000060608201524660808201523060a082015260a0815260c0810181811067ffffffffffffffff8211176109cc5760405251902090565b507f00000000000000000000000000000000000000000000000000000000000000004614610be7565b906001600160a01b038216908115610b9c5760009282845283602052604084205490828210610d4d5750817fddf252ad1be2c89b69c2b068fc378daa952ba7f163c4a11628f55a4df523b3ef926020928587528684520360408620558060025403600255604051908152a3565b60405163391434e360e21b81526001600160a01b03919091166004820152602481019190915260448101829052606490fd5b6008546001600160a01b03163303610d9357565b60405163118cdaa760e01b8152336004820152602490fd5b6001600160a01b03908116918215610e255716918215610e0c5760207f8c5be1e5ebec7d5bd14f71427d1e84f3dd0314c0f7b2291e5b200ac8c7c3b925918360005260018252604060002085600052825280604060002055604051908152a3565b604051634a1406b160e11b815260006004820152602490fd5b60405163e602df0560e01b815260006004820152602490fd5b60ff8114610e7c5760ff811690601f8211610e6a5760405191610e60836109b0565b8252602082015290565b604051632cd44ac360e21b8152600490fd5b50604051600554816000610e8f83610976565b80835292602090600190818116908115610f1e5750600114610ebd575b5050610eba925003826109e2565b90565b91509260056000527f036b6384b5eca791c62761152d0c79bb0604c104a5fb6f4eb0703f3154bb3db0936000925b828410610f065750610eba9450505081016020013880610eac565b85548785018301529485019486945092810192610eeb565b91505060209250610eba94915060ff191682840152151560051b8201013880610eac565b60ff8114610f645760ff811690601f8211610e6a5760405191610e60836109b0565b50604051600654816000610f7783610976565b80835292602090600190818116908115610f1e5750600114610fa1575050610eba925003826109e2565b91509260066000527ff652222313e28459528d920b65115c16c04f3efc82aaedc97be59f3f377c0d3f936000925b828410610fea5750610eba9450505081016020013880610eac565b85548785018301529485019486945092810192610fcf565b91907f7fffffffffffffffffffffffffffffff5d576e7357a4501ddfe92f46681b20a0841161108657926020929160ff608095604051948552168484015260408301526060820152600092839182805260015afa1561107a5780516001600160a01b0381161561107157918190565b50809160019190565b604051903d90823e3d90fd5b50505060009160039190565b600481101561110157806110a4575050565b600181036110be5760405163f645eedf60e01b8152600490fd5b600281036110df5760405163fce698f760e01b815260048101839052602490fd5b6003146110e95750565b602490604051906335e2f38360e21b82526004820152fd5b634e487b7160e01b600052602160045260246000fdfea2646970667358221220baeafaec8ef9482912cf9c547744b17cea664b86c33b98979301b39f3723617e64736f6c63430008190033","linkReferences":{}},"methodIdentifiers":{"DOMAIN_SEPARATOR()":"3644e515","allowance(address,address)":"dd62ed3e","approve(address,uint256)":"095ea7b3","balanceOf(address)":"70a08231","burn(uint256)":"42966c68","burnFrom(address,uint256)":"79cc6790","decimals()":"313ce567","eip712Domain()":"84b0196e","mint(address,uint256)":"40c10f19","name()":"06fdde03","nonces(address)":"7ecebe00","owner()":"8da5cb5b","permit(address,address,uint256,uint256,uint8,bytes32,bytes32)":"d505accf","renounceOwnership()":"715018a6","symbol()":"95d89b41","totalSupply()":"18160ddd","transfer(address,uint256)":"a9059cbb","transferFrom(address,address,uint256)":"23b872dd","transferOwnership(address)":"f2fde38b"},"id":107}